{
  "_format": "hh-sol-artifact-1",
  "contractName": "Schain",
  "sourceName": "contracts/Schain.sol",
  "abi": [
    {
      "inputs": [],
      "stateMutability": "nonpayable",
      "type": "constructor"
    },
    {
      "anonymous": false,
      "inputs": [
        {
          "indexed": true,
          "internalType": "uint256",
          "name": "id",
          "type": "uint256"
        },
        {
          "indexed": false,
          "internalType": "address",
          "name": "owner",
          "type": "address"
        },
        {
          "indexed": false,
          "internalType": "string",
          "name": "product",
          "type": "string"
        },
        {
          "indexed": false,
          "internalType": "uint256",
          "name": "quantity",
          "type": "uint256"
        },
        {
          "indexed": false,
          "internalType": "uint256",
          "name": "orderdate",
          "type": "uint256"
        },
        {
          "indexed": false,
          "internalType": "uint256",
          "name": "price",
          "type": "uint256"
        },
        {
          "indexed": false,
          "internalType": "string",
          "name": "addressLine",
          "type": "string"
        },
        {
          "indexed": false,
          "internalType": "string",
          "name": "contact",
          "type": "string"
        },
        {
          "indexed": false,
          "internalType": "string",
          "name": "city",
          "type": "string"
        },
        {
          "indexed": false,
          "internalType": "string",
          "name": "review",
          "type": "string"
        },
        {
          "indexed": false,
          "internalType": "string",
          "name": "zipcode",
          "type": "string"
        },
        {
          "indexed": false,
          "internalType": "string",
          "name": "state",
          "type": "string"
        },
        {
          "indexed": false,
          "internalType": "uint256",
          "name": "recievedate",
          "type": "uint256"
        },
        {
          "indexed": false,
          "internalType": "uint256",
          "name": "confirmdate",
          "type": "uint256"
        },
        {
          "indexed": false,
          "internalType": "uint256",
          "name": "producedate",
          "type": "uint256"
        },
        {
          "indexed": false,
          "internalType": "uint256",
          "name": "testdate",
          "type": "uint256"
        },
        {
          "indexed": false,
          "internalType": "uint256",
          "name": "transportdate",
          "type": "uint256"
        },
        {
          "indexed": false,
          "internalType": "bool",
          "name": "pending",
          "type": "bool"
        },
        {
          "indexed": false,
          "internalType": "bool",
          "name": "returned",
          "type": "bool"
        },
        {
          "indexed": false,
          "internalType": "bool",
          "name": "confirmed",
          "type": "bool"
        },
        {
          "indexed": false,
          "internalType": "bool",
          "name": "produced",
          "type": "bool"
        },
        {
          "indexed": false,
          "internalType": "bool",
          "name": "tested",
          "type": "bool"
        },
        {
          "indexed": false,
          "internalType": "bool",
          "name": "transported",
          "type": "bool"
        },
        {
          "indexed": false,
          "internalType": "bool",
          "name": "recieved",
          "type": "bool"
        }
      ],
      "name": "AddOrder",
      "type": "event"
    },
    {
      "anonymous": false,
      "inputs": [
        {
          "indexed": false,
          "internalType": "string",
          "name": "role",
          "type": "string"
        },
        {
          "indexed": false,
          "internalType": "address",
          "name": "roleaddress",
          "type": "address"
        }
      ],
      "name": "RoleAdded",
      "type": "event"
    },
    {
      "inputs": [
        {
          "internalType": "string",
          "name": "_product",
          "type": "string"
        },
        {
          "internalType": "uint256",
          "name": "_quantity",
          "type": "uint256"
        },
        {
          "internalType": "string",
          "name": "_addressline",
          "type": "string"
        },
        {
          "internalType": "string",
          "name": "_contact",
          "type": "string"
        },
        {
          "internalType": "string",
          "name": "_city",
          "type": "string"
        },
        {
          "internalType": "string",
          "name": "_zipcode",
          "type": "string"
        },
        {
          "internalType": "string",
          "name": "_state",
          "type": "string"
        }
      ],
      "name": "addOrderItem",
      "outputs": [],
      "stateMutability": "payable",
      "type": "function"
    },
    {
      "inputs": [
        {
          "internalType": "uint256",
          "name": "_id",
          "type": "uint256"
        },
        {
          "internalType": "string",
          "name": "_review",
          "type": "string"
        }
      ],
      "name": "addReveiw",
      "outputs": [],
      "stateMutability": "nonpayable",
      "type": "function"
    },
    {
      "inputs": [
        {
          "internalType": "string",
          "name": "_role",
          "type": "string"
        },
        {
          "internalType": "address",
          "name": "_roleaddress",
          "type": "address"
        }
      ],
      "name": "addRole",
      "outputs": [],
      "stateMutability": "payable",
      "type": "function"
    },
    {
      "inputs": [
        {
          "internalType": "uint256",
          "name": "_id",
          "type": "uint256"
        },
        {
          "internalType": "string",
          "name": "_role",
          "type": "string"
        }
      ],
      "name": "confrimOrder",
      "outputs": [],
      "stateMutability": "nonpayable",
      "type": "function"
    },
    {
      "inputs": [
        {
          "internalType": "uint256",
          "name": "_amountInUsd",
          "type": "uint256"
        }
      ],
      "name": "convertEthUsd",
      "outputs": [
        {
          "internalType": "uint256",
          "name": "",
          "type": "uint256"
        }
      ],
      "stateMutability": "view",
      "type": "function"
    },
    {
      "inputs": [],
      "name": "fetchMyCustomers",
      "outputs": [
        {
          "components": [
            {
              "internalType": "uint256",
              "name": "id",
              "type": "uint256"
            },
            {
              "internalType": "address",
              "name": "owner",
              "type": "address"
            },
            {
              "internalType": "string",
              "name": "product",
              "type": "string"
            },
            {
              "internalType": "uint256",
              "name": "quantity",
              "type": "uint256"
            },
            {
              "internalType": "uint256",
              "name": "orderdate",
              "type": "uint256"
            },
            {
              "internalType": "uint256",
              "name": "price",
              "type": "uint256"
            },
            {
              "internalType": "string",
              "name": "addressLine",
              "type": "string"
            },
            {
              "internalType": "string",
              "name": "contact",
              "type": "string"
            },
            {
              "internalType": "string",
              "name": "city",
              "type": "string"
            },
            {
              "internalType": "string",
              "name": "review",
              "type": "string"
            },
            {
              "internalType": "string",
              "name": "zipcode",
              "type": "string"
            },
            {
              "internalType": "string",
              "name": "state",
              "type": "string"
            },
            {
              "internalType": "uint256",
              "name": "recievedate",
              "type": "uint256"
            },
            {
              "internalType": "uint256",
              "name": "confirmdate",
              "type": "uint256"
            },
            {
              "internalType": "uint256",
              "name": "producedate",
              "type": "uint256"
            },
            {
              "internalType": "uint256",
              "name": "testdate",
              "type": "uint256"
            },
            {
              "internalType": "uint256",
              "name": "transportdate",
              "type": "uint256"
            },
            {
              "internalType": "bool",
              "name": "pending",
              "type": "bool"
            },
            {
              "internalType": "bool",
              "name": "returned",
              "type": "bool"
            },
            {
              "internalType": "bool",
              "name": "confirmed",
              "type": "bool"
            },
            {
              "internalType": "bool",
              "name": "produced",
              "type": "bool"
            },
            {
              "internalType": "bool",
              "name": "tested",
              "type": "bool"
            },
            {
              "internalType": "bool",
              "name": "transported",
              "type": "bool"
            },
            {
              "internalType": "bool",
              "name": "recieved",
              "type": "bool"
            }
          ],
          "internalType": "struct Schain.OrderItem[]",
          "name": "",
          "type": "tuple[]"
        }
      ],
      "stateMutability": "view",
      "type": "function"
    },
    {
      "inputs": [],
      "name": "fetchMyOrders",
      "outputs": [
        {
          "components": [
            {
              "internalType": "uint256",
              "name": "id",
              "type": "uint256"
            },
            {
              "internalType": "address",
              "name": "owner",
              "type": "address"
            },
            {
              "internalType": "string",
              "name": "product",
              "type": "string"
            },
            {
              "internalType": "uint256",
              "name": "quantity",
              "type": "uint256"
            },
            {
              "internalType": "uint256",
              "name": "orderdate",
              "type": "uint256"
            },
            {
              "internalType": "uint256",
              "name": "price",
              "type": "uint256"
            },
            {
              "internalType": "string",
              "name": "addressLine",
              "type": "string"
            },
            {
              "internalType": "string",
              "name": "contact",
              "type": "string"
            },
            {
              "internalType": "string",
              "name": "city",
              "type": "string"
            },
            {
              "internalType": "string",
              "name": "review",
              "type": "string"
            },
            {
              "internalType": "string",
              "name": "zipcode",
              "type": "string"
            },
            {
              "internalType": "string",
              "name": "state",
              "type": "string"
            },
            {
              "internalType": "uint256",
              "name": "recievedate",
              "type": "uint256"
            },
            {
              "internalType": "uint256",
              "name": "confirmdate",
              "type": "uint256"
            },
            {
              "internalType": "uint256",
              "name": "producedate",
              "type": "uint256"
            },
            {
              "internalType": "uint256",
              "name": "testdate",
              "type": "uint256"
            },
            {
              "internalType": "uint256",
              "name": "transportdate",
              "type": "uint256"
            },
            {
              "internalType": "bool",
              "name": "pending",
              "type": "bool"
            },
            {
              "internalType": "bool",
              "name": "returned",
              "type": "bool"
            },
            {
              "internalType": "bool",
              "name": "confirmed",
              "type": "bool"
            },
            {
              "internalType": "bool",
              "name": "produced",
              "type": "bool"
            },
            {
              "internalType": "bool",
              "name": "tested",
              "type": "bool"
            },
            {
              "internalType": "bool",
              "name": "transported",
              "type": "bool"
            },
            {
              "internalType": "bool",
              "name": "recieved",
              "type": "bool"
            }
          ],
          "internalType": "struct Schain.OrderItem[]",
          "name": "",
          "type": "tuple[]"
        }
      ],
      "stateMutability": "view",
      "type": "function"
    },
    {
      "inputs": [],
      "name": "fetchOrderItems",
      "outputs": [
        {
          "components": [
            {
              "internalType": "uint256",
              "name": "id",
              "type": "uint256"
            },
            {
              "internalType": "address",
              "name": "owner",
              "type": "address"
            },
            {
              "internalType": "string",
              "name": "product",
              "type": "string"
            },
            {
              "internalType": "uint256",
              "name": "quantity",
              "type": "uint256"
            },
            {
              "internalType": "uint256",
              "name": "orderdate",
              "type": "uint256"
            },
            {
              "internalType": "uint256",
              "name": "price",
              "type": "uint256"
            },
            {
              "internalType": "string",
              "name": "addressLine",
              "type": "string"
            },
            {
              "internalType": "string",
              "name": "contact",
              "type": "string"
            },
            {
              "internalType": "string",
              "name": "city",
              "type": "string"
            },
            {
              "internalType": "string",
              "name": "review",
              "type": "string"
            },
            {
              "internalType": "string",
              "name": "zipcode",
              "type": "string"
            },
            {
              "internalType": "string",
              "name": "state",
              "type": "string"
            },
            {
              "internalType": "uint256",
              "name": "recievedate",
              "type": "uint256"
            },
            {
              "internalType": "uint256",
              "name": "confirmdate",
              "type": "uint256"
            },
            {
              "internalType": "uint256",
              "name": "producedate",
              "type": "uint256"
            },
            {
              "internalType": "uint256",
              "name": "testdate",
              "type": "uint256"
            },
            {
              "internalType": "uint256",
              "name": "transportdate",
              "type": "uint256"
            },
            {
              "internalType": "bool",
              "name": "pending",
              "type": "bool"
            },
            {
              "internalType": "bool",
              "name": "returned",
              "type": "bool"
            },
            {
              "internalType": "bool",
              "name": "confirmed",
              "type": "bool"
            },
            {
              "internalType": "bool",
              "name": "produced",
              "type": "bool"
            },
            {
              "internalType": "bool",
              "name": "tested",
              "type": "bool"
            },
            {
              "internalType": "bool",
              "name": "transported",
              "type": "bool"
            },
            {
              "internalType": "bool",
              "name": "recieved",
              "type": "bool"
            }
          ],
          "internalType": "struct Schain.OrderItem[]",
          "name": "",
          "type": "tuple[]"
        }
      ],
      "stateMutability": "view",
      "type": "function"
    },
    {
      "inputs": [],
      "name": "fetchOrdersConfirm",
      "outputs": [
        {
          "components": [
            {
              "internalType": "uint256",
              "name": "id",
              "type": "uint256"
            },
            {
              "internalType": "address",
              "name": "owner",
              "type": "address"
            },
            {
              "internalType": "string",
              "name": "product",
              "type": "string"
            },
            {
              "internalType": "uint256",
              "name": "quantity",
              "type": "uint256"
            },
            {
              "internalType": "uint256",
              "name": "orderdate",
              "type": "uint256"
            },
            {
              "internalType": "uint256",
              "name": "price",
              "type": "uint256"
            },
            {
              "internalType": "string",
              "name": "addressLine",
              "type": "string"
            },
            {
              "internalType": "string",
              "name": "contact",
              "type": "string"
            },
            {
              "internalType": "string",
              "name": "city",
              "type": "string"
            },
            {
              "internalType": "string",
              "name": "review",
              "type": "string"
            },
            {
              "internalType": "string",
              "name": "zipcode",
              "type": "string"
            },
            {
              "internalType": "string",
              "name": "state",
              "type": "string"
            },
            {
              "internalType": "uint256",
              "name": "recievedate",
              "type": "uint256"
            },
            {
              "internalType": "uint256",
              "name": "confirmdate",
              "type": "uint256"
            },
            {
              "internalType": "uint256",
              "name": "producedate",
              "type": "uint256"
            },
            {
              "internalType": "uint256",
              "name": "testdate",
              "type": "uint256"
            },
            {
              "internalType": "uint256",
              "name": "transportdate",
              "type": "uint256"
            },
            {
              "internalType": "bool",
              "name": "pending",
              "type": "bool"
            },
            {
              "internalType": "bool",
              "name": "returned",
              "type": "bool"
            },
            {
              "internalType": "bool",
              "name": "confirmed",
              "type": "bool"
            },
            {
              "internalType": "bool",
              "name": "produced",
              "type": "bool"
            },
            {
              "internalType": "bool",
              "name": "tested",
              "type": "bool"
            },
            {
              "internalType": "bool",
              "name": "transported",
              "type": "bool"
            },
            {
              "internalType": "bool",
              "name": "recieved",
              "type": "bool"
            }
          ],
          "internalType": "struct Schain.OrderItem[]",
          "name": "",
          "type": "tuple[]"
        }
      ],
      "stateMutability": "view",
      "type": "function"
    },
    {
      "inputs": [],
      "name": "fetchOrdersProduced",
      "outputs": [
        {
          "components": [
            {
              "internalType": "uint256",
              "name": "id",
              "type": "uint256"
            },
            {
              "internalType": "address",
              "name": "owner",
              "type": "address"
            },
            {
              "internalType": "string",
              "name": "product",
              "type": "string"
            },
            {
              "internalType": "uint256",
              "name": "quantity",
              "type": "uint256"
            },
            {
              "internalType": "uint256",
              "name": "orderdate",
              "type": "uint256"
            },
            {
              "internalType": "uint256",
              "name": "price",
              "type": "uint256"
            },
            {
              "internalType": "string",
              "name": "addressLine",
              "type": "string"
            },
            {
              "internalType": "string",
              "name": "contact",
              "type": "string"
            },
            {
              "internalType": "string",
              "name": "city",
              "type": "string"
            },
            {
              "internalType": "string",
              "name": "review",
              "type": "string"
            },
            {
              "internalType": "string",
              "name": "zipcode",
              "type": "string"
            },
            {
              "internalType": "string",
              "name": "state",
              "type": "string"
            },
            {
              "internalType": "uint256",
              "name": "recievedate",
              "type": "uint256"
            },
            {
              "internalType": "uint256",
              "name": "confirmdate",
              "type": "uint256"
            },
            {
              "internalType": "uint256",
              "name": "producedate",
              "type": "uint256"
            },
            {
              "internalType": "uint256",
              "name": "testdate",
              "type": "uint256"
            },
            {
              "internalType": "uint256",
              "name": "transportdate",
              "type": "uint256"
            },
            {
              "internalType": "bool",
              "name": "pending",
              "type": "bool"
            },
            {
              "internalType": "bool",
              "name": "returned",
              "type": "bool"
            },
            {
              "internalType": "bool",
              "name": "confirmed",
              "type": "bool"
            },
            {
              "internalType": "bool",
              "name": "produced",
              "type": "bool"
            },
            {
              "internalType": "bool",
              "name": "tested",
              "type": "bool"
            },
            {
              "internalType": "bool",
              "name": "transported",
              "type": "bool"
            },
            {
              "internalType": "bool",
              "name": "recieved",
              "type": "bool"
            }
          ],
          "internalType": "struct Schain.OrderItem[]",
          "name": "",
          "type": "tuple[]"
        }
      ],
      "stateMutability": "view",
      "type": "function"
    },
    {
      "inputs": [],
      "name": "fetchOrdersTested",
      "outputs": [
        {
          "components": [
            {
              "internalType": "uint256",
              "name": "id",
              "type": "uint256"
            },
            {
              "internalType": "address",
              "name": "owner",
              "type": "address"
            },
            {
              "internalType": "string",
              "name": "product",
              "type": "string"
            },
            {
              "internalType": "uint256",
              "name": "quantity",
              "type": "uint256"
            },
            {
              "internalType": "uint256",
              "name": "orderdate",
              "type": "uint256"
            },
            {
              "internalType": "uint256",
              "name": "price",
              "type": "uint256"
            },
            {
              "internalType": "string",
              "name": "addressLine",
              "type": "string"
            },
            {
              "internalType": "string",
              "name": "contact",
              "type": "string"
            },
            {
              "internalType": "string",
              "name": "city",
              "type": "string"
            },
            {
              "internalType": "string",
              "name": "review",
              "type": "string"
            },
            {
              "internalType": "string",
              "name": "zipcode",
              "type": "string"
            },
            {
              "internalType": "string",
              "name": "state",
              "type": "string"
            },
            {
              "internalType": "uint256",
              "name": "recievedate",
              "type": "uint256"
            },
            {
              "internalType": "uint256",
              "name": "confirmdate",
              "type": "uint256"
            },
            {
              "internalType": "uint256",
              "name": "producedate",
              "type": "uint256"
            },
            {
              "internalType": "uint256",
              "name": "testdate",
              "type": "uint256"
            },
            {
              "internalType": "uint256",
              "name": "transportdate",
              "type": "uint256"
            },
            {
              "internalType": "bool",
              "name": "pending",
              "type": "bool"
            },
            {
              "internalType": "bool",
              "name": "returned",
              "type": "bool"
            },
            {
              "internalType": "bool",
              "name": "confirmed",
              "type": "bool"
            },
            {
              "internalType": "bool",
              "name": "produced",
              "type": "bool"
            },
            {
              "internalType": "bool",
              "name": "tested",
              "type": "bool"
            },
            {
              "internalType": "bool",
              "name": "transported",
              "type": "bool"
            },
            {
              "internalType": "bool",
              "name": "recieved",
              "type": "bool"
            }
          ],
          "internalType": "struct Schain.OrderItem[]",
          "name": "",
          "type": "tuple[]"
        }
      ],
      "stateMutability": "view",
      "type": "function"
    },
    {
      "inputs": [],
      "name": "fetchOrdersTransported",
      "outputs": [
        {
          "components": [
            {
              "internalType": "uint256",
              "name": "id",
              "type": "uint256"
            },
            {
              "internalType": "address",
              "name": "owner",
              "type": "address"
            },
            {
              "internalType": "string",
              "name": "product",
              "type": "string"
            },
            {
              "internalType": "uint256",
              "name": "quantity",
              "type": "uint256"
            },
            {
              "internalType": "uint256",
              "name": "orderdate",
              "type": "uint256"
            },
            {
              "internalType": "uint256",
              "name": "price",
              "type": "uint256"
            },
            {
              "internalType": "string",
              "name": "addressLine",
              "type": "string"
            },
            {
              "internalType": "string",
              "name": "contact",
              "type": "string"
            },
            {
              "internalType": "string",
              "name": "city",
              "type": "string"
            },
            {
              "internalType": "string",
              "name": "review",
              "type": "string"
            },
            {
              "internalType": "string",
              "name": "zipcode",
              "type": "string"
            },
            {
              "internalType": "string",
              "name": "state",
              "type": "string"
            },
            {
              "internalType": "uint256",
              "name": "recievedate",
              "type": "uint256"
            },
            {
              "internalType": "uint256",
              "name": "confirmdate",
              "type": "uint256"
            },
            {
              "internalType": "uint256",
              "name": "producedate",
              "type": "uint256"
            },
            {
              "internalType": "uint256",
              "name": "testdate",
              "type": "uint256"
            },
            {
              "internalType": "uint256",
              "name": "transportdate",
              "type": "uint256"
            },
            {
              "internalType": "bool",
              "name": "pending",
              "type": "bool"
            },
            {
              "internalType": "bool",
              "name": "returned",
              "type": "bool"
            },
            {
              "internalType": "bool",
              "name": "confirmed",
              "type": "bool"
            },
            {
              "internalType": "bool",
              "name": "produced",
              "type": "bool"
            },
            {
              "internalType": "bool",
              "name": "tested",
              "type": "bool"
            },
            {
              "internalType": "bool",
              "name": "transported",
              "type": "bool"
            },
            {
              "internalType": "bool",
              "name": "recieved",
              "type": "bool"
            }
          ],
          "internalType": "struct Schain.OrderItem[]",
          "name": "",
          "type": "tuple[]"
        }
      ],
      "stateMutability": "view",
      "type": "function"
    },
    {
      "inputs": [],
      "name": "getEthUsd",
      "outputs": [
        {
          "internalType": "uint256",
          "name": "",
          "type": "uint256"
        }
      ],
      "stateMutability": "view",
      "type": "function"
    },
    {
      "inputs": [],
      "name": "ordersCount",
      "outputs": [
        {
          "internalType": "uint256",
          "name": "",
          "type": "uint256"
        }
      ],
      "stateMutability": "view",
      "type": "function"
    },
    {
      "inputs": [
        {
          "internalType": "uint256",
          "name": "_id",
          "type": "uint256"
        },
        {
          "internalType": "string",
          "name": "_role",
          "type": "string"
        }
      ],
      "name": "produceOrder",
      "outputs": [],
      "stateMutability": "nonpayable",
      "type": "function"
    },
    {
      "inputs": [
        {
          "internalType": "uint256",
          "name": "_id",
          "type": "uint256"
        }
      ],
      "name": "receiveOrder",
      "outputs": [],
      "stateMutability": "nonpayable",
      "type": "function"
    },
    {
      "inputs": [
        {
          "internalType": "uint256",
          "name": "_id",
          "type": "uint256"
        },
        {
          "internalType": "string",
          "name": "_review",
          "type": "string"
        }
      ],
      "name": "returnOrder",
      "outputs": [],
      "stateMutability": "nonpayable",
      "type": "function"
    },
    {
      "inputs": [
        {
          "internalType": "uint256",
          "name": "_id",
          "type": "uint256"
        },
        {
          "internalType": "string",
          "name": "_role",
          "type": "string"
        }
      ],
      "name": "testOrder",
      "outputs": [],
      "stateMutability": "nonpayable",
      "type": "function"
    },
    {
      "inputs": [
        {
          "internalType": "uint256",
          "name": "_id",
          "type": "uint256"
        },
        {
          "internalType": "string",
          "name": "_role",
          "type": "string"
        }
      ],
      "name": "transportOrder",
      "outputs": [],
      "stateMutability": "nonpayable",
      "type": "function"
    },
    {
      "inputs": [],
      "name": "usersCount",
      "outputs": [
        {
          "internalType": "uint256",
          "name": "",
          "type": "uint256"
        }
      ],
      "stateMutability": "view",
      "type": "function"
    }
  ],
  "bytecode": "0x608060405260006003556000600455600060055534801561001f57600080fd5b50600680546001600160a01b0319908116331790915560008054909116739326bfa02add2366b30bacb125260af641031331179055614c78806100636000396000f3fe60806040526004361061011f5760003560e01c80639534b3bf116100a0578063c8e45a6b11610064578063c8e45a6b146102ba578063d1e002fe146102da578063df712885146102fa578063e46aaa701461031a578063eaa44a421461032f57600080fd5b80639534b3bf1461023b57806397bab12f1461025b5780639fe2a7f41461027b578063bb27e0ce14610290578063bbb03358146102a557600080fd5b80636038821a116100e75780636038821a146101bf5780636735b3a7146101df5780636ba13a82146101f25780638683c61214610208578063911c027f1461021b57600080fd5b80630500418b146101245780631ca107fe1461014f5780632775bbc01461017157806335daa731146101865780633d644327146101aa575b600080fd5b34801561013057600080fd5b50610139610344565b60405161014691906148ff565b60405180910390f35b34801561015b57600080fd5b5061016f61016a366004614823565b6109b3565b005b34801561017d57600080fd5b50610139610d1f565b34801561019257600080fd5b5061019c60045481565b604051908152602001610146565b3480156101b657600080fd5b50610139611426565b3480156101cb57600080fd5b5061016f6101da366004614823565b611a01565b61016f6101ed3660046146b7565b611cb3565b3480156101fe57600080fd5b5061019c60035481565b61016f610216366004614712565b611dbd565b34801561022757600080fd5b5061016f610236366004614823565b611ff3565b34801561024757600080fd5b5061019c61025636600461480b565b61207a565b34801561026757600080fd5b5061016f61027636600461480b565b6120a9565b34801561028757600080fd5b50610139612340565b34801561029c57600080fd5b5061019c612a4f565b3480156102b157600080fd5b50610139612ae1565b3480156102c657600080fd5b5061016f6102d5366004614823565b6131fe565b3480156102e657600080fd5b5061016f6102f5366004614823565b61334d565b34801561030657600080fd5b5061016f610315366004614823565b61349d565b34801561032657600080fd5b506101396135ef565b34801561033b57600080fd5b50610139613cb1565b600454606090600080805b838110156103aa573360026000610367846001614b39565b81526020810191909152604001600020600101546001600160a01b0316141561039857610395600184614b39565b92505b806103a281614bfb565b91505061034f565b5060008267ffffffffffffffff8111156103d457634e487b7160e01b600052604160045260246000fd5b60405190808252806020026020018201604052801561040d57816020015b6103fa614435565b8152602001906001900390816103f25790505b50905060005b848110156109aa57336002600061042b846001614b39565b81526020810191909152604001600020600101546001600160a01b0316141561099857600061045b826001614b39565b6000818152600260208181526040928390208351610300810185528154815260018201546001600160a01b0316928101929092529182018054949550919390928492908401916104aa90614bc0565b80601f01602080910402602001604051908101604052809291908181526020018280546104d690614bc0565b80156105235780601f106104f857610100808354040283529160200191610523565b820191906000526020600020905b81548152906001019060200180831161050657829003601f168201915b5050505050815260200160038201548152602001600482015481526020016005820154815260200160068201805461055a90614bc0565b80601f016020809104026020016040519081016040528092919081815260200182805461058690614bc0565b80156105d35780601f106105a8576101008083540402835291602001916105d3565b820191906000526020600020905b8154815290600101906020018083116105b657829003601f168201915b505050505081526020016007820180546105ec90614bc0565b80601f016020809104026020016040519081016040528092919081815260200182805461061890614bc0565b80156106655780601f1061063a57610100808354040283529160200191610665565b820191906000526020600020905b81548152906001019060200180831161064857829003601f168201915b5050505050815260200160088201805461067e90614bc0565b80601f01602080910402602001604051908101604052809291908181526020018280546106aa90614bc0565b80156106f75780601f106106cc576101008083540402835291602001916106f7565b820191906000526020600020905b8154815290600101906020018083116106da57829003601f168201915b5050505050815260200160098201805461071090614bc0565b80601f016020809104026020016040519081016040528092919081815260200182805461073c90614bc0565b80156107895780601f1061075e57610100808354040283529160200191610789565b820191906000526020600020905b81548152906001019060200180831161076c57829003601f168201915b50505050508152602001600a820180546107a290614bc0565b80601f01602080910402602001604051908101604052809291908181526020018280546107ce90614bc0565b801561081b5780601f106107f05761010080835404028352916020019161081b565b820191906000526020600020905b8154815290600101906020018083116107fe57829003601f168201915b50505050508152602001600b8201805461083490614bc0565b80601f016020809104026020016040519081016040528092919081815260200182805461086090614bc0565b80156108ad5780601f10610882576101008083540402835291602001916108ad565b820191906000526020600020905b81548152906001019060200180831161089057829003601f168201915b5050509183525050600c8201546020820152600d8201546040820152600e8201546060820152600f8201546080820152601082015460a082015260119091015460ff808216151560c08401526101008083048216151560e085015262010000830482161515908401526301000000820481161515610120840152600160201b820481161515610140840152600160281b820481161515610160840152600160301b90910416151561018090910152845185908790811061097d57634e487b7160e01b600052603260045260246000fd5b6020908102919091010152610993600186614b39565b945050505b806109a281614bfb565b915050610413565b50949350505050565b6000821180156109c557506004548211155b6109ea5760405162461bcd60e51b81526004016109e190614b0d565b60405180910390fd5b60006001826040516109fc91906148e3565b90815260405190819003602001902060028101549091506001600160a01b0316331415610a7f5760405162461bcd60e51b815260206004820152602b60248201527f596f7520646f6e742068617665207065726d697373696f6e20746f207472616e60448201526a39b837b93a1037b93232b960a91b60648201526084016109e1565b60008381526002602052604090206011810154600160281b900460ff1615610aa657600080fd5b60118101805460ff60281b1916600160281b17905542601082015560008481526002602081905260409091208254815560018381015490820180546001600160a01b0319166001600160a01b039092169190911790558183018054849383019190610b1090614bc0565b610b1b929190614501565b506003820154816003015560048201548160040155600582015481600501556006820181600601908054610b4e90614bc0565b610b59929190614501565b506007820181600701908054610b6e90614bc0565b610b79929190614501565b506008820181600801908054610b8e90614bc0565b610b99929190614501565b506009820181600901908054610bae90614bc0565b610bb9929190614501565b50600a820181600a01908054610bce90614bc0565b610bd9929190614501565b50600b820181600b01908054610bee90614bc0565b610bf9929190614501565b50600c8281015490820155600d8083015490820155600e8083015490820155600f8083015490820155601080830154908201556011918201805492909101805460ff938416151560ff19821681178355835461010090819004861615150261ff001990911661ffff19909216919091171780825582546201000090819004851615150262ff0000198216811783558354630100000090819004861615150263ff0000001990911663ffff00001990921691909117178082558254600160201b90819004851615150264ff00000000198216811783558354600160281b90819004861615150260ff60281b1990911665ffff000000001990921691909117178082559154600160301b90819004909316151590920260ff60301b1990911617905550505050565b600454606090600080805b83811015610e265760026000610d41836001614b39565b815260208101919091526040016000206011015462010000900460ff16158015610d95575060026000610d75836001614b39565b81526020810191909152604001600020601101546301000000900460ff16155b8015610dcb575060026000610dab836001614b39565b8152602081019190915260400160002060110154600160201b900460ff16155b8015610e01575060026000610de1836001614b39565b8152602081019190915260400160002060110154600160281b900460ff16155b15610e1457610e11600184614b39565b92505b80610e1e81614bfb565b915050610d2a565b5060008267ffffffffffffffff811115610e5057634e487b7160e01b600052604160045260246000fd5b604051908082528060200260200182016040528015610e8957816020015b610e76614435565b815260200190600190039081610e6e5790505b50905060005b848110156109aa573360026000610ea7846001614b39565b81526020810191909152604001600020600101546001600160a01b03161415611414576000610ed7826001614b39565b6000818152600260208181526040928390208351610300810185528154815260018201546001600160a01b031692810192909252918201805494955091939092849290840191610f2690614bc0565b80601f0160208091040260200160405190810160405280929190818152602001828054610f5290614bc0565b8015610f9f5780601f10610f7457610100808354040283529160200191610f9f565b820191906000526020600020905b815481529060010190602001808311610f8257829003601f168201915b50505050508152602001600382015481526020016004820154815260200160058201548152602001600682018054610fd690614bc0565b80601f016020809104026020016040519081016040528092919081815260200182805461100290614bc0565b801561104f5780601f106110245761010080835404028352916020019161104f565b820191906000526020600020905b81548152906001019060200180831161103257829003601f168201915b5050505050815260200160078201805461106890614bc0565b80601f016020809104026020016040519081016040528092919081815260200182805461109490614bc0565b80156110e15780601f106110b6576101008083540402835291602001916110e1565b820191906000526020600020905b8154815290600101906020018083116110c457829003601f168201915b505050505081526020016008820180546110fa90614bc0565b80601f016020809104026020016040519081016040528092919081815260200182805461112690614bc0565b80156111735780601f1061114857610100808354040283529160200191611173565b820191906000526020600020905b81548152906001019060200180831161115657829003601f168201915b5050505050815260200160098201805461118c90614bc0565b80601f01602080910402602001604051908101604052809291908181526020018280546111b890614bc0565b80156112055780601f106111da57610100808354040283529160200191611205565b820191906000526020600020905b8154815290600101906020018083116111e857829003601f168201915b50505050508152602001600a8201805461121e90614bc0565b80601f016020809104026020016040519081016040528092919081815260200182805461124a90614bc0565b80156112975780601f1061126c57610100808354040283529160200191611297565b820191906000526020600020905b81548152906001019060200180831161127a57829003601f168201915b50505050508152602001600b820180546112b090614bc0565b80601f01602080910402602001604051908101604052809291908181526020018280546112dc90614bc0565b80156113295780601f106112fe57610100808354040283529160200191611329565b820191906000526020600020905b81548152906001019060200180831161130c57829003601f168201915b5050509183525050600c8201546020820152600d8201546040820152600e8201546060820152600f8201546080820152601082015460a082015260119091015460ff808216151560c08401526101008083048216151560e085015262010000830482161515908401526301000000820481161515610120840152600160201b820481161515610140840152600160281b820481161515610160840152600160301b9091041615156101809091015284518590879081106113f957634e487b7160e01b600052603260045260246000fd5b602090810291909101015261140f600186614b39565b945050505b8061141e81614bfb565b915050610e8f565b6004546060906000808267ffffffffffffffff81111561145657634e487b7160e01b600052604160045260246000fd5b60405190808252806020026020018201604052801561148f57816020015b61147c614435565b8152602001906001900390816114745790505b50905060005b838110156119f95760006114aa826001614b39565b6000818152600260208181526040928390208351610300810185528154815260018201546001600160a01b0316928101929092529182018054949550919390928492908401916114f990614bc0565b80601f016020809104026020016040519081016040528092919081815260200182805461152590614bc0565b80156115725780601f1061154757610100808354040283529160200191611572565b820191906000526020600020905b81548152906001019060200180831161155557829003601f168201915b505050505081526020016003820154815260200160048201548152602001600582015481526020016006820180546115a990614bc0565b80601f01602080910402602001604051908101604052809291908181526020018280546115d590614bc0565b80156116225780601f106115f757610100808354040283529160200191611622565b820191906000526020600020905b81548152906001019060200180831161160557829003601f168201915b5050505050815260200160078201805461163b90614bc0565b80601f016020809104026020016040519081016040528092919081815260200182805461166790614bc0565b80156116b45780601f10611689576101008083540402835291602001916116b4565b820191906000526020600020905b81548152906001019060200180831161169757829003601f168201915b505050505081526020016008820180546116cd90614bc0565b80601f01602080910402602001604051908101604052809291908181526020018280546116f990614bc0565b80156117465780601f1061171b57610100808354040283529160200191611746565b820191906000526020600020905b81548152906001019060200180831161172957829003601f168201915b5050505050815260200160098201805461175f90614bc0565b80601f016020809104026020016040519081016040528092919081815260200182805461178b90614bc0565b80156117d85780601f106117ad576101008083540402835291602001916117d8565b820191906000526020600020905b8154815290600101906020018083116117bb57829003601f168201915b50505050508152602001600a820180546117f190614bc0565b80601f016020809104026020016040519081016040528092919081815260200182805461181d90614bc0565b801561186a5780601f1061183f5761010080835404028352916020019161186a565b820191906000526020600020905b81548152906001019060200180831161184d57829003601f168201915b50505050508152602001600b8201805461188390614bc0565b80601f01602080910402602001604051908101604052809291908181526020018280546118af90614bc0565b80156118fc5780601f106118d1576101008083540402835291602001916118fc565b820191906000526020600020905b8154815290600101906020018083116118df57829003601f168201915b5050509183525050600c8201546020820152600d8201546040820152600e8201546060820152600f8201546080820152601082015460a082015260119091015460ff808216151560c08401526101008083048216151560e085015262010000830482161515908401526301000000820481161515610120840152600160201b820481161515610140840152600160281b820481161515610160840152600160301b9091041615156101809091015284518590879081106119cc57634e487b7160e01b600052603260045260246000fd5b60209081029190910101526119e2600186614b39565b9450505080806119f190614bfb565b915050611495565b509392505050565b600082118015611a1357506004548211155b611a2f5760405162461bcd60e51b81526004016109e190614b0d565b600082815260026020908152604090912082519091611a55916009840191850190614588565b5060008381526002602081905260409091208254815560018084015490820180546001600160a01b0319166001600160a01b039092169190911790558183018054849383019190611aa590614bc0565b611ab0929190614501565b506003820154816003015560048201548160040155600582015481600501556006820181600601908054611ae390614bc0565b611aee929190614501565b506007820181600701908054611b0390614bc0565b611b0e929190614501565b506008820181600801908054611b2390614bc0565b611b2e929190614501565b506009820181600901908054611b4390614bc0565b611b4e929190614501565b50600a820181600a01908054611b6390614bc0565b611b6e929190614501565b50600b820181600b01908054611b8390614bc0565b611b8e929190614501565b50600c8281015490820155600d8083015490820155600e8083015490820155600f8083015490820155601080830154908201556011918201805492909101805460ff938416151560ff19821681178355835461010090819004861615150261ff001990911661ffff19909216919091171780825582546201000090819004851615150262ff0000198216811783558354630100000090819004861615150263ff0000001990911663ffff00001990921691909117178082558254600160201b90819004851615150264ff00000000198216811783558354600160281b90819004861615150260ff60281b1990911665ffff000000001990921691909117178082559154600160301b90819004909316151590920260ff60301b19909116179055505050565b6000600183604051611cc591906148e3565b90815260405190819003602001902060028101549091506001600160a01b03838116911614611d365760405162461bcd60e51b815260206004820152601b60248201527f526f6c6520686173206265656e20616464656420616c7265616479000000000060448201526064016109e1565b60058054906000611d4683614bfb565b90915550508251611d609060018301906020860190614588565b506002810180546001600160a01b0319166001600160a01b0384161790556040517f39424c9407ac30223629511a00efdeb9175e3d425784e26c07c28265dd69ceab90611db09085908590614ae3565b60405180910390a1505050565b60003411611e0d5760405162461bcd60e51b815260206004820152601c60248201527f5072696365206d757374206265206174206c656173742031207765690000000060448201526064016109e1565b60008611611e5d5760405162461bcd60e51b815260206004820152601f60248201527f7175616e74697479206d7573742062652067726561746572207468616e20300060448201526064016109e1565b33611e6757600080fd5b60048054906000611e7783614bfb565b909155505060038054906000611e8c83614bfb565b9091555050600454600090815260026020526040808220600654915190926001600160a01b039092169182913480156108fc0292909190818181858888f19350505050158015611ee0573d6000803e3d6000fd5b5060045482556001820180546001600160a01b031916331790558851611f0f90600284019060208c0190614588565b50600382018890554260048301553460058301558651611f3890600684019060208a0190614588565b508551611f4e9060078401906020890190614588565b508451611f649060088401906020880190614588565b50604080516020810191829052600090819052611f85916009850191614588565b508351611f9b90600a8401906020870190614588565b508251611fb190600b8401906020860190614588565b50506000600c8201819055600e8201819055600d8201819055600f82018190556010820155601101805466ffffffffffffff1916600117905550505050505050565b60008211801561200557506004548211155b6120215760405162461bcd60e51b81526004016109e190614b0d565b600082815260026020819052604090912060118101805465ffffffffff0019166101001790556001810180546001600160a01b031981166001600160a01b039091161790559081018054829182918190611aa590614bc0565b600080612085612a4f565b90506120a28161209c85662386f26fc100006143c7565b906143d3565b9392505050565b6000811180156120bb57506004548111155b6120d75760405162461bcd60e51b81526004016109e190614b0d565b600081815260026020819052604090912060118101805466ff0000000000ff1916600160301b1790556001810180546001600160a01b031981166001600160a01b03909116179055908101805482918291819061213390614bc0565b61213e929190614501565b50600382015481600301556004820154816004015560058201548160050155600682018160060190805461217190614bc0565b61217c929190614501565b50600782018160070190805461219190614bc0565b61219c929190614501565b5060088201816008019080546121b190614bc0565b6121bc929190614501565b5060098201816009019080546121d190614bc0565b6121dc929190614501565b50600a820181600a019080546121f190614bc0565b6121fc929190614501565b50600b820181600b0190805461221190614bc0565b61221c929190614501565b50600c8281015490820155600d8083015490820155600e8083015490820155600f8083015490820155601080830154908201556011918201805492909101805460ff938416151560ff19821681178355835461010090819004861615150261ff001990911661ffff19909216919091171780825582546201000090819004851615150262ff0000198216811783558354630100000090819004861615150263ff0000001990911663ffff00001990921691909117178082558254600160201b90819004851615150264ff00000000198216811783558354600160281b90819004861615150260ff60281b1990911665ffff000000001990921691909117178082559154600160301b90819004909316151590920260ff60301b199091161790555050565b600454606090600080805b8381101561244f5760026000612362836001614b39565b815260200190815260200160002060110160029054906101000a900460ff161515600115151480156123be57506002600061239e836001614b39565b81526020810191909152604001600020601101546301000000900460ff16155b80156123f45750600260006123d4836001614b39565b8152602081019190915260400160002060110154600160201b900460ff16155b801561242a57506002600061240a836001614b39565b8152602081019190915260400160002060110154600160281b900460ff16155b1561243d5761243a600184614b39565b92505b8061244781614bfb565b91505061234b565b5060008267ffffffffffffffff81111561247957634e487b7160e01b600052604160045260246000fd5b6040519080825280602002602001820160405280156124b257816020015b61249f614435565b8152602001906001900390816124975790505b50905060005b848110156109aa5733600260006124d0846001614b39565b81526020810191909152604001600020600101546001600160a01b03161415612a3d576000612500826001614b39565b6000818152600260208181526040928390208351610300810185528154815260018201546001600160a01b03169281019290925291820180549495509193909284929084019161254f90614bc0565b80601f016020809104026020016040519081016040528092919081815260200182805461257b90614bc0565b80156125c85780601f1061259d576101008083540402835291602001916125c8565b820191906000526020600020905b8154815290600101906020018083116125ab57829003601f168201915b505050505081526020016003820154815260200160048201548152602001600582015481526020016006820180546125ff90614bc0565b80601f016020809104026020016040519081016040528092919081815260200182805461262b90614bc0565b80156126785780601f1061264d57610100808354040283529160200191612678565b820191906000526020600020905b81548152906001019060200180831161265b57829003601f168201915b5050505050815260200160078201805461269190614bc0565b80601f01602080910402602001604051908101604052809291908181526020018280546126bd90614bc0565b801561270a5780601f106126df5761010080835404028352916020019161270a565b820191906000526020600020905b8154815290600101906020018083116126ed57829003601f168201915b5050505050815260200160088201805461272390614bc0565b80601f016020809104026020016040519081016040528092919081815260200182805461274f90614bc0565b801561279c5780601f106127715761010080835404028352916020019161279c565b820191906000526020600020905b81548152906001019060200180831161277f57829003601f168201915b505050505081526020016009820180546127b590614bc0565b80601f01602080910402602001604051908101604052809291908181526020018280546127e190614bc0565b801561282e5780601f106128035761010080835404028352916020019161282e565b820191906000526020600020905b81548152906001019060200180831161281157829003601f168201915b50505050508152602001600a8201805461284790614bc0565b80601f016020809104026020016040519081016040528092919081815260200182805461287390614bc0565b80156128c05780601f10612895576101008083540402835291602001916128c0565b820191906000526020600020905b8154815290600101906020018083116128a357829003601f168201915b50505050508152602001600b820180546128d990614bc0565b80601f016020809104026020016040519081016040528092919081815260200182805461290590614bc0565b80156129525780601f1061292757610100808354040283529160200191612952565b820191906000526020600020905b81548152906001019060200180831161293557829003601f168201915b5050509183525050600c8201546020820152600d8201546040820152600e8201546060820152600f8201546080820152601082015460a082015260119091015460ff808216151560c08401526101008083048216151560e085015262010000830482161515908401526301000000820481161515610120840152600160201b820481161515610140840152600160281b820481161515610160840152600160301b909104161515610180909101528451859087908110612a2257634e487b7160e01b600052603260045260246000fd5b6020908102919091010152612a38600186614b39565b945050505b80612a4781614bfb565b9150506124b8565b6000805460408051633fabe5a360e21b8152905183926001600160a01b03169163feaf968c9160048083019260a0929190829003018186803b158015612a9457600080fd5b505afa158015612aa8573d6000803e3d6000fd5b505050506040513d601f19601f82011682018060405250810190612acc9190614868565b505050915050612adb816143df565b91505090565b600454606090600080805b83811015612bfe5760026000612b03836001614b39565b815260200190815260200160002060110160029054906101000a900460ff16151560011515148015612b66575060026000612b3f836001614b39565b815260200190815260200160002060110160039054906101000a900460ff16151560011515145b8015612ba3575060026000612b7c836001614b39565b815260200190815260200160002060110160049054906101000a900460ff16151560011515145b8015612bd9575060026000612bb9836001614b39565b8152602081019190915260400160002060110154600160281b900460ff16155b15612bec57612be9600184614b39565b92505b80612bf681614bfb565b915050612aec565b5060008267ffffffffffffffff811115612c2857634e487b7160e01b600052604160045260246000fd5b604051908082528060200260200182016040528015612c6157816020015b612c4e614435565b815260200190600190039081612c465790505b50905060005b848110156109aa573360026000612c7f846001614b39565b81526020810191909152604001600020600101546001600160a01b031614156131ec576000612caf826001614b39565b6000818152600260208181526040928390208351610300810185528154815260018201546001600160a01b031692810192909252918201805494955091939092849290840191612cfe90614bc0565b80601f0160208091040260200160405190810160405280929190818152602001828054612d2a90614bc0565b8015612d775780601f10612d4c57610100808354040283529160200191612d77565b820191906000526020600020905b815481529060010190602001808311612d5a57829003601f168201915b50505050508152602001600382015481526020016004820154815260200160058201548152602001600682018054612dae90614bc0565b80601f0160208091040260200160405190810160405280929190818152602001828054612dda90614bc0565b8015612e275780601f10612dfc57610100808354040283529160200191612e27565b820191906000526020600020905b815481529060010190602001808311612e0a57829003601f168201915b50505050508152602001600782018054612e4090614bc0565b80601f0160208091040260200160405190810160405280929190818152602001828054612e6c90614bc0565b8015612eb95780601f10612e8e57610100808354040283529160200191612eb9565b820191906000526020600020905b815481529060010190602001808311612e9c57829003601f168201915b50505050508152602001600882018054612ed290614bc0565b80601f0160208091040260200160405190810160405280929190818152602001828054612efe90614bc0565b8015612f4b5780601f10612f2057610100808354040283529160200191612f4b565b820191906000526020600020905b815481529060010190602001808311612f2e57829003601f168201915b50505050508152602001600982018054612f6490614bc0565b80601f0160208091040260200160405190810160405280929190818152602001828054612f9090614bc0565b8015612fdd5780601f10612fb257610100808354040283529160200191612fdd565b820191906000526020600020905b815481529060010190602001808311612fc057829003601f168201915b50505050508152602001600a82018054612ff690614bc0565b80601f016020809104026020016040519081016040528092919081815260200182805461302290614bc0565b801561306f5780601f106130445761010080835404028352916020019161306f565b820191906000526020600020905b81548152906001019060200180831161305257829003601f168201915b50505050508152602001600b8201805461308890614bc0565b80601f01602080910402602001604051908101604052809291908181526020018280546130b490614bc0565b80156131015780601f106130d657610100808354040283529160200191613101565b820191906000526020600020905b8154815290600101906020018083116130e457829003601f168201915b5050509183525050600c8201546020820152600d8201546040820152600e8201546060820152600f8201546080820152601082015460a082015260119091015460ff808216151560c08401526101008083048216151560e085015262010000830482161515908401526301000000820481161515610120840152600160201b820481161515610140840152600160281b820481161515610160840152600160301b9091041615156101809091015284518590879081106131d157634e487b7160e01b600052603260045260246000fd5b60209081029190910101526131e7600186614b39565b945050505b806131f681614bfb565b915050612c67565b60008211801561321057506004548211155b61322c5760405162461bcd60e51b81526004016109e190614b0d565b600060018260405161323e91906148e3565b90815260405190819003602001902060028101549091506001600160a01b03163314156132bf5760405162461bcd60e51b815260206004820152602960248201527f596f7520646f6e742068617665207065726d697373696f6e20746f20636f6e6660448201526834b9369037b93232b960b91b60648201526084016109e1565b6000838152600260205260409020601181015462010000900460ff16156132e557600080fd5b60118101805462ff000019166201000017905542600d82015560008481526002602081905260409091208254815560018381015490820180546001600160a01b0319166001600160a01b039092169190911790558183018054849383019190610b1090614bc0565b60008211801561335f57506004548211155b61337b5760405162461bcd60e51b81526004016109e190614b0d565b600060018260405161338d91906148e3565b90815260405190819003602001902060028101549091506001600160a01b031633141561340b5760405162461bcd60e51b815260206004820152602660248201527f596f7520646f6e742068617665207065726d697373696f6e20746f20746573746044820152651037b93232b960d11b60648201526084016109e1565b60008381526002602052604090206011810154600160201b900460ff161561343257600080fd5b60118101805464ff000000001916600160201b17905542600f82015560008481526002602081905260409091208254815560018381015490820180546001600160a01b0319166001600160a01b039092169190911790558183018054849383019190610b1090614bc0565b6000821180156134af57506004548211155b6134cb5760405162461bcd60e51b81526004016109e190614b0d565b60006001826040516134dd91906148e3565b90815260405190819003602001902060028101549091506001600160a01b031633141561355e5760405162461bcd60e51b815260206004820152602960248201527f596f7520646f6e742068617665207065726d697373696f6e20746f2070726f646044820152683ab1b29037b93232b960b91b60648201526084016109e1565b600083815260026020526040902060118101546301000000900460ff161561358557600080fd5b60118101805463ff0000001916630100000017905542600e82015560008481526002602081905260409091208254815560018381015490820180546001600160a01b0319166001600160a01b039092169190911790558183018054849383019190610b1090614bc0565b600454606090600080805b838110156136835760026000613611836001614b39565b8152602081019190915260400160009081206001908101546001600160a01b031691600291613641908590614b39565b81526020810191909152604001600020600101546001600160a01b0316146136715761366e600184614b39565b92505b8061367b81614bfb565b9150506135fa565b5060008267ffffffffffffffff8111156136ad57634e487b7160e01b600052604160045260246000fd5b6040519080825280602002602001820160405280156136e657816020015b6136d3614435565b8152602001906001900390816136cb5790505b50905060005b848110156109aa5760026000613703836001614b39565b8152602081019190915260400160009081206001908101546001600160a01b031691600291613733908590614b39565b81526020810191909152604001600020600101546001600160a01b031614613c9f576000613762826001614b39565b6000818152600260208181526040928390208351610300810185528154815260018201546001600160a01b0316928101929092529182018054949550919390928492908401916137b190614bc0565b80601f01602080910402602001604051908101604052809291908181526020018280546137dd90614bc0565b801561382a5780601f106137ff5761010080835404028352916020019161382a565b820191906000526020600020905b81548152906001019060200180831161380d57829003601f168201915b5050505050815260200160038201548152602001600482015481526020016005820154815260200160068201805461386190614bc0565b80601f016020809104026020016040519081016040528092919081815260200182805461388d90614bc0565b80156138da5780601f106138af576101008083540402835291602001916138da565b820191906000526020600020905b8154815290600101906020018083116138bd57829003601f168201915b505050505081526020016007820180546138f390614bc0565b80601f016020809104026020016040519081016040528092919081815260200182805461391f90614bc0565b801561396c5780601f106139415761010080835404028352916020019161396c565b820191906000526020600020905b81548152906001019060200180831161394f57829003601f168201915b5050505050815260200160088201805461398590614bc0565b80601f01602080910402602001604051908101604052809291908181526020018280546139b190614bc0565b80156139fe5780601f106139d3576101008083540402835291602001916139fe565b820191906000526020600020905b8154815290600101906020018083116139e157829003601f168201915b50505050508152602001600982018054613a1790614bc0565b80601f0160208091040260200160405190810160405280929190818152602001828054613a4390614bc0565b8015613a905780601f10613a6557610100808354040283529160200191613a90565b820191906000526020600020905b815481529060010190602001808311613a7357829003601f168201915b50505050508152602001600a82018054613aa990614bc0565b80601f0160208091040260200160405190810160405280929190818152602001828054613ad590614bc0565b8015613b225780601f10613af757610100808354040283529160200191613b22565b820191906000526020600020905b815481529060010190602001808311613b0557829003601f168201915b50505050508152602001600b82018054613b3b90614bc0565b80601f0160208091040260200160405190810160405280929190818152602001828054613b6790614bc0565b8015613bb45780601f10613b8957610100808354040283529160200191613bb4565b820191906000526020600020905b815481529060010190602001808311613b9757829003601f168201915b5050509183525050600c8201546020820152600d8201546040820152600e8201546060820152600f8201546080820152601082015460a082015260119091015460ff808216151560c08401526101008083048216151560e085015262010000830482161515908401526301000000820481161515610120840152600160201b820481161515610140840152600160281b820481161515610160840152600160301b909104161515610180909101528451859087908110613c8457634e487b7160e01b600052603260045260246000fd5b6020908102919091010152613c9a600186614b39565b945050505b80613ca981614bfb565b9150506136ec565b600454606090600080805b83811015613dc75760026000613cd3836001614b39565b815260200190815260200160002060110160029054906101000a900460ff16151560011515148015613d36575060026000613d0f836001614b39565b815260200190815260200160002060110160039054906101000a900460ff16151560011515145b8015613d6c575060026000613d4c836001614b39565b8152602081019190915260400160002060110154600160201b900460ff16155b8015613da2575060026000613d82836001614b39565b8152602081019190915260400160002060110154600160281b900460ff16155b15613db557613db2600184614b39565b92505b80613dbf81614bfb565b915050613cbc565b5060008267ffffffffffffffff811115613df157634e487b7160e01b600052604160045260246000fd5b604051908082528060200260200182016040528015613e2a57816020015b613e17614435565b815260200190600190039081613e0f5790505b50905060005b848110156109aa573360026000613e48846001614b39565b81526020810191909152604001600020600101546001600160a01b031614156143b5576000613e78826001614b39565b6000818152600260208181526040928390208351610300810185528154815260018201546001600160a01b031692810192909252918201805494955091939092849290840191613ec790614bc0565b80601f0160208091040260200160405190810160405280929190818152602001828054613ef390614bc0565b8015613f405780601f10613f1557610100808354040283529160200191613f40565b820191906000526020600020905b815481529060010190602001808311613f2357829003601f168201915b50505050508152602001600382015481526020016004820154815260200160058201548152602001600682018054613f7790614bc0565b80601f0160208091040260200160405190810160405280929190818152602001828054613fa390614bc0565b8015613ff05780601f10613fc557610100808354040283529160200191613ff0565b820191906000526020600020905b815481529060010190602001808311613fd357829003601f168201915b5050505050815260200160078201805461400990614bc0565b80601f016020809104026020016040519081016040528092919081815260200182805461403590614bc0565b80156140825780601f1061405757610100808354040283529160200191614082565b820191906000526020600020905b81548152906001019060200180831161406557829003601f168201915b5050505050815260200160088201805461409b90614bc0565b80601f01602080910402602001604051908101604052809291908181526020018280546140c790614bc0565b80156141145780601f106140e957610100808354040283529160200191614114565b820191906000526020600020905b8154815290600101906020018083116140f757829003601f168201915b5050505050815260200160098201805461412d90614bc0565b80601f016020809104026020016040519081016040528092919081815260200182805461415990614bc0565b80156141a65780601f1061417b576101008083540402835291602001916141a6565b820191906000526020600020905b81548152906001019060200180831161418957829003601f168201915b50505050508152602001600a820180546141bf90614bc0565b80601f01602080910402602001604051908101604052809291908181526020018280546141eb90614bc0565b80156142385780601f1061420d57610100808354040283529160200191614238565b820191906000526020600020905b81548152906001019060200180831161421b57829003601f168201915b50505050508152602001600b8201805461425190614bc0565b80601f016020809104026020016040519081016040528092919081815260200182805461427d90614bc0565b80156142ca5780601f1061429f576101008083540402835291602001916142ca565b820191906000526020600020905b8154815290600101906020018083116142ad57829003601f168201915b5050509183525050600c8201546020820152600d8201546040820152600e8201546060820152600f8201546080820152601082015460a082015260119091015460ff808216151560c08401526101008083048216151560e085015262010000830482161515908401526301000000820481161515610120840152600160201b820481161515610140840152600160281b820481161515610160840152600160301b90910416151561018090910152845185908790811061439a57634e487b7160e01b600052603260045260246000fd5b60209081029190910101526143b0600186614b39565b945050505b806143bf81614bfb565b915050613e30565b60006120a28284614b71565b60006120a28284614b51565b6000808212156144315760405162461bcd60e51b815260206004820181905260248201527f53616665436173743a2076616c7565206d75737420626520706f73697469766560448201526064016109e1565b5090565b6040518061030001604052806000815260200160006001600160a01b031681526020016060815260200160008152602001600081526020016000815260200160608152602001606081526020016060815260200160608152602001606081526020016060815260200160008152602001600081526020016000815260200160008152602001600081526020016000151581526020016000151581526020016000151581526020016000151581526020016000151581526020016000151581526020016000151581525090565b82805461450d90614bc0565b90600052602060002090601f01602090048101928261452f576000855561457c565b82601f10614540578054855561457c565b8280016001018555821561457c57600052602060002091601f016020900482015b8281111561457c578254825591600101919060010190614561565b506144319291506145fc565b82805461459490614bc0565b90600052602060002090601f0160209004810192826145b6576000855561457c565b82601f106145cf57805160ff191683800117855561457c565b8280016001018555821561457c579182015b8281111561457c5782518255916020019190600101906145e1565b5b8082111561443157600081556001016145fd565b600082601f830112614621578081fd5b813567ffffffffffffffff8082111561463c5761463c614c2c565b604051601f8301601f19908116603f0116810190828211818310171561466457614664614c2c565b8160405283815286602085880101111561467c578485fd5b8360208701602083013792830160200193909352509392505050565b805169ffffffffffffffffffff811681146146b257600080fd5b919050565b600080604083850312156146c9578182fd5b823567ffffffffffffffff8111156146df578283fd5b6146eb85828601614611565b92505060208301356001600160a01b0381168114614707578182fd5b809150509250929050565b600080600080600080600060e0888a03121561472c578283fd5b873567ffffffffffffffff80821115614743578485fd5b61474f8b838c01614611565b985060208a0135975060408a013591508082111561476b578485fd5b6147778b838c01614611565b965060608a013591508082111561478c578485fd5b6147988b838c01614611565b955060808a01359150808211156147ad578485fd5b6147b98b838c01614611565b945060a08a01359150808211156147ce578384fd5b6147da8b838c01614611565b935060c08a01359150808211156147ef578283fd5b506147fc8a828b01614611565b91505092959891949750929550565b60006020828403121561481c578081fd5b5035919050565b60008060408385031215614835578182fd5b82359150602083013567ffffffffffffffff811115614852578182fd5b61485e85828601614611565b9150509250929050565b600080600080600060a0868803121561487f578081fd5b61488886614698565b94506020860151935060408601519250606086015191506148ab60808701614698565b90509295509295909350565b600081518084526148cf816020860160208601614b90565b601f01601f19169290920160200192915050565b600082516148f5818460208701614b90565b9190910192915050565b60006020808301818452808551808352604092508286019150828160051b870101848801865b83811015614ad557603f19898403018552815180518452878101516001600160a01b0316888501528681015161030088860181905290614967828701826148b7565b606084810151908801526080808501519088015260a0808501519088015260c080850151888303828a015291935091506149a183826148b7565b9250505060e080830151868303828801526149bc83826148b7565b9250505061010080830151868303828801526149d883826148b7565b9250505061012080830151868303828801526149f483826148b7565b925050506101408083015186830382880152614a1083826148b7565b925050506101608083015186830382880152614a2c83826148b7565b61018085810151908901526101a080860151908901526101c080860151908901526101e080860151908901526102008086015190890152610220808601511515908901526102408086015115159089015261026080860151151590890152610280808601511515908901526102a0808601511515908901526102c0808601511515908901526102e094850151151594909701939093525050509386019390860190600101614925565b509098975050505050505050565b604081526000614af660408301856148b7565b905060018060a01b03831660208301529392505050565b6020808252601290820152711bdc99195c881a59081b9bdd081d985b1a5960721b604082015260600190565b60008219821115614b4c57614b4c614c16565b500190565b600082614b6c57634e487b7160e01b81526012600452602481fd5b500490565b6000816000190483118215151615614b8b57614b8b614c16565b500290565b60005b83811015614bab578181015183820152602001614b93565b83811115614bba576000848401525b50505050565b600181811c90821680614bd457607f821691505b60208210811415614bf557634e487b7160e01b600052602260045260246000fd5b50919050565b6000600019821415614c0f57614c0f614c16565b5060010190565b634e487b7160e01b600052601160045260246000fd5b634e487b7160e01b600052604160045260246000fdfea2646970667358221220b3862362a1520a342caf5ab1f231c46d28335926db5f36d02de8019a2119bf5164736f6c63430008040033",
  "linkReferences": {},
  "deployedLinkReferences": {}
}