{
  "_format": "hh-sol-artifact-1",
  "contractName": "Schain",
  "sourceName": "contracts/Schain.sol",
  "abi": [
    {
      "inputs": [],
      "stateMutability": "nonpayable",
      "type": "constructor"
    },
    {
      "anonymous": false,
      "inputs": [
        {
          "indexed": true,
          "internalType": "uint256",
          "name": "id",
          "type": "uint256"
        },
        {
          "indexed": false,
          "internalType": "address",
          "name": "owner",
          "type": "address"
        },
        {
          "indexed": false,
          "internalType": "string",
          "name": "product",
          "type": "string"
        },
        {
          "indexed": false,
          "internalType": "uint256",
          "name": "quantity",
          "type": "uint256"
        },
        {
          "indexed": false,
          "internalType": "uint256",
          "name": "orderdate",
          "type": "uint256"
        },
        {
          "indexed": false,
          "internalType": "uint256",
          "name": "price",
          "type": "uint256"
        },
        {
          "indexed": false,
          "internalType": "string",
          "name": "addressLine",
          "type": "string"
        },
        {
          "indexed": false,
          "internalType": "string",
          "name": "contact",
          "type": "string"
        },
        {
          "indexed": false,
          "internalType": "string",
          "name": "city",
          "type": "string"
        },
        {
          "indexed": false,
          "internalType": "string",
          "name": "review",
          "type": "string"
        },
        {
          "indexed": false,
          "internalType": "string",
          "name": "zipcode",
          "type": "string"
        },
        {
          "indexed": false,
          "internalType": "string",
          "name": "state",
          "type": "string"
        },
        {
          "indexed": false,
          "internalType": "uint256",
          "name": "recievedate",
          "type": "uint256"
        },
        {
          "indexed": false,
          "internalType": "uint256",
          "name": "confirmdate",
          "type": "uint256"
        },
        {
          "indexed": false,
          "internalType": "uint256",
          "name": "producedate",
          "type": "uint256"
        },
        {
          "indexed": false,
          "internalType": "uint256",
          "name": "testdate",
          "type": "uint256"
        },
        {
          "indexed": false,
          "internalType": "uint256",
          "name": "transportdate",
          "type": "uint256"
        },
        {
          "indexed": false,
          "internalType": "bool",
          "name": "pending",
          "type": "bool"
        },
        {
          "indexed": false,
          "internalType": "bool",
          "name": "returned",
          "type": "bool"
        },
        {
          "indexed": false,
          "internalType": "bool",
          "name": "confirmed",
          "type": "bool"
        },
        {
          "indexed": false,
          "internalType": "bool",
          "name": "produced",
          "type": "bool"
        },
        {
          "indexed": false,
          "internalType": "bool",
          "name": "tested",
          "type": "bool"
        },
        {
          "indexed": false,
          "internalType": "bool",
          "name": "transported",
          "type": "bool"
        },
        {
          "indexed": false,
          "internalType": "bool",
          "name": "recieved",
          "type": "bool"
        }
      ],
      "name": "AddOrder",
      "type": "event"
    },
    {
      "anonymous": false,
      "inputs": [
        {
          "indexed": false,
          "internalType": "string",
          "name": "role",
          "type": "string"
        },
        {
          "indexed": false,
          "internalType": "address",
          "name": "roleaddress",
          "type": "address"
        }
      ],
      "name": "RoleAdded",
      "type": "event"
    },
    {
      "inputs": [
        {
          "internalType": "string",
          "name": "_product",
          "type": "string"
        },
        {
          "internalType": "uint256",
          "name": "_quantity",
          "type": "uint256"
        },
        {
          "internalType": "string",
          "name": "_addressline",
          "type": "string"
        },
        {
          "internalType": "string",
          "name": "_contact",
          "type": "string"
        },
        {
          "internalType": "string",
          "name": "_city",
          "type": "string"
        },
        {
          "internalType": "string",
          "name": "_zipcode",
          "type": "string"
        },
        {
          "internalType": "string",
          "name": "_state",
          "type": "string"
        }
      ],
      "name": "addOrderItem",
      "outputs": [],
      "stateMutability": "payable",
      "type": "function"
    },
    {
      "inputs": [
        {
          "internalType": "uint256",
          "name": "_id",
          "type": "uint256"
        },
        {
          "internalType": "string",
          "name": "_review",
          "type": "string"
        }
      ],
      "name": "addReveiw",
      "outputs": [],
      "stateMutability": "nonpayable",
      "type": "function"
    },
    {
      "inputs": [
        {
          "internalType": "string",
          "name": "_role",
          "type": "string"
        },
        {
          "internalType": "address",
          "name": "_roleaddress",
          "type": "address"
        }
      ],
      "name": "addRole",
      "outputs": [],
      "stateMutability": "payable",
      "type": "function"
    },
    {
      "inputs": [
        {
          "internalType": "uint256",
          "name": "_id",
          "type": "uint256"
        },
        {
          "internalType": "string",
          "name": "_role",
          "type": "string"
        }
      ],
      "name": "confrimOrder",
      "outputs": [],
      "stateMutability": "nonpayable",
      "type": "function"
    },
    {
      "inputs": [
        {
          "internalType": "uint256",
          "name": "_amountInUsd",
          "type": "uint256"
        }
      ],
      "name": "convertEthUsd",
      "outputs": [
        {
          "internalType": "uint256",
          "name": "",
          "type": "uint256"
        }
      ],
      "stateMutability": "view",
      "type": "function"
    },
    {
      "inputs": [],
      "name": "fetchCustomers",
      "outputs": [
        {
          "components": [
            {
              "internalType": "uint256",
              "name": "id",
              "type": "uint256"
            },
            {
              "internalType": "address",
              "name": "owner",
              "type": "address"
            },
            {
              "internalType": "string",
              "name": "product",
              "type": "string"
            },
            {
              "internalType": "uint256",
              "name": "quantity",
              "type": "uint256"
            },
            {
              "internalType": "uint256",
              "name": "orderdate",
              "type": "uint256"
            },
            {
              "internalType": "uint256",
              "name": "price",
              "type": "uint256"
            },
            {
              "internalType": "string",
              "name": "addressLine",
              "type": "string"
            },
            {
              "internalType": "string",
              "name": "contact",
              "type": "string"
            },
            {
              "internalType": "string",
              "name": "city",
              "type": "string"
            },
            {
              "internalType": "string",
              "name": "review",
              "type": "string"
            },
            {
              "internalType": "string",
              "name": "zipcode",
              "type": "string"
            },
            {
              "internalType": "string",
              "name": "state",
              "type": "string"
            },
            {
              "internalType": "uint256",
              "name": "recievedate",
              "type": "uint256"
            },
            {
              "internalType": "uint256",
              "name": "confirmdate",
              "type": "uint256"
            },
            {
              "internalType": "uint256",
              "name": "producedate",
              "type": "uint256"
            },
            {
              "internalType": "uint256",
              "name": "testdate",
              "type": "uint256"
            },
            {
              "internalType": "uint256",
              "name": "transportdate",
              "type": "uint256"
            },
            {
              "internalType": "bool",
              "name": "pending",
              "type": "bool"
            },
            {
              "internalType": "bool",
              "name": "returned",
              "type": "bool"
            },
            {
              "internalType": "bool",
              "name": "confirmed",
              "type": "bool"
            },
            {
              "internalType": "bool",
              "name": "produced",
              "type": "bool"
            },
            {
              "internalType": "bool",
              "name": "tested",
              "type": "bool"
            },
            {
              "internalType": "bool",
              "name": "transported",
              "type": "bool"
            },
            {
              "internalType": "bool",
              "name": "recieved",
              "type": "bool"
            }
          ],
          "internalType": "struct Schain.OrderItem[]",
          "name": "",
          "type": "tuple[]"
        }
      ],
      "stateMutability": "view",
      "type": "function"
    },
    {
      "inputs": [],
      "name": "fetchMyOrders",
      "outputs": [
        {
          "components": [
            {
              "internalType": "uint256",
              "name": "id",
              "type": "uint256"
            },
            {
              "internalType": "address",
              "name": "owner",
              "type": "address"
            },
            {
              "internalType": "string",
              "name": "product",
              "type": "string"
            },
            {
              "internalType": "uint256",
              "name": "quantity",
              "type": "uint256"
            },
            {
              "internalType": "uint256",
              "name": "orderdate",
              "type": "uint256"
            },
            {
              "internalType": "uint256",
              "name": "price",
              "type": "uint256"
            },
            {
              "internalType": "string",
              "name": "addressLine",
              "type": "string"
            },
            {
              "internalType": "string",
              "name": "contact",
              "type": "string"
            },
            {
              "internalType": "string",
              "name": "city",
              "type": "string"
            },
            {
              "internalType": "string",
              "name": "review",
              "type": "string"
            },
            {
              "internalType": "string",
              "name": "zipcode",
              "type": "string"
            },
            {
              "internalType": "string",
              "name": "state",
              "type": "string"
            },
            {
              "internalType": "uint256",
              "name": "recievedate",
              "type": "uint256"
            },
            {
              "internalType": "uint256",
              "name": "confirmdate",
              "type": "uint256"
            },
            {
              "internalType": "uint256",
              "name": "producedate",
              "type": "uint256"
            },
            {
              "internalType": "uint256",
              "name": "testdate",
              "type": "uint256"
            },
            {
              "internalType": "uint256",
              "name": "transportdate",
              "type": "uint256"
            },
            {
              "internalType": "bool",
              "name": "pending",
              "type": "bool"
            },
            {
              "internalType": "bool",
              "name": "returned",
              "type": "bool"
            },
            {
              "internalType": "bool",
              "name": "confirmed",
              "type": "bool"
            },
            {
              "internalType": "bool",
              "name": "produced",
              "type": "bool"
            },
            {
              "internalType": "bool",
              "name": "tested",
              "type": "bool"
            },
            {
              "internalType": "bool",
              "name": "transported",
              "type": "bool"
            },
            {
              "internalType": "bool",
              "name": "recieved",
              "type": "bool"
            }
          ],
          "internalType": "struct Schain.OrderItem[]",
          "name": "",
          "type": "tuple[]"
        }
      ],
      "stateMutability": "view",
      "type": "function"
    },
    {
      "inputs": [],
      "name": "fetchOrderItems",
      "outputs": [
        {
          "components": [
            {
              "internalType": "uint256",
              "name": "id",
              "type": "uint256"
            },
            {
              "internalType": "address",
              "name": "owner",
              "type": "address"
            },
            {
              "internalType": "string",
              "name": "product",
              "type": "string"
            },
            {
              "internalType": "uint256",
              "name": "quantity",
              "type": "uint256"
            },
            {
              "internalType": "uint256",
              "name": "orderdate",
              "type": "uint256"
            },
            {
              "internalType": "uint256",
              "name": "price",
              "type": "uint256"
            },
            {
              "internalType": "string",
              "name": "addressLine",
              "type": "string"
            },
            {
              "internalType": "string",
              "name": "contact",
              "type": "string"
            },
            {
              "internalType": "string",
              "name": "city",
              "type": "string"
            },
            {
              "internalType": "string",
              "name": "review",
              "type": "string"
            },
            {
              "internalType": "string",
              "name": "zipcode",
              "type": "string"
            },
            {
              "internalType": "string",
              "name": "state",
              "type": "string"
            },
            {
              "internalType": "uint256",
              "name": "recievedate",
              "type": "uint256"
            },
            {
              "internalType": "uint256",
              "name": "confirmdate",
              "type": "uint256"
            },
            {
              "internalType": "uint256",
              "name": "producedate",
              "type": "uint256"
            },
            {
              "internalType": "uint256",
              "name": "testdate",
              "type": "uint256"
            },
            {
              "internalType": "uint256",
              "name": "transportdate",
              "type": "uint256"
            },
            {
              "internalType": "bool",
              "name": "pending",
              "type": "bool"
            },
            {
              "internalType": "bool",
              "name": "returned",
              "type": "bool"
            },
            {
              "internalType": "bool",
              "name": "confirmed",
              "type": "bool"
            },
            {
              "internalType": "bool",
              "name": "produced",
              "type": "bool"
            },
            {
              "internalType": "bool",
              "name": "tested",
              "type": "bool"
            },
            {
              "internalType": "bool",
              "name": "transported",
              "type": "bool"
            },
            {
              "internalType": "bool",
              "name": "recieved",
              "type": "bool"
            }
          ],
          "internalType": "struct Schain.OrderItem[]",
          "name": "",
          "type": "tuple[]"
        }
      ],
      "stateMutability": "view",
      "type": "function"
    },
    {
      "inputs": [],
      "name": "fetchOrdersConfirm",
      "outputs": [
        {
          "components": [
            {
              "internalType": "uint256",
              "name": "id",
              "type": "uint256"
            },
            {
              "internalType": "address",
              "name": "owner",
              "type": "address"
            },
            {
              "internalType": "string",
              "name": "product",
              "type": "string"
            },
            {
              "internalType": "uint256",
              "name": "quantity",
              "type": "uint256"
            },
            {
              "internalType": "uint256",
              "name": "orderdate",
              "type": "uint256"
            },
            {
              "internalType": "uint256",
              "name": "price",
              "type": "uint256"
            },
            {
              "internalType": "string",
              "name": "addressLine",
              "type": "string"
            },
            {
              "internalType": "string",
              "name": "contact",
              "type": "string"
            },
            {
              "internalType": "string",
              "name": "city",
              "type": "string"
            },
            {
              "internalType": "string",
              "name": "review",
              "type": "string"
            },
            {
              "internalType": "string",
              "name": "zipcode",
              "type": "string"
            },
            {
              "internalType": "string",
              "name": "state",
              "type": "string"
            },
            {
              "internalType": "uint256",
              "name": "recievedate",
              "type": "uint256"
            },
            {
              "internalType": "uint256",
              "name": "confirmdate",
              "type": "uint256"
            },
            {
              "internalType": "uint256",
              "name": "producedate",
              "type": "uint256"
            },
            {
              "internalType": "uint256",
              "name": "testdate",
              "type": "uint256"
            },
            {
              "internalType": "uint256",
              "name": "transportdate",
              "type": "uint256"
            },
            {
              "internalType": "bool",
              "name": "pending",
              "type": "bool"
            },
            {
              "internalType": "bool",
              "name": "returned",
              "type": "bool"
            },
            {
              "internalType": "bool",
              "name": "confirmed",
              "type": "bool"
            },
            {
              "internalType": "bool",
              "name": "produced",
              "type": "bool"
            },
            {
              "internalType": "bool",
              "name": "tested",
              "type": "bool"
            },
            {
              "internalType": "bool",
              "name": "transported",
              "type": "bool"
            },
            {
              "internalType": "bool",
              "name": "recieved",
              "type": "bool"
            }
          ],
          "internalType": "struct Schain.OrderItem[]",
          "name": "",
          "type": "tuple[]"
        }
      ],
      "stateMutability": "view",
      "type": "function"
    },
    {
      "inputs": [],
      "name": "fetchOrdersProduced",
      "outputs": [
        {
          "components": [
            {
              "internalType": "uint256",
              "name": "id",
              "type": "uint256"
            },
            {
              "internalType": "address",
              "name": "owner",
              "type": "address"
            },
            {
              "internalType": "string",
              "name": "product",
              "type": "string"
            },
            {
              "internalType": "uint256",
              "name": "quantity",
              "type": "uint256"
            },
            {
              "internalType": "uint256",
              "name": "orderdate",
              "type": "uint256"
            },
            {
              "internalType": "uint256",
              "name": "price",
              "type": "uint256"
            },
            {
              "internalType": "string",
              "name": "addressLine",
              "type": "string"
            },
            {
              "internalType": "string",
              "name": "contact",
              "type": "string"
            },
            {
              "internalType": "string",
              "name": "city",
              "type": "string"
            },
            {
              "internalType": "string",
              "name": "review",
              "type": "string"
            },
            {
              "internalType": "string",
              "name": "zipcode",
              "type": "string"
            },
            {
              "internalType": "string",
              "name": "state",
              "type": "string"
            },
            {
              "internalType": "uint256",
              "name": "recievedate",
              "type": "uint256"
            },
            {
              "internalType": "uint256",
              "name": "confirmdate",
              "type": "uint256"
            },
            {
              "internalType": "uint256",
              "name": "producedate",
              "type": "uint256"
            },
            {
              "internalType": "uint256",
              "name": "testdate",
              "type": "uint256"
            },
            {
              "internalType": "uint256",
              "name": "transportdate",
              "type": "uint256"
            },
            {
              "internalType": "bool",
              "name": "pending",
              "type": "bool"
            },
            {
              "internalType": "bool",
              "name": "returned",
              "type": "bool"
            },
            {
              "internalType": "bool",
              "name": "confirmed",
              "type": "bool"
            },
            {
              "internalType": "bool",
              "name": "produced",
              "type": "bool"
            },
            {
              "internalType": "bool",
              "name": "tested",
              "type": "bool"
            },
            {
              "internalType": "bool",
              "name": "transported",
              "type": "bool"
            },
            {
              "internalType": "bool",
              "name": "recieved",
              "type": "bool"
            }
          ],
          "internalType": "struct Schain.OrderItem[]",
          "name": "",
          "type": "tuple[]"
        }
      ],
      "stateMutability": "view",
      "type": "function"
    },
    {
      "inputs": [],
      "name": "fetchOrdersTested",
      "outputs": [
        {
          "components": [
            {
              "internalType": "uint256",
              "name": "id",
              "type": "uint256"
            },
            {
              "internalType": "address",
              "name": "owner",
              "type": "address"
            },
            {
              "internalType": "string",
              "name": "product",
              "type": "string"
            },
            {
              "internalType": "uint256",
              "name": "quantity",
              "type": "uint256"
            },
            {
              "internalType": "uint256",
              "name": "orderdate",
              "type": "uint256"
            },
            {
              "internalType": "uint256",
              "name": "price",
              "type": "uint256"
            },
            {
              "internalType": "string",
              "name": "addressLine",
              "type": "string"
            },
            {
              "internalType": "string",
              "name": "contact",
              "type": "string"
            },
            {
              "internalType": "string",
              "name": "city",
              "type": "string"
            },
            {
              "internalType": "string",
              "name": "review",
              "type": "string"
            },
            {
              "internalType": "string",
              "name": "zipcode",
              "type": "string"
            },
            {
              "internalType": "string",
              "name": "state",
              "type": "string"
            },
            {
              "internalType": "uint256",
              "name": "recievedate",
              "type": "uint256"
            },
            {
              "internalType": "uint256",
              "name": "confirmdate",
              "type": "uint256"
            },
            {
              "internalType": "uint256",
              "name": "producedate",
              "type": "uint256"
            },
            {
              "internalType": "uint256",
              "name": "testdate",
              "type": "uint256"
            },
            {
              "internalType": "uint256",
              "name": "transportdate",
              "type": "uint256"
            },
            {
              "internalType": "bool",
              "name": "pending",
              "type": "bool"
            },
            {
              "internalType": "bool",
              "name": "returned",
              "type": "bool"
            },
            {
              "internalType": "bool",
              "name": "confirmed",
              "type": "bool"
            },
            {
              "internalType": "bool",
              "name": "produced",
              "type": "bool"
            },
            {
              "internalType": "bool",
              "name": "tested",
              "type": "bool"
            },
            {
              "internalType": "bool",
              "name": "transported",
              "type": "bool"
            },
            {
              "internalType": "bool",
              "name": "recieved",
              "type": "bool"
            }
          ],
          "internalType": "struct Schain.OrderItem[]",
          "name": "",
          "type": "tuple[]"
        }
      ],
      "stateMutability": "view",
      "type": "function"
    },
    {
      "inputs": [],
      "name": "fetchOrdersTransported",
      "outputs": [
        {
          "components": [
            {
              "internalType": "uint256",
              "name": "id",
              "type": "uint256"
            },
            {
              "internalType": "address",
              "name": "owner",
              "type": "address"
            },
            {
              "internalType": "string",
              "name": "product",
              "type": "string"
            },
            {
              "internalType": "uint256",
              "name": "quantity",
              "type": "uint256"
            },
            {
              "internalType": "uint256",
              "name": "orderdate",
              "type": "uint256"
            },
            {
              "internalType": "uint256",
              "name": "price",
              "type": "uint256"
            },
            {
              "internalType": "string",
              "name": "addressLine",
              "type": "string"
            },
            {
              "internalType": "string",
              "name": "contact",
              "type": "string"
            },
            {
              "internalType": "string",
              "name": "city",
              "type": "string"
            },
            {
              "internalType": "string",
              "name": "review",
              "type": "string"
            },
            {
              "internalType": "string",
              "name": "zipcode",
              "type": "string"
            },
            {
              "internalType": "string",
              "name": "state",
              "type": "string"
            },
            {
              "internalType": "uint256",
              "name": "recievedate",
              "type": "uint256"
            },
            {
              "internalType": "uint256",
              "name": "confirmdate",
              "type": "uint256"
            },
            {
              "internalType": "uint256",
              "name": "producedate",
              "type": "uint256"
            },
            {
              "internalType": "uint256",
              "name": "testdate",
              "type": "uint256"
            },
            {
              "internalType": "uint256",
              "name": "transportdate",
              "type": "uint256"
            },
            {
              "internalType": "bool",
              "name": "pending",
              "type": "bool"
            },
            {
              "internalType": "bool",
              "name": "returned",
              "type": "bool"
            },
            {
              "internalType": "bool",
              "name": "confirmed",
              "type": "bool"
            },
            {
              "internalType": "bool",
              "name": "produced",
              "type": "bool"
            },
            {
              "internalType": "bool",
              "name": "tested",
              "type": "bool"
            },
            {
              "internalType": "bool",
              "name": "transported",
              "type": "bool"
            },
            {
              "internalType": "bool",
              "name": "recieved",
              "type": "bool"
            }
          ],
          "internalType": "struct Schain.OrderItem[]",
          "name": "",
          "type": "tuple[]"
        }
      ],
      "stateMutability": "view",
      "type": "function"
    },
    {
      "inputs": [],
      "name": "getEthUsd",
      "outputs": [
        {
          "internalType": "uint256",
          "name": "",
          "type": "uint256"
        }
      ],
      "stateMutability": "view",
      "type": "function"
    },
    {
      "inputs": [],
      "name": "ordersCount",
      "outputs": [
        {
          "internalType": "uint256",
          "name": "",
          "type": "uint256"
        }
      ],
      "stateMutability": "view",
      "type": "function"
    },
    {
      "inputs": [
        {
          "internalType": "uint256",
          "name": "_id",
          "type": "uint256"
        },
        {
          "internalType": "string",
          "name": "_role",
          "type": "string"
        }
      ],
      "name": "produceOrder",
      "outputs": [],
      "stateMutability": "nonpayable",
      "type": "function"
    },
    {
      "inputs": [
        {
          "internalType": "uint256",
          "name": "_id",
          "type": "uint256"
        }
      ],
      "name": "receiveOrder",
      "outputs": [],
      "stateMutability": "nonpayable",
      "type": "function"
    },
    {
      "inputs": [
        {
          "internalType": "uint256",
          "name": "_id",
          "type": "uint256"
        },
        {
          "internalType": "string",
          "name": "_review",
          "type": "string"
        }
      ],
      "name": "returnOrder",
      "outputs": [],
      "stateMutability": "nonpayable",
      "type": "function"
    },
    {
      "inputs": [
        {
          "internalType": "uint256",
          "name": "_id",
          "type": "uint256"
        },
        {
          "internalType": "string",
          "name": "_role",
          "type": "string"
        }
      ],
      "name": "testOrder",
      "outputs": [],
      "stateMutability": "nonpayable",
      "type": "function"
    },
    {
      "inputs": [
        {
          "internalType": "uint256",
          "name": "_id",
          "type": "uint256"
        },
        {
          "internalType": "string",
          "name": "_role",
          "type": "string"
        }
      ],
      "name": "transportOrder",
      "outputs": [],
      "stateMutability": "nonpayable",
      "type": "function"
    },
    {
      "inputs": [],
      "name": "usersCount",
      "outputs": [
        {
          "internalType": "uint256",
          "name": "",
          "type": "uint256"
        }
      ],
      "stateMutability": "view",
      "type": "function"
    }
  ],
  "bytecode": "0x608060405260006003556000600455600060055534801561001f57600080fd5b50600680546001600160a01b0319908116331790915560008054909116739326bfa02add2366b30bacb125260af641031331179055614c78806100636000396000f3fe60806040526004361061011f5760003560e01c8063911c027f116100a0578063bbb0335811610064578063bbb03358146102ba578063c8e45a6b146102cf578063d1e002fe146102ef578063df7128851461030f578063eaa44a421461032f57600080fd5b8063911c027f146102305780639534b3bf1461025057806397bab12f146102705780639fe2a7f414610290578063bb27e0ce146102a557600080fd5b80633d644327116100e75780633d644327146101bf5780636038821a146101d45780636735b3a7146101f45780636ba13a82146102075780638683c6121461021d57600080fd5b80630500418b14610124578063191b93511461014f5780631ca107fe146101645780632775bbc01461018657806335daa7311461019b575b600080fd5b34801561013057600080fd5b50610139610344565b60405161014691906148ff565b60405180910390f35b34801561015b57600080fd5b506101396109b3565b34801561017057600080fd5b5061018461017f366004614823565b611075565b005b34801561019257600080fd5b506101396113e1565b3480156101a757600080fd5b506101b160045481565b604051908152602001610146565b3480156101cb57600080fd5b50610139611ae8565b3480156101e057600080fd5b506101846101ef366004614823565b6120c3565b6101846102023660046146b7565b612375565b34801561021357600080fd5b506101b160035481565b61018461022b366004614712565b61247f565b34801561023c57600080fd5b5061018461024b366004614823565b6126b5565b34801561025c57600080fd5b506101b161026b36600461480b565b61273c565b34801561027c57600080fd5b5061018461028b36600461480b565b61276b565b34801561029c57600080fd5b50610139612a02565b3480156102b157600080fd5b506101b1613111565b3480156102c657600080fd5b506101396131a3565b3480156102db57600080fd5b506101846102ea366004614823565b6138c0565b3480156102fb57600080fd5b5061018461030a366004614823565b613a0f565b34801561031b57600080fd5b5061018461032a366004614823565b613b5f565b34801561033b57600080fd5b50610139613cb1565b600454606090600080805b838110156103aa573360026000610367846001614b39565b81526020810191909152604001600020600101546001600160a01b0316141561039857610395600184614b39565b92505b806103a281614bfb565b91505061034f565b5060008267ffffffffffffffff8111156103d457634e487b7160e01b600052604160045260246000fd5b60405190808252806020026020018201604052801561040d57816020015b6103fa614435565b8152602001906001900390816103f25790505b50905060005b848110156109aa57336002600061042b846001614b39565b81526020810191909152604001600020600101546001600160a01b0316141561099857600061045b826001614b39565b6000818152600260208181526040928390208351610300810185528154815260018201546001600160a01b0316928101929092529182018054949550919390928492908401916104aa90614bc0565b80601f01602080910402602001604051908101604052809291908181526020018280546104d690614bc0565b80156105235780601f106104f857610100808354040283529160200191610523565b820191906000526020600020905b81548152906001019060200180831161050657829003601f168201915b5050505050815260200160038201548152602001600482015481526020016005820154815260200160068201805461055a90614bc0565b80601f016020809104026020016040519081016040528092919081815260200182805461058690614bc0565b80156105d35780601f106105a8576101008083540402835291602001916105d3565b820191906000526020600020905b8154815290600101906020018083116105b657829003601f168201915b505050505081526020016007820180546105ec90614bc0565b80601f016020809104026020016040519081016040528092919081815260200182805461061890614bc0565b80156106655780601f1061063a57610100808354040283529160200191610665565b820191906000526020600020905b81548152906001019060200180831161064857829003601f168201915b5050505050815260200160088201805461067e90614bc0565b80601f01602080910402602001604051908101604052809291908181526020018280546106aa90614bc0565b80156106f75780601f106106cc576101008083540402835291602001916106f7565b820191906000526020600020905b8154815290600101906020018083116106da57829003601f168201915b5050505050815260200160098201805461071090614bc0565b80601f016020809104026020016040519081016040528092919081815260200182805461073c90614bc0565b80156107895780601f1061075e57610100808354040283529160200191610789565b820191906000526020600020905b81548152906001019060200180831161076c57829003601f168201915b50505050508152602001600a820180546107a290614bc0565b80601f01602080910402602001604051908101604052809291908181526020018280546107ce90614bc0565b801561081b5780601f106107f05761010080835404028352916020019161081b565b820191906000526020600020905b8154815290600101906020018083116107fe57829003601f168201915b50505050508152602001600b8201805461083490614bc0565b80601f016020809104026020016040519081016040528092919081815260200182805461086090614bc0565b80156108ad5780601f10610882576101008083540402835291602001916108ad565b820191906000526020600020905b81548152906001019060200180831161089057829003601f168201915b5050509183525050600c8201546020820152600d8201546040820152600e8201546060820152600f8201546080820152601082015460a082015260119091015460ff808216151560c08401526101008083048216151560e085015262010000830482161515908401526301000000820481161515610120840152600160201b820481161515610140840152600160281b820481161515610160840152600160301b90910416151561018090910152845185908790811061097d57634e487b7160e01b600052603260045260246000fd5b6020908102919091010152610993600186614b39565b945050505b806109a281614bfb565b915050610413565b50949350505050565b600454606090600080805b83811015610a4757600260006109d5836001614b39565b8152602081019190915260400160009081206001908101546001600160a01b031691600291610a05908590614b39565b81526020810191909152604001600020600101546001600160a01b031614610a3557610a32600184614b39565b92505b80610a3f81614bfb565b9150506109be565b5060008267ffffffffffffffff811115610a7157634e487b7160e01b600052604160045260246000fd5b604051908082528060200260200182016040528015610aaa57816020015b610a97614435565b815260200190600190039081610a8f5790505b50905060005b848110156109aa5760026000610ac7836001614b39565b8152602081019190915260400160009081206001908101546001600160a01b031691600291610af7908590614b39565b81526020810191909152604001600020600101546001600160a01b031614611063576000610b26826001614b39565b6000818152600260208181526040928390208351610300810185528154815260018201546001600160a01b031692810192909252918201805494955091939092849290840191610b7590614bc0565b80601f0160208091040260200160405190810160405280929190818152602001828054610ba190614bc0565b8015610bee5780601f10610bc357610100808354040283529160200191610bee565b820191906000526020600020905b815481529060010190602001808311610bd157829003601f168201915b50505050508152602001600382015481526020016004820154815260200160058201548152602001600682018054610c2590614bc0565b80601f0160208091040260200160405190810160405280929190818152602001828054610c5190614bc0565b8015610c9e5780601f10610c7357610100808354040283529160200191610c9e565b820191906000526020600020905b815481529060010190602001808311610c8157829003601f168201915b50505050508152602001600782018054610cb790614bc0565b80601f0160208091040260200160405190810160405280929190818152602001828054610ce390614bc0565b8015610d305780601f10610d0557610100808354040283529160200191610d30565b820191906000526020600020905b815481529060010190602001808311610d1357829003601f168201915b50505050508152602001600882018054610d4990614bc0565b80601f0160208091040260200160405190810160405280929190818152602001828054610d7590614bc0565b8015610dc25780601f10610d9757610100808354040283529160200191610dc2565b820191906000526020600020905b815481529060010190602001808311610da557829003601f168201915b50505050508152602001600982018054610ddb90614bc0565b80601f0160208091040260200160405190810160405280929190818152602001828054610e0790614bc0565b8015610e545780601f10610e2957610100808354040283529160200191610e54565b820191906000526020600020905b815481529060010190602001808311610e3757829003601f168201915b50505050508152602001600a82018054610e6d90614bc0565b80601f0160208091040260200160405190810160405280929190818152602001828054610e9990614bc0565b8015610ee65780601f10610ebb57610100808354040283529160200191610ee6565b820191906000526020600020905b815481529060010190602001808311610ec957829003601f168201915b50505050508152602001600b82018054610eff90614bc0565b80601f0160208091040260200160405190810160405280929190818152602001828054610f2b90614bc0565b8015610f785780601f10610f4d57610100808354040283529160200191610f78565b820191906000526020600020905b815481529060010190602001808311610f5b57829003601f168201915b5050509183525050600c8201546020820152600d8201546040820152600e8201546060820152600f8201546080820152601082015460a082015260119091015460ff808216151560c08401526101008083048216151560e085015262010000830482161515908401526301000000820481161515610120840152600160201b820481161515610140840152600160281b820481161515610160840152600160301b90910416151561018090910152845185908790811061104857634e487b7160e01b600052603260045260246000fd5b602090810291909101015261105e600186614b39565b945050505b8061106d81614bfb565b915050610ab0565b60008211801561108757506004548211155b6110ac5760405162461bcd60e51b81526004016110a390614b0d565b60405180910390fd5b60006001826040516110be91906148e3565b90815260405190819003602001902060028101549091506001600160a01b03163314156111415760405162461bcd60e51b815260206004820152602b60248201527f596f7520646f6e742068617665207065726d697373696f6e20746f207472616e60448201526a39b837b93a1037b93232b960a91b60648201526084016110a3565b60008381526002602052604090206011810154600160281b900460ff161561116857600080fd5b60118101805460ff60281b1916600160281b17905542601082015560008481526002602081905260409091208254815560018381015490820180546001600160a01b0319166001600160a01b0390921691909117905581830180548493830191906111d290614bc0565b6111dd929190614501565b50600382015481600301556004820154816004015560058201548160050155600682018160060190805461121090614bc0565b61121b929190614501565b50600782018160070190805461123090614bc0565b61123b929190614501565b50600882018160080190805461125090614bc0565b61125b929190614501565b50600982018160090190805461127090614bc0565b61127b929190614501565b50600a820181600a0190805461129090614bc0565b61129b929190614501565b50600b820181600b019080546112b090614bc0565b6112bb929190614501565b50600c8281015490820155600d8083015490820155600e8083015490820155600f8083015490820155601080830154908201556011918201805492909101805460ff938416151560ff19821681178355835461010090819004861615150261ff001990911661ffff19909216919091171780825582546201000090819004851615150262ff0000198216811783558354630100000090819004861615150263ff0000001990911663ffff00001990921691909117178082558254600160201b90819004851615150264ff00000000198216811783558354600160281b90819004861615150260ff60281b1990911665ffff000000001990921691909117178082559154600160301b90819004909316151590920260ff60301b1990911617905550505050565b600454606090600080805b838110156114e85760026000611403836001614b39565b815260208101919091526040016000206011015462010000900460ff16158015611457575060026000611437836001614b39565b81526020810191909152604001600020601101546301000000900460ff16155b801561148d57506002600061146d836001614b39565b8152602081019190915260400160002060110154600160201b900460ff16155b80156114c35750600260006114a3836001614b39565b8152602081019190915260400160002060110154600160281b900460ff16155b156114d6576114d3600184614b39565b92505b806114e081614bfb565b9150506113ec565b5060008267ffffffffffffffff81111561151257634e487b7160e01b600052604160045260246000fd5b60405190808252806020026020018201604052801561154b57816020015b611538614435565b8152602001906001900390816115305790505b50905060005b848110156109aa573360026000611569846001614b39565b81526020810191909152604001600020600101546001600160a01b03161415611ad6576000611599826001614b39565b6000818152600260208181526040928390208351610300810185528154815260018201546001600160a01b0316928101929092529182018054949550919390928492908401916115e890614bc0565b80601f016020809104026020016040519081016040528092919081815260200182805461161490614bc0565b80156116615780601f1061163657610100808354040283529160200191611661565b820191906000526020600020905b81548152906001019060200180831161164457829003601f168201915b5050505050815260200160038201548152602001600482015481526020016005820154815260200160068201805461169890614bc0565b80601f01602080910402602001604051908101604052809291908181526020018280546116c490614bc0565b80156117115780601f106116e657610100808354040283529160200191611711565b820191906000526020600020905b8154815290600101906020018083116116f457829003601f168201915b5050505050815260200160078201805461172a90614bc0565b80601f016020809104026020016040519081016040528092919081815260200182805461175690614bc0565b80156117a35780601f10611778576101008083540402835291602001916117a3565b820191906000526020600020905b81548152906001019060200180831161178657829003601f168201915b505050505081526020016008820180546117bc90614bc0565b80601f01602080910402602001604051908101604052809291908181526020018280546117e890614bc0565b80156118355780601f1061180a57610100808354040283529160200191611835565b820191906000526020600020905b81548152906001019060200180831161181857829003601f168201915b5050505050815260200160098201805461184e90614bc0565b80601f016020809104026020016040519081016040528092919081815260200182805461187a90614bc0565b80156118c75780601f1061189c576101008083540402835291602001916118c7565b820191906000526020600020905b8154815290600101906020018083116118aa57829003601f168201915b50505050508152602001600a820180546118e090614bc0565b80601f016020809104026020016040519081016040528092919081815260200182805461190c90614bc0565b80156119595780601f1061192e57610100808354040283529160200191611959565b820191906000526020600020905b81548152906001019060200180831161193c57829003601f168201915b50505050508152602001600b8201805461197290614bc0565b80601f016020809104026020016040519081016040528092919081815260200182805461199e90614bc0565b80156119eb5780601f106119c0576101008083540402835291602001916119eb565b820191906000526020600020905b8154815290600101906020018083116119ce57829003601f168201915b5050509183525050600c8201546020820152600d8201546040820152600e8201546060820152600f8201546080820152601082015460a082015260119091015460ff808216151560c08401526101008083048216151560e085015262010000830482161515908401526301000000820481161515610120840152600160201b820481161515610140840152600160281b820481161515610160840152600160301b909104161515610180909101528451859087908110611abb57634e487b7160e01b600052603260045260246000fd5b6020908102919091010152611ad1600186614b39565b945050505b80611ae081614bfb565b915050611551565b6004546060906000808267ffffffffffffffff811115611b1857634e487b7160e01b600052604160045260246000fd5b604051908082528060200260200182016040528015611b5157816020015b611b3e614435565b815260200190600190039081611b365790505b50905060005b838110156120bb576000611b6c826001614b39565b6000818152600260208181526040928390208351610300810185528154815260018201546001600160a01b031692810192909252918201805494955091939092849290840191611bbb90614bc0565b80601f0160208091040260200160405190810160405280929190818152602001828054611be790614bc0565b8015611c345780601f10611c0957610100808354040283529160200191611c34565b820191906000526020600020905b815481529060010190602001808311611c1757829003601f168201915b50505050508152602001600382015481526020016004820154815260200160058201548152602001600682018054611c6b90614bc0565b80601f0160208091040260200160405190810160405280929190818152602001828054611c9790614bc0565b8015611ce45780601f10611cb957610100808354040283529160200191611ce4565b820191906000526020600020905b815481529060010190602001808311611cc757829003601f168201915b50505050508152602001600782018054611cfd90614bc0565b80601f0160208091040260200160405190810160405280929190818152602001828054611d2990614bc0565b8015611d765780601f10611d4b57610100808354040283529160200191611d76565b820191906000526020600020905b815481529060010190602001808311611d5957829003601f168201915b50505050508152602001600882018054611d8f90614bc0565b80601f0160208091040260200160405190810160405280929190818152602001828054611dbb90614bc0565b8015611e085780601f10611ddd57610100808354040283529160200191611e08565b820191906000526020600020905b815481529060010190602001808311611deb57829003601f168201915b50505050508152602001600982018054611e2190614bc0565b80601f0160208091040260200160405190810160405280929190818152602001828054611e4d90614bc0565b8015611e9a5780601f10611e6f57610100808354040283529160200191611e9a565b820191906000526020600020905b815481529060010190602001808311611e7d57829003601f168201915b50505050508152602001600a82018054611eb390614bc0565b80601f0160208091040260200160405190810160405280929190818152602001828054611edf90614bc0565b8015611f2c5780601f10611f0157610100808354040283529160200191611f2c565b820191906000526020600020905b815481529060010190602001808311611f0f57829003601f168201915b50505050508152602001600b82018054611f4590614bc0565b80601f0160208091040260200160405190810160405280929190818152602001828054611f7190614bc0565b8015611fbe5780601f10611f9357610100808354040283529160200191611fbe565b820191906000526020600020905b815481529060010190602001808311611fa157829003601f168201915b5050509183525050600c8201546020820152600d8201546040820152600e8201546060820152600f8201546080820152601082015460a082015260119091015460ff808216151560c08401526101008083048216151560e085015262010000830482161515908401526301000000820481161515610120840152600160201b820481161515610140840152600160281b820481161515610160840152600160301b90910416151561018090910152845185908790811061208e57634e487b7160e01b600052603260045260246000fd5b60209081029190910101526120a4600186614b39565b9450505080806120b390614bfb565b915050611b57565b509392505050565b6000821180156120d557506004548211155b6120f15760405162461bcd60e51b81526004016110a390614b0d565b600082815260026020908152604090912082519091612117916009840191850190614588565b5060008381526002602081905260409091208254815560018084015490820180546001600160a01b0319166001600160a01b03909216919091179055818301805484938301919061216790614bc0565b612172929190614501565b5060038201548160030155600482015481600401556005820154816005015560068201816006019080546121a590614bc0565b6121b0929190614501565b5060078201816007019080546121c590614bc0565b6121d0929190614501565b5060088201816008019080546121e590614bc0565b6121f0929190614501565b50600982018160090190805461220590614bc0565b612210929190614501565b50600a820181600a0190805461222590614bc0565b612230929190614501565b50600b820181600b0190805461224590614bc0565b612250929190614501565b50600c8281015490820155600d8083015490820155600e8083015490820155600f8083015490820155601080830154908201556011918201805492909101805460ff938416151560ff19821681178355835461010090819004861615150261ff001990911661ffff19909216919091171780825582546201000090819004851615150262ff0000198216811783558354630100000090819004861615150263ff0000001990911663ffff00001990921691909117178082558254600160201b90819004851615150264ff00000000198216811783558354600160281b90819004861615150260ff60281b1990911665ffff000000001990921691909117178082559154600160301b90819004909316151590920260ff60301b19909116179055505050565b600060018360405161238791906148e3565b90815260405190819003602001902060028101549091506001600160a01b038381169116146123f85760405162461bcd60e51b815260206004820152601b60248201527f526f6c6520686173206265656e20616464656420616c7265616479000000000060448201526064016110a3565b6005805490600061240883614bfb565b909155505082516124229060018301906020860190614588565b506002810180546001600160a01b0319166001600160a01b0384161790556040517f39424c9407ac30223629511a00efdeb9175e3d425784e26c07c28265dd69ceab906124729085908590614ae3565b60405180910390a1505050565b600034116124cf5760405162461bcd60e51b815260206004820152601c60248201527f5072696365206d757374206265206174206c656173742031207765690000000060448201526064016110a3565b6000861161251f5760405162461bcd60e51b815260206004820152601f60248201527f7175616e74697479206d7573742062652067726561746572207468616e20300060448201526064016110a3565b3361252957600080fd5b6004805490600061253983614bfb565b90915550506003805490600061254e83614bfb565b9091555050600454600090815260026020526040808220600654915190926001600160a01b039092169182913480156108fc0292909190818181858888f193505050501580156125a2573d6000803e3d6000fd5b5060045482556001820180546001600160a01b0319163317905588516125d190600284019060208c0190614588565b506003820188905542600483015534600583015586516125fa90600684019060208a0190614588565b5085516126109060078401906020890190614588565b5084516126269060088401906020880190614588565b50604080516020810191829052600090819052612647916009850191614588565b50835161265d90600a8401906020870190614588565b50825161267390600b8401906020860190614588565b50506000600c8201819055600e8201819055600d8201819055600f82018190556010820155601101805466ffffffffffffff1916600117905550505050505050565b6000821180156126c757506004548211155b6126e35760405162461bcd60e51b81526004016110a390614b0d565b600082815260026020819052604090912060118101805465ffffffffff0019166101001790556001810180546001600160a01b031981166001600160a01b03909116179055908101805482918291819061216790614bc0565b600080612747613111565b90506127648161275e85662386f26fc100006143c7565b906143d3565b9392505050565b60008111801561277d57506004548111155b6127995760405162461bcd60e51b81526004016110a390614b0d565b600081815260026020819052604090912060118101805466ff0000000000ff1916600160301b1790556001810180546001600160a01b031981166001600160a01b0390911617905590810180548291829181906127f590614bc0565b612800929190614501565b50600382015481600301556004820154816004015560058201548160050155600682018160060190805461283390614bc0565b61283e929190614501565b50600782018160070190805461285390614bc0565b61285e929190614501565b50600882018160080190805461287390614bc0565b61287e929190614501565b50600982018160090190805461289390614bc0565b61289e929190614501565b50600a820181600a019080546128b390614bc0565b6128be929190614501565b50600b820181600b019080546128d390614bc0565b6128de929190614501565b50600c8281015490820155600d8083015490820155600e8083015490820155600f8083015490820155601080830154908201556011918201805492909101805460ff938416151560ff19821681178355835461010090819004861615150261ff001990911661ffff19909216919091171780825582546201000090819004851615150262ff0000198216811783558354630100000090819004861615150263ff0000001990911663ffff00001990921691909117178082558254600160201b90819004851615150264ff00000000198216811783558354600160281b90819004861615150260ff60281b1990911665ffff000000001990921691909117178082559154600160301b90819004909316151590920260ff60301b199091161790555050565b600454606090600080805b83811015612b115760026000612a24836001614b39565b815260200190815260200160002060110160029054906101000a900460ff16151560011515148015612a80575060026000612a60836001614b39565b81526020810191909152604001600020601101546301000000900460ff16155b8015612ab6575060026000612a96836001614b39565b8152602081019190915260400160002060110154600160201b900460ff16155b8015612aec575060026000612acc836001614b39565b8152602081019190915260400160002060110154600160281b900460ff16155b15612aff57612afc600184614b39565b92505b80612b0981614bfb565b915050612a0d565b5060008267ffffffffffffffff811115612b3b57634e487b7160e01b600052604160045260246000fd5b604051908082528060200260200182016040528015612b7457816020015b612b61614435565b815260200190600190039081612b595790505b50905060005b848110156109aa573360026000612b92846001614b39565b81526020810191909152604001600020600101546001600160a01b031614156130ff576000612bc2826001614b39565b6000818152600260208181526040928390208351610300810185528154815260018201546001600160a01b031692810192909252918201805494955091939092849290840191612c1190614bc0565b80601f0160208091040260200160405190810160405280929190818152602001828054612c3d90614bc0565b8015612c8a5780601f10612c5f57610100808354040283529160200191612c8a565b820191906000526020600020905b815481529060010190602001808311612c6d57829003601f168201915b50505050508152602001600382015481526020016004820154815260200160058201548152602001600682018054612cc190614bc0565b80601f0160208091040260200160405190810160405280929190818152602001828054612ced90614bc0565b8015612d3a5780601f10612d0f57610100808354040283529160200191612d3a565b820191906000526020600020905b815481529060010190602001808311612d1d57829003601f168201915b50505050508152602001600782018054612d5390614bc0565b80601f0160208091040260200160405190810160405280929190818152602001828054612d7f90614bc0565b8015612dcc5780601f10612da157610100808354040283529160200191612dcc565b820191906000526020600020905b815481529060010190602001808311612daf57829003601f168201915b50505050508152602001600882018054612de590614bc0565b80601f0160208091040260200160405190810160405280929190818152602001828054612e1190614bc0565b8015612e5e5780601f10612e3357610100808354040283529160200191612e5e565b820191906000526020600020905b815481529060010190602001808311612e4157829003601f168201915b50505050508152602001600982018054612e7790614bc0565b80601f0160208091040260200160405190810160405280929190818152602001828054612ea390614bc0565b8015612ef05780601f10612ec557610100808354040283529160200191612ef0565b820191906000526020600020905b815481529060010190602001808311612ed357829003601f168201915b50505050508152602001600a82018054612f0990614bc0565b80601f0160208091040260200160405190810160405280929190818152602001828054612f3590614bc0565b8015612f825780601f10612f5757610100808354040283529160200191612f82565b820191906000526020600020905b815481529060010190602001808311612f6557829003601f168201915b50505050508152602001600b82018054612f9b90614bc0565b80601f0160208091040260200160405190810160405280929190818152602001828054612fc790614bc0565b80156130145780601f10612fe957610100808354040283529160200191613014565b820191906000526020600020905b815481529060010190602001808311612ff757829003601f168201915b5050509183525050600c8201546020820152600d8201546040820152600e8201546060820152600f8201546080820152601082015460a082015260119091015460ff808216151560c08401526101008083048216151560e085015262010000830482161515908401526301000000820481161515610120840152600160201b820481161515610140840152600160281b820481161515610160840152600160301b9091041615156101809091015284518590879081106130e457634e487b7160e01b600052603260045260246000fd5b60209081029190910101526130fa600186614b39565b945050505b8061310981614bfb565b915050612b7a565b6000805460408051633fabe5a360e21b8152905183926001600160a01b03169163feaf968c9160048083019260a0929190829003018186803b15801561315657600080fd5b505afa15801561316a573d6000803e3d6000fd5b505050506040513d601f19601f8201168201806040525081019061318e9190614868565b50505091505061319d816143df565b91505090565b600454606090600080805b838110156132c057600260006131c5836001614b39565b815260200190815260200160002060110160029054906101000a900460ff16151560011515148015613228575060026000613201836001614b39565b815260200190815260200160002060110160039054906101000a900460ff16151560011515145b801561326557506002600061323e836001614b39565b815260200190815260200160002060110160049054906101000a900460ff16151560011515145b801561329b57506002600061327b836001614b39565b8152602081019190915260400160002060110154600160281b900460ff16155b156132ae576132ab600184614b39565b92505b806132b881614bfb565b9150506131ae565b5060008267ffffffffffffffff8111156132ea57634e487b7160e01b600052604160045260246000fd5b60405190808252806020026020018201604052801561332357816020015b613310614435565b8152602001906001900390816133085790505b50905060005b848110156109aa573360026000613341846001614b39565b81526020810191909152604001600020600101546001600160a01b031614156138ae576000613371826001614b39565b6000818152600260208181526040928390208351610300810185528154815260018201546001600160a01b0316928101929092529182018054949550919390928492908401916133c090614bc0565b80601f01602080910402602001604051908101604052809291908181526020018280546133ec90614bc0565b80156134395780601f1061340e57610100808354040283529160200191613439565b820191906000526020600020905b81548152906001019060200180831161341c57829003601f168201915b5050505050815260200160038201548152602001600482015481526020016005820154815260200160068201805461347090614bc0565b80601f016020809104026020016040519081016040528092919081815260200182805461349c90614bc0565b80156134e95780601f106134be576101008083540402835291602001916134e9565b820191906000526020600020905b8154815290600101906020018083116134cc57829003601f168201915b5050505050815260200160078201805461350290614bc0565b80601f016020809104026020016040519081016040528092919081815260200182805461352e90614bc0565b801561357b5780601f106135505761010080835404028352916020019161357b565b820191906000526020600020905b81548152906001019060200180831161355e57829003601f168201915b5050505050815260200160088201805461359490614bc0565b80601f01602080910402602001604051908101604052809291908181526020018280546135c090614bc0565b801561360d5780601f106135e25761010080835404028352916020019161360d565b820191906000526020600020905b8154815290600101906020018083116135f057829003601f168201915b5050505050815260200160098201805461362690614bc0565b80601f016020809104026020016040519081016040528092919081815260200182805461365290614bc0565b801561369f5780601f106136745761010080835404028352916020019161369f565b820191906000526020600020905b81548152906001019060200180831161368257829003601f168201915b50505050508152602001600a820180546136b890614bc0565b80601f01602080910402602001604051908101604052809291908181526020018280546136e490614bc0565b80156137315780601f1061370657610100808354040283529160200191613731565b820191906000526020600020905b81548152906001019060200180831161371457829003601f168201915b50505050508152602001600b8201805461374a90614bc0565b80601f016020809104026020016040519081016040528092919081815260200182805461377690614bc0565b80156137c35780601f10613798576101008083540402835291602001916137c3565b820191906000526020600020905b8154815290600101906020018083116137a657829003601f168201915b5050509183525050600c8201546020820152600d8201546040820152600e8201546060820152600f8201546080820152601082015460a082015260119091015460ff808216151560c08401526101008083048216151560e085015262010000830482161515908401526301000000820481161515610120840152600160201b820481161515610140840152600160281b820481161515610160840152600160301b90910416151561018090910152845185908790811061389357634e487b7160e01b600052603260045260246000fd5b60209081029190910101526138a9600186614b39565b945050505b806138b881614bfb565b915050613329565b6000821180156138d257506004548211155b6138ee5760405162461bcd60e51b81526004016110a390614b0d565b600060018260405161390091906148e3565b90815260405190819003602001902060028101549091506001600160a01b03163314156139815760405162461bcd60e51b815260206004820152602960248201527f596f7520646f6e742068617665207065726d697373696f6e20746f20636f6e6660448201526834b9369037b93232b960b91b60648201526084016110a3565b6000838152600260205260409020601181015462010000900460ff16156139a757600080fd5b60118101805462ff000019166201000017905542600d82015560008481526002602081905260409091208254815560018381015490820180546001600160a01b0319166001600160a01b0390921691909117905581830180548493830191906111d290614bc0565b600082118015613a2157506004548211155b613a3d5760405162461bcd60e51b81526004016110a390614b0d565b6000600182604051613a4f91906148e3565b90815260405190819003602001902060028101549091506001600160a01b0316331415613acd5760405162461bcd60e51b815260206004820152602660248201527f596f7520646f6e742068617665207065726d697373696f6e20746f20746573746044820152651037b93232b960d11b60648201526084016110a3565b60008381526002602052604090206011810154600160201b900460ff1615613af457600080fd5b60118101805464ff000000001916600160201b17905542600f82015560008481526002602081905260409091208254815560018381015490820180546001600160a01b0319166001600160a01b0390921691909117905581830180548493830191906111d290614bc0565b600082118015613b7157506004548211155b613b8d5760405162461bcd60e51b81526004016110a390614b0d565b6000600182604051613b9f91906148e3565b90815260405190819003602001902060028101549091506001600160a01b0316331415613c205760405162461bcd60e51b815260206004820152602960248201527f596f7520646f6e742068617665207065726d697373696f6e20746f2070726f646044820152683ab1b29037b93232b960b91b60648201526084016110a3565b600083815260026020526040902060118101546301000000900460ff1615613c4757600080fd5b60118101805463ff0000001916630100000017905542600e82015560008481526002602081905260409091208254815560018381015490820180546001600160a01b0319166001600160a01b0390921691909117905581830180548493830191906111d290614bc0565b600454606090600080805b83811015613dc75760026000613cd3836001614b39565b815260200190815260200160002060110160029054906101000a900460ff16151560011515148015613d36575060026000613d0f836001614b39565b815260200190815260200160002060110160039054906101000a900460ff16151560011515145b8015613d6c575060026000613d4c836001614b39565b8152602081019190915260400160002060110154600160201b900460ff16155b8015613da2575060026000613d82836001614b39565b8152602081019190915260400160002060110154600160281b900460ff16155b15613db557613db2600184614b39565b92505b80613dbf81614bfb565b915050613cbc565b5060008267ffffffffffffffff811115613df157634e487b7160e01b600052604160045260246000fd5b604051908082528060200260200182016040528015613e2a57816020015b613e17614435565b815260200190600190039081613e0f5790505b50905060005b848110156109aa573360026000613e48846001614b39565b81526020810191909152604001600020600101546001600160a01b031614156143b5576000613e78826001614b39565b6000818152600260208181526040928390208351610300810185528154815260018201546001600160a01b031692810192909252918201805494955091939092849290840191613ec790614bc0565b80601f0160208091040260200160405190810160405280929190818152602001828054613ef390614bc0565b8015613f405780601f10613f1557610100808354040283529160200191613f40565b820191906000526020600020905b815481529060010190602001808311613f2357829003601f168201915b50505050508152602001600382015481526020016004820154815260200160058201548152602001600682018054613f7790614bc0565b80601f0160208091040260200160405190810160405280929190818152602001828054613fa390614bc0565b8015613ff05780601f10613fc557610100808354040283529160200191613ff0565b820191906000526020600020905b815481529060010190602001808311613fd357829003601f168201915b5050505050815260200160078201805461400990614bc0565b80601f016020809104026020016040519081016040528092919081815260200182805461403590614bc0565b80156140825780601f1061405757610100808354040283529160200191614082565b820191906000526020600020905b81548152906001019060200180831161406557829003601f168201915b5050505050815260200160088201805461409b90614bc0565b80601f01602080910402602001604051908101604052809291908181526020018280546140c790614bc0565b80156141145780601f106140e957610100808354040283529160200191614114565b820191906000526020600020905b8154815290600101906020018083116140f757829003601f168201915b5050505050815260200160098201805461412d90614bc0565b80601f016020809104026020016040519081016040528092919081815260200182805461415990614bc0565b80156141a65780601f1061417b576101008083540402835291602001916141a6565b820191906000526020600020905b81548152906001019060200180831161418957829003601f168201915b50505050508152602001600a820180546141bf90614bc0565b80601f01602080910402602001604051908101604052809291908181526020018280546141eb90614bc0565b80156142385780601f1061420d57610100808354040283529160200191614238565b820191906000526020600020905b81548152906001019060200180831161421b57829003601f168201915b50505050508152602001600b8201805461425190614bc0565b80601f016020809104026020016040519081016040528092919081815260200182805461427d90614bc0565b80156142ca5780601f1061429f576101008083540402835291602001916142ca565b820191906000526020600020905b8154815290600101906020018083116142ad57829003601f168201915b5050509183525050600c8201546020820152600d8201546040820152600e8201546060820152600f8201546080820152601082015460a082015260119091015460ff808216151560c08401526101008083048216151560e085015262010000830482161515908401526301000000820481161515610120840152600160201b820481161515610140840152600160281b820481161515610160840152600160301b90910416151561018090910152845185908790811061439a57634e487b7160e01b600052603260045260246000fd5b60209081029190910101526143b0600186614b39565b945050505b806143bf81614bfb565b915050613e30565b60006127648284614b71565b60006127648284614b51565b6000808212156144315760405162461bcd60e51b815260206004820181905260248201527f53616665436173743a2076616c7565206d75737420626520706f73697469766560448201526064016110a3565b5090565b6040518061030001604052806000815260200160006001600160a01b031681526020016060815260200160008152602001600081526020016000815260200160608152602001606081526020016060815260200160608152602001606081526020016060815260200160008152602001600081526020016000815260200160008152602001600081526020016000151581526020016000151581526020016000151581526020016000151581526020016000151581526020016000151581526020016000151581525090565b82805461450d90614bc0565b90600052602060002090601f01602090048101928261452f576000855561457c565b82601f10614540578054855561457c565b8280016001018555821561457c57600052602060002091601f016020900482015b8281111561457c578254825591600101919060010190614561565b506144319291506145fc565b82805461459490614bc0565b90600052602060002090601f0160209004810192826145b6576000855561457c565b82601f106145cf57805160ff191683800117855561457c565b8280016001018555821561457c579182015b8281111561457c5782518255916020019190600101906145e1565b5b8082111561443157600081556001016145fd565b600082601f830112614621578081fd5b813567ffffffffffffffff8082111561463c5761463c614c2c565b604051601f8301601f19908116603f0116810190828211818310171561466457614664614c2c565b8160405283815286602085880101111561467c578485fd5b8360208701602083013792830160200193909352509392505050565b805169ffffffffffffffffffff811681146146b257600080fd5b919050565b600080604083850312156146c9578182fd5b823567ffffffffffffffff8111156146df578283fd5b6146eb85828601614611565b92505060208301356001600160a01b0381168114614707578182fd5b809150509250929050565b600080600080600080600060e0888a03121561472c578283fd5b873567ffffffffffffffff80821115614743578485fd5b61474f8b838c01614611565b985060208a0135975060408a013591508082111561476b578485fd5b6147778b838c01614611565b965060608a013591508082111561478c578485fd5b6147988b838c01614611565b955060808a01359150808211156147ad578485fd5b6147b98b838c01614611565b945060a08a01359150808211156147ce578384fd5b6147da8b838c01614611565b935060c08a01359150808211156147ef578283fd5b506147fc8a828b01614611565b91505092959891949750929550565b60006020828403121561481c578081fd5b5035919050565b60008060408385031215614835578182fd5b82359150602083013567ffffffffffffffff811115614852578182fd5b61485e85828601614611565b9150509250929050565b600080600080600060a0868803121561487f578081fd5b61488886614698565b94506020860151935060408601519250606086015191506148ab60808701614698565b90509295509295909350565b600081518084526148cf816020860160208601614b90565b601f01601f19169290920160200192915050565b600082516148f5818460208701614b90565b9190910192915050565b60006020808301818452808551808352604092508286019150828160051b870101848801865b83811015614ad557603f19898403018552815180518452878101516001600160a01b0316888501528681015161030088860181905290614967828701826148b7565b606084810151908801526080808501519088015260a0808501519088015260c080850151888303828a015291935091506149a183826148b7565b9250505060e080830151868303828801526149bc83826148b7565b9250505061010080830151868303828801526149d883826148b7565b9250505061012080830151868303828801526149f483826148b7565b925050506101408083015186830382880152614a1083826148b7565b925050506101608083015186830382880152614a2c83826148b7565b61018085810151908901526101a080860151908901526101c080860151908901526101e080860151908901526102008086015190890152610220808601511515908901526102408086015115159089015261026080860151151590890152610280808601511515908901526102a0808601511515908901526102c0808601511515908901526102e094850151151594909701939093525050509386019390860190600101614925565b509098975050505050505050565b604081526000614af660408301856148b7565b905060018060a01b03831660208301529392505050565b6020808252601290820152711bdc99195c881a59081b9bdd081d985b1a5960721b604082015260600190565b60008219821115614b4c57614b4c614c16565b500190565b600082614b6c57634e487b7160e01b81526012600452602481fd5b500490565b6000816000190483118215151615614b8b57614b8b614c16565b500290565b60005b83811015614bab578181015183820152602001614b93565b83811115614bba576000848401525b50505050565b600181811c90821680614bd457607f821691505b60208210811415614bf557634e487b7160e01b600052602260045260246000fd5b50919050565b6000600019821415614c0f57614c0f614c16565b5060010190565b634e487b7160e01b600052601160045260246000fd5b634e487b7160e01b600052604160045260246000fdfea26469706673582212204f40a9d4a7373ef2bfeef8699df38ce05a2753ec2e7dc8594033e03854011cb664736f6c63430008040033",
  "linkReferences": {},
  "deployedLinkReferences": {}
}