{
  "_format": "hh-sol-artifact-1",
  "contractName": "Schain",
  "sourceName": "contracts/Schain.sol",
  "abi": [
    {
      "inputs": [],
      "stateMutability": "nonpayable",
      "type": "constructor"
    },
    {
      "anonymous": false,
      "inputs": [
        {
          "indexed": true,
          "internalType": "uint256",
          "name": "id",
          "type": "uint256"
        },
        {
          "indexed": false,
          "internalType": "address",
          "name": "owner",
          "type": "address"
        },
        {
          "indexed": false,
          "internalType": "string",
          "name": "product",
          "type": "string"
        },
        {
          "indexed": false,
          "internalType": "uint256",
          "name": "quantity",
          "type": "uint256"
        },
        {
          "indexed": false,
          "internalType": "uint256",
          "name": "orderdate",
          "type": "uint256"
        },
        {
          "indexed": false,
          "internalType": "uint256",
          "name": "price",
          "type": "uint256"
        },
        {
          "indexed": false,
          "internalType": "string",
          "name": "addressLine",
          "type": "string"
        },
        {
          "indexed": false,
          "internalType": "string",
          "name": "contact",
          "type": "string"
        },
        {
          "indexed": false,
          "internalType": "string",
          "name": "city",
          "type": "string"
        },
        {
          "indexed": false,
          "internalType": "string",
          "name": "review",
          "type": "string"
        },
        {
          "indexed": false,
          "internalType": "string",
          "name": "zipcode",
          "type": "string"
        },
        {
          "indexed": false,
          "internalType": "string",
          "name": "state",
          "type": "string"
        },
        {
          "indexed": false,
          "internalType": "uint256",
          "name": "recievedate",
          "type": "uint256"
        },
        {
          "indexed": false,
          "internalType": "uint256",
          "name": "confirmdate",
          "type": "uint256"
        },
        {
          "indexed": false,
          "internalType": "uint256",
          "name": "producedate",
          "type": "uint256"
        },
        {
          "indexed": false,
          "internalType": "uint256",
          "name": "testdate",
          "type": "uint256"
        },
        {
          "indexed": false,
          "internalType": "uint256",
          "name": "transportdate",
          "type": "uint256"
        },
        {
          "indexed": false,
          "internalType": "bool",
          "name": "pending",
          "type": "bool"
        },
        {
          "indexed": false,
          "internalType": "bool",
          "name": "returned",
          "type": "bool"
        },
        {
          "indexed": false,
          "internalType": "bool",
          "name": "confirmed",
          "type": "bool"
        },
        {
          "indexed": false,
          "internalType": "bool",
          "name": "produced",
          "type": "bool"
        },
        {
          "indexed": false,
          "internalType": "bool",
          "name": "tested",
          "type": "bool"
        },
        {
          "indexed": false,
          "internalType": "bool",
          "name": "transported",
          "type": "bool"
        },
        {
          "indexed": false,
          "internalType": "bool",
          "name": "recieved",
          "type": "bool"
        }
      ],
      "name": "AddOrder",
      "type": "event"
    },
    {
      "anonymous": false,
      "inputs": [
        {
          "indexed": false,
          "internalType": "string",
          "name": "role",
          "type": "string"
        },
        {
          "indexed": false,
          "internalType": "address",
          "name": "roleaddress",
          "type": "address"
        }
      ],
      "name": "RoleAdded",
      "type": "event"
    },
    {
      "inputs": [
        {
          "internalType": "string",
          "name": "_product",
          "type": "string"
        },
        {
          "internalType": "uint256",
          "name": "_quantity",
          "type": "uint256"
        },
        {
          "internalType": "string",
          "name": "_addressline",
          "type": "string"
        },
        {
          "internalType": "string",
          "name": "_contact",
          "type": "string"
        },
        {
          "internalType": "string",
          "name": "_city",
          "type": "string"
        },
        {
          "internalType": "string",
          "name": "_zipcode",
          "type": "string"
        },
        {
          "internalType": "string",
          "name": "_state",
          "type": "string"
        }
      ],
      "name": "addOrderItem",
      "outputs": [],
      "stateMutability": "payable",
      "type": "function"
    },
    {
      "inputs": [
        {
          "internalType": "uint256",
          "name": "_id",
          "type": "uint256"
        },
        {
          "internalType": "string",
          "name": "_review",
          "type": "string"
        }
      ],
      "name": "addReveiw",
      "outputs": [],
      "stateMutability": "nonpayable",
      "type": "function"
    },
    {
      "inputs": [
        {
          "internalType": "string",
          "name": "_role",
          "type": "string"
        },
        {
          "internalType": "address",
          "name": "_roleaddress",
          "type": "address"
        }
      ],
      "name": "addRole",
      "outputs": [],
      "stateMutability": "payable",
      "type": "function"
    },
    {
      "inputs": [
        {
          "internalType": "uint256",
          "name": "_id",
          "type": "uint256"
        },
        {
          "internalType": "string",
          "name": "_role",
          "type": "string"
        }
      ],
      "name": "confrimOrder",
      "outputs": [],
      "stateMutability": "nonpayable",
      "type": "function"
    },
    {
      "inputs": [
        {
          "internalType": "uint256",
          "name": "_amountInUsd",
          "type": "uint256"
        }
      ],
      "name": "convertEthUsd",
      "outputs": [
        {
          "internalType": "uint256",
          "name": "",
          "type": "uint256"
        }
      ],
      "stateMutability": "view",
      "type": "function"
    },
    {
      "inputs": [],
      "name": "fetchCustomers",
      "outputs": [
        {
          "components": [
            {
              "internalType": "uint256",
              "name": "id",
              "type": "uint256"
            },
            {
              "internalType": "address",
              "name": "owner",
              "type": "address"
            },
            {
              "internalType": "string",
              "name": "product",
              "type": "string"
            },
            {
              "internalType": "uint256",
              "name": "quantity",
              "type": "uint256"
            },
            {
              "internalType": "uint256",
              "name": "orderdate",
              "type": "uint256"
            },
            {
              "internalType": "uint256",
              "name": "price",
              "type": "uint256"
            },
            {
              "internalType": "string",
              "name": "addressLine",
              "type": "string"
            },
            {
              "internalType": "string",
              "name": "contact",
              "type": "string"
            },
            {
              "internalType": "string",
              "name": "city",
              "type": "string"
            },
            {
              "internalType": "string",
              "name": "review",
              "type": "string"
            },
            {
              "internalType": "string",
              "name": "zipcode",
              "type": "string"
            },
            {
              "internalType": "string",
              "name": "state",
              "type": "string"
            },
            {
              "internalType": "uint256",
              "name": "recievedate",
              "type": "uint256"
            },
            {
              "internalType": "uint256",
              "name": "confirmdate",
              "type": "uint256"
            },
            {
              "internalType": "uint256",
              "name": "producedate",
              "type": "uint256"
            },
            {
              "internalType": "uint256",
              "name": "testdate",
              "type": "uint256"
            },
            {
              "internalType": "uint256",
              "name": "transportdate",
              "type": "uint256"
            },
            {
              "internalType": "bool",
              "name": "pending",
              "type": "bool"
            },
            {
              "internalType": "bool",
              "name": "returned",
              "type": "bool"
            },
            {
              "internalType": "bool",
              "name": "confirmed",
              "type": "bool"
            },
            {
              "internalType": "bool",
              "name": "produced",
              "type": "bool"
            },
            {
              "internalType": "bool",
              "name": "tested",
              "type": "bool"
            },
            {
              "internalType": "bool",
              "name": "transported",
              "type": "bool"
            },
            {
              "internalType": "bool",
              "name": "recieved",
              "type": "bool"
            }
          ],
          "internalType": "struct Schain.OrderItem[]",
          "name": "",
          "type": "tuple[]"
        }
      ],
      "stateMutability": "view",
      "type": "function"
    },
    {
      "inputs": [],
      "name": "fetchMyOrders",
      "outputs": [
        {
          "components": [
            {
              "internalType": "uint256",
              "name": "id",
              "type": "uint256"
            },
            {
              "internalType": "address",
              "name": "owner",
              "type": "address"
            },
            {
              "internalType": "string",
              "name": "product",
              "type": "string"
            },
            {
              "internalType": "uint256",
              "name": "quantity",
              "type": "uint256"
            },
            {
              "internalType": "uint256",
              "name": "orderdate",
              "type": "uint256"
            },
            {
              "internalType": "uint256",
              "name": "price",
              "type": "uint256"
            },
            {
              "internalType": "string",
              "name": "addressLine",
              "type": "string"
            },
            {
              "internalType": "string",
              "name": "contact",
              "type": "string"
            },
            {
              "internalType": "string",
              "name": "city",
              "type": "string"
            },
            {
              "internalType": "string",
              "name": "review",
              "type": "string"
            },
            {
              "internalType": "string",
              "name": "zipcode",
              "type": "string"
            },
            {
              "internalType": "string",
              "name": "state",
              "type": "string"
            },
            {
              "internalType": "uint256",
              "name": "recievedate",
              "type": "uint256"
            },
            {
              "internalType": "uint256",
              "name": "confirmdate",
              "type": "uint256"
            },
            {
              "internalType": "uint256",
              "name": "producedate",
              "type": "uint256"
            },
            {
              "internalType": "uint256",
              "name": "testdate",
              "type": "uint256"
            },
            {
              "internalType": "uint256",
              "name": "transportdate",
              "type": "uint256"
            },
            {
              "internalType": "bool",
              "name": "pending",
              "type": "bool"
            },
            {
              "internalType": "bool",
              "name": "returned",
              "type": "bool"
            },
            {
              "internalType": "bool",
              "name": "confirmed",
              "type": "bool"
            },
            {
              "internalType": "bool",
              "name": "produced",
              "type": "bool"
            },
            {
              "internalType": "bool",
              "name": "tested",
              "type": "bool"
            },
            {
              "internalType": "bool",
              "name": "transported",
              "type": "bool"
            },
            {
              "internalType": "bool",
              "name": "recieved",
              "type": "bool"
            }
          ],
          "internalType": "struct Schain.OrderItem[]",
          "name": "",
          "type": "tuple[]"
        }
      ],
      "stateMutability": "view",
      "type": "function"
    },
    {
      "inputs": [],
      "name": "fetchOrderItems",
      "outputs": [
        {
          "components": [
            {
              "internalType": "uint256",
              "name": "id",
              "type": "uint256"
            },
            {
              "internalType": "address",
              "name": "owner",
              "type": "address"
            },
            {
              "internalType": "string",
              "name": "product",
              "type": "string"
            },
            {
              "internalType": "uint256",
              "name": "quantity",
              "type": "uint256"
            },
            {
              "internalType": "uint256",
              "name": "orderdate",
              "type": "uint256"
            },
            {
              "internalType": "uint256",
              "name": "price",
              "type": "uint256"
            },
            {
              "internalType": "string",
              "name": "addressLine",
              "type": "string"
            },
            {
              "internalType": "string",
              "name": "contact",
              "type": "string"
            },
            {
              "internalType": "string",
              "name": "city",
              "type": "string"
            },
            {
              "internalType": "string",
              "name": "review",
              "type": "string"
            },
            {
              "internalType": "string",
              "name": "zipcode",
              "type": "string"
            },
            {
              "internalType": "string",
              "name": "state",
              "type": "string"
            },
            {
              "internalType": "uint256",
              "name": "recievedate",
              "type": "uint256"
            },
            {
              "internalType": "uint256",
              "name": "confirmdate",
              "type": "uint256"
            },
            {
              "internalType": "uint256",
              "name": "producedate",
              "type": "uint256"
            },
            {
              "internalType": "uint256",
              "name": "testdate",
              "type": "uint256"
            },
            {
              "internalType": "uint256",
              "name": "transportdate",
              "type": "uint256"
            },
            {
              "internalType": "bool",
              "name": "pending",
              "type": "bool"
            },
            {
              "internalType": "bool",
              "name": "returned",
              "type": "bool"
            },
            {
              "internalType": "bool",
              "name": "confirmed",
              "type": "bool"
            },
            {
              "internalType": "bool",
              "name": "produced",
              "type": "bool"
            },
            {
              "internalType": "bool",
              "name": "tested",
              "type": "bool"
            },
            {
              "internalType": "bool",
              "name": "transported",
              "type": "bool"
            },
            {
              "internalType": "bool",
              "name": "recieved",
              "type": "bool"
            }
          ],
          "internalType": "struct Schain.OrderItem[]",
          "name": "",
          "type": "tuple[]"
        }
      ],
      "stateMutability": "view",
      "type": "function"
    },
    {
      "inputs": [],
      "name": "fetchOrdersConfirm",
      "outputs": [
        {
          "components": [
            {
              "internalType": "uint256",
              "name": "id",
              "type": "uint256"
            },
            {
              "internalType": "address",
              "name": "owner",
              "type": "address"
            },
            {
              "internalType": "string",
              "name": "product",
              "type": "string"
            },
            {
              "internalType": "uint256",
              "name": "quantity",
              "type": "uint256"
            },
            {
              "internalType": "uint256",
              "name": "orderdate",
              "type": "uint256"
            },
            {
              "internalType": "uint256",
              "name": "price",
              "type": "uint256"
            },
            {
              "internalType": "string",
              "name": "addressLine",
              "type": "string"
            },
            {
              "internalType": "string",
              "name": "contact",
              "type": "string"
            },
            {
              "internalType": "string",
              "name": "city",
              "type": "string"
            },
            {
              "internalType": "string",
              "name": "review",
              "type": "string"
            },
            {
              "internalType": "string",
              "name": "zipcode",
              "type": "string"
            },
            {
              "internalType": "string",
              "name": "state",
              "type": "string"
            },
            {
              "internalType": "uint256",
              "name": "recievedate",
              "type": "uint256"
            },
            {
              "internalType": "uint256",
              "name": "confirmdate",
              "type": "uint256"
            },
            {
              "internalType": "uint256",
              "name": "producedate",
              "type": "uint256"
            },
            {
              "internalType": "uint256",
              "name": "testdate",
              "type": "uint256"
            },
            {
              "internalType": "uint256",
              "name": "transportdate",
              "type": "uint256"
            },
            {
              "internalType": "bool",
              "name": "pending",
              "type": "bool"
            },
            {
              "internalType": "bool",
              "name": "returned",
              "type": "bool"
            },
            {
              "internalType": "bool",
              "name": "confirmed",
              "type": "bool"
            },
            {
              "internalType": "bool",
              "name": "produced",
              "type": "bool"
            },
            {
              "internalType": "bool",
              "name": "tested",
              "type": "bool"
            },
            {
              "internalType": "bool",
              "name": "transported",
              "type": "bool"
            },
            {
              "internalType": "bool",
              "name": "recieved",
              "type": "bool"
            }
          ],
          "internalType": "struct Schain.OrderItem[]",
          "name": "",
          "type": "tuple[]"
        }
      ],
      "stateMutability": "view",
      "type": "function"
    },
    {
      "inputs": [],
      "name": "fetchOrdersProduced",
      "outputs": [
        {
          "components": [
            {
              "internalType": "uint256",
              "name": "id",
              "type": "uint256"
            },
            {
              "internalType": "address",
              "name": "owner",
              "type": "address"
            },
            {
              "internalType": "string",
              "name": "product",
              "type": "string"
            },
            {
              "internalType": "uint256",
              "name": "quantity",
              "type": "uint256"
            },
            {
              "internalType": "uint256",
              "name": "orderdate",
              "type": "uint256"
            },
            {
              "internalType": "uint256",
              "name": "price",
              "type": "uint256"
            },
            {
              "internalType": "string",
              "name": "addressLine",
              "type": "string"
            },
            {
              "internalType": "string",
              "name": "contact",
              "type": "string"
            },
            {
              "internalType": "string",
              "name": "city",
              "type": "string"
            },
            {
              "internalType": "string",
              "name": "review",
              "type": "string"
            },
            {
              "internalType": "string",
              "name": "zipcode",
              "type": "string"
            },
            {
              "internalType": "string",
              "name": "state",
              "type": "string"
            },
            {
              "internalType": "uint256",
              "name": "recievedate",
              "type": "uint256"
            },
            {
              "internalType": "uint256",
              "name": "confirmdate",
              "type": "uint256"
            },
            {
              "internalType": "uint256",
              "name": "producedate",
              "type": "uint256"
            },
            {
              "internalType": "uint256",
              "name": "testdate",
              "type": "uint256"
            },
            {
              "internalType": "uint256",
              "name": "transportdate",
              "type": "uint256"
            },
            {
              "internalType": "bool",
              "name": "pending",
              "type": "bool"
            },
            {
              "internalType": "bool",
              "name": "returned",
              "type": "bool"
            },
            {
              "internalType": "bool",
              "name": "confirmed",
              "type": "bool"
            },
            {
              "internalType": "bool",
              "name": "produced",
              "type": "bool"
            },
            {
              "internalType": "bool",
              "name": "tested",
              "type": "bool"
            },
            {
              "internalType": "bool",
              "name": "transported",
              "type": "bool"
            },
            {
              "internalType": "bool",
              "name": "recieved",
              "type": "bool"
            }
          ],
          "internalType": "struct Schain.OrderItem[]",
          "name": "",
          "type": "tuple[]"
        }
      ],
      "stateMutability": "view",
      "type": "function"
    },
    {
      "inputs": [],
      "name": "fetchOrdersTested",
      "outputs": [
        {
          "components": [
            {
              "internalType": "uint256",
              "name": "id",
              "type": "uint256"
            },
            {
              "internalType": "address",
              "name": "owner",
              "type": "address"
            },
            {
              "internalType": "string",
              "name": "product",
              "type": "string"
            },
            {
              "internalType": "uint256",
              "name": "quantity",
              "type": "uint256"
            },
            {
              "internalType": "uint256",
              "name": "orderdate",
              "type": "uint256"
            },
            {
              "internalType": "uint256",
              "name": "price",
              "type": "uint256"
            },
            {
              "internalType": "string",
              "name": "addressLine",
              "type": "string"
            },
            {
              "internalType": "string",
              "name": "contact",
              "type": "string"
            },
            {
              "internalType": "string",
              "name": "city",
              "type": "string"
            },
            {
              "internalType": "string",
              "name": "review",
              "type": "string"
            },
            {
              "internalType": "string",
              "name": "zipcode",
              "type": "string"
            },
            {
              "internalType": "string",
              "name": "state",
              "type": "string"
            },
            {
              "internalType": "uint256",
              "name": "recievedate",
              "type": "uint256"
            },
            {
              "internalType": "uint256",
              "name": "confirmdate",
              "type": "uint256"
            },
            {
              "internalType": "uint256",
              "name": "producedate",
              "type": "uint256"
            },
            {
              "internalType": "uint256",
              "name": "testdate",
              "type": "uint256"
            },
            {
              "internalType": "uint256",
              "name": "transportdate",
              "type": "uint256"
            },
            {
              "internalType": "bool",
              "name": "pending",
              "type": "bool"
            },
            {
              "internalType": "bool",
              "name": "returned",
              "type": "bool"
            },
            {
              "internalType": "bool",
              "name": "confirmed",
              "type": "bool"
            },
            {
              "internalType": "bool",
              "name": "produced",
              "type": "bool"
            },
            {
              "internalType": "bool",
              "name": "tested",
              "type": "bool"
            },
            {
              "internalType": "bool",
              "name": "transported",
              "type": "bool"
            },
            {
              "internalType": "bool",
              "name": "recieved",
              "type": "bool"
            }
          ],
          "internalType": "struct Schain.OrderItem[]",
          "name": "",
          "type": "tuple[]"
        }
      ],
      "stateMutability": "view",
      "type": "function"
    },
    {
      "inputs": [],
      "name": "fetchOrdersTransported",
      "outputs": [
        {
          "components": [
            {
              "internalType": "uint256",
              "name": "id",
              "type": "uint256"
            },
            {
              "internalType": "address",
              "name": "owner",
              "type": "address"
            },
            {
              "internalType": "string",
              "name": "product",
              "type": "string"
            },
            {
              "internalType": "uint256",
              "name": "quantity",
              "type": "uint256"
            },
            {
              "internalType": "uint256",
              "name": "orderdate",
              "type": "uint256"
            },
            {
              "internalType": "uint256",
              "name": "price",
              "type": "uint256"
            },
            {
              "internalType": "string",
              "name": "addressLine",
              "type": "string"
            },
            {
              "internalType": "string",
              "name": "contact",
              "type": "string"
            },
            {
              "internalType": "string",
              "name": "city",
              "type": "string"
            },
            {
              "internalType": "string",
              "name": "review",
              "type": "string"
            },
            {
              "internalType": "string",
              "name": "zipcode",
              "type": "string"
            },
            {
              "internalType": "string",
              "name": "state",
              "type": "string"
            },
            {
              "internalType": "uint256",
              "name": "recievedate",
              "type": "uint256"
            },
            {
              "internalType": "uint256",
              "name": "confirmdate",
              "type": "uint256"
            },
            {
              "internalType": "uint256",
              "name": "producedate",
              "type": "uint256"
            },
            {
              "internalType": "uint256",
              "name": "testdate",
              "type": "uint256"
            },
            {
              "internalType": "uint256",
              "name": "transportdate",
              "type": "uint256"
            },
            {
              "internalType": "bool",
              "name": "pending",
              "type": "bool"
            },
            {
              "internalType": "bool",
              "name": "returned",
              "type": "bool"
            },
            {
              "internalType": "bool",
              "name": "confirmed",
              "type": "bool"
            },
            {
              "internalType": "bool",
              "name": "produced",
              "type": "bool"
            },
            {
              "internalType": "bool",
              "name": "tested",
              "type": "bool"
            },
            {
              "internalType": "bool",
              "name": "transported",
              "type": "bool"
            },
            {
              "internalType": "bool",
              "name": "recieved",
              "type": "bool"
            }
          ],
          "internalType": "struct Schain.OrderItem[]",
          "name": "",
          "type": "tuple[]"
        }
      ],
      "stateMutability": "view",
      "type": "function"
    },
    {
      "inputs": [],
      "name": "getEthUsd",
      "outputs": [
        {
          "internalType": "uint256",
          "name": "",
          "type": "uint256"
        }
      ],
      "stateMutability": "view",
      "type": "function"
    },
    {
      "inputs": [],
      "name": "ordersCount",
      "outputs": [
        {
          "internalType": "uint256",
          "name": "",
          "type": "uint256"
        }
      ],
      "stateMutability": "view",
      "type": "function"
    },
    {
      "inputs": [
        {
          "internalType": "uint256",
          "name": "_id",
          "type": "uint256"
        },
        {
          "internalType": "string",
          "name": "_role",
          "type": "string"
        }
      ],
      "name": "produceOrder",
      "outputs": [],
      "stateMutability": "nonpayable",
      "type": "function"
    },
    {
      "inputs": [
        {
          "internalType": "uint256",
          "name": "_id",
          "type": "uint256"
        }
      ],
      "name": "receiveOrder",
      "outputs": [],
      "stateMutability": "nonpayable",
      "type": "function"
    },
    {
      "inputs": [
        {
          "internalType": "uint256",
          "name": "_id",
          "type": "uint256"
        }
      ],
      "name": "returnOrder",
      "outputs": [],
      "stateMutability": "nonpayable",
      "type": "function"
    },
    {
      "inputs": [
        {
          "internalType": "uint256",
          "name": "_id",
          "type": "uint256"
        },
        {
          "internalType": "string",
          "name": "_role",
          "type": "string"
        }
      ],
      "name": "testOrder",
      "outputs": [],
      "stateMutability": "nonpayable",
      "type": "function"
    },
    {
      "inputs": [
        {
          "internalType": "uint256",
          "name": "_id",
          "type": "uint256"
        },
        {
          "internalType": "string",
          "name": "_role",
          "type": "string"
        }
      ],
      "name": "transportOrder",
      "outputs": [],
      "stateMutability": "nonpayable",
      "type": "function"
    },
    {
      "inputs": [],
      "name": "usersCount",
      "outputs": [
        {
          "internalType": "uint256",
          "name": "",
          "type": "uint256"
        }
      ],
      "stateMutability": "view",
      "type": "function"
    },
    {
      "inputs": [
        {
          "internalType": "string",
          "name": "_role",
          "type": "string"
        },
        {
          "internalType": "address",
          "name": "_roleaddress",
          "type": "address"
        }
      ],
      "name": "validateRole",
      "outputs": [
        {
          "internalType": "bool",
          "name": "",
          "type": "bool"
        }
      ],
      "stateMutability": "view",
      "type": "function"
    }
  ],
  "bytecode": "0x608060405260006003556000600455600060055534801561001f57600080fd5b50600680546001600160a01b0319908116331790915560008054909116739326bfa02add2366b30bacb125260af641031331179055614db0806100636000396000f3fe60806040526004361061012a5760003560e01c8063780d27b1116100ab578063bb27e0ce1161006f578063bb27e0ce146102e0578063bbb03358146102f5578063c8e45a6b1461030a578063d1e002fe1461032a578063df7128851461034a578063eaa44a421461036a57600080fd5b8063780d27b1146102585780638683c612146102785780639534b3bf1461028b57806397bab12f146102ab5780639fe2a7f4146102cb57600080fd5b806335daa731116100f257806335daa731146101d65780633d644327146101fa5780636038821a1461020f5780636735b3a71461022f5780636ba13a821461024257600080fd5b80630500418b1461012f5780630e55f29b1461015a578063191b93511461018a5780631ca107fe1461019f5780632775bbc0146101c1575b600080fd5b34801561013b57600080fd5b5061014461037f565b6040516101519190614a24565b60405180910390f35b34801561016657600080fd5b5061017a6101753660046147dc565b6109ee565b6040519015158152602001610151565b34801561019657600080fd5b50610144610a3e565b3480156101ab57600080fd5b506101bf6101ba366004614948565b61109e565b005b3480156101cd57600080fd5b50610144611412565b3480156101e257600080fd5b506101ec60045481565b604051908152602001610151565b34801561020657600080fd5b50610144611bba565b34801561021b57600080fd5b506101bf61022a366004614948565b612195565b6101bf61023d3660046147dc565b612239565b34801561024e57600080fd5b506101ec60035481565b34801561026457600080fd5b506101bf610273366004614930565b6122e3565b6101bf610286366004614837565b61257d565b34801561029757600080fd5b506101ec6102a6366004614930565b6127b3565b3480156102b757600080fd5b506101bf6102c6366004614930565b6127e2565b3480156102d757600080fd5b5061014461286c565b3480156102ec57600080fd5b506101ec613024565b34801561030157600080fd5b506101446130b6565b34801561031657600080fd5b506101bf610325366004614948565b61388a565b34801561033657600080fd5b506101bf610345366004614948565b613a19565b34801561035657600080fd5b506101bf610365366004614948565b613b6b565b34801561037657600080fd5b50610144613cbf565b600454606090600080805b838110156103e55733600260006103a2846001614c71565b81526020810191909152604001600020600101546001600160a01b031614156103d3576103d0600184614c71565b92505b806103dd81614d33565b91505061038a565b5060008267ffffffffffffffff81111561040f57634e487b7160e01b600052604160045260246000fd5b60405190808252806020026020018201604052801561044857816020015b61043561455a565b81526020019060019003908161042d5790505b50905060005b848110156109e5573360026000610466846001614c71565b81526020810191909152604001600020600101546001600160a01b031614156109d3576000610496826001614c71565b6000818152600260208181526040928390208351610300810185528154815260018201546001600160a01b0316928101929092529182018054949550919390928492908401916104e590614cf8565b80601f016020809104026020016040519081016040528092919081815260200182805461051190614cf8565b801561055e5780601f106105335761010080835404028352916020019161055e565b820191906000526020600020905b81548152906001019060200180831161054157829003601f168201915b5050505050815260200160038201548152602001600482015481526020016005820154815260200160068201805461059590614cf8565b80601f01602080910402602001604051908101604052809291908181526020018280546105c190614cf8565b801561060e5780601f106105e35761010080835404028352916020019161060e565b820191906000526020600020905b8154815290600101906020018083116105f157829003601f168201915b5050505050815260200160078201805461062790614cf8565b80601f016020809104026020016040519081016040528092919081815260200182805461065390614cf8565b80156106a05780601f10610675576101008083540402835291602001916106a0565b820191906000526020600020905b81548152906001019060200180831161068357829003601f168201915b505050505081526020016008820180546106b990614cf8565b80601f01602080910402602001604051908101604052809291908181526020018280546106e590614cf8565b80156107325780601f1061070757610100808354040283529160200191610732565b820191906000526020600020905b81548152906001019060200180831161071557829003601f168201915b5050505050815260200160098201805461074b90614cf8565b80601f016020809104026020016040519081016040528092919081815260200182805461077790614cf8565b80156107c45780601f10610799576101008083540402835291602001916107c4565b820191906000526020600020905b8154815290600101906020018083116107a757829003601f168201915b50505050508152602001600a820180546107dd90614cf8565b80601f016020809104026020016040519081016040528092919081815260200182805461080990614cf8565b80156108565780601f1061082b57610100808354040283529160200191610856565b820191906000526020600020905b81548152906001019060200180831161083957829003601f168201915b50505050508152602001600b8201805461086f90614cf8565b80601f016020809104026020016040519081016040528092919081815260200182805461089b90614cf8565b80156108e85780601f106108bd576101008083540402835291602001916108e8565b820191906000526020600020905b8154815290600101906020018083116108cb57829003601f168201915b5050509183525050600c8201546020820152600d8201546040820152600e8201546060820152600f8201546080820152601082015460a082015260119091015460ff808216151560c08401526101008083048216151560e085015262010000830482161515908401526301000000820481161515610120840152600160201b820481161515610140840152600160281b820481161515610160840152600160301b9091041615156101809091015284518590879081106109b857634e487b7160e01b600052603260045260246000fd5b60209081029190910101526109ce600186614c71565b945050505b806109dd81614d33565b91505061044e565b50949350505050565b6000816001600160a01b0316600184604051610a0a9190614a08565b908152604051908190036020019020600201546001600160a01b03161415610a3457506001610a38565b5060005b92915050565b600454606090600080805b83811015610a7057610a5c600184614c71565b925080610a6881614d33565b915050610a49565b5060008267ffffffffffffffff811115610a9a57634e487b7160e01b600052604160045260246000fd5b604051908082528060200260200182016040528015610ad357816020015b610ac061455a565b815260200190600190039081610ab85790505b50905060005b848110156109e55760026000610af0836001614c71565b8152602081019190915260400160009081206001908101546001600160a01b031691600291610b20908590614c71565b81526020810191909152604001600020600101546001600160a01b03161461108c576000610b4f826001614c71565b6000818152600260208181526040928390208351610300810185528154815260018201546001600160a01b031692810192909252918201805494955091939092849290840191610b9e90614cf8565b80601f0160208091040260200160405190810160405280929190818152602001828054610bca90614cf8565b8015610c175780601f10610bec57610100808354040283529160200191610c17565b820191906000526020600020905b815481529060010190602001808311610bfa57829003601f168201915b50505050508152602001600382015481526020016004820154815260200160058201548152602001600682018054610c4e90614cf8565b80601f0160208091040260200160405190810160405280929190818152602001828054610c7a90614cf8565b8015610cc75780601f10610c9c57610100808354040283529160200191610cc7565b820191906000526020600020905b815481529060010190602001808311610caa57829003601f168201915b50505050508152602001600782018054610ce090614cf8565b80601f0160208091040260200160405190810160405280929190818152602001828054610d0c90614cf8565b8015610d595780601f10610d2e57610100808354040283529160200191610d59565b820191906000526020600020905b815481529060010190602001808311610d3c57829003601f168201915b50505050508152602001600882018054610d7290614cf8565b80601f0160208091040260200160405190810160405280929190818152602001828054610d9e90614cf8565b8015610deb5780601f10610dc057610100808354040283529160200191610deb565b820191906000526020600020905b815481529060010190602001808311610dce57829003601f168201915b50505050508152602001600982018054610e0490614cf8565b80601f0160208091040260200160405190810160405280929190818152602001828054610e3090614cf8565b8015610e7d5780601f10610e5257610100808354040283529160200191610e7d565b820191906000526020600020905b815481529060010190602001808311610e6057829003601f168201915b50505050508152602001600a82018054610e9690614cf8565b80601f0160208091040260200160405190810160405280929190818152602001828054610ec290614cf8565b8015610f0f5780601f10610ee457610100808354040283529160200191610f0f565b820191906000526020600020905b815481529060010190602001808311610ef257829003601f168201915b50505050508152602001600b82018054610f2890614cf8565b80601f0160208091040260200160405190810160405280929190818152602001828054610f5490614cf8565b8015610fa15780601f10610f7657610100808354040283529160200191610fa1565b820191906000526020600020905b815481529060010190602001808311610f8457829003601f168201915b5050509183525050600c8201546020820152600d8201546040820152600e8201546060820152600f8201546080820152601082015460a082015260119091015460ff808216151560c08401526101008083048216151560e085015262010000830482161515908401526301000000820481161515610120840152600160201b820481161515610140840152600160281b820481161515610160840152600160301b90910416151561018090910152845185908790811061107157634e487b7160e01b600052603260045260246000fd5b6020908102919091010152611087600186614c71565b945050505b8061109681614d33565b915050610ad9565b6000821180156110b057506004548211155b6110d55760405162461bcd60e51b81526004016110cc90614c45565b60405180910390fd5b336001600160a01b03166001826040516110ef9190614a08565b908152604051908190036020019020600201546001600160a01b03161461116c5760405162461bcd60e51b815260206004820152602b60248201527f596f7520646f6e742068617665207065726d697373696f6e20746f207472616e60448201526a39b837b93a1037b93232b960a91b60648201526084016110cc565b60008281526002602052604090206011810154600160281b900460ff161561119357600080fd5b60118101805465ff00000000001916600160281b17905542601082015560008381526002602081905260409091208254815560018381015490820180546001600160a01b0319166001600160a01b0390921691909117905581830180548493830191906111ff90614cf8565b61120a929190614626565b50600382015481600301556004820154816004015560058201548160050155600682018160060190805461123d90614cf8565b611248929190614626565b50600782018160070190805461125d90614cf8565b611268929190614626565b50600882018160080190805461127d90614cf8565b611288929190614626565b50600982018160090190805461129d90614cf8565b6112a8929190614626565b50600a820181600a019080546112bd90614cf8565b6112c8929190614626565b50600b820181600b019080546112dd90614cf8565b6112e8929190614626565b50600c8281015490820155600d8083015490820155600e8083015490820155600f8083015490820155601080830154908201556011918201805492909101805460ff938416151560ff19821681178355835461010090819004861615150261ff001990911661ffff19909216919091171780825582546201000090819004851615150262ff0000198216811783558354630100000090819004861615150263ff0000001990911663ffff00001990921691909117178082558254600160201b90819004851615150264ff00000000198216811783558354600160281b90819004861615150265ff00000000001990911665ffff000000001990921691909117178082559154600160301b90819004909316151590920266ff00000000000019909116179055505050565b600454606090600080805b838110156115195760026000611434836001614c71565b815260208101919091526040016000206011015462010000900460ff16158015611488575060026000611468836001614c71565b81526020810191909152604001600020601101546301000000900460ff16155b80156114be57506002600061149e836001614c71565b8152602081019190915260400160002060110154600160201b900460ff16155b80156114f45750600260006114d4836001614c71565b8152602081019190915260400160002060110154600160281b900460ff16155b1561150757611504600184614c71565b92505b8061151181614d33565b91505061141d565b5060008267ffffffffffffffff81111561154357634e487b7160e01b600052604160045260246000fd5b60405190808252806020026020018201604052801561157c57816020015b61156961455a565b8152602001906001900390816115615790505b50905060005b848110156109e55760026000611599836001614c71565b815260208101919091526040016000206011015462010000900460ff161580156115ed5750600260006115cd836001614c71565b81526020810191909152604001600020601101546301000000900460ff16155b8015611623575060026000611603836001614c71565b8152602081019190915260400160002060110154600160201b900460ff16155b8015611659575060026000611639836001614c71565b8152602081019190915260400160002060110154600160281b900460ff16155b15611ba857600061166b826001614c71565b6000818152600260208181526040928390208351610300810185528154815260018201546001600160a01b0316928101929092529182018054949550919390928492908401916116ba90614cf8565b80601f01602080910402602001604051908101604052809291908181526020018280546116e690614cf8565b80156117335780601f1061170857610100808354040283529160200191611733565b820191906000526020600020905b81548152906001019060200180831161171657829003601f168201915b5050505050815260200160038201548152602001600482015481526020016005820154815260200160068201805461176a90614cf8565b80601f016020809104026020016040519081016040528092919081815260200182805461179690614cf8565b80156117e35780601f106117b8576101008083540402835291602001916117e3565b820191906000526020600020905b8154815290600101906020018083116117c657829003601f168201915b505050505081526020016007820180546117fc90614cf8565b80601f016020809104026020016040519081016040528092919081815260200182805461182890614cf8565b80156118755780601f1061184a57610100808354040283529160200191611875565b820191906000526020600020905b81548152906001019060200180831161185857829003601f168201915b5050505050815260200160088201805461188e90614cf8565b80601f01602080910402602001604051908101604052809291908181526020018280546118ba90614cf8565b80156119075780601f106118dc57610100808354040283529160200191611907565b820191906000526020600020905b8154815290600101906020018083116118ea57829003601f168201915b5050505050815260200160098201805461192090614cf8565b80601f016020809104026020016040519081016040528092919081815260200182805461194c90614cf8565b80156119995780601f1061196e57610100808354040283529160200191611999565b820191906000526020600020905b81548152906001019060200180831161197c57829003601f168201915b50505050508152602001600a820180546119b290614cf8565b80601f01602080910402602001604051908101604052809291908181526020018280546119de90614cf8565b8015611a2b5780601f10611a0057610100808354040283529160200191611a2b565b820191906000526020600020905b815481529060010190602001808311611a0e57829003601f168201915b50505050508152602001600b82018054611a4490614cf8565b80601f0160208091040260200160405190810160405280929190818152602001828054611a7090614cf8565b8015611abd5780601f10611a9257610100808354040283529160200191611abd565b820191906000526020600020905b815481529060010190602001808311611aa057829003601f168201915b5050509183525050600c8201546020820152600d8201546040820152600e8201546060820152600f8201546080820152601082015460a082015260119091015460ff808216151560c08401526101008083048216151560e085015262010000830482161515908401526301000000820481161515610120840152600160201b820481161515610140840152600160281b820481161515610160840152600160301b909104161515610180909101528451859087908110611b8d57634e487b7160e01b600052603260045260246000fd5b6020908102919091010152611ba3600186614c71565b945050505b80611bb281614d33565b915050611582565b6004546060906000808267ffffffffffffffff811115611bea57634e487b7160e01b600052604160045260246000fd5b604051908082528060200260200182016040528015611c2357816020015b611c1061455a565b815260200190600190039081611c085790505b50905060005b8381101561218d576000611c3e826001614c71565b6000818152600260208181526040928390208351610300810185528154815260018201546001600160a01b031692810192909252918201805494955091939092849290840191611c8d90614cf8565b80601f0160208091040260200160405190810160405280929190818152602001828054611cb990614cf8565b8015611d065780601f10611cdb57610100808354040283529160200191611d06565b820191906000526020600020905b815481529060010190602001808311611ce957829003601f168201915b50505050508152602001600382015481526020016004820154815260200160058201548152602001600682018054611d3d90614cf8565b80601f0160208091040260200160405190810160405280929190818152602001828054611d6990614cf8565b8015611db65780601f10611d8b57610100808354040283529160200191611db6565b820191906000526020600020905b815481529060010190602001808311611d9957829003601f168201915b50505050508152602001600782018054611dcf90614cf8565b80601f0160208091040260200160405190810160405280929190818152602001828054611dfb90614cf8565b8015611e485780601f10611e1d57610100808354040283529160200191611e48565b820191906000526020600020905b815481529060010190602001808311611e2b57829003601f168201915b50505050508152602001600882018054611e6190614cf8565b80601f0160208091040260200160405190810160405280929190818152602001828054611e8d90614cf8565b8015611eda5780601f10611eaf57610100808354040283529160200191611eda565b820191906000526020600020905b815481529060010190602001808311611ebd57829003601f168201915b50505050508152602001600982018054611ef390614cf8565b80601f0160208091040260200160405190810160405280929190818152602001828054611f1f90614cf8565b8015611f6c5780601f10611f4157610100808354040283529160200191611f6c565b820191906000526020600020905b815481529060010190602001808311611f4f57829003601f168201915b50505050508152602001600a82018054611f8590614cf8565b80601f0160208091040260200160405190810160405280929190818152602001828054611fb190614cf8565b8015611ffe5780601f10611fd357610100808354040283529160200191611ffe565b820191906000526020600020905b815481529060010190602001808311611fe157829003601f168201915b50505050508152602001600b8201805461201790614cf8565b80601f016020809104026020016040519081016040528092919081815260200182805461204390614cf8565b80156120905780601f1061206557610100808354040283529160200191612090565b820191906000526020600020905b81548152906001019060200180831161207357829003601f168201915b5050509183525050600c8201546020820152600d8201546040820152600e8201546060820152600f8201546080820152601082015460a082015260119091015460ff808216151560c08401526101008083048216151560e085015262010000830482161515908401526301000000820481161515610120840152600160201b820481161515610140840152600160281b820481161515610160840152600160301b90910416151561018090910152845185908790811061216057634e487b7160e01b600052603260045260246000fd5b6020908102919091010152612176600186614c71565b94505050808061218590614d33565b915050611c29565b509392505050565b6000821180156121a757506004548211155b6121c35760405162461bcd60e51b81526004016110cc90614c45565b6000828152600260209081526040909120825190916121e99160098401918501906146ad565b5060008381526002602081905260409091208254815560018084015490820180546001600160a01b0319166001600160a01b0390921691909117905581830180548493830191906111ff90614cf8565b600060018360405161224b9190614a08565b90815260405190819003602001902060058054919250600061226c83614d33565b9091555050825161228690600183019060208601906146ad565b506002810180546001600160a01b0319166001600160a01b0384161790556040517f39424c9407ac30223629511a00efdeb9175e3d425784e26c07c28265dd69ceab906122d69085908590614c1b565b60405180910390a1505050565b6000811180156122f557506004548111155b6123115760405162461bcd60e51b81526004016110cc90614c45565b600081815260026020819052604090912060118101805466ffffffffffff0019166101001790556001810180546001600160a01b031981166001600160a01b03909116179055908101805482918291819061236b90614cf8565b612376929190614626565b5060038201548160030155600482015481600401556005820154816005015560068201816006019080546123a990614cf8565b6123b4929190614626565b5060078201816007019080546123c990614cf8565b6123d4929190614626565b5060088201816008019080546123e990614cf8565b6123f4929190614626565b50600982018160090190805461240990614cf8565b612414929190614626565b50600a820181600a0190805461242990614cf8565b612434929190614626565b50600b820181600b0190805461244990614cf8565b612454929190614626565b50600c8281015490820155600d8083015490820155600e8083015490820155600f8083015490820155601080830154908201556011918201805492909101805460ff938416151560ff19821681178355835461010090819004861615150261ff001990911661ffff19909216919091171780825582546201000090819004851615150262ff0000198216811783558354630100000090819004861615150263ff0000001990911663ffff00001990921691909117178082558254600160201b90819004851615150264ff00000000198216811783558354600160281b90819004861615150265ff00000000001990911665ffff000000001990921691909117178082559154600160301b90819004909316151590920266ff000000000000199091161790555050565b600034116125cd5760405162461bcd60e51b815260206004820152601c60248201527f5072696365206d757374206265206174206c656173742031207765690000000060448201526064016110cc565b6000861161261d5760405162461bcd60e51b815260206004820152601f60248201527f7175616e74697479206d7573742062652067726561746572207468616e20300060448201526064016110cc565b3361262757600080fd5b6004805490600061263783614d33565b90915550506003805490600061264c83614d33565b9091555050600454600090815260026020526040808220600654915190926001600160a01b039092169182913480156108fc0292909190818181858888f193505050501580156126a0573d6000803e3d6000fd5b5060045482556001820180546001600160a01b0319163317905588516126cf90600284019060208c01906146ad565b506003820188905542600483015534600583015586516126f890600684019060208a01906146ad565b50855161270e90600784019060208901906146ad565b50845161272490600884019060208801906146ad565b506040805160208101918290526000908190526127459160098501916146ad565b50835161275b90600a84019060208701906146ad565b50825161277190600b84019060208601906146ad565b50506000600c8201819055600e8201819055600d8201819055600f82018190556010820155601101805466ffffffffffffff1916600117905550505050505050565b6000806127be613024565b90506127db816127d585662386f26fc10000614485565b90614491565b9392505050565b6000811180156127f457506004548111155b6128105760405162461bcd60e51b81526004016110cc90614c45565b600081815260026020819052604090912060118101805466ff0000000000ff1916600160301b1790556001810180546001600160a01b031981166001600160a01b03909116179055908101805482918291819061236b90614cf8565b600454606090600080805b8381101561297b576002600061288e836001614c71565b815260200190815260200160002060110160029054906101000a900460ff161515600115151480156128ea5750600260006128ca836001614c71565b81526020810191909152604001600020601101546301000000900460ff16155b8015612920575060026000612900836001614c71565b8152602081019190915260400160002060110154600160201b900460ff16155b8015612956575060026000612936836001614c71565b8152602081019190915260400160002060110154600160281b900460ff16155b1561296957612966600184614c71565b92505b8061297381614d33565b915050612877565b5060008267ffffffffffffffff8111156129a557634e487b7160e01b600052604160045260246000fd5b6040519080825280602002602001820160405280156129de57816020015b6129cb61455a565b8152602001906001900390816129c35790505b50905060005b848110156109e557600260006129fb836001614c71565b815260200190815260200160002060110160029054906101000a900460ff16151560011515148015612a57575060026000612a37836001614c71565b81526020810191909152604001600020601101546301000000900460ff16155b8015612a8d575060026000612a6d836001614c71565b8152602081019190915260400160002060110154600160201b900460ff16155b8015612ac3575060026000612aa3836001614c71565b8152602081019190915260400160002060110154600160281b900460ff16155b15613012576000612ad5826001614c71565b6000818152600260208181526040928390208351610300810185528154815260018201546001600160a01b031692810192909252918201805494955091939092849290840191612b2490614cf8565b80601f0160208091040260200160405190810160405280929190818152602001828054612b5090614cf8565b8015612b9d5780601f10612b7257610100808354040283529160200191612b9d565b820191906000526020600020905b815481529060010190602001808311612b8057829003601f168201915b50505050508152602001600382015481526020016004820154815260200160058201548152602001600682018054612bd490614cf8565b80601f0160208091040260200160405190810160405280929190818152602001828054612c0090614cf8565b8015612c4d5780601f10612c2257610100808354040283529160200191612c4d565b820191906000526020600020905b815481529060010190602001808311612c3057829003601f168201915b50505050508152602001600782018054612c6690614cf8565b80601f0160208091040260200160405190810160405280929190818152602001828054612c9290614cf8565b8015612cdf5780601f10612cb457610100808354040283529160200191612cdf565b820191906000526020600020905b815481529060010190602001808311612cc257829003601f168201915b50505050508152602001600882018054612cf890614cf8565b80601f0160208091040260200160405190810160405280929190818152602001828054612d2490614cf8565b8015612d715780601f10612d4657610100808354040283529160200191612d71565b820191906000526020600020905b815481529060010190602001808311612d5457829003601f168201915b50505050508152602001600982018054612d8a90614cf8565b80601f0160208091040260200160405190810160405280929190818152602001828054612db690614cf8565b8015612e035780601f10612dd857610100808354040283529160200191612e03565b820191906000526020600020905b815481529060010190602001808311612de657829003601f168201915b50505050508152602001600a82018054612e1c90614cf8565b80601f0160208091040260200160405190810160405280929190818152602001828054612e4890614cf8565b8015612e955780601f10612e6a57610100808354040283529160200191612e95565b820191906000526020600020905b815481529060010190602001808311612e7857829003601f168201915b50505050508152602001600b82018054612eae90614cf8565b80601f0160208091040260200160405190810160405280929190818152602001828054612eda90614cf8565b8015612f275780601f10612efc57610100808354040283529160200191612f27565b820191906000526020600020905b815481529060010190602001808311612f0a57829003601f168201915b5050509183525050600c8201546020820152600d8201546040820152600e8201546060820152600f8201546080820152601082015460a082015260119091015460ff808216151560c08401526101008083048216151560e085015262010000830482161515908401526301000000820481161515610120840152600160201b820481161515610140840152600160281b820481161515610160840152600160301b909104161515610180909101528451859087908110612ff757634e487b7160e01b600052603260045260246000fd5b602090810291909101015261300d600186614c71565b945050505b8061301c81614d33565b9150506129e4565b6000805460408051633fabe5a360e21b8152905183926001600160a01b03169163feaf968c9160048083019260a0929190829003018186803b15801561306957600080fd5b505afa15801561307d573d6000803e3d6000fd5b505050506040513d601f19601f820116820180604052508101906130a1919061498d565b5050509150506130b08161449d565b91505090565b600454606090600080805b838110156131d357600260006130d8836001614c71565b815260200190815260200160002060110160029054906101000a900460ff1615156001151514801561313b575060026000613114836001614c71565b815260200190815260200160002060110160039054906101000a900460ff16151560011515145b8015613178575060026000613151836001614c71565b815260200190815260200160002060110160049054906101000a900460ff16151560011515145b80156131ae57506002600061318e836001614c71565b8152602081019190915260400160002060110154600160281b900460ff16155b156131c1576131be600184614c71565b92505b806131cb81614d33565b9150506130c1565b5060008267ffffffffffffffff8111156131fd57634e487b7160e01b600052604160045260246000fd5b60405190808252806020026020018201604052801561323657816020015b61322361455a565b81526020019060019003908161321b5790505b50905060005b848110156109e55760026000613253836001614c71565b815260200190815260200160002060110160029054906101000a900460ff161515600115151480156132b657506002600061328f836001614c71565b815260200190815260200160002060110160039054906101000a900460ff16151560011515145b80156132f35750600260006132cc836001614c71565b815260200190815260200160002060110160049054906101000a900460ff16151560011515145b8015613329575060026000613309836001614c71565b8152602081019190915260400160002060110154600160281b900460ff16155b1561387857600061333b826001614c71565b6000818152600260208181526040928390208351610300810185528154815260018201546001600160a01b03169281019290925291820180549495509193909284929084019161338a90614cf8565b80601f01602080910402602001604051908101604052809291908181526020018280546133b690614cf8565b80156134035780601f106133d857610100808354040283529160200191613403565b820191906000526020600020905b8154815290600101906020018083116133e657829003601f168201915b5050505050815260200160038201548152602001600482015481526020016005820154815260200160068201805461343a90614cf8565b80601f016020809104026020016040519081016040528092919081815260200182805461346690614cf8565b80156134b35780601f10613488576101008083540402835291602001916134b3565b820191906000526020600020905b81548152906001019060200180831161349657829003601f168201915b505050505081526020016007820180546134cc90614cf8565b80601f01602080910402602001604051908101604052809291908181526020018280546134f890614cf8565b80156135455780601f1061351a57610100808354040283529160200191613545565b820191906000526020600020905b81548152906001019060200180831161352857829003601f168201915b5050505050815260200160088201805461355e90614cf8565b80601f016020809104026020016040519081016040528092919081815260200182805461358a90614cf8565b80156135d75780601f106135ac576101008083540402835291602001916135d7565b820191906000526020600020905b8154815290600101906020018083116135ba57829003601f168201915b505050505081526020016009820180546135f090614cf8565b80601f016020809104026020016040519081016040528092919081815260200182805461361c90614cf8565b80156136695780601f1061363e57610100808354040283529160200191613669565b820191906000526020600020905b81548152906001019060200180831161364c57829003601f168201915b50505050508152602001600a8201805461368290614cf8565b80601f01602080910402602001604051908101604052809291908181526020018280546136ae90614cf8565b80156136fb5780601f106136d0576101008083540402835291602001916136fb565b820191906000526020600020905b8154815290600101906020018083116136de57829003601f168201915b50505050508152602001600b8201805461371490614cf8565b80601f016020809104026020016040519081016040528092919081815260200182805461374090614cf8565b801561378d5780601f106137625761010080835404028352916020019161378d565b820191906000526020600020905b81548152906001019060200180831161377057829003601f168201915b5050509183525050600c8201546020820152600d8201546040820152600e8201546060820152600f8201546080820152601082015460a082015260119091015460ff808216151560c08401526101008083048216151560e085015262010000830482161515908401526301000000820481161515610120840152600160201b820481161515610140840152600160281b820481161515610160840152600160301b90910416151561018090910152845185908790811061385d57634e487b7160e01b600052603260045260246000fd5b6020908102919091010152613873600186614c71565b945050505b8061388281614d33565b91505061323c565b6138c86040518060400160405280601a81526020017f636f6e6669726d696e672e2e2e2e2e2e2e2e2e2e2e2e2e2e2e2e0000000000008152506144f3565b6000821180156138da57506004548211155b6138f65760405162461bcd60e51b81526004016110cc90614c45565b336001600160a01b03166001826040516139109190614a08565b908152604051908190036020019020600201546001600160a01b03161461398b5760405162461bcd60e51b815260206004820152602960248201527f596f7520646f6e742068617665207065726d697373696f6e20746f20636f6e6660448201526834b9369037b93232b960b91b60648201526084016110cc565b6000828152600260205260409020601181015462010000900460ff16156139b157600080fd5b60118101805462ff000019166201000017905542600d82015560008381526002602081905260409091208254815560018381015490820180546001600160a01b0319166001600160a01b0390921691909117905581830180548493830191906111ff90614cf8565b600082118015613a2b57506004548211155b613a475760405162461bcd60e51b81526004016110cc90614c45565b336001600160a01b0316600182604051613a619190614a08565b908152604051908190036020019020600201546001600160a01b031614613ad95760405162461bcd60e51b815260206004820152602660248201527f596f7520646f6e742068617665207065726d697373696f6e20746f20746573746044820152651037b93232b960d11b60648201526084016110cc565b60008281526002602052604090206011810154600160201b900460ff1615613b0057600080fd5b60118101805464ff000000001916600160201b17905542600f82015560008381526002602081905260409091208254815560018381015490820180546001600160a01b0319166001600160a01b0390921691909117905581830180548493830191906111ff90614cf8565b600082118015613b7d57506004548211155b613b995760405162461bcd60e51b81526004016110cc90614c45565b336001600160a01b0316600182604051613bb39190614a08565b908152604051908190036020019020600201546001600160a01b031614613c2e5760405162461bcd60e51b815260206004820152602960248201527f596f7520646f6e742068617665207065726d697373696f6e20746f2070726f646044820152683ab1b29037b93232b960b91b60648201526084016110cc565b600082815260026020526040902060118101546301000000900460ff1615613c5557600080fd5b60118101805463ff0000001916630100000017905542600e82015560008381526002602081905260409091208254815560018381015490820180546001600160a01b0319166001600160a01b0390921691909117905581830180548493830191906111ff90614cf8565b600454606090600080805b83811015613dd55760026000613ce1836001614c71565b815260200190815260200160002060110160029054906101000a900460ff16151560011515148015613d44575060026000613d1d836001614c71565b815260200190815260200160002060110160039054906101000a900460ff16151560011515145b8015613d7a575060026000613d5a836001614c71565b8152602081019190915260400160002060110154600160201b900460ff16155b8015613db0575060026000613d90836001614c71565b8152602081019190915260400160002060110154600160281b900460ff16155b15613dc357613dc0600184614c71565b92505b80613dcd81614d33565b915050613cca565b5060008267ffffffffffffffff811115613dff57634e487b7160e01b600052604160045260246000fd5b604051908082528060200260200182016040528015613e3857816020015b613e2561455a565b815260200190600190039081613e1d5790505b50905060005b848110156109e55760026000613e55836001614c71565b815260200190815260200160002060110160029054906101000a900460ff16151560011515148015613eb8575060026000613e91836001614c71565b815260200190815260200160002060110160039054906101000a900460ff16151560011515145b8015613eee575060026000613ece836001614c71565b8152602081019190915260400160002060110154600160201b900460ff16155b8015613f24575060026000613f04836001614c71565b8152602081019190915260400160002060110154600160281b900460ff16155b15614473576000613f36826001614c71565b6000818152600260208181526040928390208351610300810185528154815260018201546001600160a01b031692810192909252918201805494955091939092849290840191613f8590614cf8565b80601f0160208091040260200160405190810160405280929190818152602001828054613fb190614cf8565b8015613ffe5780601f10613fd357610100808354040283529160200191613ffe565b820191906000526020600020905b815481529060010190602001808311613fe157829003601f168201915b5050505050815260200160038201548152602001600482015481526020016005820154815260200160068201805461403590614cf8565b80601f016020809104026020016040519081016040528092919081815260200182805461406190614cf8565b80156140ae5780601f10614083576101008083540402835291602001916140ae565b820191906000526020600020905b81548152906001019060200180831161409157829003601f168201915b505050505081526020016007820180546140c790614cf8565b80601f01602080910402602001604051908101604052809291908181526020018280546140f390614cf8565b80156141405780601f1061411557610100808354040283529160200191614140565b820191906000526020600020905b81548152906001019060200180831161412357829003601f168201915b5050505050815260200160088201805461415990614cf8565b80601f016020809104026020016040519081016040528092919081815260200182805461418590614cf8565b80156141d25780601f106141a7576101008083540402835291602001916141d2565b820191906000526020600020905b8154815290600101906020018083116141b557829003601f168201915b505050505081526020016009820180546141eb90614cf8565b80601f016020809104026020016040519081016040528092919081815260200182805461421790614cf8565b80156142645780601f1061423957610100808354040283529160200191614264565b820191906000526020600020905b81548152906001019060200180831161424757829003601f168201915b50505050508152602001600a8201805461427d90614cf8565b80601f01602080910402602001604051908101604052809291908181526020018280546142a990614cf8565b80156142f65780601f106142cb576101008083540402835291602001916142f6565b820191906000526020600020905b8154815290600101906020018083116142d957829003601f168201915b50505050508152602001600b8201805461430f90614cf8565b80601f016020809104026020016040519081016040528092919081815260200182805461433b90614cf8565b80156143885780601f1061435d57610100808354040283529160200191614388565b820191906000526020600020905b81548152906001019060200180831161436b57829003601f168201915b5050509183525050600c8201546020820152600d8201546040820152600e8201546060820152600f8201546080820152601082015460a082015260119091015460ff808216151560c08401526101008083048216151560e085015262010000830482161515908401526301000000820481161515610120840152600160201b820481161515610140840152600160281b820481161515610160840152600160301b90910416151561018090910152845185908790811061445857634e487b7160e01b600052603260045260246000fd5b602090810291909101015261446e600186614c71565b945050505b8061447d81614d33565b915050613e3e565b60006127db8284614ca9565b60006127db8284614c89565b6000808212156144ef5760405162461bcd60e51b815260206004820181905260248201527f53616665436173743a2076616c7565206d75737420626520706f73697469766560448201526064016110cc565b5090565b614536816040516024016145079190614c08565b60408051601f198184030181529190526020810180516001600160e01b031663104c13eb60e21b179052614539565b50565b80516a636f6e736f6c652e6c6f67602083016000808483855afa5050505050565b6040518061030001604052806000815260200160006001600160a01b031681526020016060815260200160008152602001600081526020016000815260200160608152602001606081526020016060815260200160608152602001606081526020016060815260200160008152602001600081526020016000815260200160008152602001600081526020016000151581526020016000151581526020016000151581526020016000151581526020016000151581526020016000151581526020016000151581525090565b82805461463290614cf8565b90600052602060002090601f01602090048101928261465457600085556146a1565b82601f1061466557805485556146a1565b828001600101855582156146a157600052602060002091601f016020900482015b828111156146a1578254825591600101919060010190614686565b506144ef929150614721565b8280546146b990614cf8565b90600052602060002090601f0160209004810192826146db57600085556146a1565b82601f106146f457805160ff19168380011785556146a1565b828001600101855582156146a1579182015b828111156146a1578251825591602001919060010190614706565b5b808211156144ef5760008155600101614722565b600082601f830112614746578081fd5b813567ffffffffffffffff8082111561476157614761614d64565b604051601f8301601f19908116603f0116810190828211818310171561478957614789614d64565b816040528381528660208588010111156147a1578485fd5b8360208701602083013792830160200193909352509392505050565b805169ffffffffffffffffffff811681146147d757600080fd5b919050565b600080604083850312156147ee578182fd5b823567ffffffffffffffff811115614804578283fd5b61481085828601614736565b92505060208301356001600160a01b038116811461482c578182fd5b809150509250929050565b600080600080600080600060e0888a031215614851578283fd5b873567ffffffffffffffff80821115614868578485fd5b6148748b838c01614736565b985060208a0135975060408a0135915080821115614890578485fd5b61489c8b838c01614736565b965060608a01359150808211156148b1578485fd5b6148bd8b838c01614736565b955060808a01359150808211156148d2578485fd5b6148de8b838c01614736565b945060a08a01359150808211156148f3578384fd5b6148ff8b838c01614736565b935060c08a0135915080821115614914578283fd5b506149218a828b01614736565b91505092959891949750929550565b600060208284031215614941578081fd5b5035919050565b6000806040838503121561495a578182fd5b82359150602083013567ffffffffffffffff811115614977578182fd5b61498385828601614736565b9150509250929050565b600080600080600060a086880312156149a4578081fd5b6149ad866147bd565b94506020860151935060408601519250606086015191506149d0608087016147bd565b90509295509295909350565b600081518084526149f4816020860160208601614cc8565b601f01601f19169290920160200192915050565b60008251614a1a818460208701614cc8565b9190910192915050565b60006020808301818452808551808352604092508286019150828160051b870101848801865b83811015614bfa57603f19898403018552815180518452878101516001600160a01b0316888501528681015161030088860181905290614a8c828701826149dc565b606084810151908801526080808501519088015260a0808501519088015260c080850151888303828a01529193509150614ac683826149dc565b9250505060e08083015186830382880152614ae183826149dc565b925050506101008083015186830382880152614afd83826149dc565b925050506101208083015186830382880152614b1983826149dc565b925050506101408083015186830382880152614b3583826149dc565b925050506101608083015186830382880152614b5183826149dc565b61018085810151908901526101a080860151908901526101c080860151908901526101e080860151908901526102008086015190890152610220808601511515908901526102408086015115159089015261026080860151151590890152610280808601511515908901526102a0808601511515908901526102c0808601511515908901526102e094850151151594909701939093525050509386019390860190600101614a4a565b509098975050505050505050565b6020815260006127db60208301846149dc565b604081526000614c2e60408301856149dc565b905060018060a01b03831660208301529392505050565b6020808252601290820152711bdc99195c881a59081b9bdd081d985b1a5960721b604082015260600190565b60008219821115614c8457614c84614d4e565b500190565b600082614ca457634e487b7160e01b81526012600452602481fd5b500490565b6000816000190483118215151615614cc357614cc3614d4e565b500290565b60005b83811015614ce3578181015183820152602001614ccb565b83811115614cf2576000848401525b50505050565b600181811c90821680614d0c57607f821691505b60208210811415614d2d57634e487b7160e01b600052602260045260246000fd5b50919050565b6000600019821415614d4757614d47614d4e565b5060010190565b634e487b7160e01b600052601160045260246000fd5b634e487b7160e01b600052604160045260246000fdfea2646970667358221220784a2eb6a441dad6135326d5228a1d5c0ca03525a9ab1f0a28fc47ebf4aea9c564736f6c63430008040033",
  "linkReferences": {},
  "deployedLinkReferences": {}
}