{
  "_format": "hh-sol-artifact-1",
  "contractName": "Schain",
  "sourceName": "contracts/Schain.sol",
  "abi": [
    {
      "inputs": [],
      "stateMutability": "nonpayable",
      "type": "constructor"
    },
    {
      "anonymous": false,
      "inputs": [
        {
          "indexed": true,
          "internalType": "uint256",
          "name": "id",
          "type": "uint256"
        },
        {
          "indexed": false,
          "internalType": "address",
          "name": "owner",
          "type": "address"
        },
        {
          "indexed": false,
          "internalType": "string",
          "name": "product",
          "type": "string"
        },
        {
          "indexed": false,
          "internalType": "uint256",
          "name": "quantity",
          "type": "uint256"
        },
        {
          "indexed": false,
          "internalType": "uint256",
          "name": "orderdate",
          "type": "uint256"
        },
        {
          "indexed": false,
          "internalType": "uint256",
          "name": "price",
          "type": "uint256"
        },
        {
          "indexed": false,
          "internalType": "string",
          "name": "addressLine",
          "type": "string"
        },
        {
          "indexed": false,
          "internalType": "string",
          "name": "contact",
          "type": "string"
        },
        {
          "indexed": false,
          "internalType": "string",
          "name": "city",
          "type": "string"
        },
        {
          "indexed": false,
          "internalType": "string",
          "name": "review",
          "type": "string"
        },
        {
          "indexed": false,
          "internalType": "string",
          "name": "zipcode",
          "type": "string"
        },
        {
          "indexed": false,
          "internalType": "string",
          "name": "state",
          "type": "string"
        },
        {
          "indexed": false,
          "internalType": "uint256",
          "name": "recievedate",
          "type": "uint256"
        },
        {
          "indexed": false,
          "internalType": "uint256",
          "name": "confirmdate",
          "type": "uint256"
        },
        {
          "indexed": false,
          "internalType": "uint256",
          "name": "producedate",
          "type": "uint256"
        },
        {
          "indexed": false,
          "internalType": "uint256",
          "name": "testdate",
          "type": "uint256"
        },
        {
          "indexed": false,
          "internalType": "uint256",
          "name": "transportdate",
          "type": "uint256"
        },
        {
          "indexed": false,
          "internalType": "bool",
          "name": "pending",
          "type": "bool"
        },
        {
          "indexed": false,
          "internalType": "bool",
          "name": "returned",
          "type": "bool"
        },
        {
          "indexed": false,
          "internalType": "bool",
          "name": "confirmed",
          "type": "bool"
        },
        {
          "indexed": false,
          "internalType": "bool",
          "name": "produced",
          "type": "bool"
        },
        {
          "indexed": false,
          "internalType": "bool",
          "name": "tested",
          "type": "bool"
        },
        {
          "indexed": false,
          "internalType": "bool",
          "name": "transported",
          "type": "bool"
        },
        {
          "indexed": false,
          "internalType": "bool",
          "name": "recieved",
          "type": "bool"
        }
      ],
      "name": "AddOrder",
      "type": "event"
    },
    {
      "anonymous": false,
      "inputs": [
        {
          "indexed": false,
          "internalType": "string",
          "name": "role",
          "type": "string"
        },
        {
          "indexed": false,
          "internalType": "address",
          "name": "roleaddress",
          "type": "address"
        }
      ],
      "name": "RoleAdded",
      "type": "event"
    },
    {
      "inputs": [
        {
          "internalType": "string",
          "name": "_product",
          "type": "string"
        },
        {
          "internalType": "uint256",
          "name": "_quantity",
          "type": "uint256"
        },
        {
          "internalType": "string",
          "name": "_addressline",
          "type": "string"
        },
        {
          "internalType": "string",
          "name": "_contact",
          "type": "string"
        },
        {
          "internalType": "string",
          "name": "_city",
          "type": "string"
        },
        {
          "internalType": "string",
          "name": "_zipcode",
          "type": "string"
        },
        {
          "internalType": "string",
          "name": "_state",
          "type": "string"
        }
      ],
      "name": "addOrderItem",
      "outputs": [],
      "stateMutability": "payable",
      "type": "function"
    },
    {
      "inputs": [
        {
          "internalType": "uint256",
          "name": "_id",
          "type": "uint256"
        },
        {
          "internalType": "string",
          "name": "_review",
          "type": "string"
        }
      ],
      "name": "addReveiw",
      "outputs": [],
      "stateMutability": "nonpayable",
      "type": "function"
    },
    {
      "inputs": [
        {
          "internalType": "string",
          "name": "_role",
          "type": "string"
        },
        {
          "internalType": "address",
          "name": "_roleaddress",
          "type": "address"
        }
      ],
      "name": "addRole",
      "outputs": [],
      "stateMutability": "payable",
      "type": "function"
    },
    {
      "inputs": [
        {
          "internalType": "uint256",
          "name": "_id",
          "type": "uint256"
        },
        {
          "internalType": "string",
          "name": "_role",
          "type": "string"
        }
      ],
      "name": "confrimOrder",
      "outputs": [],
      "stateMutability": "nonpayable",
      "type": "function"
    },
    {
      "inputs": [
        {
          "internalType": "uint256",
          "name": "_amountInUsd",
          "type": "uint256"
        }
      ],
      "name": "convertEthUsd",
      "outputs": [
        {
          "internalType": "uint256",
          "name": "",
          "type": "uint256"
        }
      ],
      "stateMutability": "view",
      "type": "function"
    },
    {
      "inputs": [],
      "name": "fetchMyOrders",
      "outputs": [
        {
          "components": [
            {
              "internalType": "uint256",
              "name": "id",
              "type": "uint256"
            },
            {
              "internalType": "address",
              "name": "owner",
              "type": "address"
            },
            {
              "internalType": "string",
              "name": "product",
              "type": "string"
            },
            {
              "internalType": "uint256",
              "name": "quantity",
              "type": "uint256"
            },
            {
              "internalType": "uint256",
              "name": "orderdate",
              "type": "uint256"
            },
            {
              "internalType": "uint256",
              "name": "price",
              "type": "uint256"
            },
            {
              "internalType": "string",
              "name": "addressLine",
              "type": "string"
            },
            {
              "internalType": "string",
              "name": "contact",
              "type": "string"
            },
            {
              "internalType": "string",
              "name": "city",
              "type": "string"
            },
            {
              "internalType": "string",
              "name": "review",
              "type": "string"
            },
            {
              "internalType": "string",
              "name": "zipcode",
              "type": "string"
            },
            {
              "internalType": "string",
              "name": "state",
              "type": "string"
            },
            {
              "internalType": "uint256",
              "name": "recievedate",
              "type": "uint256"
            },
            {
              "internalType": "uint256",
              "name": "confirmdate",
              "type": "uint256"
            },
            {
              "internalType": "uint256",
              "name": "producedate",
              "type": "uint256"
            },
            {
              "internalType": "uint256",
              "name": "testdate",
              "type": "uint256"
            },
            {
              "internalType": "uint256",
              "name": "transportdate",
              "type": "uint256"
            },
            {
              "internalType": "bool",
              "name": "pending",
              "type": "bool"
            },
            {
              "internalType": "bool",
              "name": "returned",
              "type": "bool"
            },
            {
              "internalType": "bool",
              "name": "confirmed",
              "type": "bool"
            },
            {
              "internalType": "bool",
              "name": "produced",
              "type": "bool"
            },
            {
              "internalType": "bool",
              "name": "tested",
              "type": "bool"
            },
            {
              "internalType": "bool",
              "name": "transported",
              "type": "bool"
            },
            {
              "internalType": "bool",
              "name": "recieved",
              "type": "bool"
            }
          ],
          "internalType": "struct Schain.OrderItem[]",
          "name": "",
          "type": "tuple[]"
        }
      ],
      "stateMutability": "view",
      "type": "function"
    },
    {
      "inputs": [],
      "name": "fetchOrderItems",
      "outputs": [
        {
          "components": [
            {
              "internalType": "uint256",
              "name": "id",
              "type": "uint256"
            },
            {
              "internalType": "address",
              "name": "owner",
              "type": "address"
            },
            {
              "internalType": "string",
              "name": "product",
              "type": "string"
            },
            {
              "internalType": "uint256",
              "name": "quantity",
              "type": "uint256"
            },
            {
              "internalType": "uint256",
              "name": "orderdate",
              "type": "uint256"
            },
            {
              "internalType": "uint256",
              "name": "price",
              "type": "uint256"
            },
            {
              "internalType": "string",
              "name": "addressLine",
              "type": "string"
            },
            {
              "internalType": "string",
              "name": "contact",
              "type": "string"
            },
            {
              "internalType": "string",
              "name": "city",
              "type": "string"
            },
            {
              "internalType": "string",
              "name": "review",
              "type": "string"
            },
            {
              "internalType": "string",
              "name": "zipcode",
              "type": "string"
            },
            {
              "internalType": "string",
              "name": "state",
              "type": "string"
            },
            {
              "internalType": "uint256",
              "name": "recievedate",
              "type": "uint256"
            },
            {
              "internalType": "uint256",
              "name": "confirmdate",
              "type": "uint256"
            },
            {
              "internalType": "uint256",
              "name": "producedate",
              "type": "uint256"
            },
            {
              "internalType": "uint256",
              "name": "testdate",
              "type": "uint256"
            },
            {
              "internalType": "uint256",
              "name": "transportdate",
              "type": "uint256"
            },
            {
              "internalType": "bool",
              "name": "pending",
              "type": "bool"
            },
            {
              "internalType": "bool",
              "name": "returned",
              "type": "bool"
            },
            {
              "internalType": "bool",
              "name": "confirmed",
              "type": "bool"
            },
            {
              "internalType": "bool",
              "name": "produced",
              "type": "bool"
            },
            {
              "internalType": "bool",
              "name": "tested",
              "type": "bool"
            },
            {
              "internalType": "bool",
              "name": "transported",
              "type": "bool"
            },
            {
              "internalType": "bool",
              "name": "recieved",
              "type": "bool"
            }
          ],
          "internalType": "struct Schain.OrderItem[]",
          "name": "",
          "type": "tuple[]"
        }
      ],
      "stateMutability": "view",
      "type": "function"
    },
    {
      "inputs": [],
      "name": "fetchOrdersConfirm",
      "outputs": [
        {
          "components": [
            {
              "internalType": "uint256",
              "name": "id",
              "type": "uint256"
            },
            {
              "internalType": "address",
              "name": "owner",
              "type": "address"
            },
            {
              "internalType": "string",
              "name": "product",
              "type": "string"
            },
            {
              "internalType": "uint256",
              "name": "quantity",
              "type": "uint256"
            },
            {
              "internalType": "uint256",
              "name": "orderdate",
              "type": "uint256"
            },
            {
              "internalType": "uint256",
              "name": "price",
              "type": "uint256"
            },
            {
              "internalType": "string",
              "name": "addressLine",
              "type": "string"
            },
            {
              "internalType": "string",
              "name": "contact",
              "type": "string"
            },
            {
              "internalType": "string",
              "name": "city",
              "type": "string"
            },
            {
              "internalType": "string",
              "name": "review",
              "type": "string"
            },
            {
              "internalType": "string",
              "name": "zipcode",
              "type": "string"
            },
            {
              "internalType": "string",
              "name": "state",
              "type": "string"
            },
            {
              "internalType": "uint256",
              "name": "recievedate",
              "type": "uint256"
            },
            {
              "internalType": "uint256",
              "name": "confirmdate",
              "type": "uint256"
            },
            {
              "internalType": "uint256",
              "name": "producedate",
              "type": "uint256"
            },
            {
              "internalType": "uint256",
              "name": "testdate",
              "type": "uint256"
            },
            {
              "internalType": "uint256",
              "name": "transportdate",
              "type": "uint256"
            },
            {
              "internalType": "bool",
              "name": "pending",
              "type": "bool"
            },
            {
              "internalType": "bool",
              "name": "returned",
              "type": "bool"
            },
            {
              "internalType": "bool",
              "name": "confirmed",
              "type": "bool"
            },
            {
              "internalType": "bool",
              "name": "produced",
              "type": "bool"
            },
            {
              "internalType": "bool",
              "name": "tested",
              "type": "bool"
            },
            {
              "internalType": "bool",
              "name": "transported",
              "type": "bool"
            },
            {
              "internalType": "bool",
              "name": "recieved",
              "type": "bool"
            }
          ],
          "internalType": "struct Schain.OrderItem[]",
          "name": "",
          "type": "tuple[]"
        }
      ],
      "stateMutability": "view",
      "type": "function"
    },
    {
      "inputs": [],
      "name": "fetchOrdersProduced",
      "outputs": [
        {
          "components": [
            {
              "internalType": "uint256",
              "name": "id",
              "type": "uint256"
            },
            {
              "internalType": "address",
              "name": "owner",
              "type": "address"
            },
            {
              "internalType": "string",
              "name": "product",
              "type": "string"
            },
            {
              "internalType": "uint256",
              "name": "quantity",
              "type": "uint256"
            },
            {
              "internalType": "uint256",
              "name": "orderdate",
              "type": "uint256"
            },
            {
              "internalType": "uint256",
              "name": "price",
              "type": "uint256"
            },
            {
              "internalType": "string",
              "name": "addressLine",
              "type": "string"
            },
            {
              "internalType": "string",
              "name": "contact",
              "type": "string"
            },
            {
              "internalType": "string",
              "name": "city",
              "type": "string"
            },
            {
              "internalType": "string",
              "name": "review",
              "type": "string"
            },
            {
              "internalType": "string",
              "name": "zipcode",
              "type": "string"
            },
            {
              "internalType": "string",
              "name": "state",
              "type": "string"
            },
            {
              "internalType": "uint256",
              "name": "recievedate",
              "type": "uint256"
            },
            {
              "internalType": "uint256",
              "name": "confirmdate",
              "type": "uint256"
            },
            {
              "internalType": "uint256",
              "name": "producedate",
              "type": "uint256"
            },
            {
              "internalType": "uint256",
              "name": "testdate",
              "type": "uint256"
            },
            {
              "internalType": "uint256",
              "name": "transportdate",
              "type": "uint256"
            },
            {
              "internalType": "bool",
              "name": "pending",
              "type": "bool"
            },
            {
              "internalType": "bool",
              "name": "returned",
              "type": "bool"
            },
            {
              "internalType": "bool",
              "name": "confirmed",
              "type": "bool"
            },
            {
              "internalType": "bool",
              "name": "produced",
              "type": "bool"
            },
            {
              "internalType": "bool",
              "name": "tested",
              "type": "bool"
            },
            {
              "internalType": "bool",
              "name": "transported",
              "type": "bool"
            },
            {
              "internalType": "bool",
              "name": "recieved",
              "type": "bool"
            }
          ],
          "internalType": "struct Schain.OrderItem[]",
          "name": "",
          "type": "tuple[]"
        }
      ],
      "stateMutability": "view",
      "type": "function"
    },
    {
      "inputs": [],
      "name": "fetchOrdersTested",
      "outputs": [
        {
          "components": [
            {
              "internalType": "uint256",
              "name": "id",
              "type": "uint256"
            },
            {
              "internalType": "address",
              "name": "owner",
              "type": "address"
            },
            {
              "internalType": "string",
              "name": "product",
              "type": "string"
            },
            {
              "internalType": "uint256",
              "name": "quantity",
              "type": "uint256"
            },
            {
              "internalType": "uint256",
              "name": "orderdate",
              "type": "uint256"
            },
            {
              "internalType": "uint256",
              "name": "price",
              "type": "uint256"
            },
            {
              "internalType": "string",
              "name": "addressLine",
              "type": "string"
            },
            {
              "internalType": "string",
              "name": "contact",
              "type": "string"
            },
            {
              "internalType": "string",
              "name": "city",
              "type": "string"
            },
            {
              "internalType": "string",
              "name": "review",
              "type": "string"
            },
            {
              "internalType": "string",
              "name": "zipcode",
              "type": "string"
            },
            {
              "internalType": "string",
              "name": "state",
              "type": "string"
            },
            {
              "internalType": "uint256",
              "name": "recievedate",
              "type": "uint256"
            },
            {
              "internalType": "uint256",
              "name": "confirmdate",
              "type": "uint256"
            },
            {
              "internalType": "uint256",
              "name": "producedate",
              "type": "uint256"
            },
            {
              "internalType": "uint256",
              "name": "testdate",
              "type": "uint256"
            },
            {
              "internalType": "uint256",
              "name": "transportdate",
              "type": "uint256"
            },
            {
              "internalType": "bool",
              "name": "pending",
              "type": "bool"
            },
            {
              "internalType": "bool",
              "name": "returned",
              "type": "bool"
            },
            {
              "internalType": "bool",
              "name": "confirmed",
              "type": "bool"
            },
            {
              "internalType": "bool",
              "name": "produced",
              "type": "bool"
            },
            {
              "internalType": "bool",
              "name": "tested",
              "type": "bool"
            },
            {
              "internalType": "bool",
              "name": "transported",
              "type": "bool"
            },
            {
              "internalType": "bool",
              "name": "recieved",
              "type": "bool"
            }
          ],
          "internalType": "struct Schain.OrderItem[]",
          "name": "",
          "type": "tuple[]"
        }
      ],
      "stateMutability": "view",
      "type": "function"
    },
    {
      "inputs": [],
      "name": "fetchOrdersTransported",
      "outputs": [
        {
          "components": [
            {
              "internalType": "uint256",
              "name": "id",
              "type": "uint256"
            },
            {
              "internalType": "address",
              "name": "owner",
              "type": "address"
            },
            {
              "internalType": "string",
              "name": "product",
              "type": "string"
            },
            {
              "internalType": "uint256",
              "name": "quantity",
              "type": "uint256"
            },
            {
              "internalType": "uint256",
              "name": "orderdate",
              "type": "uint256"
            },
            {
              "internalType": "uint256",
              "name": "price",
              "type": "uint256"
            },
            {
              "internalType": "string",
              "name": "addressLine",
              "type": "string"
            },
            {
              "internalType": "string",
              "name": "contact",
              "type": "string"
            },
            {
              "internalType": "string",
              "name": "city",
              "type": "string"
            },
            {
              "internalType": "string",
              "name": "review",
              "type": "string"
            },
            {
              "internalType": "string",
              "name": "zipcode",
              "type": "string"
            },
            {
              "internalType": "string",
              "name": "state",
              "type": "string"
            },
            {
              "internalType": "uint256",
              "name": "recievedate",
              "type": "uint256"
            },
            {
              "internalType": "uint256",
              "name": "confirmdate",
              "type": "uint256"
            },
            {
              "internalType": "uint256",
              "name": "producedate",
              "type": "uint256"
            },
            {
              "internalType": "uint256",
              "name": "testdate",
              "type": "uint256"
            },
            {
              "internalType": "uint256",
              "name": "transportdate",
              "type": "uint256"
            },
            {
              "internalType": "bool",
              "name": "pending",
              "type": "bool"
            },
            {
              "internalType": "bool",
              "name": "returned",
              "type": "bool"
            },
            {
              "internalType": "bool",
              "name": "confirmed",
              "type": "bool"
            },
            {
              "internalType": "bool",
              "name": "produced",
              "type": "bool"
            },
            {
              "internalType": "bool",
              "name": "tested",
              "type": "bool"
            },
            {
              "internalType": "bool",
              "name": "transported",
              "type": "bool"
            },
            {
              "internalType": "bool",
              "name": "recieved",
              "type": "bool"
            }
          ],
          "internalType": "struct Schain.OrderItem[]",
          "name": "",
          "type": "tuple[]"
        }
      ],
      "stateMutability": "view",
      "type": "function"
    },
    {
      "inputs": [],
      "name": "getEthUsd",
      "outputs": [
        {
          "internalType": "uint256",
          "name": "",
          "type": "uint256"
        }
      ],
      "stateMutability": "view",
      "type": "function"
    },
    {
      "inputs": [],
      "name": "ordersCount",
      "outputs": [
        {
          "internalType": "uint256",
          "name": "",
          "type": "uint256"
        }
      ],
      "stateMutability": "view",
      "type": "function"
    },
    {
      "inputs": [
        {
          "internalType": "uint256",
          "name": "_id",
          "type": "uint256"
        },
        {
          "internalType": "string",
          "name": "_role",
          "type": "string"
        }
      ],
      "name": "produceOrder",
      "outputs": [],
      "stateMutability": "nonpayable",
      "type": "function"
    },
    {
      "inputs": [
        {
          "internalType": "uint256",
          "name": "_id",
          "type": "uint256"
        }
      ],
      "name": "receiveOrder",
      "outputs": [],
      "stateMutability": "nonpayable",
      "type": "function"
    },
    {
      "inputs": [
        {
          "internalType": "uint256",
          "name": "_id",
          "type": "uint256"
        },
        {
          "internalType": "string",
          "name": "_review",
          "type": "string"
        }
      ],
      "name": "returnOrder",
      "outputs": [],
      "stateMutability": "nonpayable",
      "type": "function"
    },
    {
      "inputs": [
        {
          "internalType": "uint256",
          "name": "_id",
          "type": "uint256"
        },
        {
          "internalType": "string",
          "name": "_role",
          "type": "string"
        }
      ],
      "name": "testOrder",
      "outputs": [],
      "stateMutability": "nonpayable",
      "type": "function"
    },
    {
      "inputs": [
        {
          "internalType": "uint256",
          "name": "_id",
          "type": "uint256"
        },
        {
          "internalType": "string",
          "name": "_role",
          "type": "string"
        }
      ],
      "name": "transportOrder",
      "outputs": [],
      "stateMutability": "nonpayable",
      "type": "function"
    },
    {
      "inputs": [],
      "name": "usersCount",
      "outputs": [
        {
          "internalType": "uint256",
          "name": "",
          "type": "uint256"
        }
      ],
      "stateMutability": "view",
      "type": "function"
    }
  ],
  "bytecode": "0x608060405260006003556000600455600060055534801561001f57600080fd5b50600680546001600160a01b0319908116331790915560008054909116739326bfa02add2366b30bacb125260af6410313311790556144ef806100636000396000f3fe6080604052600436106101145760003560e01c8063911c027f116100a0578063bbb0335811610064578063bbb033581461027a578063c8e45a6b1461028f578063d1e002fe146102af578063df712885146102cf578063eaa44a42146102ef57600080fd5b8063911c027f146101b45780639534b3bf1461021057806397bab12f146102305780639fe2a7f414610250578063bb27e0ce1461026557600080fd5b80633d644327116100e75780633d6443271461019f5780636038821a146101b45780636735b3a7146101d45780636ba13a82146101e75780638683c612146101fd57600080fd5b80630500418b146101195780631ca107fe146101445780632775bbc01461016657806335daa7311461017b575b600080fd5b34801561012557600080fd5b5061012e610304565b60405161013b9190614176565b60405180910390f35b34801561015057600080fd5b5061016461015f36600461409a565b610973565b005b34801561017257600080fd5b5061012e610cdf565b34801561018757600080fd5b5061019160045481565b60405190815260200161013b565b3480156101ab57600080fd5b5061012e6113e6565b3480156101c057600080fd5b506101646101cf36600461409a565b6119c1565b6101646101e2366004613f2e565b611c73565b3480156101f357600080fd5b5061019160035481565b61016461020b366004613f89565b611d7d565b34801561021c57600080fd5b5061019161022b366004614082565b611fb3565b34801561023c57600080fd5b5061016461024b366004614082565b611fe2565b34801561025c57600080fd5b5061012e612279565b34801561027157600080fd5b50610191612988565b34801561028657600080fd5b5061012e612a1a565b34801561029b57600080fd5b506101646102aa36600461409a565b613137565b3480156102bb57600080fd5b506101646102ca36600461409a565b613286565b3480156102db57600080fd5b506101646102ea36600461409a565b6133d6565b3480156102fb57600080fd5b5061012e613528565b600454606090600080805b8381101561036a5733600260006103278460016143b0565b81526020810191909152604001600020600101546001600160a01b03161415610358576103556001846143b0565b92505b8061036281614472565b91505061030f565b5060008267ffffffffffffffff81111561039457634e487b7160e01b600052604160045260246000fd5b6040519080825280602002602001820160405280156103cd57816020015b6103ba613cac565b8152602001906001900390816103b25790505b50905060005b8481101561096a5733600260006103eb8460016143b0565b81526020810191909152604001600020600101546001600160a01b0316141561095857600061041b8260016143b0565b6000818152600260208181526040928390208351610300810185528154815260018201546001600160a01b03169281019290925291820180549495509193909284929084019161046a90614437565b80601f016020809104026020016040519081016040528092919081815260200182805461049690614437565b80156104e35780601f106104b8576101008083540402835291602001916104e3565b820191906000526020600020905b8154815290600101906020018083116104c657829003601f168201915b5050505050815260200160038201548152602001600482015481526020016005820154815260200160068201805461051a90614437565b80601f016020809104026020016040519081016040528092919081815260200182805461054690614437565b80156105935780601f1061056857610100808354040283529160200191610593565b820191906000526020600020905b81548152906001019060200180831161057657829003601f168201915b505050505081526020016007820180546105ac90614437565b80601f01602080910402602001604051908101604052809291908181526020018280546105d890614437565b80156106255780601f106105fa57610100808354040283529160200191610625565b820191906000526020600020905b81548152906001019060200180831161060857829003601f168201915b5050505050815260200160088201805461063e90614437565b80601f016020809104026020016040519081016040528092919081815260200182805461066a90614437565b80156106b75780601f1061068c576101008083540402835291602001916106b7565b820191906000526020600020905b81548152906001019060200180831161069a57829003601f168201915b505050505081526020016009820180546106d090614437565b80601f01602080910402602001604051908101604052809291908181526020018280546106fc90614437565b80156107495780601f1061071e57610100808354040283529160200191610749565b820191906000526020600020905b81548152906001019060200180831161072c57829003601f168201915b50505050508152602001600a8201805461076290614437565b80601f016020809104026020016040519081016040528092919081815260200182805461078e90614437565b80156107db5780601f106107b0576101008083540402835291602001916107db565b820191906000526020600020905b8154815290600101906020018083116107be57829003601f168201915b50505050508152602001600b820180546107f490614437565b80601f016020809104026020016040519081016040528092919081815260200182805461082090614437565b801561086d5780601f106108425761010080835404028352916020019161086d565b820191906000526020600020905b81548152906001019060200180831161085057829003601f168201915b5050509183525050600c8201546020820152600d8201546040820152600e8201546060820152600f8201546080820152601082015460a082015260119091015460ff808216151560c08401526101008083048216151560e085015262010000830482161515908401526301000000820481161515610120840152600160201b820481161515610140840152600160281b820481161515610160840152600160301b90910416151561018090910152845185908790811061093d57634e487b7160e01b600052603260045260246000fd5b60209081029190910101526109536001866143b0565b945050505b8061096281614472565b9150506103d3565b50949350505050565b60008211801561098557506004548211155b6109aa5760405162461bcd60e51b81526004016109a190614384565b60405180910390fd5b60006001826040516109bc919061415a565b90815260405190819003602001902060028101549091506001600160a01b0316331415610a3f5760405162461bcd60e51b815260206004820152602b60248201527f596f7520646f6e742068617665207065726d697373696f6e20746f207472616e60448201526a39b837b93a1037b93232b960a91b60648201526084016109a1565b60008381526002602052604090206011810154600160281b900460ff1615610a6657600080fd5b60118101805460ff60281b1916600160281b17905542601082015560008481526002602081905260409091208254815560018381015490820180546001600160a01b0319166001600160a01b039092169190911790558183018054849383019190610ad090614437565b610adb929190613d78565b506003820154816003015560048201548160040155600582015481600501556006820181600601908054610b0e90614437565b610b19929190613d78565b506007820181600701908054610b2e90614437565b610b39929190613d78565b506008820181600801908054610b4e90614437565b610b59929190613d78565b506009820181600901908054610b6e90614437565b610b79929190613d78565b50600a820181600a01908054610b8e90614437565b610b99929190613d78565b50600b820181600b01908054610bae90614437565b610bb9929190613d78565b50600c8281015490820155600d8083015490820155600e8083015490820155600f8083015490820155601080830154908201556011918201805492909101805460ff938416151560ff19821681178355835461010090819004861615150261ff001990911661ffff19909216919091171780825582546201000090819004851615150262ff0000198216811783558354630100000090819004861615150263ff0000001990911663ffff00001990921691909117178082558254600160201b90819004851615150264ff00000000198216811783558354600160281b90819004861615150260ff60281b1990911665ffff000000001990921691909117178082559154600160301b90819004909316151590920260ff60301b1990911617905550505050565b600454606090600080805b83811015610de65760026000610d018360016143b0565b815260208101919091526040016000206011015462010000900460ff16158015610d55575060026000610d358360016143b0565b81526020810191909152604001600020601101546301000000900460ff16155b8015610d8b575060026000610d6b8360016143b0565b8152602081019190915260400160002060110154600160201b900460ff16155b8015610dc1575060026000610da18360016143b0565b8152602081019190915260400160002060110154600160281b900460ff16155b15610dd457610dd16001846143b0565b92505b80610dde81614472565b915050610cea565b5060008267ffffffffffffffff811115610e1057634e487b7160e01b600052604160045260246000fd5b604051908082528060200260200182016040528015610e4957816020015b610e36613cac565b815260200190600190039081610e2e5790505b50905060005b8481101561096a573360026000610e678460016143b0565b81526020810191909152604001600020600101546001600160a01b031614156113d4576000610e978260016143b0565b6000818152600260208181526040928390208351610300810185528154815260018201546001600160a01b031692810192909252918201805494955091939092849290840191610ee690614437565b80601f0160208091040260200160405190810160405280929190818152602001828054610f1290614437565b8015610f5f5780601f10610f3457610100808354040283529160200191610f5f565b820191906000526020600020905b815481529060010190602001808311610f4257829003601f168201915b50505050508152602001600382015481526020016004820154815260200160058201548152602001600682018054610f9690614437565b80601f0160208091040260200160405190810160405280929190818152602001828054610fc290614437565b801561100f5780601f10610fe45761010080835404028352916020019161100f565b820191906000526020600020905b815481529060010190602001808311610ff257829003601f168201915b5050505050815260200160078201805461102890614437565b80601f016020809104026020016040519081016040528092919081815260200182805461105490614437565b80156110a15780601f10611076576101008083540402835291602001916110a1565b820191906000526020600020905b81548152906001019060200180831161108457829003601f168201915b505050505081526020016008820180546110ba90614437565b80601f01602080910402602001604051908101604052809291908181526020018280546110e690614437565b80156111335780601f1061110857610100808354040283529160200191611133565b820191906000526020600020905b81548152906001019060200180831161111657829003601f168201915b5050505050815260200160098201805461114c90614437565b80601f016020809104026020016040519081016040528092919081815260200182805461117890614437565b80156111c55780601f1061119a576101008083540402835291602001916111c5565b820191906000526020600020905b8154815290600101906020018083116111a857829003601f168201915b50505050508152602001600a820180546111de90614437565b80601f016020809104026020016040519081016040528092919081815260200182805461120a90614437565b80156112575780601f1061122c57610100808354040283529160200191611257565b820191906000526020600020905b81548152906001019060200180831161123a57829003601f168201915b50505050508152602001600b8201805461127090614437565b80601f016020809104026020016040519081016040528092919081815260200182805461129c90614437565b80156112e95780601f106112be576101008083540402835291602001916112e9565b820191906000526020600020905b8154815290600101906020018083116112cc57829003601f168201915b5050509183525050600c8201546020820152600d8201546040820152600e8201546060820152600f8201546080820152601082015460a082015260119091015460ff808216151560c08401526101008083048216151560e085015262010000830482161515908401526301000000820481161515610120840152600160201b820481161515610140840152600160281b820481161515610160840152600160301b9091041615156101809091015284518590879081106113b957634e487b7160e01b600052603260045260246000fd5b60209081029190910101526113cf6001866143b0565b945050505b806113de81614472565b915050610e4f565b6004546060906000808267ffffffffffffffff81111561141657634e487b7160e01b600052604160045260246000fd5b60405190808252806020026020018201604052801561144f57816020015b61143c613cac565b8152602001906001900390816114345790505b50905060005b838110156119b957600061146a8260016143b0565b6000818152600260208181526040928390208351610300810185528154815260018201546001600160a01b0316928101929092529182018054949550919390928492908401916114b990614437565b80601f01602080910402602001604051908101604052809291908181526020018280546114e590614437565b80156115325780601f1061150757610100808354040283529160200191611532565b820191906000526020600020905b81548152906001019060200180831161151557829003601f168201915b5050505050815260200160038201548152602001600482015481526020016005820154815260200160068201805461156990614437565b80601f016020809104026020016040519081016040528092919081815260200182805461159590614437565b80156115e25780601f106115b7576101008083540402835291602001916115e2565b820191906000526020600020905b8154815290600101906020018083116115c557829003601f168201915b505050505081526020016007820180546115fb90614437565b80601f016020809104026020016040519081016040528092919081815260200182805461162790614437565b80156116745780601f1061164957610100808354040283529160200191611674565b820191906000526020600020905b81548152906001019060200180831161165757829003601f168201915b5050505050815260200160088201805461168d90614437565b80601f01602080910402602001604051908101604052809291908181526020018280546116b990614437565b80156117065780601f106116db57610100808354040283529160200191611706565b820191906000526020600020905b8154815290600101906020018083116116e957829003601f168201915b5050505050815260200160098201805461171f90614437565b80601f016020809104026020016040519081016040528092919081815260200182805461174b90614437565b80156117985780601f1061176d57610100808354040283529160200191611798565b820191906000526020600020905b81548152906001019060200180831161177b57829003601f168201915b50505050508152602001600a820180546117b190614437565b80601f01602080910402602001604051908101604052809291908181526020018280546117dd90614437565b801561182a5780601f106117ff5761010080835404028352916020019161182a565b820191906000526020600020905b81548152906001019060200180831161180d57829003601f168201915b50505050508152602001600b8201805461184390614437565b80601f016020809104026020016040519081016040528092919081815260200182805461186f90614437565b80156118bc5780601f10611891576101008083540402835291602001916118bc565b820191906000526020600020905b81548152906001019060200180831161189f57829003601f168201915b5050509183525050600c8201546020820152600d8201546040820152600e8201546060820152600f8201546080820152601082015460a082015260119091015460ff808216151560c08401526101008083048216151560e085015262010000830482161515908401526301000000820481161515610120840152600160201b820481161515610140840152600160281b820481161515610160840152600160301b90910416151561018090910152845185908790811061198c57634e487b7160e01b600052603260045260246000fd5b60209081029190910101526119a26001866143b0565b9450505080806119b190614472565b915050611455565b509392505050565b6000821180156119d357506004548211155b6119ef5760405162461bcd60e51b81526004016109a190614384565b600082815260026020908152604090912082519091611a15916009840191850190613dff565b5060008381526002602081905260409091208254815560018084015490820180546001600160a01b0319166001600160a01b039092169190911790558183018054849383019190611a6590614437565b611a70929190613d78565b506003820154816003015560048201548160040155600582015481600501556006820181600601908054611aa390614437565b611aae929190613d78565b506007820181600701908054611ac390614437565b611ace929190613d78565b506008820181600801908054611ae390614437565b611aee929190613d78565b506009820181600901908054611b0390614437565b611b0e929190613d78565b50600a820181600a01908054611b2390614437565b611b2e929190613d78565b50600b820181600b01908054611b4390614437565b611b4e929190613d78565b50600c8281015490820155600d8083015490820155600e8083015490820155600f8083015490820155601080830154908201556011918201805492909101805460ff938416151560ff19821681178355835461010090819004861615150261ff001990911661ffff19909216919091171780825582546201000090819004851615150262ff0000198216811783558354630100000090819004861615150263ff0000001990911663ffff00001990921691909117178082558254600160201b90819004851615150264ff00000000198216811783558354600160281b90819004861615150260ff60281b1990911665ffff000000001990921691909117178082559154600160301b90819004909316151590920260ff60301b19909116179055505050565b6000600183604051611c85919061415a565b90815260405190819003602001902060028101549091506001600160a01b03838116911614611cf65760405162461bcd60e51b815260206004820152601b60248201527f526f6c6520686173206265656e20616464656420616c7265616479000000000060448201526064016109a1565b60058054906000611d0683614472565b90915550508251611d209060018301906020860190613dff565b506002810180546001600160a01b0319166001600160a01b0384161790556040517f39424c9407ac30223629511a00efdeb9175e3d425784e26c07c28265dd69ceab90611d70908590859061435a565b60405180910390a1505050565b60003411611dcd5760405162461bcd60e51b815260206004820152601c60248201527f5072696365206d757374206265206174206c656173742031207765690000000060448201526064016109a1565b60008611611e1d5760405162461bcd60e51b815260206004820152601f60248201527f7175616e74697479206d7573742062652067726561746572207468616e20300060448201526064016109a1565b33611e2757600080fd5b60048054906000611e3783614472565b909155505060038054906000611e4c83614472565b9091555050600454600090815260026020526040808220600654915190926001600160a01b039092169182913480156108fc0292909190818181858888f19350505050158015611ea0573d6000803e3d6000fd5b5060045482556001820180546001600160a01b031916331790558851611ecf90600284019060208c0190613dff565b50600382018890554260048301553460058301558651611ef890600684019060208a0190613dff565b508551611f0e9060078401906020890190613dff565b508451611f249060088401906020880190613dff565b50604080516020810191829052600090819052611f45916009850191613dff565b508351611f5b90600a8401906020870190613dff565b508251611f7190600b8401906020860190613dff565b50506000600c8201819055600e8201819055600d8201819055600f82018190556010820155601101805466ffffffffffffff1916600117905550505050505050565b600080611fbe612988565b9050611fdb81611fd585662386f26fc10000613c3e565b90613c4a565b9392505050565b600081118015611ff457506004548111155b6120105760405162461bcd60e51b81526004016109a190614384565b600081815260026020819052604090912060118101805466ff0000000000ff1916600160301b1790556001810180546001600160a01b031981166001600160a01b03909116179055908101805482918291819061206c90614437565b612077929190613d78565b5060038201548160030155600482015481600401556005820154816005015560068201816006019080546120aa90614437565b6120b5929190613d78565b5060078201816007019080546120ca90614437565b6120d5929190613d78565b5060088201816008019080546120ea90614437565b6120f5929190613d78565b50600982018160090190805461210a90614437565b612115929190613d78565b50600a820181600a0190805461212a90614437565b612135929190613d78565b50600b820181600b0190805461214a90614437565b612155929190613d78565b50600c8281015490820155600d8083015490820155600e8083015490820155600f8083015490820155601080830154908201556011918201805492909101805460ff938416151560ff19821681178355835461010090819004861615150261ff001990911661ffff19909216919091171780825582546201000090819004851615150262ff0000198216811783558354630100000090819004861615150263ff0000001990911663ffff00001990921691909117178082558254600160201b90819004851615150264ff00000000198216811783558354600160281b90819004861615150260ff60281b1990911665ffff000000001990921691909117178082559154600160301b90819004909316151590920260ff60301b199091161790555050565b600454606090600080805b83811015612388576002600061229b8360016143b0565b815260200190815260200160002060110160029054906101000a900460ff161515600115151480156122f75750600260006122d78360016143b0565b81526020810191909152604001600020601101546301000000900460ff16155b801561232d57506002600061230d8360016143b0565b8152602081019190915260400160002060110154600160201b900460ff16155b80156123635750600260006123438360016143b0565b8152602081019190915260400160002060110154600160281b900460ff16155b15612376576123736001846143b0565b92505b8061238081614472565b915050612284565b5060008267ffffffffffffffff8111156123b257634e487b7160e01b600052604160045260246000fd5b6040519080825280602002602001820160405280156123eb57816020015b6123d8613cac565b8152602001906001900390816123d05790505b50905060005b8481101561096a5733600260006124098460016143b0565b81526020810191909152604001600020600101546001600160a01b031614156129765760006124398260016143b0565b6000818152600260208181526040928390208351610300810185528154815260018201546001600160a01b03169281019290925291820180549495509193909284929084019161248890614437565b80601f01602080910402602001604051908101604052809291908181526020018280546124b490614437565b80156125015780601f106124d657610100808354040283529160200191612501565b820191906000526020600020905b8154815290600101906020018083116124e457829003601f168201915b5050505050815260200160038201548152602001600482015481526020016005820154815260200160068201805461253890614437565b80601f016020809104026020016040519081016040528092919081815260200182805461256490614437565b80156125b15780601f10612586576101008083540402835291602001916125b1565b820191906000526020600020905b81548152906001019060200180831161259457829003601f168201915b505050505081526020016007820180546125ca90614437565b80601f01602080910402602001604051908101604052809291908181526020018280546125f690614437565b80156126435780601f1061261857610100808354040283529160200191612643565b820191906000526020600020905b81548152906001019060200180831161262657829003601f168201915b5050505050815260200160088201805461265c90614437565b80601f016020809104026020016040519081016040528092919081815260200182805461268890614437565b80156126d55780601f106126aa576101008083540402835291602001916126d5565b820191906000526020600020905b8154815290600101906020018083116126b857829003601f168201915b505050505081526020016009820180546126ee90614437565b80601f016020809104026020016040519081016040528092919081815260200182805461271a90614437565b80156127675780601f1061273c57610100808354040283529160200191612767565b820191906000526020600020905b81548152906001019060200180831161274a57829003601f168201915b50505050508152602001600a8201805461278090614437565b80601f01602080910402602001604051908101604052809291908181526020018280546127ac90614437565b80156127f95780601f106127ce576101008083540402835291602001916127f9565b820191906000526020600020905b8154815290600101906020018083116127dc57829003601f168201915b50505050508152602001600b8201805461281290614437565b80601f016020809104026020016040519081016040528092919081815260200182805461283e90614437565b801561288b5780601f106128605761010080835404028352916020019161288b565b820191906000526020600020905b81548152906001019060200180831161286e57829003601f168201915b5050509183525050600c8201546020820152600d8201546040820152600e8201546060820152600f8201546080820152601082015460a082015260119091015460ff808216151560c08401526101008083048216151560e085015262010000830482161515908401526301000000820481161515610120840152600160201b820481161515610140840152600160281b820481161515610160840152600160301b90910416151561018090910152845185908790811061295b57634e487b7160e01b600052603260045260246000fd5b60209081029190910101526129716001866143b0565b945050505b8061298081614472565b9150506123f1565b6000805460408051633fabe5a360e21b8152905183926001600160a01b03169163feaf968c9160048083019260a0929190829003018186803b1580156129cd57600080fd5b505afa1580156129e1573d6000803e3d6000fd5b505050506040513d601f19601f82011682018060405250810190612a0591906140df565b505050915050612a1481613c56565b91505090565b600454606090600080805b83811015612b375760026000612a3c8360016143b0565b815260200190815260200160002060110160029054906101000a900460ff16151560011515148015612a9f575060026000612a788360016143b0565b815260200190815260200160002060110160039054906101000a900460ff16151560011515145b8015612adc575060026000612ab58360016143b0565b815260200190815260200160002060110160049054906101000a900460ff16151560011515145b8015612b12575060026000612af28360016143b0565b8152602081019190915260400160002060110154600160281b900460ff16155b15612b2557612b226001846143b0565b92505b80612b2f81614472565b915050612a25565b5060008267ffffffffffffffff811115612b6157634e487b7160e01b600052604160045260246000fd5b604051908082528060200260200182016040528015612b9a57816020015b612b87613cac565b815260200190600190039081612b7f5790505b50905060005b8481101561096a573360026000612bb88460016143b0565b81526020810191909152604001600020600101546001600160a01b03161415613125576000612be88260016143b0565b6000818152600260208181526040928390208351610300810185528154815260018201546001600160a01b031692810192909252918201805494955091939092849290840191612c3790614437565b80601f0160208091040260200160405190810160405280929190818152602001828054612c6390614437565b8015612cb05780601f10612c8557610100808354040283529160200191612cb0565b820191906000526020600020905b815481529060010190602001808311612c9357829003601f168201915b50505050508152602001600382015481526020016004820154815260200160058201548152602001600682018054612ce790614437565b80601f0160208091040260200160405190810160405280929190818152602001828054612d1390614437565b8015612d605780601f10612d3557610100808354040283529160200191612d60565b820191906000526020600020905b815481529060010190602001808311612d4357829003601f168201915b50505050508152602001600782018054612d7990614437565b80601f0160208091040260200160405190810160405280929190818152602001828054612da590614437565b8015612df25780601f10612dc757610100808354040283529160200191612df2565b820191906000526020600020905b815481529060010190602001808311612dd557829003601f168201915b50505050508152602001600882018054612e0b90614437565b80601f0160208091040260200160405190810160405280929190818152602001828054612e3790614437565b8015612e845780601f10612e5957610100808354040283529160200191612e84565b820191906000526020600020905b815481529060010190602001808311612e6757829003601f168201915b50505050508152602001600982018054612e9d90614437565b80601f0160208091040260200160405190810160405280929190818152602001828054612ec990614437565b8015612f165780601f10612eeb57610100808354040283529160200191612f16565b820191906000526020600020905b815481529060010190602001808311612ef957829003601f168201915b50505050508152602001600a82018054612f2f90614437565b80601f0160208091040260200160405190810160405280929190818152602001828054612f5b90614437565b8015612fa85780601f10612f7d57610100808354040283529160200191612fa8565b820191906000526020600020905b815481529060010190602001808311612f8b57829003601f168201915b50505050508152602001600b82018054612fc190614437565b80601f0160208091040260200160405190810160405280929190818152602001828054612fed90614437565b801561303a5780601f1061300f5761010080835404028352916020019161303a565b820191906000526020600020905b81548152906001019060200180831161301d57829003601f168201915b5050509183525050600c8201546020820152600d8201546040820152600e8201546060820152600f8201546080820152601082015460a082015260119091015460ff808216151560c08401526101008083048216151560e085015262010000830482161515908401526301000000820481161515610120840152600160201b820481161515610140840152600160281b820481161515610160840152600160301b90910416151561018090910152845185908790811061310a57634e487b7160e01b600052603260045260246000fd5b60209081029190910101526131206001866143b0565b945050505b8061312f81614472565b915050612ba0565b60008211801561314957506004548211155b6131655760405162461bcd60e51b81526004016109a190614384565b6000600182604051613177919061415a565b90815260405190819003602001902060028101549091506001600160a01b03163314156131f85760405162461bcd60e51b815260206004820152602960248201527f596f7520646f6e742068617665207065726d697373696f6e20746f20636f6e6660448201526834b9369037b93232b960b91b60648201526084016109a1565b6000838152600260205260409020601181015462010000900460ff161561321e57600080fd5b60118101805462ff000019166201000017905542600d82015560008481526002602081905260409091208254815560018381015490820180546001600160a01b0319166001600160a01b039092169190911790558183018054849383019190610ad090614437565b60008211801561329857506004548211155b6132b45760405162461bcd60e51b81526004016109a190614384565b60006001826040516132c6919061415a565b90815260405190819003602001902060028101549091506001600160a01b03163314156133445760405162461bcd60e51b815260206004820152602660248201527f596f7520646f6e742068617665207065726d697373696f6e20746f20746573746044820152651037b93232b960d11b60648201526084016109a1565b60008381526002602052604090206011810154600160201b900460ff161561336b57600080fd5b60118101805464ff000000001916600160201b17905542600f82015560008481526002602081905260409091208254815560018381015490820180546001600160a01b0319166001600160a01b039092169190911790558183018054849383019190610ad090614437565b6000821180156133e857506004548211155b6134045760405162461bcd60e51b81526004016109a190614384565b6000600182604051613416919061415a565b90815260405190819003602001902060028101549091506001600160a01b03163314156134975760405162461bcd60e51b815260206004820152602960248201527f596f7520646f6e742068617665207065726d697373696f6e20746f2070726f646044820152683ab1b29037b93232b960b91b60648201526084016109a1565b600083815260026020526040902060118101546301000000900460ff16156134be57600080fd5b60118101805463ff0000001916630100000017905542600e82015560008481526002602081905260409091208254815560018381015490820180546001600160a01b0319166001600160a01b039092169190911790558183018054849383019190610ad090614437565b600454606090600080805b8381101561363e576002600061354a8360016143b0565b815260200190815260200160002060110160029054906101000a900460ff161515600115151480156135ad5750600260006135868360016143b0565b815260200190815260200160002060110160039054906101000a900460ff16151560011515145b80156135e35750600260006135c38360016143b0565b8152602081019190915260400160002060110154600160201b900460ff16155b80156136195750600260006135f98360016143b0565b8152602081019190915260400160002060110154600160281b900460ff16155b1561362c576136296001846143b0565b92505b8061363681614472565b915050613533565b5060008267ffffffffffffffff81111561366857634e487b7160e01b600052604160045260246000fd5b6040519080825280602002602001820160405280156136a157816020015b61368e613cac565b8152602001906001900390816136865790505b50905060005b8481101561096a5733600260006136bf8460016143b0565b81526020810191909152604001600020600101546001600160a01b03161415613c2c5760006136ef8260016143b0565b6000818152600260208181526040928390208351610300810185528154815260018201546001600160a01b03169281019290925291820180549495509193909284929084019161373e90614437565b80601f016020809104026020016040519081016040528092919081815260200182805461376a90614437565b80156137b75780601f1061378c576101008083540402835291602001916137b7565b820191906000526020600020905b81548152906001019060200180831161379a57829003601f168201915b505050505081526020016003820154815260200160048201548152602001600582015481526020016006820180546137ee90614437565b80601f016020809104026020016040519081016040528092919081815260200182805461381a90614437565b80156138675780601f1061383c57610100808354040283529160200191613867565b820191906000526020600020905b81548152906001019060200180831161384a57829003601f168201915b5050505050815260200160078201805461388090614437565b80601f01602080910402602001604051908101604052809291908181526020018280546138ac90614437565b80156138f95780601f106138ce576101008083540402835291602001916138f9565b820191906000526020600020905b8154815290600101906020018083116138dc57829003601f168201915b5050505050815260200160088201805461391290614437565b80601f016020809104026020016040519081016040528092919081815260200182805461393e90614437565b801561398b5780601f106139605761010080835404028352916020019161398b565b820191906000526020600020905b81548152906001019060200180831161396e57829003601f168201915b505050505081526020016009820180546139a490614437565b80601f01602080910402602001604051908101604052809291908181526020018280546139d090614437565b8015613a1d5780601f106139f257610100808354040283529160200191613a1d565b820191906000526020600020905b815481529060010190602001808311613a0057829003601f168201915b50505050508152602001600a82018054613a3690614437565b80601f0160208091040260200160405190810160405280929190818152602001828054613a6290614437565b8015613aaf5780601f10613a8457610100808354040283529160200191613aaf565b820191906000526020600020905b815481529060010190602001808311613a9257829003601f168201915b50505050508152602001600b82018054613ac890614437565b80601f0160208091040260200160405190810160405280929190818152602001828054613af490614437565b8015613b415780601f10613b1657610100808354040283529160200191613b41565b820191906000526020600020905b815481529060010190602001808311613b2457829003601f168201915b5050509183525050600c8201546020820152600d8201546040820152600e8201546060820152600f8201546080820152601082015460a082015260119091015460ff808216151560c08401526101008083048216151560e085015262010000830482161515908401526301000000820481161515610120840152600160201b820481161515610140840152600160281b820481161515610160840152600160301b909104161515610180909101528451859087908110613c1157634e487b7160e01b600052603260045260246000fd5b6020908102919091010152613c276001866143b0565b945050505b80613c3681614472565b9150506136a7565b6000611fdb82846143e8565b6000611fdb82846143c8565b600080821215613ca85760405162461bcd60e51b815260206004820181905260248201527f53616665436173743a2076616c7565206d75737420626520706f73697469766560448201526064016109a1565b5090565b6040518061030001604052806000815260200160006001600160a01b031681526020016060815260200160008152602001600081526020016000815260200160608152602001606081526020016060815260200160608152602001606081526020016060815260200160008152602001600081526020016000815260200160008152602001600081526020016000151581526020016000151581526020016000151581526020016000151581526020016000151581526020016000151581526020016000151581525090565b828054613d8490614437565b90600052602060002090601f016020900481019282613da65760008555613df3565b82601f10613db75780548555613df3565b82800160010185558215613df357600052602060002091601f016020900482015b82811115613df3578254825591600101919060010190613dd8565b50613ca8929150613e73565b828054613e0b90614437565b90600052602060002090601f016020900481019282613e2d5760008555613df3565b82601f10613e4657805160ff1916838001178555613df3565b82800160010185558215613df3579182015b82811115613df3578251825591602001919060010190613e58565b5b80821115613ca85760008155600101613e74565b600082601f830112613e98578081fd5b813567ffffffffffffffff80821115613eb357613eb36144a3565b604051601f8301601f19908116603f01168101908282118183101715613edb57613edb6144a3565b81604052838152866020858801011115613ef3578485fd5b8360208701602083013792830160200193909352509392505050565b805169ffffffffffffffffffff81168114613f2957600080fd5b919050565b60008060408385031215613f40578182fd5b823567ffffffffffffffff811115613f56578283fd5b613f6285828601613e88565b92505060208301356001600160a01b0381168114613f7e578182fd5b809150509250929050565b600080600080600080600060e0888a031215613fa3578283fd5b873567ffffffffffffffff80821115613fba578485fd5b613fc68b838c01613e88565b985060208a0135975060408a0135915080821115613fe2578485fd5b613fee8b838c01613e88565b965060608a0135915080821115614003578485fd5b61400f8b838c01613e88565b955060808a0135915080821115614024578485fd5b6140308b838c01613e88565b945060a08a0135915080821115614045578384fd5b6140518b838c01613e88565b935060c08a0135915080821115614066578283fd5b506140738a828b01613e88565b91505092959891949750929550565b600060208284031215614093578081fd5b5035919050565b600080604083850312156140ac578182fd5b82359150602083013567ffffffffffffffff8111156140c9578182fd5b6140d585828601613e88565b9150509250929050565b600080600080600060a086880312156140f6578081fd5b6140ff86613f0f565b945060208601519350604086015192506060860151915061412260808701613f0f565b90509295509295909350565b60008151808452614146816020860160208601614407565b601f01601f19169290920160200192915050565b6000825161416c818460208701614407565b9190910192915050565b60006020808301818452808551808352604092508286019150828160051b870101848801865b8381101561434c57603f19898403018552815180518452878101516001600160a01b03168885015286810151610300888601819052906141de8287018261412e565b606084810151908801526080808501519088015260a0808501519088015260c080850151888303828a01529193509150614218838261412e565b9250505060e08083015186830382880152614233838261412e565b92505050610100808301518683038288015261424f838261412e565b92505050610120808301518683038288015261426b838261412e565b925050506101408083015186830382880152614287838261412e565b9250505061016080830151868303828801526142a3838261412e565b61018085810151908901526101a080860151908901526101c080860151908901526101e080860151908901526102008086015190890152610220808601511515908901526102408086015115159089015261026080860151151590890152610280808601511515908901526102a0808601511515908901526102c0808601511515908901526102e09485015115159490970193909352505050938601939086019060010161419c565b509098975050505050505050565b60408152600061436d604083018561412e565b905060018060a01b03831660208301529392505050565b6020808252601290820152711bdc99195c881a59081b9bdd081d985b1a5960721b604082015260600190565b600082198211156143c3576143c361448d565b500190565b6000826143e357634e487b7160e01b81526012600452602481fd5b500490565b60008160001904831182151516156144025761440261448d565b500290565b60005b8381101561442257818101518382015260200161440a565b83811115614431576000848401525b50505050565b600181811c9082168061444b57607f821691505b6020821081141561446c57634e487b7160e01b600052602260045260246000fd5b50919050565b60006000198214156144865761448661448d565b5060010190565b634e487b7160e01b600052601160045260246000fd5b634e487b7160e01b600052604160045260246000fdfea2646970667358221220646a8a6b3b666fb926f9339a1f442824b06ee03b2567d3ce5cea96d1e27d911a64736f6c63430008040033",
  "linkReferences": {},
  "deployedLinkReferences": {}
}