{
  "_format": "hh-sol-artifact-1",
  "contractName": "Schain",
  "sourceName": "contracts/Schain.sol",
  "abi": [
    {
      "inputs": [],
      "stateMutability": "nonpayable",
      "type": "constructor"
    },
    {
      "anonymous": false,
      "inputs": [
        {
          "indexed": true,
          "internalType": "uint256",
          "name": "id",
          "type": "uint256"
        },
        {
          "indexed": false,
          "internalType": "address",
          "name": "owner",
          "type": "address"
        },
        {
          "indexed": false,
          "internalType": "string",
          "name": "product",
          "type": "string"
        },
        {
          "indexed": false,
          "internalType": "uint256",
          "name": "quantity",
          "type": "uint256"
        },
        {
          "indexed": false,
          "internalType": "uint256",
          "name": "orderdate",
          "type": "uint256"
        },
        {
          "indexed": false,
          "internalType": "uint256",
          "name": "price",
          "type": "uint256"
        },
        {
          "indexed": false,
          "internalType": "string",
          "name": "addressLine",
          "type": "string"
        },
        {
          "indexed": false,
          "internalType": "string",
          "name": "contact",
          "type": "string"
        },
        {
          "indexed": false,
          "internalType": "string",
          "name": "city",
          "type": "string"
        },
        {
          "indexed": false,
          "internalType": "string",
          "name": "review",
          "type": "string"
        },
        {
          "indexed": false,
          "internalType": "string",
          "name": "zipcode",
          "type": "string"
        },
        {
          "indexed": false,
          "internalType": "string",
          "name": "state",
          "type": "string"
        },
        {
          "indexed": false,
          "internalType": "uint256",
          "name": "recievedate",
          "type": "uint256"
        },
        {
          "indexed": false,
          "internalType": "uint256",
          "name": "confirmdate",
          "type": "uint256"
        },
        {
          "indexed": false,
          "internalType": "uint256",
          "name": "producedate",
          "type": "uint256"
        },
        {
          "indexed": false,
          "internalType": "uint256",
          "name": "testdate",
          "type": "uint256"
        },
        {
          "indexed": false,
          "internalType": "uint256",
          "name": "transportdate",
          "type": "uint256"
        },
        {
          "indexed": false,
          "internalType": "bool",
          "name": "pending",
          "type": "bool"
        },
        {
          "indexed": false,
          "internalType": "bool",
          "name": "returned",
          "type": "bool"
        },
        {
          "indexed": false,
          "internalType": "bool",
          "name": "confirmed",
          "type": "bool"
        },
        {
          "indexed": false,
          "internalType": "bool",
          "name": "produced",
          "type": "bool"
        },
        {
          "indexed": false,
          "internalType": "bool",
          "name": "tested",
          "type": "bool"
        },
        {
          "indexed": false,
          "internalType": "bool",
          "name": "transported",
          "type": "bool"
        },
        {
          "indexed": false,
          "internalType": "bool",
          "name": "recieved",
          "type": "bool"
        }
      ],
      "name": "AddOrder",
      "type": "event"
    },
    {
      "anonymous": false,
      "inputs": [
        {
          "indexed": false,
          "internalType": "string",
          "name": "role",
          "type": "string"
        },
        {
          "indexed": false,
          "internalType": "address",
          "name": "roleaddress",
          "type": "address"
        }
      ],
      "name": "RoleAdded",
      "type": "event"
    },
    {
      "inputs": [
        {
          "internalType": "string",
          "name": "_product",
          "type": "string"
        },
        {
          "internalType": "uint256",
          "name": "_quantity",
          "type": "uint256"
        },
        {
          "internalType": "string",
          "name": "_addressline",
          "type": "string"
        },
        {
          "internalType": "string",
          "name": "_contact",
          "type": "string"
        },
        {
          "internalType": "string",
          "name": "_city",
          "type": "string"
        },
        {
          "internalType": "string",
          "name": "_zipcode",
          "type": "string"
        },
        {
          "internalType": "string",
          "name": "_state",
          "type": "string"
        }
      ],
      "name": "addOrderItem",
      "outputs": [],
      "stateMutability": "payable",
      "type": "function"
    },
    {
      "inputs": [
        {
          "internalType": "uint256",
          "name": "_id",
          "type": "uint256"
        },
        {
          "internalType": "string",
          "name": "_review",
          "type": "string"
        }
      ],
      "name": "addReveiw",
      "outputs": [],
      "stateMutability": "nonpayable",
      "type": "function"
    },
    {
      "inputs": [
        {
          "internalType": "string",
          "name": "_role",
          "type": "string"
        },
        {
          "internalType": "address",
          "name": "_roleaddress",
          "type": "address"
        }
      ],
      "name": "addRole",
      "outputs": [],
      "stateMutability": "payable",
      "type": "function"
    },
    {
      "inputs": [
        {
          "internalType": "uint256",
          "name": "_id",
          "type": "uint256"
        },
        {
          "internalType": "string",
          "name": "_role",
          "type": "string"
        }
      ],
      "name": "confrimOrder",
      "outputs": [],
      "stateMutability": "nonpayable",
      "type": "function"
    },
    {
      "inputs": [
        {
          "internalType": "uint256",
          "name": "_amountInUsd",
          "type": "uint256"
        }
      ],
      "name": "convertEthUsd",
      "outputs": [
        {
          "internalType": "uint256",
          "name": "",
          "type": "uint256"
        }
      ],
      "stateMutability": "view",
      "type": "function"
    },
    {
      "inputs": [],
      "name": "fetchCustomers",
      "outputs": [
        {
          "components": [
            {
              "internalType": "uint256",
              "name": "id",
              "type": "uint256"
            },
            {
              "internalType": "address",
              "name": "owner",
              "type": "address"
            },
            {
              "internalType": "string",
              "name": "product",
              "type": "string"
            },
            {
              "internalType": "uint256",
              "name": "quantity",
              "type": "uint256"
            },
            {
              "internalType": "uint256",
              "name": "orderdate",
              "type": "uint256"
            },
            {
              "internalType": "uint256",
              "name": "price",
              "type": "uint256"
            },
            {
              "internalType": "string",
              "name": "addressLine",
              "type": "string"
            },
            {
              "internalType": "string",
              "name": "contact",
              "type": "string"
            },
            {
              "internalType": "string",
              "name": "city",
              "type": "string"
            },
            {
              "internalType": "string",
              "name": "review",
              "type": "string"
            },
            {
              "internalType": "string",
              "name": "zipcode",
              "type": "string"
            },
            {
              "internalType": "string",
              "name": "state",
              "type": "string"
            },
            {
              "internalType": "uint256",
              "name": "recievedate",
              "type": "uint256"
            },
            {
              "internalType": "uint256",
              "name": "confirmdate",
              "type": "uint256"
            },
            {
              "internalType": "uint256",
              "name": "producedate",
              "type": "uint256"
            },
            {
              "internalType": "uint256",
              "name": "testdate",
              "type": "uint256"
            },
            {
              "internalType": "uint256",
              "name": "transportdate",
              "type": "uint256"
            },
            {
              "internalType": "bool",
              "name": "pending",
              "type": "bool"
            },
            {
              "internalType": "bool",
              "name": "returned",
              "type": "bool"
            },
            {
              "internalType": "bool",
              "name": "confirmed",
              "type": "bool"
            },
            {
              "internalType": "bool",
              "name": "produced",
              "type": "bool"
            },
            {
              "internalType": "bool",
              "name": "tested",
              "type": "bool"
            },
            {
              "internalType": "bool",
              "name": "transported",
              "type": "bool"
            },
            {
              "internalType": "bool",
              "name": "recieved",
              "type": "bool"
            }
          ],
          "internalType": "struct Schain.OrderItem[]",
          "name": "",
          "type": "tuple[]"
        }
      ],
      "stateMutability": "view",
      "type": "function"
    },
    {
      "inputs": [],
      "name": "fetchMyOrders",
      "outputs": [
        {
          "components": [
            {
              "internalType": "uint256",
              "name": "id",
              "type": "uint256"
            },
            {
              "internalType": "address",
              "name": "owner",
              "type": "address"
            },
            {
              "internalType": "string",
              "name": "product",
              "type": "string"
            },
            {
              "internalType": "uint256",
              "name": "quantity",
              "type": "uint256"
            },
            {
              "internalType": "uint256",
              "name": "orderdate",
              "type": "uint256"
            },
            {
              "internalType": "uint256",
              "name": "price",
              "type": "uint256"
            },
            {
              "internalType": "string",
              "name": "addressLine",
              "type": "string"
            },
            {
              "internalType": "string",
              "name": "contact",
              "type": "string"
            },
            {
              "internalType": "string",
              "name": "city",
              "type": "string"
            },
            {
              "internalType": "string",
              "name": "review",
              "type": "string"
            },
            {
              "internalType": "string",
              "name": "zipcode",
              "type": "string"
            },
            {
              "internalType": "string",
              "name": "state",
              "type": "string"
            },
            {
              "internalType": "uint256",
              "name": "recievedate",
              "type": "uint256"
            },
            {
              "internalType": "uint256",
              "name": "confirmdate",
              "type": "uint256"
            },
            {
              "internalType": "uint256",
              "name": "producedate",
              "type": "uint256"
            },
            {
              "internalType": "uint256",
              "name": "testdate",
              "type": "uint256"
            },
            {
              "internalType": "uint256",
              "name": "transportdate",
              "type": "uint256"
            },
            {
              "internalType": "bool",
              "name": "pending",
              "type": "bool"
            },
            {
              "internalType": "bool",
              "name": "returned",
              "type": "bool"
            },
            {
              "internalType": "bool",
              "name": "confirmed",
              "type": "bool"
            },
            {
              "internalType": "bool",
              "name": "produced",
              "type": "bool"
            },
            {
              "internalType": "bool",
              "name": "tested",
              "type": "bool"
            },
            {
              "internalType": "bool",
              "name": "transported",
              "type": "bool"
            },
            {
              "internalType": "bool",
              "name": "recieved",
              "type": "bool"
            }
          ],
          "internalType": "struct Schain.OrderItem[]",
          "name": "",
          "type": "tuple[]"
        }
      ],
      "stateMutability": "view",
      "type": "function"
    },
    {
      "inputs": [],
      "name": "fetchOrderItems",
      "outputs": [
        {
          "components": [
            {
              "internalType": "uint256",
              "name": "id",
              "type": "uint256"
            },
            {
              "internalType": "address",
              "name": "owner",
              "type": "address"
            },
            {
              "internalType": "string",
              "name": "product",
              "type": "string"
            },
            {
              "internalType": "uint256",
              "name": "quantity",
              "type": "uint256"
            },
            {
              "internalType": "uint256",
              "name": "orderdate",
              "type": "uint256"
            },
            {
              "internalType": "uint256",
              "name": "price",
              "type": "uint256"
            },
            {
              "internalType": "string",
              "name": "addressLine",
              "type": "string"
            },
            {
              "internalType": "string",
              "name": "contact",
              "type": "string"
            },
            {
              "internalType": "string",
              "name": "city",
              "type": "string"
            },
            {
              "internalType": "string",
              "name": "review",
              "type": "string"
            },
            {
              "internalType": "string",
              "name": "zipcode",
              "type": "string"
            },
            {
              "internalType": "string",
              "name": "state",
              "type": "string"
            },
            {
              "internalType": "uint256",
              "name": "recievedate",
              "type": "uint256"
            },
            {
              "internalType": "uint256",
              "name": "confirmdate",
              "type": "uint256"
            },
            {
              "internalType": "uint256",
              "name": "producedate",
              "type": "uint256"
            },
            {
              "internalType": "uint256",
              "name": "testdate",
              "type": "uint256"
            },
            {
              "internalType": "uint256",
              "name": "transportdate",
              "type": "uint256"
            },
            {
              "internalType": "bool",
              "name": "pending",
              "type": "bool"
            },
            {
              "internalType": "bool",
              "name": "returned",
              "type": "bool"
            },
            {
              "internalType": "bool",
              "name": "confirmed",
              "type": "bool"
            },
            {
              "internalType": "bool",
              "name": "produced",
              "type": "bool"
            },
            {
              "internalType": "bool",
              "name": "tested",
              "type": "bool"
            },
            {
              "internalType": "bool",
              "name": "transported",
              "type": "bool"
            },
            {
              "internalType": "bool",
              "name": "recieved",
              "type": "bool"
            }
          ],
          "internalType": "struct Schain.OrderItem[]",
          "name": "",
          "type": "tuple[]"
        }
      ],
      "stateMutability": "view",
      "type": "function"
    },
    {
      "inputs": [],
      "name": "fetchOrdersConfirm",
      "outputs": [
        {
          "components": [
            {
              "internalType": "uint256",
              "name": "id",
              "type": "uint256"
            },
            {
              "internalType": "address",
              "name": "owner",
              "type": "address"
            },
            {
              "internalType": "string",
              "name": "product",
              "type": "string"
            },
            {
              "internalType": "uint256",
              "name": "quantity",
              "type": "uint256"
            },
            {
              "internalType": "uint256",
              "name": "orderdate",
              "type": "uint256"
            },
            {
              "internalType": "uint256",
              "name": "price",
              "type": "uint256"
            },
            {
              "internalType": "string",
              "name": "addressLine",
              "type": "string"
            },
            {
              "internalType": "string",
              "name": "contact",
              "type": "string"
            },
            {
              "internalType": "string",
              "name": "city",
              "type": "string"
            },
            {
              "internalType": "string",
              "name": "review",
              "type": "string"
            },
            {
              "internalType": "string",
              "name": "zipcode",
              "type": "string"
            },
            {
              "internalType": "string",
              "name": "state",
              "type": "string"
            },
            {
              "internalType": "uint256",
              "name": "recievedate",
              "type": "uint256"
            },
            {
              "internalType": "uint256",
              "name": "confirmdate",
              "type": "uint256"
            },
            {
              "internalType": "uint256",
              "name": "producedate",
              "type": "uint256"
            },
            {
              "internalType": "uint256",
              "name": "testdate",
              "type": "uint256"
            },
            {
              "internalType": "uint256",
              "name": "transportdate",
              "type": "uint256"
            },
            {
              "internalType": "bool",
              "name": "pending",
              "type": "bool"
            },
            {
              "internalType": "bool",
              "name": "returned",
              "type": "bool"
            },
            {
              "internalType": "bool",
              "name": "confirmed",
              "type": "bool"
            },
            {
              "internalType": "bool",
              "name": "produced",
              "type": "bool"
            },
            {
              "internalType": "bool",
              "name": "tested",
              "type": "bool"
            },
            {
              "internalType": "bool",
              "name": "transported",
              "type": "bool"
            },
            {
              "internalType": "bool",
              "name": "recieved",
              "type": "bool"
            }
          ],
          "internalType": "struct Schain.OrderItem[]",
          "name": "",
          "type": "tuple[]"
        }
      ],
      "stateMutability": "view",
      "type": "function"
    },
    {
      "inputs": [],
      "name": "fetchOrdersProduced",
      "outputs": [
        {
          "components": [
            {
              "internalType": "uint256",
              "name": "id",
              "type": "uint256"
            },
            {
              "internalType": "address",
              "name": "owner",
              "type": "address"
            },
            {
              "internalType": "string",
              "name": "product",
              "type": "string"
            },
            {
              "internalType": "uint256",
              "name": "quantity",
              "type": "uint256"
            },
            {
              "internalType": "uint256",
              "name": "orderdate",
              "type": "uint256"
            },
            {
              "internalType": "uint256",
              "name": "price",
              "type": "uint256"
            },
            {
              "internalType": "string",
              "name": "addressLine",
              "type": "string"
            },
            {
              "internalType": "string",
              "name": "contact",
              "type": "string"
            },
            {
              "internalType": "string",
              "name": "city",
              "type": "string"
            },
            {
              "internalType": "string",
              "name": "review",
              "type": "string"
            },
            {
              "internalType": "string",
              "name": "zipcode",
              "type": "string"
            },
            {
              "internalType": "string",
              "name": "state",
              "type": "string"
            },
            {
              "internalType": "uint256",
              "name": "recievedate",
              "type": "uint256"
            },
            {
              "internalType": "uint256",
              "name": "confirmdate",
              "type": "uint256"
            },
            {
              "internalType": "uint256",
              "name": "producedate",
              "type": "uint256"
            },
            {
              "internalType": "uint256",
              "name": "testdate",
              "type": "uint256"
            },
            {
              "internalType": "uint256",
              "name": "transportdate",
              "type": "uint256"
            },
            {
              "internalType": "bool",
              "name": "pending",
              "type": "bool"
            },
            {
              "internalType": "bool",
              "name": "returned",
              "type": "bool"
            },
            {
              "internalType": "bool",
              "name": "confirmed",
              "type": "bool"
            },
            {
              "internalType": "bool",
              "name": "produced",
              "type": "bool"
            },
            {
              "internalType": "bool",
              "name": "tested",
              "type": "bool"
            },
            {
              "internalType": "bool",
              "name": "transported",
              "type": "bool"
            },
            {
              "internalType": "bool",
              "name": "recieved",
              "type": "bool"
            }
          ],
          "internalType": "struct Schain.OrderItem[]",
          "name": "",
          "type": "tuple[]"
        }
      ],
      "stateMutability": "view",
      "type": "function"
    },
    {
      "inputs": [],
      "name": "fetchOrdersTested",
      "outputs": [
        {
          "components": [
            {
              "internalType": "uint256",
              "name": "id",
              "type": "uint256"
            },
            {
              "internalType": "address",
              "name": "owner",
              "type": "address"
            },
            {
              "internalType": "string",
              "name": "product",
              "type": "string"
            },
            {
              "internalType": "uint256",
              "name": "quantity",
              "type": "uint256"
            },
            {
              "internalType": "uint256",
              "name": "orderdate",
              "type": "uint256"
            },
            {
              "internalType": "uint256",
              "name": "price",
              "type": "uint256"
            },
            {
              "internalType": "string",
              "name": "addressLine",
              "type": "string"
            },
            {
              "internalType": "string",
              "name": "contact",
              "type": "string"
            },
            {
              "internalType": "string",
              "name": "city",
              "type": "string"
            },
            {
              "internalType": "string",
              "name": "review",
              "type": "string"
            },
            {
              "internalType": "string",
              "name": "zipcode",
              "type": "string"
            },
            {
              "internalType": "string",
              "name": "state",
              "type": "string"
            },
            {
              "internalType": "uint256",
              "name": "recievedate",
              "type": "uint256"
            },
            {
              "internalType": "uint256",
              "name": "confirmdate",
              "type": "uint256"
            },
            {
              "internalType": "uint256",
              "name": "producedate",
              "type": "uint256"
            },
            {
              "internalType": "uint256",
              "name": "testdate",
              "type": "uint256"
            },
            {
              "internalType": "uint256",
              "name": "transportdate",
              "type": "uint256"
            },
            {
              "internalType": "bool",
              "name": "pending",
              "type": "bool"
            },
            {
              "internalType": "bool",
              "name": "returned",
              "type": "bool"
            },
            {
              "internalType": "bool",
              "name": "confirmed",
              "type": "bool"
            },
            {
              "internalType": "bool",
              "name": "produced",
              "type": "bool"
            },
            {
              "internalType": "bool",
              "name": "tested",
              "type": "bool"
            },
            {
              "internalType": "bool",
              "name": "transported",
              "type": "bool"
            },
            {
              "internalType": "bool",
              "name": "recieved",
              "type": "bool"
            }
          ],
          "internalType": "struct Schain.OrderItem[]",
          "name": "",
          "type": "tuple[]"
        }
      ],
      "stateMutability": "view",
      "type": "function"
    },
    {
      "inputs": [],
      "name": "fetchOrdersTransported",
      "outputs": [
        {
          "components": [
            {
              "internalType": "uint256",
              "name": "id",
              "type": "uint256"
            },
            {
              "internalType": "address",
              "name": "owner",
              "type": "address"
            },
            {
              "internalType": "string",
              "name": "product",
              "type": "string"
            },
            {
              "internalType": "uint256",
              "name": "quantity",
              "type": "uint256"
            },
            {
              "internalType": "uint256",
              "name": "orderdate",
              "type": "uint256"
            },
            {
              "internalType": "uint256",
              "name": "price",
              "type": "uint256"
            },
            {
              "internalType": "string",
              "name": "addressLine",
              "type": "string"
            },
            {
              "internalType": "string",
              "name": "contact",
              "type": "string"
            },
            {
              "internalType": "string",
              "name": "city",
              "type": "string"
            },
            {
              "internalType": "string",
              "name": "review",
              "type": "string"
            },
            {
              "internalType": "string",
              "name": "zipcode",
              "type": "string"
            },
            {
              "internalType": "string",
              "name": "state",
              "type": "string"
            },
            {
              "internalType": "uint256",
              "name": "recievedate",
              "type": "uint256"
            },
            {
              "internalType": "uint256",
              "name": "confirmdate",
              "type": "uint256"
            },
            {
              "internalType": "uint256",
              "name": "producedate",
              "type": "uint256"
            },
            {
              "internalType": "uint256",
              "name": "testdate",
              "type": "uint256"
            },
            {
              "internalType": "uint256",
              "name": "transportdate",
              "type": "uint256"
            },
            {
              "internalType": "bool",
              "name": "pending",
              "type": "bool"
            },
            {
              "internalType": "bool",
              "name": "returned",
              "type": "bool"
            },
            {
              "internalType": "bool",
              "name": "confirmed",
              "type": "bool"
            },
            {
              "internalType": "bool",
              "name": "produced",
              "type": "bool"
            },
            {
              "internalType": "bool",
              "name": "tested",
              "type": "bool"
            },
            {
              "internalType": "bool",
              "name": "transported",
              "type": "bool"
            },
            {
              "internalType": "bool",
              "name": "recieved",
              "type": "bool"
            }
          ],
          "internalType": "struct Schain.OrderItem[]",
          "name": "",
          "type": "tuple[]"
        }
      ],
      "stateMutability": "view",
      "type": "function"
    },
    {
      "inputs": [],
      "name": "getEthUsd",
      "outputs": [
        {
          "internalType": "uint256",
          "name": "",
          "type": "uint256"
        }
      ],
      "stateMutability": "view",
      "type": "function"
    },
    {
      "inputs": [],
      "name": "ordersCount",
      "outputs": [
        {
          "internalType": "uint256",
          "name": "",
          "type": "uint256"
        }
      ],
      "stateMutability": "view",
      "type": "function"
    },
    {
      "inputs": [
        {
          "internalType": "uint256",
          "name": "_id",
          "type": "uint256"
        },
        {
          "internalType": "string",
          "name": "_role",
          "type": "string"
        }
      ],
      "name": "produceOrder",
      "outputs": [],
      "stateMutability": "nonpayable",
      "type": "function"
    },
    {
      "inputs": [
        {
          "internalType": "uint256",
          "name": "_id",
          "type": "uint256"
        }
      ],
      "name": "receiveOrder",
      "outputs": [],
      "stateMutability": "nonpayable",
      "type": "function"
    },
    {
      "inputs": [
        {
          "internalType": "uint256",
          "name": "_id",
          "type": "uint256"
        },
        {
          "internalType": "string",
          "name": "_review",
          "type": "string"
        }
      ],
      "name": "returnOrder",
      "outputs": [],
      "stateMutability": "nonpayable",
      "type": "function"
    },
    {
      "inputs": [
        {
          "internalType": "uint256",
          "name": "_id",
          "type": "uint256"
        },
        {
          "internalType": "string",
          "name": "_role",
          "type": "string"
        }
      ],
      "name": "testOrder",
      "outputs": [],
      "stateMutability": "nonpayable",
      "type": "function"
    },
    {
      "inputs": [
        {
          "internalType": "uint256",
          "name": "_id",
          "type": "uint256"
        },
        {
          "internalType": "string",
          "name": "_role",
          "type": "string"
        }
      ],
      "name": "transportOrder",
      "outputs": [],
      "stateMutability": "nonpayable",
      "type": "function"
    },
    {
      "inputs": [],
      "name": "usersCount",
      "outputs": [
        {
          "internalType": "uint256",
          "name": "",
          "type": "uint256"
        }
      ],
      "stateMutability": "view",
      "type": "function"
    },
    {
      "inputs": [
        {
          "internalType": "string",
          "name": "_role",
          "type": "string"
        },
        {
          "internalType": "address",
          "name": "_roleaddress",
          "type": "address"
        }
      ],
      "name": "validateRole",
      "outputs": [
        {
          "internalType": "bool",
          "name": "",
          "type": "bool"
        }
      ],
      "stateMutability": "view",
      "type": "function"
    }
  ],
  "bytecode": "0x608060405260006003556000600455600060055534801561001f57600080fd5b50600680546001600160a01b0319908116331790915560008054909116739326bfa02add2366b30bacb125260af641031331179055614e34806100636000396000f3fe60806040526004361061012a5760003560e01c80638683c612116100ab578063bb27e0ce1161006f578063bb27e0ce146102e0578063bbb03358146102f5578063c8e45a6b1461030a578063d1e002fe1461032a578063df7128851461034a578063eaa44a421461036a57600080fd5b80638683c61214610258578063911c027f1461026b5780639534b3bf1461028b57806397bab12f146102ab5780639fe2a7f4146102cb57600080fd5b806335daa731116100f257806335daa731146101d65780633d644327146101fa5780636038821a1461020f5780636735b3a71461022f5780636ba13a821461024257600080fd5b80630500418b1461012f5780630e55f29b1461015a578063191b93511461018a5780631ca107fe1461019f5780632775bbc0146101c1575b600080fd5b34801561013b57600080fd5b5061014461037f565b6040516101519190614aa8565b60405180910390f35b34801561016657600080fd5b5061017a610175366004614860565b6109ee565b6040519015158152602001610151565b34801561019657600080fd5b50610144610a3e565b3480156101ab57600080fd5b506101bf6101ba3660046149cc565b61109e565b005b3480156101cd57600080fd5b50610144611413565b3480156101e257600080fd5b506101ec60045481565b604051908152602001610151565b34801561020657600080fd5b50610144611bbb565b34801561021b57600080fd5b506101bf61022a3660046149cc565b612196565b6101bf61023d366004614860565b61223a565b34801561024e57600080fd5b506101ec60035481565b6101bf6102663660046148bb565b6122e4565b34801561027757600080fd5b506101bf6102863660046149cc565b61251a565b34801561029757600080fd5b506101ec6102a63660046149b4565b6125a1565b3480156102b757600080fd5b506101bf6102c63660046149b4565b6125d0565b3480156102d757600080fd5b5061014461286c565b3480156102ec57600080fd5b506101ec613024565b34801561030157600080fd5b506101446130b6565b34801561031657600080fd5b506101bf6103253660046149cc565b61388a565b34801561033657600080fd5b506101bf6103453660046149cc565b613a57565b34801561035657600080fd5b506101bf6103653660046149cc565b613baa565b34801561037657600080fd5b50610144613cff565b600454606090600080805b838110156103e55733600260006103a2846001614cf5565b81526020810191909152604001600020600101546001600160a01b031614156103d3576103d0600184614cf5565b92505b806103dd81614db7565b91505061038a565b5060008267ffffffffffffffff81111561040f57634e487b7160e01b600052604160045260246000fd5b60405190808252806020026020018201604052801561044857816020015b6104356145de565b81526020019060019003908161042d5790505b50905060005b848110156109e5573360026000610466846001614cf5565b81526020810191909152604001600020600101546001600160a01b031614156109d3576000610496826001614cf5565b6000818152600260208181526040928390208351610300810185528154815260018201546001600160a01b0316928101929092529182018054949550919390928492908401916104e590614d7c565b80601f016020809104026020016040519081016040528092919081815260200182805461051190614d7c565b801561055e5780601f106105335761010080835404028352916020019161055e565b820191906000526020600020905b81548152906001019060200180831161054157829003601f168201915b5050505050815260200160038201548152602001600482015481526020016005820154815260200160068201805461059590614d7c565b80601f01602080910402602001604051908101604052809291908181526020018280546105c190614d7c565b801561060e5780601f106105e35761010080835404028352916020019161060e565b820191906000526020600020905b8154815290600101906020018083116105f157829003601f168201915b5050505050815260200160078201805461062790614d7c565b80601f016020809104026020016040519081016040528092919081815260200182805461065390614d7c565b80156106a05780601f10610675576101008083540402835291602001916106a0565b820191906000526020600020905b81548152906001019060200180831161068357829003601f168201915b505050505081526020016008820180546106b990614d7c565b80601f01602080910402602001604051908101604052809291908181526020018280546106e590614d7c565b80156107325780601f1061070757610100808354040283529160200191610732565b820191906000526020600020905b81548152906001019060200180831161071557829003601f168201915b5050505050815260200160098201805461074b90614d7c565b80601f016020809104026020016040519081016040528092919081815260200182805461077790614d7c565b80156107c45780601f10610799576101008083540402835291602001916107c4565b820191906000526020600020905b8154815290600101906020018083116107a757829003601f168201915b50505050508152602001600a820180546107dd90614d7c565b80601f016020809104026020016040519081016040528092919081815260200182805461080990614d7c565b80156108565780601f1061082b57610100808354040283529160200191610856565b820191906000526020600020905b81548152906001019060200180831161083957829003601f168201915b50505050508152602001600b8201805461086f90614d7c565b80601f016020809104026020016040519081016040528092919081815260200182805461089b90614d7c565b80156108e85780601f106108bd576101008083540402835291602001916108e8565b820191906000526020600020905b8154815290600101906020018083116108cb57829003601f168201915b5050509183525050600c8201546020820152600d8201546040820152600e8201546060820152600f8201546080820152601082015460a082015260119091015460ff808216151560c08401526101008083048216151560e085015262010000830482161515908401526301000000820481161515610120840152600160201b820481161515610140840152600160281b820481161515610160840152600160301b9091041615156101809091015284518590879081106109b857634e487b7160e01b600052603260045260246000fd5b60209081029190910101526109ce600186614cf5565b945050505b806109dd81614db7565b91505061044e565b50949350505050565b6000816001600160a01b0316600184604051610a0a9190614a8c565b908152604051908190036020019020600201546001600160a01b03161415610a3457506001610a38565b5060005b92915050565b600454606090600080805b83811015610a7057610a5c600184614cf5565b925080610a6881614db7565b915050610a49565b5060008267ffffffffffffffff811115610a9a57634e487b7160e01b600052604160045260246000fd5b604051908082528060200260200182016040528015610ad357816020015b610ac06145de565b815260200190600190039081610ab85790505b50905060005b848110156109e55760026000610af0836001614cf5565b8152602081019190915260400160009081206001908101546001600160a01b031691600291610b20908590614cf5565b81526020810191909152604001600020600101546001600160a01b03161461108c576000610b4f826001614cf5565b6000818152600260208181526040928390208351610300810185528154815260018201546001600160a01b031692810192909252918201805494955091939092849290840191610b9e90614d7c565b80601f0160208091040260200160405190810160405280929190818152602001828054610bca90614d7c565b8015610c175780601f10610bec57610100808354040283529160200191610c17565b820191906000526020600020905b815481529060010190602001808311610bfa57829003601f168201915b50505050508152602001600382015481526020016004820154815260200160058201548152602001600682018054610c4e90614d7c565b80601f0160208091040260200160405190810160405280929190818152602001828054610c7a90614d7c565b8015610cc75780601f10610c9c57610100808354040283529160200191610cc7565b820191906000526020600020905b815481529060010190602001808311610caa57829003601f168201915b50505050508152602001600782018054610ce090614d7c565b80601f0160208091040260200160405190810160405280929190818152602001828054610d0c90614d7c565b8015610d595780601f10610d2e57610100808354040283529160200191610d59565b820191906000526020600020905b815481529060010190602001808311610d3c57829003601f168201915b50505050508152602001600882018054610d7290614d7c565b80601f0160208091040260200160405190810160405280929190818152602001828054610d9e90614d7c565b8015610deb5780601f10610dc057610100808354040283529160200191610deb565b820191906000526020600020905b815481529060010190602001808311610dce57829003601f168201915b50505050508152602001600982018054610e0490614d7c565b80601f0160208091040260200160405190810160405280929190818152602001828054610e3090614d7c565b8015610e7d5780601f10610e5257610100808354040283529160200191610e7d565b820191906000526020600020905b815481529060010190602001808311610e6057829003601f168201915b50505050508152602001600a82018054610e9690614d7c565b80601f0160208091040260200160405190810160405280929190818152602001828054610ec290614d7c565b8015610f0f5780601f10610ee457610100808354040283529160200191610f0f565b820191906000526020600020905b815481529060010190602001808311610ef257829003601f168201915b50505050508152602001600b82018054610f2890614d7c565b80601f0160208091040260200160405190810160405280929190818152602001828054610f5490614d7c565b8015610fa15780601f10610f7657610100808354040283529160200191610fa1565b820191906000526020600020905b815481529060010190602001808311610f8457829003601f168201915b5050509183525050600c8201546020820152600d8201546040820152600e8201546060820152600f8201546080820152601082015460a082015260119091015460ff808216151560c08401526101008083048216151560e085015262010000830482161515908401526301000000820481161515610120840152600160201b820481161515610140840152600160281b820481161515610160840152600160301b90910416151561018090910152845185908790811061107157634e487b7160e01b600052603260045260246000fd5b6020908102919091010152611087600186614cf5565b945050505b8061109681614db7565b915050610ad9565b6000821180156110b057506004548211155b6110d55760405162461bcd60e51b81526004016110cc90614cc9565b60405180910390fd5b336001600160a01b03166001826040516110ef9190614a8c565b908152604051908190036020019020600201546001600160a01b0316141561116d5760405162461bcd60e51b815260206004820152602b60248201527f596f7520646f6e742068617665207065726d697373696f6e20746f207472616e60448201526a39b837b93a1037b93232b960a91b60648201526084016110cc565b60008281526002602052604090206011810154600160281b900460ff161561119457600080fd5b60118101805465ff00000000001916600160281b17905542601082015560008381526002602081905260409091208254815560018381015490820180546001600160a01b0319166001600160a01b03909216919091179055818301805484938301919061120090614d7c565b61120b9291906146aa565b50600382015481600301556004820154816004015560058201548160050155600682018160060190805461123e90614d7c565b6112499291906146aa565b50600782018160070190805461125e90614d7c565b6112699291906146aa565b50600882018160080190805461127e90614d7c565b6112899291906146aa565b50600982018160090190805461129e90614d7c565b6112a99291906146aa565b50600a820181600a019080546112be90614d7c565b6112c99291906146aa565b50600b820181600b019080546112de90614d7c565b6112e99291906146aa565b50600c8281015490820155600d8083015490820155600e8083015490820155600f8083015490820155601080830154908201556011918201805492909101805460ff938416151560ff19821681178355835461010090819004861615150261ff001990911661ffff19909216919091171780825582546201000090819004851615150262ff0000198216811783558354630100000090819004861615150263ff0000001990911663ffff00001990921691909117178082558254600160201b90819004851615150264ff00000000198216811783558354600160281b90819004861615150265ff00000000001990911665ffff000000001990921691909117178082559154600160301b90819004909316151590920266ff00000000000019909116179055505050565b600454606090600080805b8381101561151a5760026000611435836001614cf5565b815260208101919091526040016000206011015462010000900460ff16158015611489575060026000611469836001614cf5565b81526020810191909152604001600020601101546301000000900460ff16155b80156114bf57506002600061149f836001614cf5565b8152602081019190915260400160002060110154600160201b900460ff16155b80156114f55750600260006114d5836001614cf5565b8152602081019190915260400160002060110154600160281b900460ff16155b1561150857611505600184614cf5565b92505b8061151281614db7565b91505061141e565b5060008267ffffffffffffffff81111561154457634e487b7160e01b600052604160045260246000fd5b60405190808252806020026020018201604052801561157d57816020015b61156a6145de565b8152602001906001900390816115625790505b50905060005b848110156109e5576002600061159a836001614cf5565b815260208101919091526040016000206011015462010000900460ff161580156115ee5750600260006115ce836001614cf5565b81526020810191909152604001600020601101546301000000900460ff16155b8015611624575060026000611604836001614cf5565b8152602081019190915260400160002060110154600160201b900460ff16155b801561165a57506002600061163a836001614cf5565b8152602081019190915260400160002060110154600160281b900460ff16155b15611ba957600061166c826001614cf5565b6000818152600260208181526040928390208351610300810185528154815260018201546001600160a01b0316928101929092529182018054949550919390928492908401916116bb90614d7c565b80601f01602080910402602001604051908101604052809291908181526020018280546116e790614d7c565b80156117345780601f1061170957610100808354040283529160200191611734565b820191906000526020600020905b81548152906001019060200180831161171757829003601f168201915b5050505050815260200160038201548152602001600482015481526020016005820154815260200160068201805461176b90614d7c565b80601f016020809104026020016040519081016040528092919081815260200182805461179790614d7c565b80156117e45780601f106117b9576101008083540402835291602001916117e4565b820191906000526020600020905b8154815290600101906020018083116117c757829003601f168201915b505050505081526020016007820180546117fd90614d7c565b80601f016020809104026020016040519081016040528092919081815260200182805461182990614d7c565b80156118765780601f1061184b57610100808354040283529160200191611876565b820191906000526020600020905b81548152906001019060200180831161185957829003601f168201915b5050505050815260200160088201805461188f90614d7c565b80601f01602080910402602001604051908101604052809291908181526020018280546118bb90614d7c565b80156119085780601f106118dd57610100808354040283529160200191611908565b820191906000526020600020905b8154815290600101906020018083116118eb57829003601f168201915b5050505050815260200160098201805461192190614d7c565b80601f016020809104026020016040519081016040528092919081815260200182805461194d90614d7c565b801561199a5780601f1061196f5761010080835404028352916020019161199a565b820191906000526020600020905b81548152906001019060200180831161197d57829003601f168201915b50505050508152602001600a820180546119b390614d7c565b80601f01602080910402602001604051908101604052809291908181526020018280546119df90614d7c565b8015611a2c5780601f10611a0157610100808354040283529160200191611a2c565b820191906000526020600020905b815481529060010190602001808311611a0f57829003601f168201915b50505050508152602001600b82018054611a4590614d7c565b80601f0160208091040260200160405190810160405280929190818152602001828054611a7190614d7c565b8015611abe5780601f10611a9357610100808354040283529160200191611abe565b820191906000526020600020905b815481529060010190602001808311611aa157829003601f168201915b5050509183525050600c8201546020820152600d8201546040820152600e8201546060820152600f8201546080820152601082015460a082015260119091015460ff808216151560c08401526101008083048216151560e085015262010000830482161515908401526301000000820481161515610120840152600160201b820481161515610140840152600160281b820481161515610160840152600160301b909104161515610180909101528451859087908110611b8e57634e487b7160e01b600052603260045260246000fd5b6020908102919091010152611ba4600186614cf5565b945050505b80611bb381614db7565b915050611583565b6004546060906000808267ffffffffffffffff811115611beb57634e487b7160e01b600052604160045260246000fd5b604051908082528060200260200182016040528015611c2457816020015b611c116145de565b815260200190600190039081611c095790505b50905060005b8381101561218e576000611c3f826001614cf5565b6000818152600260208181526040928390208351610300810185528154815260018201546001600160a01b031692810192909252918201805494955091939092849290840191611c8e90614d7c565b80601f0160208091040260200160405190810160405280929190818152602001828054611cba90614d7c565b8015611d075780601f10611cdc57610100808354040283529160200191611d07565b820191906000526020600020905b815481529060010190602001808311611cea57829003601f168201915b50505050508152602001600382015481526020016004820154815260200160058201548152602001600682018054611d3e90614d7c565b80601f0160208091040260200160405190810160405280929190818152602001828054611d6a90614d7c565b8015611db75780601f10611d8c57610100808354040283529160200191611db7565b820191906000526020600020905b815481529060010190602001808311611d9a57829003601f168201915b50505050508152602001600782018054611dd090614d7c565b80601f0160208091040260200160405190810160405280929190818152602001828054611dfc90614d7c565b8015611e495780601f10611e1e57610100808354040283529160200191611e49565b820191906000526020600020905b815481529060010190602001808311611e2c57829003601f168201915b50505050508152602001600882018054611e6290614d7c565b80601f0160208091040260200160405190810160405280929190818152602001828054611e8e90614d7c565b8015611edb5780601f10611eb057610100808354040283529160200191611edb565b820191906000526020600020905b815481529060010190602001808311611ebe57829003601f168201915b50505050508152602001600982018054611ef490614d7c565b80601f0160208091040260200160405190810160405280929190818152602001828054611f2090614d7c565b8015611f6d5780601f10611f4257610100808354040283529160200191611f6d565b820191906000526020600020905b815481529060010190602001808311611f5057829003601f168201915b50505050508152602001600a82018054611f8690614d7c565b80601f0160208091040260200160405190810160405280929190818152602001828054611fb290614d7c565b8015611fff5780601f10611fd457610100808354040283529160200191611fff565b820191906000526020600020905b815481529060010190602001808311611fe257829003601f168201915b50505050508152602001600b8201805461201890614d7c565b80601f016020809104026020016040519081016040528092919081815260200182805461204490614d7c565b80156120915780601f1061206657610100808354040283529160200191612091565b820191906000526020600020905b81548152906001019060200180831161207457829003601f168201915b5050509183525050600c8201546020820152600d8201546040820152600e8201546060820152600f8201546080820152601082015460a082015260119091015460ff808216151560c08401526101008083048216151560e085015262010000830482161515908401526301000000820481161515610120840152600160201b820481161515610140840152600160281b820481161515610160840152600160301b90910416151561018090910152845185908790811061216157634e487b7160e01b600052603260045260246000fd5b6020908102919091010152612177600186614cf5565b94505050808061218690614db7565b915050611c2a565b509392505050565b6000821180156121a857506004548211155b6121c45760405162461bcd60e51b81526004016110cc90614cc9565b6000828152600260209081526040909120825190916121ea916009840191850190614731565b5060008381526002602081905260409091208254815560018084015490820180546001600160a01b0319166001600160a01b03909216919091179055818301805484938301919061120090614d7c565b600060018360405161224c9190614a8c565b90815260405190819003602001902060058054919250600061226d83614db7565b909155505082516122879060018301906020860190614731565b506002810180546001600160a01b0319166001600160a01b0384161790556040517f39424c9407ac30223629511a00efdeb9175e3d425784e26c07c28265dd69ceab906122d79085908590614c9f565b60405180910390a1505050565b600034116123345760405162461bcd60e51b815260206004820152601c60248201527f5072696365206d757374206265206174206c656173742031207765690000000060448201526064016110cc565b600086116123845760405162461bcd60e51b815260206004820152601f60248201527f7175616e74697479206d7573742062652067726561746572207468616e20300060448201526064016110cc565b3361238e57600080fd5b6004805490600061239e83614db7565b9091555050600380549060006123b383614db7565b9091555050600454600090815260026020526040808220600654915190926001600160a01b039092169182913480156108fc0292909190818181858888f19350505050158015612407573d6000803e3d6000fd5b5060045482556001820180546001600160a01b03191633179055885161243690600284019060208c0190614731565b5060038201889055426004830155346005830155865161245f90600684019060208a0190614731565b5085516124759060078401906020890190614731565b50845161248b9060088401906020880190614731565b506040805160208101918290526000908190526124ac916009850191614731565b5083516124c290600a8401906020870190614731565b5082516124d890600b8401906020860190614731565b50506000600c8201819055600e8201819055600d8201819055600f82018190556010820155601101805466ffffffffffffff1916600117905550505050505050565b60008211801561252c57506004548211155b6125485760405162461bcd60e51b81526004016110cc90614cc9565b600082815260026020819052604090912060118101805465ffffffffff0019166101001790556001810180546001600160a01b031981166001600160a01b03909116179055908101805482918291819061120090614d7c565b6000806125ac613024565b90506125c9816125c385662386f26fc100006144c5565b906144d1565b9392505050565b6000811180156125e257506004548111155b6125fe5760405162461bcd60e51b81526004016110cc90614cc9565b600081815260026020819052604090912060118101805466ff0000000000ff1916600160301b1790556001810180546001600160a01b031981166001600160a01b03909116179055908101805482918291819061265a90614d7c565b6126659291906146aa565b50600382015481600301556004820154816004015560058201548160050155600682018160060190805461269890614d7c565b6126a39291906146aa565b5060078201816007019080546126b890614d7c565b6126c39291906146aa565b5060088201816008019080546126d890614d7c565b6126e39291906146aa565b5060098201816009019080546126f890614d7c565b6127039291906146aa565b50600a820181600a0190805461271890614d7c565b6127239291906146aa565b50600b820181600b0190805461273890614d7c565b6127439291906146aa565b50600c8281015490820155600d8083015490820155600e8083015490820155600f8083015490820155601080830154908201556011918201805492909101805460ff938416151560ff19821681178355835461010090819004861615150261ff001990911661ffff19909216919091171780825582546201000090819004851615150262ff0000198216811783558354630100000090819004861615150263ff0000001990911663ffff00001990921691909117178082558254600160201b90819004851615150264ff00000000198216811783558354600160281b90819004861615150265ff00000000001990911665ffff000000001990921691909117178082559154600160301b90819004909316151590920266ff000000000000199091161790555050565b600454606090600080805b8381101561297b576002600061288e836001614cf5565b815260200190815260200160002060110160029054906101000a900460ff161515600115151480156128ea5750600260006128ca836001614cf5565b81526020810191909152604001600020601101546301000000900460ff16155b8015612920575060026000612900836001614cf5565b8152602081019190915260400160002060110154600160201b900460ff16155b8015612956575060026000612936836001614cf5565b8152602081019190915260400160002060110154600160281b900460ff16155b1561296957612966600184614cf5565b92505b8061297381614db7565b915050612877565b5060008267ffffffffffffffff8111156129a557634e487b7160e01b600052604160045260246000fd5b6040519080825280602002602001820160405280156129de57816020015b6129cb6145de565b8152602001906001900390816129c35790505b50905060005b848110156109e557600260006129fb836001614cf5565b815260200190815260200160002060110160029054906101000a900460ff16151560011515148015612a57575060026000612a37836001614cf5565b81526020810191909152604001600020601101546301000000900460ff16155b8015612a8d575060026000612a6d836001614cf5565b8152602081019190915260400160002060110154600160201b900460ff16155b8015612ac3575060026000612aa3836001614cf5565b8152602081019190915260400160002060110154600160281b900460ff16155b15613012576000612ad5826001614cf5565b6000818152600260208181526040928390208351610300810185528154815260018201546001600160a01b031692810192909252918201805494955091939092849290840191612b2490614d7c565b80601f0160208091040260200160405190810160405280929190818152602001828054612b5090614d7c565b8015612b9d5780601f10612b7257610100808354040283529160200191612b9d565b820191906000526020600020905b815481529060010190602001808311612b8057829003601f168201915b50505050508152602001600382015481526020016004820154815260200160058201548152602001600682018054612bd490614d7c565b80601f0160208091040260200160405190810160405280929190818152602001828054612c0090614d7c565b8015612c4d5780601f10612c2257610100808354040283529160200191612c4d565b820191906000526020600020905b815481529060010190602001808311612c3057829003601f168201915b50505050508152602001600782018054612c6690614d7c565b80601f0160208091040260200160405190810160405280929190818152602001828054612c9290614d7c565b8015612cdf5780601f10612cb457610100808354040283529160200191612cdf565b820191906000526020600020905b815481529060010190602001808311612cc257829003601f168201915b50505050508152602001600882018054612cf890614d7c565b80601f0160208091040260200160405190810160405280929190818152602001828054612d2490614d7c565b8015612d715780601f10612d4657610100808354040283529160200191612d71565b820191906000526020600020905b815481529060010190602001808311612d5457829003601f168201915b50505050508152602001600982018054612d8a90614d7c565b80601f0160208091040260200160405190810160405280929190818152602001828054612db690614d7c565b8015612e035780601f10612dd857610100808354040283529160200191612e03565b820191906000526020600020905b815481529060010190602001808311612de657829003601f168201915b50505050508152602001600a82018054612e1c90614d7c565b80601f0160208091040260200160405190810160405280929190818152602001828054612e4890614d7c565b8015612e955780601f10612e6a57610100808354040283529160200191612e95565b820191906000526020600020905b815481529060010190602001808311612e7857829003601f168201915b50505050508152602001600b82018054612eae90614d7c565b80601f0160208091040260200160405190810160405280929190818152602001828054612eda90614d7c565b8015612f275780601f10612efc57610100808354040283529160200191612f27565b820191906000526020600020905b815481529060010190602001808311612f0a57829003601f168201915b5050509183525050600c8201546020820152600d8201546040820152600e8201546060820152600f8201546080820152601082015460a082015260119091015460ff808216151560c08401526101008083048216151560e085015262010000830482161515908401526301000000820481161515610120840152600160201b820481161515610140840152600160281b820481161515610160840152600160301b909104161515610180909101528451859087908110612ff757634e487b7160e01b600052603260045260246000fd5b602090810291909101015261300d600186614cf5565b945050505b8061301c81614db7565b9150506129e4565b6000805460408051633fabe5a360e21b8152905183926001600160a01b03169163feaf968c9160048083019260a0929190829003018186803b15801561306957600080fd5b505afa15801561307d573d6000803e3d6000fd5b505050506040513d601f19601f820116820180604052508101906130a19190614a11565b5050509150506130b0816144dd565b91505090565b600454606090600080805b838110156131d357600260006130d8836001614cf5565b815260200190815260200160002060110160029054906101000a900460ff1615156001151514801561313b575060026000613114836001614cf5565b815260200190815260200160002060110160039054906101000a900460ff16151560011515145b8015613178575060026000613151836001614cf5565b815260200190815260200160002060110160049054906101000a900460ff16151560011515145b80156131ae57506002600061318e836001614cf5565b8152602081019190915260400160002060110154600160281b900460ff16155b156131c1576131be600184614cf5565b92505b806131cb81614db7565b9150506130c1565b5060008267ffffffffffffffff8111156131fd57634e487b7160e01b600052604160045260246000fd5b60405190808252806020026020018201604052801561323657816020015b6132236145de565b81526020019060019003908161321b5790505b50905060005b848110156109e55760026000613253836001614cf5565b815260200190815260200160002060110160029054906101000a900460ff161515600115151480156132b657506002600061328f836001614cf5565b815260200190815260200160002060110160039054906101000a900460ff16151560011515145b80156132f35750600260006132cc836001614cf5565b815260200190815260200160002060110160049054906101000a900460ff16151560011515145b8015613329575060026000613309836001614cf5565b8152602081019190915260400160002060110154600160281b900460ff16155b1561387857600061333b826001614cf5565b6000818152600260208181526040928390208351610300810185528154815260018201546001600160a01b03169281019290925291820180549495509193909284929084019161338a90614d7c565b80601f01602080910402602001604051908101604052809291908181526020018280546133b690614d7c565b80156134035780601f106133d857610100808354040283529160200191613403565b820191906000526020600020905b8154815290600101906020018083116133e657829003601f168201915b5050505050815260200160038201548152602001600482015481526020016005820154815260200160068201805461343a90614d7c565b80601f016020809104026020016040519081016040528092919081815260200182805461346690614d7c565b80156134b35780601f10613488576101008083540402835291602001916134b3565b820191906000526020600020905b81548152906001019060200180831161349657829003601f168201915b505050505081526020016007820180546134cc90614d7c565b80601f01602080910402602001604051908101604052809291908181526020018280546134f890614d7c565b80156135455780601f1061351a57610100808354040283529160200191613545565b820191906000526020600020905b81548152906001019060200180831161352857829003601f168201915b5050505050815260200160088201805461355e90614d7c565b80601f016020809104026020016040519081016040528092919081815260200182805461358a90614d7c565b80156135d75780601f106135ac576101008083540402835291602001916135d7565b820191906000526020600020905b8154815290600101906020018083116135ba57829003601f168201915b505050505081526020016009820180546135f090614d7c565b80601f016020809104026020016040519081016040528092919081815260200182805461361c90614d7c565b80156136695780601f1061363e57610100808354040283529160200191613669565b820191906000526020600020905b81548152906001019060200180831161364c57829003601f168201915b50505050508152602001600a8201805461368290614d7c565b80601f01602080910402602001604051908101604052809291908181526020018280546136ae90614d7c565b80156136fb5780601f106136d0576101008083540402835291602001916136fb565b820191906000526020600020905b8154815290600101906020018083116136de57829003601f168201915b50505050508152602001600b8201805461371490614d7c565b80601f016020809104026020016040519081016040528092919081815260200182805461374090614d7c565b801561378d5780601f106137625761010080835404028352916020019161378d565b820191906000526020600020905b81548152906001019060200180831161377057829003601f168201915b5050509183525050600c8201546020820152600d8201546040820152600e8201546060820152600f8201546080820152601082015460a082015260119091015460ff808216151560c08401526101008083048216151560e085015262010000830482161515908401526301000000820481161515610120840152600160201b820481161515610140840152600160281b820481161515610160840152600160301b90910416151561018090910152845185908790811061385d57634e487b7160e01b600052603260045260246000fd5b6020908102919091010152613873600186614cf5565b945050505b8061388281614db7565b91505061323c565b6138c86040518060400160405280601a81526020017f636f6e6669726d696e672e2e2e2e2e2e2e2e2e2e2e2e2e2e2e2e000000000000815250614533565b6000821180156138da57506004548211155b6138f65760405162461bcd60e51b81526004016110cc90614cc9565b61392a6001826040516139099190614a8c565b908152604051908190036020019020600201546001600160a01b0316614579565b61393333614579565b336001600160a01b031660018260405161394d9190614a8c565b908152604051908190036020019020600201546001600160a01b031614156139c95760405162461bcd60e51b815260206004820152602960248201527f596f7520646f6e742068617665207065726d697373696f6e20746f20636f6e6660448201526834b9369037b93232b960b91b60648201526084016110cc565b6000828152600260205260409020601181015462010000900460ff16156139ef57600080fd5b60118101805462ff000019166201000017905542600d82015560008381526002602081905260409091208254815560018381015490820180546001600160a01b0319166001600160a01b03909216919091179055818301805484938301919061120090614d7c565b600082118015613a6957506004548211155b613a855760405162461bcd60e51b81526004016110cc90614cc9565b336001600160a01b0316600182604051613a9f9190614a8c565b908152604051908190036020019020600201546001600160a01b03161415613b185760405162461bcd60e51b815260206004820152602660248201527f596f7520646f6e742068617665207065726d697373696f6e20746f20746573746044820152651037b93232b960d11b60648201526084016110cc565b60008281526002602052604090206011810154600160201b900460ff1615613b3f57600080fd5b60118101805464ff000000001916600160201b17905542600f82015560008381526002602081905260409091208254815560018381015490820180546001600160a01b0319166001600160a01b03909216919091179055818301805484938301919061120090614d7c565b600082118015613bbc57506004548211155b613bd85760405162461bcd60e51b81526004016110cc90614cc9565b336001600160a01b0316600182604051613bf29190614a8c565b908152604051908190036020019020600201546001600160a01b03161415613c6e5760405162461bcd60e51b815260206004820152602960248201527f596f7520646f6e742068617665207065726d697373696f6e20746f2070726f646044820152683ab1b29037b93232b960b91b60648201526084016110cc565b600082815260026020526040902060118101546301000000900460ff1615613c9557600080fd5b60118101805463ff0000001916630100000017905542600e82015560008381526002602081905260409091208254815560018381015490820180546001600160a01b0319166001600160a01b03909216919091179055818301805484938301919061120090614d7c565b600454606090600080805b83811015613e155760026000613d21836001614cf5565b815260200190815260200160002060110160029054906101000a900460ff16151560011515148015613d84575060026000613d5d836001614cf5565b815260200190815260200160002060110160039054906101000a900460ff16151560011515145b8015613dba575060026000613d9a836001614cf5565b8152602081019190915260400160002060110154600160201b900460ff16155b8015613df0575060026000613dd0836001614cf5565b8152602081019190915260400160002060110154600160281b900460ff16155b15613e0357613e00600184614cf5565b92505b80613e0d81614db7565b915050613d0a565b5060008267ffffffffffffffff811115613e3f57634e487b7160e01b600052604160045260246000fd5b604051908082528060200260200182016040528015613e7857816020015b613e656145de565b815260200190600190039081613e5d5790505b50905060005b848110156109e55760026000613e95836001614cf5565b815260200190815260200160002060110160029054906101000a900460ff16151560011515148015613ef8575060026000613ed1836001614cf5565b815260200190815260200160002060110160039054906101000a900460ff16151560011515145b8015613f2e575060026000613f0e836001614cf5565b8152602081019190915260400160002060110154600160201b900460ff16155b8015613f64575060026000613f44836001614cf5565b8152602081019190915260400160002060110154600160281b900460ff16155b156144b3576000613f76826001614cf5565b6000818152600260208181526040928390208351610300810185528154815260018201546001600160a01b031692810192909252918201805494955091939092849290840191613fc590614d7c565b80601f0160208091040260200160405190810160405280929190818152602001828054613ff190614d7c565b801561403e5780601f106140135761010080835404028352916020019161403e565b820191906000526020600020905b81548152906001019060200180831161402157829003601f168201915b5050505050815260200160038201548152602001600482015481526020016005820154815260200160068201805461407590614d7c565b80601f01602080910402602001604051908101604052809291908181526020018280546140a190614d7c565b80156140ee5780601f106140c3576101008083540402835291602001916140ee565b820191906000526020600020905b8154815290600101906020018083116140d157829003601f168201915b5050505050815260200160078201805461410790614d7c565b80601f016020809104026020016040519081016040528092919081815260200182805461413390614d7c565b80156141805780601f1061415557610100808354040283529160200191614180565b820191906000526020600020905b81548152906001019060200180831161416357829003601f168201915b5050505050815260200160088201805461419990614d7c565b80601f01602080910402602001604051908101604052809291908181526020018280546141c590614d7c565b80156142125780601f106141e757610100808354040283529160200191614212565b820191906000526020600020905b8154815290600101906020018083116141f557829003601f168201915b5050505050815260200160098201805461422b90614d7c565b80601f016020809104026020016040519081016040528092919081815260200182805461425790614d7c565b80156142a45780601f10614279576101008083540402835291602001916142a4565b820191906000526020600020905b81548152906001019060200180831161428757829003601f168201915b50505050508152602001600a820180546142bd90614d7c565b80601f01602080910402602001604051908101604052809291908181526020018280546142e990614d7c565b80156143365780601f1061430b57610100808354040283529160200191614336565b820191906000526020600020905b81548152906001019060200180831161431957829003601f168201915b50505050508152602001600b8201805461434f90614d7c565b80601f016020809104026020016040519081016040528092919081815260200182805461437b90614d7c565b80156143c85780601f1061439d576101008083540402835291602001916143c8565b820191906000526020600020905b8154815290600101906020018083116143ab57829003601f168201915b5050509183525050600c8201546020820152600d8201546040820152600e8201546060820152600f8201546080820152601082015460a082015260119091015460ff808216151560c08401526101008083048216151560e085015262010000830482161515908401526301000000820481161515610120840152600160201b820481161515610140840152600160281b820481161515610160840152600160301b90910416151561018090910152845185908790811061449857634e487b7160e01b600052603260045260246000fd5b60209081029190910101526144ae600186614cf5565b945050505b806144bd81614db7565b915050613e7e565b60006125c98284614d2d565b60006125c98284614d0d565b60008082121561452f5760405162461bcd60e51b815260206004820181905260248201527f53616665436173743a2076616c7565206d75737420626520706f73697469766560448201526064016110cc565b5090565b614576816040516024016145479190614c8c565b60408051601f198184030181529190526020810180516001600160e01b031663104c13eb60e21b1790526145bd565b50565b6040516001600160a01b03821660248201526145769060440160408051601f198184030181529190526020810180516001600160e01b031663161765e160e11b1790525b80516a636f6e736f6c652e6c6f67602083016000808483855afa5050505050565b6040518061030001604052806000815260200160006001600160a01b031681526020016060815260200160008152602001600081526020016000815260200160608152602001606081526020016060815260200160608152602001606081526020016060815260200160008152602001600081526020016000815260200160008152602001600081526020016000151581526020016000151581526020016000151581526020016000151581526020016000151581526020016000151581526020016000151581525090565b8280546146b690614d7c565b90600052602060002090601f0160209004810192826146d85760008555614725565b82601f106146e95780548555614725565b8280016001018555821561472557600052602060002091601f016020900482015b8281111561472557825482559160010191906001019061470a565b5061452f9291506147a5565b82805461473d90614d7c565b90600052602060002090601f01602090048101928261475f5760008555614725565b82601f1061477857805160ff1916838001178555614725565b82800160010185558215614725579182015b8281111561472557825182559160200191906001019061478a565b5b8082111561452f57600081556001016147a6565b600082601f8301126147ca578081fd5b813567ffffffffffffffff808211156147e5576147e5614de8565b604051601f8301601f19908116603f0116810190828211818310171561480d5761480d614de8565b81604052838152866020858801011115614825578485fd5b8360208701602083013792830160200193909352509392505050565b805169ffffffffffffffffffff8116811461485b57600080fd5b919050565b60008060408385031215614872578182fd5b823567ffffffffffffffff811115614888578283fd5b614894858286016147ba565b92505060208301356001600160a01b03811681146148b0578182fd5b809150509250929050565b600080600080600080600060e0888a0312156148d5578283fd5b873567ffffffffffffffff808211156148ec578485fd5b6148f88b838c016147ba565b985060208a0135975060408a0135915080821115614914578485fd5b6149208b838c016147ba565b965060608a0135915080821115614935578485fd5b6149418b838c016147ba565b955060808a0135915080821115614956578485fd5b6149628b838c016147ba565b945060a08a0135915080821115614977578384fd5b6149838b838c016147ba565b935060c08a0135915080821115614998578283fd5b506149a58a828b016147ba565b91505092959891949750929550565b6000602082840312156149c5578081fd5b5035919050565b600080604083850312156149de578182fd5b82359150602083013567ffffffffffffffff8111156149fb578182fd5b614a07858286016147ba565b9150509250929050565b600080600080600060a08688031215614a28578081fd5b614a3186614841565b9450602086015193506040860151925060608601519150614a5460808701614841565b90509295509295909350565b60008151808452614a78816020860160208601614d4c565b601f01601f19169290920160200192915050565b60008251614a9e818460208701614d4c565b9190910192915050565b60006020808301818452808551808352604092508286019150828160051b870101848801865b83811015614c7e57603f19898403018552815180518452878101516001600160a01b0316888501528681015161030088860181905290614b1082870182614a60565b606084810151908801526080808501519088015260a0808501519088015260c080850151888303828a01529193509150614b4a8382614a60565b9250505060e08083015186830382880152614b658382614a60565b925050506101008083015186830382880152614b818382614a60565b925050506101208083015186830382880152614b9d8382614a60565b925050506101408083015186830382880152614bb98382614a60565b925050506101608083015186830382880152614bd58382614a60565b61018085810151908901526101a080860151908901526101c080860151908901526101e080860151908901526102008086015190890152610220808601511515908901526102408086015115159089015261026080860151151590890152610280808601511515908901526102a0808601511515908901526102c0808601511515908901526102e094850151151594909701939093525050509386019390860190600101614ace565b509098975050505050505050565b6020815260006125c96020830184614a60565b604081526000614cb26040830185614a60565b905060018060a01b03831660208301529392505050565b6020808252601290820152711bdc99195c881a59081b9bdd081d985b1a5960721b604082015260600190565b60008219821115614d0857614d08614dd2565b500190565b600082614d2857634e487b7160e01b81526012600452602481fd5b500490565b6000816000190483118215151615614d4757614d47614dd2565b500290565b60005b83811015614d67578181015183820152602001614d4f565b83811115614d76576000848401525b50505050565b600181811c90821680614d9057607f821691505b60208210811415614db157634e487b7160e01b600052602260045260246000fd5b50919050565b6000600019821415614dcb57614dcb614dd2565b5060010190565b634e487b7160e01b600052601160045260246000fd5b634e487b7160e01b600052604160045260246000fdfea26469706673582212209a4cee514064bfa80eac13ee8f415900cc73d4eb7ecee66513de130a30a5667c64736f6c63430008040033",
  "linkReferences": {},
  "deployedLinkReferences": {}
}