{
  "_format": "hh-sol-artifact-1",
  "contractName": "Schain",
  "sourceName": "contracts/Schain.sol",
  "abi": [
    {
      "inputs": [],
      "stateMutability": "nonpayable",
      "type": "constructor"
    },
    {
      "anonymous": false,
      "inputs": [
        {
          "indexed": true,
          "internalType": "uint256",
          "name": "id",
          "type": "uint256"
        },
        {
          "indexed": false,
          "internalType": "address",
          "name": "owner",
          "type": "address"
        },
        {
          "indexed": false,
          "internalType": "string",
          "name": "product",
          "type": "string"
        },
        {
          "indexed": false,
          "internalType": "uint256",
          "name": "quantity",
          "type": "uint256"
        },
        {
          "indexed": false,
          "internalType": "uint256",
          "name": "orderdate",
          "type": "uint256"
        },
        {
          "indexed": false,
          "internalType": "uint256",
          "name": "price",
          "type": "uint256"
        },
        {
          "indexed": false,
          "internalType": "string",
          "name": "addressLine",
          "type": "string"
        },
        {
          "indexed": false,
          "internalType": "string",
          "name": "contact",
          "type": "string"
        },
        {
          "indexed": false,
          "internalType": "string",
          "name": "city",
          "type": "string"
        },
        {
          "indexed": false,
          "internalType": "string",
          "name": "review",
          "type": "string"
        },
        {
          "indexed": false,
          "internalType": "string",
          "name": "zipcode",
          "type": "string"
        },
        {
          "indexed": false,
          "internalType": "string",
          "name": "state",
          "type": "string"
        },
        {
          "indexed": false,
          "internalType": "uint256",
          "name": "recievedate",
          "type": "uint256"
        },
        {
          "indexed": false,
          "internalType": "uint256",
          "name": "confirmdate",
          "type": "uint256"
        },
        {
          "indexed": false,
          "internalType": "uint256",
          "name": "producedate",
          "type": "uint256"
        },
        {
          "indexed": false,
          "internalType": "uint256",
          "name": "testdate",
          "type": "uint256"
        },
        {
          "indexed": false,
          "internalType": "uint256",
          "name": "transportdate",
          "type": "uint256"
        },
        {
          "indexed": false,
          "internalType": "bool",
          "name": "pending",
          "type": "bool"
        },
        {
          "indexed": false,
          "internalType": "bool",
          "name": "returned",
          "type": "bool"
        },
        {
          "indexed": false,
          "internalType": "bool",
          "name": "confirmed",
          "type": "bool"
        },
        {
          "indexed": false,
          "internalType": "bool",
          "name": "produced",
          "type": "bool"
        },
        {
          "indexed": false,
          "internalType": "bool",
          "name": "tested",
          "type": "bool"
        },
        {
          "indexed": false,
          "internalType": "bool",
          "name": "transported",
          "type": "bool"
        },
        {
          "indexed": false,
          "internalType": "bool",
          "name": "recieved",
          "type": "bool"
        }
      ],
      "name": "AddOrder",
      "type": "event"
    },
    {
      "anonymous": false,
      "inputs": [
        {
          "indexed": false,
          "internalType": "string",
          "name": "role",
          "type": "string"
        },
        {
          "indexed": false,
          "internalType": "address",
          "name": "roleaddress",
          "type": "address"
        }
      ],
      "name": "RoleAdded",
      "type": "event"
    },
    {
      "inputs": [
        {
          "internalType": "string",
          "name": "_product",
          "type": "string"
        },
        {
          "internalType": "uint256",
          "name": "_quantity",
          "type": "uint256"
        },
        {
          "internalType": "string",
          "name": "_addressline",
          "type": "string"
        },
        {
          "internalType": "string",
          "name": "_contact",
          "type": "string"
        },
        {
          "internalType": "string",
          "name": "_city",
          "type": "string"
        },
        {
          "internalType": "string",
          "name": "_zipcode",
          "type": "string"
        },
        {
          "internalType": "string",
          "name": "_state",
          "type": "string"
        }
      ],
      "name": "addOrderItem",
      "outputs": [],
      "stateMutability": "payable",
      "type": "function"
    },
    {
      "inputs": [
        {
          "internalType": "uint256",
          "name": "_id",
          "type": "uint256"
        },
        {
          "internalType": "string",
          "name": "_review",
          "type": "string"
        }
      ],
      "name": "addReveiw",
      "outputs": [],
      "stateMutability": "nonpayable",
      "type": "function"
    },
    {
      "inputs": [
        {
          "internalType": "string",
          "name": "_role",
          "type": "string"
        },
        {
          "internalType": "address",
          "name": "_roleaddress",
          "type": "address"
        }
      ],
      "name": "addRole",
      "outputs": [],
      "stateMutability": "payable",
      "type": "function"
    },
    {
      "inputs": [
        {
          "internalType": "uint256",
          "name": "_id",
          "type": "uint256"
        },
        {
          "internalType": "string",
          "name": "_role",
          "type": "string"
        }
      ],
      "name": "confrimOrder",
      "outputs": [],
      "stateMutability": "nonpayable",
      "type": "function"
    },
    {
      "inputs": [
        {
          "internalType": "uint256",
          "name": "_amountInUsd",
          "type": "uint256"
        }
      ],
      "name": "convertEthUsd",
      "outputs": [
        {
          "internalType": "uint256",
          "name": "",
          "type": "uint256"
        }
      ],
      "stateMutability": "view",
      "type": "function"
    },
    {
      "inputs": [],
      "name": "fetchCustomers",
      "outputs": [
        {
          "components": [
            {
              "internalType": "uint256",
              "name": "id",
              "type": "uint256"
            },
            {
              "internalType": "address",
              "name": "owner",
              "type": "address"
            },
            {
              "internalType": "string",
              "name": "product",
              "type": "string"
            },
            {
              "internalType": "uint256",
              "name": "quantity",
              "type": "uint256"
            },
            {
              "internalType": "uint256",
              "name": "orderdate",
              "type": "uint256"
            },
            {
              "internalType": "uint256",
              "name": "price",
              "type": "uint256"
            },
            {
              "internalType": "string",
              "name": "addressLine",
              "type": "string"
            },
            {
              "internalType": "string",
              "name": "contact",
              "type": "string"
            },
            {
              "internalType": "string",
              "name": "city",
              "type": "string"
            },
            {
              "internalType": "string",
              "name": "review",
              "type": "string"
            },
            {
              "internalType": "string",
              "name": "zipcode",
              "type": "string"
            },
            {
              "internalType": "string",
              "name": "state",
              "type": "string"
            },
            {
              "internalType": "uint256",
              "name": "recievedate",
              "type": "uint256"
            },
            {
              "internalType": "uint256",
              "name": "confirmdate",
              "type": "uint256"
            },
            {
              "internalType": "uint256",
              "name": "producedate",
              "type": "uint256"
            },
            {
              "internalType": "uint256",
              "name": "testdate",
              "type": "uint256"
            },
            {
              "internalType": "uint256",
              "name": "transportdate",
              "type": "uint256"
            },
            {
              "internalType": "bool",
              "name": "pending",
              "type": "bool"
            },
            {
              "internalType": "bool",
              "name": "returned",
              "type": "bool"
            },
            {
              "internalType": "bool",
              "name": "confirmed",
              "type": "bool"
            },
            {
              "internalType": "bool",
              "name": "produced",
              "type": "bool"
            },
            {
              "internalType": "bool",
              "name": "tested",
              "type": "bool"
            },
            {
              "internalType": "bool",
              "name": "transported",
              "type": "bool"
            },
            {
              "internalType": "bool",
              "name": "recieved",
              "type": "bool"
            }
          ],
          "internalType": "struct Schain.OrderItem[]",
          "name": "",
          "type": "tuple[]"
        }
      ],
      "stateMutability": "view",
      "type": "function"
    },
    {
      "inputs": [],
      "name": "fetchMyOrders",
      "outputs": [
        {
          "components": [
            {
              "internalType": "uint256",
              "name": "id",
              "type": "uint256"
            },
            {
              "internalType": "address",
              "name": "owner",
              "type": "address"
            },
            {
              "internalType": "string",
              "name": "product",
              "type": "string"
            },
            {
              "internalType": "uint256",
              "name": "quantity",
              "type": "uint256"
            },
            {
              "internalType": "uint256",
              "name": "orderdate",
              "type": "uint256"
            },
            {
              "internalType": "uint256",
              "name": "price",
              "type": "uint256"
            },
            {
              "internalType": "string",
              "name": "addressLine",
              "type": "string"
            },
            {
              "internalType": "string",
              "name": "contact",
              "type": "string"
            },
            {
              "internalType": "string",
              "name": "city",
              "type": "string"
            },
            {
              "internalType": "string",
              "name": "review",
              "type": "string"
            },
            {
              "internalType": "string",
              "name": "zipcode",
              "type": "string"
            },
            {
              "internalType": "string",
              "name": "state",
              "type": "string"
            },
            {
              "internalType": "uint256",
              "name": "recievedate",
              "type": "uint256"
            },
            {
              "internalType": "uint256",
              "name": "confirmdate",
              "type": "uint256"
            },
            {
              "internalType": "uint256",
              "name": "producedate",
              "type": "uint256"
            },
            {
              "internalType": "uint256",
              "name": "testdate",
              "type": "uint256"
            },
            {
              "internalType": "uint256",
              "name": "transportdate",
              "type": "uint256"
            },
            {
              "internalType": "bool",
              "name": "pending",
              "type": "bool"
            },
            {
              "internalType": "bool",
              "name": "returned",
              "type": "bool"
            },
            {
              "internalType": "bool",
              "name": "confirmed",
              "type": "bool"
            },
            {
              "internalType": "bool",
              "name": "produced",
              "type": "bool"
            },
            {
              "internalType": "bool",
              "name": "tested",
              "type": "bool"
            },
            {
              "internalType": "bool",
              "name": "transported",
              "type": "bool"
            },
            {
              "internalType": "bool",
              "name": "recieved",
              "type": "bool"
            }
          ],
          "internalType": "struct Schain.OrderItem[]",
          "name": "",
          "type": "tuple[]"
        }
      ],
      "stateMutability": "view",
      "type": "function"
    },
    {
      "inputs": [],
      "name": "fetchOrderItems",
      "outputs": [
        {
          "components": [
            {
              "internalType": "uint256",
              "name": "id",
              "type": "uint256"
            },
            {
              "internalType": "address",
              "name": "owner",
              "type": "address"
            },
            {
              "internalType": "string",
              "name": "product",
              "type": "string"
            },
            {
              "internalType": "uint256",
              "name": "quantity",
              "type": "uint256"
            },
            {
              "internalType": "uint256",
              "name": "orderdate",
              "type": "uint256"
            },
            {
              "internalType": "uint256",
              "name": "price",
              "type": "uint256"
            },
            {
              "internalType": "string",
              "name": "addressLine",
              "type": "string"
            },
            {
              "internalType": "string",
              "name": "contact",
              "type": "string"
            },
            {
              "internalType": "string",
              "name": "city",
              "type": "string"
            },
            {
              "internalType": "string",
              "name": "review",
              "type": "string"
            },
            {
              "internalType": "string",
              "name": "zipcode",
              "type": "string"
            },
            {
              "internalType": "string",
              "name": "state",
              "type": "string"
            },
            {
              "internalType": "uint256",
              "name": "recievedate",
              "type": "uint256"
            },
            {
              "internalType": "uint256",
              "name": "confirmdate",
              "type": "uint256"
            },
            {
              "internalType": "uint256",
              "name": "producedate",
              "type": "uint256"
            },
            {
              "internalType": "uint256",
              "name": "testdate",
              "type": "uint256"
            },
            {
              "internalType": "uint256",
              "name": "transportdate",
              "type": "uint256"
            },
            {
              "internalType": "bool",
              "name": "pending",
              "type": "bool"
            },
            {
              "internalType": "bool",
              "name": "returned",
              "type": "bool"
            },
            {
              "internalType": "bool",
              "name": "confirmed",
              "type": "bool"
            },
            {
              "internalType": "bool",
              "name": "produced",
              "type": "bool"
            },
            {
              "internalType": "bool",
              "name": "tested",
              "type": "bool"
            },
            {
              "internalType": "bool",
              "name": "transported",
              "type": "bool"
            },
            {
              "internalType": "bool",
              "name": "recieved",
              "type": "bool"
            }
          ],
          "internalType": "struct Schain.OrderItem[]",
          "name": "",
          "type": "tuple[]"
        }
      ],
      "stateMutability": "view",
      "type": "function"
    },
    {
      "inputs": [],
      "name": "fetchOrdersConfirm",
      "outputs": [
        {
          "components": [
            {
              "internalType": "uint256",
              "name": "id",
              "type": "uint256"
            },
            {
              "internalType": "address",
              "name": "owner",
              "type": "address"
            },
            {
              "internalType": "string",
              "name": "product",
              "type": "string"
            },
            {
              "internalType": "uint256",
              "name": "quantity",
              "type": "uint256"
            },
            {
              "internalType": "uint256",
              "name": "orderdate",
              "type": "uint256"
            },
            {
              "internalType": "uint256",
              "name": "price",
              "type": "uint256"
            },
            {
              "internalType": "string",
              "name": "addressLine",
              "type": "string"
            },
            {
              "internalType": "string",
              "name": "contact",
              "type": "string"
            },
            {
              "internalType": "string",
              "name": "city",
              "type": "string"
            },
            {
              "internalType": "string",
              "name": "review",
              "type": "string"
            },
            {
              "internalType": "string",
              "name": "zipcode",
              "type": "string"
            },
            {
              "internalType": "string",
              "name": "state",
              "type": "string"
            },
            {
              "internalType": "uint256",
              "name": "recievedate",
              "type": "uint256"
            },
            {
              "internalType": "uint256",
              "name": "confirmdate",
              "type": "uint256"
            },
            {
              "internalType": "uint256",
              "name": "producedate",
              "type": "uint256"
            },
            {
              "internalType": "uint256",
              "name": "testdate",
              "type": "uint256"
            },
            {
              "internalType": "uint256",
              "name": "transportdate",
              "type": "uint256"
            },
            {
              "internalType": "bool",
              "name": "pending",
              "type": "bool"
            },
            {
              "internalType": "bool",
              "name": "returned",
              "type": "bool"
            },
            {
              "internalType": "bool",
              "name": "confirmed",
              "type": "bool"
            },
            {
              "internalType": "bool",
              "name": "produced",
              "type": "bool"
            },
            {
              "internalType": "bool",
              "name": "tested",
              "type": "bool"
            },
            {
              "internalType": "bool",
              "name": "transported",
              "type": "bool"
            },
            {
              "internalType": "bool",
              "name": "recieved",
              "type": "bool"
            }
          ],
          "internalType": "struct Schain.OrderItem[]",
          "name": "",
          "type": "tuple[]"
        }
      ],
      "stateMutability": "view",
      "type": "function"
    },
    {
      "inputs": [],
      "name": "fetchOrdersProduced",
      "outputs": [
        {
          "components": [
            {
              "internalType": "uint256",
              "name": "id",
              "type": "uint256"
            },
            {
              "internalType": "address",
              "name": "owner",
              "type": "address"
            },
            {
              "internalType": "string",
              "name": "product",
              "type": "string"
            },
            {
              "internalType": "uint256",
              "name": "quantity",
              "type": "uint256"
            },
            {
              "internalType": "uint256",
              "name": "orderdate",
              "type": "uint256"
            },
            {
              "internalType": "uint256",
              "name": "price",
              "type": "uint256"
            },
            {
              "internalType": "string",
              "name": "addressLine",
              "type": "string"
            },
            {
              "internalType": "string",
              "name": "contact",
              "type": "string"
            },
            {
              "internalType": "string",
              "name": "city",
              "type": "string"
            },
            {
              "internalType": "string",
              "name": "review",
              "type": "string"
            },
            {
              "internalType": "string",
              "name": "zipcode",
              "type": "string"
            },
            {
              "internalType": "string",
              "name": "state",
              "type": "string"
            },
            {
              "internalType": "uint256",
              "name": "recievedate",
              "type": "uint256"
            },
            {
              "internalType": "uint256",
              "name": "confirmdate",
              "type": "uint256"
            },
            {
              "internalType": "uint256",
              "name": "producedate",
              "type": "uint256"
            },
            {
              "internalType": "uint256",
              "name": "testdate",
              "type": "uint256"
            },
            {
              "internalType": "uint256",
              "name": "transportdate",
              "type": "uint256"
            },
            {
              "internalType": "bool",
              "name": "pending",
              "type": "bool"
            },
            {
              "internalType": "bool",
              "name": "returned",
              "type": "bool"
            },
            {
              "internalType": "bool",
              "name": "confirmed",
              "type": "bool"
            },
            {
              "internalType": "bool",
              "name": "produced",
              "type": "bool"
            },
            {
              "internalType": "bool",
              "name": "tested",
              "type": "bool"
            },
            {
              "internalType": "bool",
              "name": "transported",
              "type": "bool"
            },
            {
              "internalType": "bool",
              "name": "recieved",
              "type": "bool"
            }
          ],
          "internalType": "struct Schain.OrderItem[]",
          "name": "",
          "type": "tuple[]"
        }
      ],
      "stateMutability": "view",
      "type": "function"
    },
    {
      "inputs": [],
      "name": "fetchOrdersTested",
      "outputs": [
        {
          "components": [
            {
              "internalType": "uint256",
              "name": "id",
              "type": "uint256"
            },
            {
              "internalType": "address",
              "name": "owner",
              "type": "address"
            },
            {
              "internalType": "string",
              "name": "product",
              "type": "string"
            },
            {
              "internalType": "uint256",
              "name": "quantity",
              "type": "uint256"
            },
            {
              "internalType": "uint256",
              "name": "orderdate",
              "type": "uint256"
            },
            {
              "internalType": "uint256",
              "name": "price",
              "type": "uint256"
            },
            {
              "internalType": "string",
              "name": "addressLine",
              "type": "string"
            },
            {
              "internalType": "string",
              "name": "contact",
              "type": "string"
            },
            {
              "internalType": "string",
              "name": "city",
              "type": "string"
            },
            {
              "internalType": "string",
              "name": "review",
              "type": "string"
            },
            {
              "internalType": "string",
              "name": "zipcode",
              "type": "string"
            },
            {
              "internalType": "string",
              "name": "state",
              "type": "string"
            },
            {
              "internalType": "uint256",
              "name": "recievedate",
              "type": "uint256"
            },
            {
              "internalType": "uint256",
              "name": "confirmdate",
              "type": "uint256"
            },
            {
              "internalType": "uint256",
              "name": "producedate",
              "type": "uint256"
            },
            {
              "internalType": "uint256",
              "name": "testdate",
              "type": "uint256"
            },
            {
              "internalType": "uint256",
              "name": "transportdate",
              "type": "uint256"
            },
            {
              "internalType": "bool",
              "name": "pending",
              "type": "bool"
            },
            {
              "internalType": "bool",
              "name": "returned",
              "type": "bool"
            },
            {
              "internalType": "bool",
              "name": "confirmed",
              "type": "bool"
            },
            {
              "internalType": "bool",
              "name": "produced",
              "type": "bool"
            },
            {
              "internalType": "bool",
              "name": "tested",
              "type": "bool"
            },
            {
              "internalType": "bool",
              "name": "transported",
              "type": "bool"
            },
            {
              "internalType": "bool",
              "name": "recieved",
              "type": "bool"
            }
          ],
          "internalType": "struct Schain.OrderItem[]",
          "name": "",
          "type": "tuple[]"
        }
      ],
      "stateMutability": "view",
      "type": "function"
    },
    {
      "inputs": [],
      "name": "fetchOrdersTransported",
      "outputs": [
        {
          "components": [
            {
              "internalType": "uint256",
              "name": "id",
              "type": "uint256"
            },
            {
              "internalType": "address",
              "name": "owner",
              "type": "address"
            },
            {
              "internalType": "string",
              "name": "product",
              "type": "string"
            },
            {
              "internalType": "uint256",
              "name": "quantity",
              "type": "uint256"
            },
            {
              "internalType": "uint256",
              "name": "orderdate",
              "type": "uint256"
            },
            {
              "internalType": "uint256",
              "name": "price",
              "type": "uint256"
            },
            {
              "internalType": "string",
              "name": "addressLine",
              "type": "string"
            },
            {
              "internalType": "string",
              "name": "contact",
              "type": "string"
            },
            {
              "internalType": "string",
              "name": "city",
              "type": "string"
            },
            {
              "internalType": "string",
              "name": "review",
              "type": "string"
            },
            {
              "internalType": "string",
              "name": "zipcode",
              "type": "string"
            },
            {
              "internalType": "string",
              "name": "state",
              "type": "string"
            },
            {
              "internalType": "uint256",
              "name": "recievedate",
              "type": "uint256"
            },
            {
              "internalType": "uint256",
              "name": "confirmdate",
              "type": "uint256"
            },
            {
              "internalType": "uint256",
              "name": "producedate",
              "type": "uint256"
            },
            {
              "internalType": "uint256",
              "name": "testdate",
              "type": "uint256"
            },
            {
              "internalType": "uint256",
              "name": "transportdate",
              "type": "uint256"
            },
            {
              "internalType": "bool",
              "name": "pending",
              "type": "bool"
            },
            {
              "internalType": "bool",
              "name": "returned",
              "type": "bool"
            },
            {
              "internalType": "bool",
              "name": "confirmed",
              "type": "bool"
            },
            {
              "internalType": "bool",
              "name": "produced",
              "type": "bool"
            },
            {
              "internalType": "bool",
              "name": "tested",
              "type": "bool"
            },
            {
              "internalType": "bool",
              "name": "transported",
              "type": "bool"
            },
            {
              "internalType": "bool",
              "name": "recieved",
              "type": "bool"
            }
          ],
          "internalType": "struct Schain.OrderItem[]",
          "name": "",
          "type": "tuple[]"
        }
      ],
      "stateMutability": "view",
      "type": "function"
    },
    {
      "inputs": [],
      "name": "getEthUsd",
      "outputs": [
        {
          "internalType": "uint256",
          "name": "",
          "type": "uint256"
        }
      ],
      "stateMutability": "view",
      "type": "function"
    },
    {
      "inputs": [],
      "name": "ordersCount",
      "outputs": [
        {
          "internalType": "uint256",
          "name": "",
          "type": "uint256"
        }
      ],
      "stateMutability": "view",
      "type": "function"
    },
    {
      "inputs": [
        {
          "internalType": "uint256",
          "name": "_id",
          "type": "uint256"
        },
        {
          "internalType": "string",
          "name": "_role",
          "type": "string"
        }
      ],
      "name": "produceOrder",
      "outputs": [],
      "stateMutability": "nonpayable",
      "type": "function"
    },
    {
      "inputs": [
        {
          "internalType": "uint256",
          "name": "_id",
          "type": "uint256"
        }
      ],
      "name": "receiveOrder",
      "outputs": [],
      "stateMutability": "nonpayable",
      "type": "function"
    },
    {
      "inputs": [
        {
          "internalType": "uint256",
          "name": "_id",
          "type": "uint256"
        },
        {
          "internalType": "string",
          "name": "_review",
          "type": "string"
        }
      ],
      "name": "returnOrder",
      "outputs": [],
      "stateMutability": "nonpayable",
      "type": "function"
    },
    {
      "inputs": [
        {
          "internalType": "uint256",
          "name": "_id",
          "type": "uint256"
        },
        {
          "internalType": "string",
          "name": "_role",
          "type": "string"
        }
      ],
      "name": "testOrder",
      "outputs": [],
      "stateMutability": "nonpayable",
      "type": "function"
    },
    {
      "inputs": [
        {
          "internalType": "uint256",
          "name": "_id",
          "type": "uint256"
        },
        {
          "internalType": "string",
          "name": "_role",
          "type": "string"
        }
      ],
      "name": "transportOrder",
      "outputs": [],
      "stateMutability": "nonpayable",
      "type": "function"
    },
    {
      "inputs": [],
      "name": "usersCount",
      "outputs": [
        {
          "internalType": "uint256",
          "name": "",
          "type": "uint256"
        }
      ],
      "stateMutability": "view",
      "type": "function"
    },
    {
      "inputs": [
        {
          "internalType": "string",
          "name": "_role",
          "type": "string"
        },
        {
          "internalType": "address",
          "name": "_roleaddress",
          "type": "address"
        }
      ],
      "name": "validateRole",
      "outputs": [
        {
          "internalType": "bool",
          "name": "",
          "type": "bool"
        }
      ],
      "stateMutability": "view",
      "type": "function"
    }
  ],
  "bytecode": "0x608060405260006003556000600455600060055534801561001f57600080fd5b50600680546001600160a01b0319908116331790915560008054909116739326bfa02add2366b30bacb125260af641031331179055614cf2806100636000396000f3fe60806040526004361061012a5760003560e01c80638683c612116100ab578063bb27e0ce1161006f578063bb27e0ce146102e0578063bbb03358146102f5578063c8e45a6b1461030a578063d1e002fe1461032a578063df7128851461034a578063eaa44a421461036a57600080fd5b80638683c61214610258578063911c027f1461026b5780639534b3bf1461028b57806397bab12f146102ab5780639fe2a7f4146102cb57600080fd5b806335daa731116100f257806335daa731146101d65780633d644327146101fa5780636038821a1461020f5780636735b3a71461022f5780636ba13a821461024257600080fd5b80630500418b1461012f5780630e55f29b1461015a578063191b93511461018a5780631ca107fe1461019f5780632775bbc0146101c1575b600080fd5b34801561013b57600080fd5b5061014461037f565b6040516101519190614979565b60405180910390f35b34801561016657600080fd5b5061017a610175366004614731565b6109ee565b6040519015158152602001610151565b34801561019657600080fd5b50610144610a3e565b3480156101ab57600080fd5b506101bf6101ba36600461489d565b61109e565b005b3480156101cd57600080fd5b5061014461140a565b3480156101e257600080fd5b506101ec60045481565b604051908152602001610151565b34801561020657600080fd5b50610144611bc2565b34801561021b57600080fd5b506101bf61022a36600461489d565b61219d565b6101bf61023d366004614731565b61244f565b34801561024e57600080fd5b506101ec60035481565b6101bf61026636600461478c565b6124f9565b34801561027757600080fd5b506101bf61028636600461489d565b61272f565b34801561029757600080fd5b506101ec6102a6366004614885565b6127b6565b3480156102b757600080fd5b506101bf6102c6366004614885565b6127e5565b3480156102d757600080fd5b50610144612a7c565b3480156102ec57600080fd5b506101ec61318b565b34801561030157600080fd5b5061014461321d565b34801561031657600080fd5b506101bf61032536600461489d565b61393a565b34801561033657600080fd5b506101bf61034536600461489d565b613a89565b34801561035657600080fd5b506101bf61036536600461489d565b613bd9565b34801561037657600080fd5b50610144613d2b565b600454606090600080805b838110156103e55733600260006103a2846001614bb3565b81526020810191909152604001600020600101546001600160a01b031614156103d3576103d0600184614bb3565b92505b806103dd81614c75565b91505061038a565b5060008267ffffffffffffffff81111561040f57634e487b7160e01b600052604160045260246000fd5b60405190808252806020026020018201604052801561044857816020015b6104356144af565b81526020019060019003908161042d5790505b50905060005b848110156109e5573360026000610466846001614bb3565b81526020810191909152604001600020600101546001600160a01b031614156109d3576000610496826001614bb3565b6000818152600260208181526040928390208351610300810185528154815260018201546001600160a01b0316928101929092529182018054949550919390928492908401916104e590614c3a565b80601f016020809104026020016040519081016040528092919081815260200182805461051190614c3a565b801561055e5780601f106105335761010080835404028352916020019161055e565b820191906000526020600020905b81548152906001019060200180831161054157829003601f168201915b5050505050815260200160038201548152602001600482015481526020016005820154815260200160068201805461059590614c3a565b80601f01602080910402602001604051908101604052809291908181526020018280546105c190614c3a565b801561060e5780601f106105e35761010080835404028352916020019161060e565b820191906000526020600020905b8154815290600101906020018083116105f157829003601f168201915b5050505050815260200160078201805461062790614c3a565b80601f016020809104026020016040519081016040528092919081815260200182805461065390614c3a565b80156106a05780601f10610675576101008083540402835291602001916106a0565b820191906000526020600020905b81548152906001019060200180831161068357829003601f168201915b505050505081526020016008820180546106b990614c3a565b80601f01602080910402602001604051908101604052809291908181526020018280546106e590614c3a565b80156107325780601f1061070757610100808354040283529160200191610732565b820191906000526020600020905b81548152906001019060200180831161071557829003601f168201915b5050505050815260200160098201805461074b90614c3a565b80601f016020809104026020016040519081016040528092919081815260200182805461077790614c3a565b80156107c45780601f10610799576101008083540402835291602001916107c4565b820191906000526020600020905b8154815290600101906020018083116107a757829003601f168201915b50505050508152602001600a820180546107dd90614c3a565b80601f016020809104026020016040519081016040528092919081815260200182805461080990614c3a565b80156108565780601f1061082b57610100808354040283529160200191610856565b820191906000526020600020905b81548152906001019060200180831161083957829003601f168201915b50505050508152602001600b8201805461086f90614c3a565b80601f016020809104026020016040519081016040528092919081815260200182805461089b90614c3a565b80156108e85780601f106108bd576101008083540402835291602001916108e8565b820191906000526020600020905b8154815290600101906020018083116108cb57829003601f168201915b5050509183525050600c8201546020820152600d8201546040820152600e8201546060820152600f8201546080820152601082015460a082015260119091015460ff808216151560c08401526101008083048216151560e085015262010000830482161515908401526301000000820481161515610120840152600160201b820481161515610140840152600160281b820481161515610160840152600160301b9091041615156101809091015284518590879081106109b857634e487b7160e01b600052603260045260246000fd5b60209081029190910101526109ce600186614bb3565b945050505b806109dd81614c75565b91505061044e565b50949350505050565b6000816001600160a01b0316600184604051610a0a919061495d565b908152604051908190036020019020600201546001600160a01b03161415610a3457506001610a38565b5060005b92915050565b600454606090600080805b83811015610a7057610a5c600184614bb3565b925080610a6881614c75565b915050610a49565b5060008267ffffffffffffffff811115610a9a57634e487b7160e01b600052604160045260246000fd5b604051908082528060200260200182016040528015610ad357816020015b610ac06144af565b815260200190600190039081610ab85790505b50905060005b848110156109e55760026000610af0836001614bb3565b8152602081019190915260400160009081206001908101546001600160a01b031691600291610b20908590614bb3565b81526020810191909152604001600020600101546001600160a01b03161461108c576000610b4f826001614bb3565b6000818152600260208181526040928390208351610300810185528154815260018201546001600160a01b031692810192909252918201805494955091939092849290840191610b9e90614c3a565b80601f0160208091040260200160405190810160405280929190818152602001828054610bca90614c3a565b8015610c175780601f10610bec57610100808354040283529160200191610c17565b820191906000526020600020905b815481529060010190602001808311610bfa57829003601f168201915b50505050508152602001600382015481526020016004820154815260200160058201548152602001600682018054610c4e90614c3a565b80601f0160208091040260200160405190810160405280929190818152602001828054610c7a90614c3a565b8015610cc75780601f10610c9c57610100808354040283529160200191610cc7565b820191906000526020600020905b815481529060010190602001808311610caa57829003601f168201915b50505050508152602001600782018054610ce090614c3a565b80601f0160208091040260200160405190810160405280929190818152602001828054610d0c90614c3a565b8015610d595780601f10610d2e57610100808354040283529160200191610d59565b820191906000526020600020905b815481529060010190602001808311610d3c57829003601f168201915b50505050508152602001600882018054610d7290614c3a565b80601f0160208091040260200160405190810160405280929190818152602001828054610d9e90614c3a565b8015610deb5780601f10610dc057610100808354040283529160200191610deb565b820191906000526020600020905b815481529060010190602001808311610dce57829003601f168201915b50505050508152602001600982018054610e0490614c3a565b80601f0160208091040260200160405190810160405280929190818152602001828054610e3090614c3a565b8015610e7d5780601f10610e5257610100808354040283529160200191610e7d565b820191906000526020600020905b815481529060010190602001808311610e6057829003601f168201915b50505050508152602001600a82018054610e9690614c3a565b80601f0160208091040260200160405190810160405280929190818152602001828054610ec290614c3a565b8015610f0f5780601f10610ee457610100808354040283529160200191610f0f565b820191906000526020600020905b815481529060010190602001808311610ef257829003601f168201915b50505050508152602001600b82018054610f2890614c3a565b80601f0160208091040260200160405190810160405280929190818152602001828054610f5490614c3a565b8015610fa15780601f10610f7657610100808354040283529160200191610fa1565b820191906000526020600020905b815481529060010190602001808311610f8457829003601f168201915b5050509183525050600c8201546020820152600d8201546040820152600e8201546060820152600f8201546080820152601082015460a082015260119091015460ff808216151560c08401526101008083048216151560e085015262010000830482161515908401526301000000820481161515610120840152600160201b820481161515610140840152600160281b820481161515610160840152600160301b90910416151561018090910152845185908790811061107157634e487b7160e01b600052603260045260246000fd5b6020908102919091010152611087600186614bb3565b945050505b8061109681614c75565b915050610ad9565b6000821180156110b057506004548211155b6110d55760405162461bcd60e51b81526004016110cc90614b87565b60405180910390fd5b60006001826040516110e7919061495d565b90815260405190819003602001902060028101549091506001600160a01b031633141561116a5760405162461bcd60e51b815260206004820152602b60248201527f596f7520646f6e742068617665207065726d697373696f6e20746f207472616e60448201526a39b837b93a1037b93232b960a91b60648201526084016110cc565b60008381526002602052604090206011810154600160281b900460ff161561119157600080fd5b60118101805460ff60281b1916600160281b17905542601082015560008481526002602081905260409091208254815560018381015490820180546001600160a01b0319166001600160a01b0390921691909117905581830180548493830191906111fb90614c3a565b61120692919061457b565b50600382015481600301556004820154816004015560058201548160050155600682018160060190805461123990614c3a565b61124492919061457b565b50600782018160070190805461125990614c3a565b61126492919061457b565b50600882018160080190805461127990614c3a565b61128492919061457b565b50600982018160090190805461129990614c3a565b6112a492919061457b565b50600a820181600a019080546112b990614c3a565b6112c492919061457b565b50600b820181600b019080546112d990614c3a565b6112e492919061457b565b50600c8281015490820155600d8083015490820155600e8083015490820155600f8083015490820155601080830154908201556011918201805492909101805460ff938416151560ff19821681178355835461010090819004861615150261ff001990911661ffff19909216919091171780825582546201000090819004851615150262ff0000198216811783558354630100000090819004861615150263ff0000001990911663ffff00001990921691909117178082558254600160201b90819004851615150264ff00000000198216811783558354600160281b90819004861615150260ff60281b1990911665ffff000000001990921691909117178082559154600160301b90819004909316151590920260ff60301b1990911617905550505050565b600454606090600080805b83811015611519576002600061142c836001614bb3565b815260200190815260200160002060110160029054906101000a900460ff16151560011515148015611488575060026000611468836001614bb3565b81526020810191909152604001600020601101546301000000900460ff16155b80156114be57506002600061149e836001614bb3565b8152602081019190915260400160002060110154600160201b900460ff16155b80156114f45750600260006114d4836001614bb3565b8152602081019190915260400160002060110154600160281b900460ff16155b1561150757611504600184614bb3565b92505b8061151181614c75565b915050611415565b5060008267ffffffffffffffff81111561154357634e487b7160e01b600052604160045260246000fd5b60405190808252806020026020018201604052801561157c57816020015b6115696144af565b8152602001906001900390816115615790505b50905060005b848110156109e55760026000611599836001614bb3565b815260200190815260200160002060110160029054906101000a900460ff161515600115151480156115f55750600260006115d5836001614bb3565b81526020810191909152604001600020601101546301000000900460ff16155b801561162b57506002600061160b836001614bb3565b8152602081019190915260400160002060110154600160201b900460ff16155b8015611661575060026000611641836001614bb3565b8152602081019190915260400160002060110154600160281b900460ff16155b15611bb0576000611673826001614bb3565b6000818152600260208181526040928390208351610300810185528154815260018201546001600160a01b0316928101929092529182018054949550919390928492908401916116c290614c3a565b80601f01602080910402602001604051908101604052809291908181526020018280546116ee90614c3a565b801561173b5780601f106117105761010080835404028352916020019161173b565b820191906000526020600020905b81548152906001019060200180831161171e57829003601f168201915b5050505050815260200160038201548152602001600482015481526020016005820154815260200160068201805461177290614c3a565b80601f016020809104026020016040519081016040528092919081815260200182805461179e90614c3a565b80156117eb5780601f106117c0576101008083540402835291602001916117eb565b820191906000526020600020905b8154815290600101906020018083116117ce57829003601f168201915b5050505050815260200160078201805461180490614c3a565b80601f016020809104026020016040519081016040528092919081815260200182805461183090614c3a565b801561187d5780601f106118525761010080835404028352916020019161187d565b820191906000526020600020905b81548152906001019060200180831161186057829003601f168201915b5050505050815260200160088201805461189690614c3a565b80601f01602080910402602001604051908101604052809291908181526020018280546118c290614c3a565b801561190f5780601f106118e45761010080835404028352916020019161190f565b820191906000526020600020905b8154815290600101906020018083116118f257829003601f168201915b5050505050815260200160098201805461192890614c3a565b80601f016020809104026020016040519081016040528092919081815260200182805461195490614c3a565b80156119a15780601f10611976576101008083540402835291602001916119a1565b820191906000526020600020905b81548152906001019060200180831161198457829003601f168201915b50505050508152602001600a820180546119ba90614c3a565b80601f01602080910402602001604051908101604052809291908181526020018280546119e690614c3a565b8015611a335780601f10611a0857610100808354040283529160200191611a33565b820191906000526020600020905b815481529060010190602001808311611a1657829003601f168201915b50505050508152602001600b82018054611a4c90614c3a565b80601f0160208091040260200160405190810160405280929190818152602001828054611a7890614c3a565b8015611ac55780601f10611a9a57610100808354040283529160200191611ac5565b820191906000526020600020905b815481529060010190602001808311611aa857829003601f168201915b5050509183525050600c8201546020820152600d8201546040820152600e8201546060820152600f8201546080820152601082015460a082015260119091015460ff808216151560c08401526101008083048216151560e085015262010000830482161515908401526301000000820481161515610120840152600160201b820481161515610140840152600160281b820481161515610160840152600160301b909104161515610180909101528451859087908110611b9557634e487b7160e01b600052603260045260246000fd5b6020908102919091010152611bab600186614bb3565b945050505b80611bba81614c75565b915050611582565b6004546060906000808267ffffffffffffffff811115611bf257634e487b7160e01b600052604160045260246000fd5b604051908082528060200260200182016040528015611c2b57816020015b611c186144af565b815260200190600190039081611c105790505b50905060005b83811015612195576000611c46826001614bb3565b6000818152600260208181526040928390208351610300810185528154815260018201546001600160a01b031692810192909252918201805494955091939092849290840191611c9590614c3a565b80601f0160208091040260200160405190810160405280929190818152602001828054611cc190614c3a565b8015611d0e5780601f10611ce357610100808354040283529160200191611d0e565b820191906000526020600020905b815481529060010190602001808311611cf157829003601f168201915b50505050508152602001600382015481526020016004820154815260200160058201548152602001600682018054611d4590614c3a565b80601f0160208091040260200160405190810160405280929190818152602001828054611d7190614c3a565b8015611dbe5780601f10611d9357610100808354040283529160200191611dbe565b820191906000526020600020905b815481529060010190602001808311611da157829003601f168201915b50505050508152602001600782018054611dd790614c3a565b80601f0160208091040260200160405190810160405280929190818152602001828054611e0390614c3a565b8015611e505780601f10611e2557610100808354040283529160200191611e50565b820191906000526020600020905b815481529060010190602001808311611e3357829003601f168201915b50505050508152602001600882018054611e6990614c3a565b80601f0160208091040260200160405190810160405280929190818152602001828054611e9590614c3a565b8015611ee25780601f10611eb757610100808354040283529160200191611ee2565b820191906000526020600020905b815481529060010190602001808311611ec557829003601f168201915b50505050508152602001600982018054611efb90614c3a565b80601f0160208091040260200160405190810160405280929190818152602001828054611f2790614c3a565b8015611f745780601f10611f4957610100808354040283529160200191611f74565b820191906000526020600020905b815481529060010190602001808311611f5757829003601f168201915b50505050508152602001600a82018054611f8d90614c3a565b80601f0160208091040260200160405190810160405280929190818152602001828054611fb990614c3a565b80156120065780601f10611fdb57610100808354040283529160200191612006565b820191906000526020600020905b815481529060010190602001808311611fe957829003601f168201915b50505050508152602001600b8201805461201f90614c3a565b80601f016020809104026020016040519081016040528092919081815260200182805461204b90614c3a565b80156120985780601f1061206d57610100808354040283529160200191612098565b820191906000526020600020905b81548152906001019060200180831161207b57829003601f168201915b5050509183525050600c8201546020820152600d8201546040820152600e8201546060820152600f8201546080820152601082015460a082015260119091015460ff808216151560c08401526101008083048216151560e085015262010000830482161515908401526301000000820481161515610120840152600160201b820481161515610140840152600160281b820481161515610160840152600160301b90910416151561018090910152845185908790811061216857634e487b7160e01b600052603260045260246000fd5b602090810291909101015261217e600186614bb3565b94505050808061218d90614c75565b915050611c31565b509392505050565b6000821180156121af57506004548211155b6121cb5760405162461bcd60e51b81526004016110cc90614b87565b6000828152600260209081526040909120825190916121f1916009840191850190614602565b5060008381526002602081905260409091208254815560018084015490820180546001600160a01b0319166001600160a01b03909216919091179055818301805484938301919061224190614c3a565b61224c92919061457b565b50600382015481600301556004820154816004015560058201548160050155600682018160060190805461227f90614c3a565b61228a92919061457b565b50600782018160070190805461229f90614c3a565b6122aa92919061457b565b5060088201816008019080546122bf90614c3a565b6122ca92919061457b565b5060098201816009019080546122df90614c3a565b6122ea92919061457b565b50600a820181600a019080546122ff90614c3a565b61230a92919061457b565b50600b820181600b0190805461231f90614c3a565b61232a92919061457b565b50600c8281015490820155600d8083015490820155600e8083015490820155600f8083015490820155601080830154908201556011918201805492909101805460ff938416151560ff19821681178355835461010090819004861615150261ff001990911661ffff19909216919091171780825582546201000090819004851615150262ff0000198216811783558354630100000090819004861615150263ff0000001990911663ffff00001990921691909117178082558254600160201b90819004851615150264ff00000000198216811783558354600160281b90819004861615150260ff60281b1990911665ffff000000001990921691909117178082559154600160301b90819004909316151590920260ff60301b19909116179055505050565b6000600183604051612461919061495d565b90815260405190819003602001902060058054919250600061248283614c75565b9091555050825161249c9060018301906020860190614602565b506002810180546001600160a01b0319166001600160a01b0384161790556040517f39424c9407ac30223629511a00efdeb9175e3d425784e26c07c28265dd69ceab906124ec9085908590614b5d565b60405180910390a1505050565b600034116125495760405162461bcd60e51b815260206004820152601c60248201527f5072696365206d757374206265206174206c656173742031207765690000000060448201526064016110cc565b600086116125995760405162461bcd60e51b815260206004820152601f60248201527f7175616e74697479206d7573742062652067726561746572207468616e20300060448201526064016110cc565b336125a357600080fd5b600480549060006125b383614c75565b9091555050600380549060006125c883614c75565b9091555050600454600090815260026020526040808220600654915190926001600160a01b039092169182913480156108fc0292909190818181858888f1935050505015801561261c573d6000803e3d6000fd5b5060045482556001820180546001600160a01b03191633179055885161264b90600284019060208c0190614602565b5060038201889055426004830155346005830155865161267490600684019060208a0190614602565b50855161268a9060078401906020890190614602565b5084516126a09060088401906020880190614602565b506040805160208101918290526000908190526126c1916009850191614602565b5083516126d790600a8401906020870190614602565b5082516126ed90600b8401906020860190614602565b50506000600c8201819055600e8201819055600d8201819055600f82018190556010820155601101805466ffffffffffffff1916600117905550505050505050565b60008211801561274157506004548211155b61275d5760405162461bcd60e51b81526004016110cc90614b87565b600082815260026020819052604090912060118101805465ffffffffff0019166101001790556001810180546001600160a01b031981166001600160a01b03909116179055908101805482918291819061224190614c3a565b6000806127c161318b565b90506127de816127d885662386f26fc10000614441565b9061444d565b9392505050565b6000811180156127f757506004548111155b6128135760405162461bcd60e51b81526004016110cc90614b87565b600081815260026020819052604090912060118101805466ff0000000000ff1916600160301b1790556001810180546001600160a01b031981166001600160a01b03909116179055908101805482918291819061286f90614c3a565b61287a92919061457b565b5060038201548160030155600482015481600401556005820154816005015560068201816006019080546128ad90614c3a565b6128b892919061457b565b5060078201816007019080546128cd90614c3a565b6128d892919061457b565b5060088201816008019080546128ed90614c3a565b6128f892919061457b565b50600982018160090190805461290d90614c3a565b61291892919061457b565b50600a820181600a0190805461292d90614c3a565b61293892919061457b565b50600b820181600b0190805461294d90614c3a565b61295892919061457b565b50600c8281015490820155600d8083015490820155600e8083015490820155600f8083015490820155601080830154908201556011918201805492909101805460ff938416151560ff19821681178355835461010090819004861615150261ff001990911661ffff19909216919091171780825582546201000090819004851615150262ff0000198216811783558354630100000090819004861615150263ff0000001990911663ffff00001990921691909117178082558254600160201b90819004851615150264ff00000000198216811783558354600160281b90819004861615150260ff60281b1990911665ffff000000001990921691909117178082559154600160301b90819004909316151590920260ff60301b199091161790555050565b600454606090600080805b83811015612b8b5760026000612a9e836001614bb3565b815260200190815260200160002060110160029054906101000a900460ff16151560011515148015612afa575060026000612ada836001614bb3565b81526020810191909152604001600020601101546301000000900460ff16155b8015612b30575060026000612b10836001614bb3565b8152602081019190915260400160002060110154600160201b900460ff16155b8015612b66575060026000612b46836001614bb3565b8152602081019190915260400160002060110154600160281b900460ff16155b15612b7957612b76600184614bb3565b92505b80612b8381614c75565b915050612a87565b5060008267ffffffffffffffff811115612bb557634e487b7160e01b600052604160045260246000fd5b604051908082528060200260200182016040528015612bee57816020015b612bdb6144af565b815260200190600190039081612bd35790505b50905060005b848110156109e5573360026000612c0c846001614bb3565b81526020810191909152604001600020600101546001600160a01b03161415613179576000612c3c826001614bb3565b6000818152600260208181526040928390208351610300810185528154815260018201546001600160a01b031692810192909252918201805494955091939092849290840191612c8b90614c3a565b80601f0160208091040260200160405190810160405280929190818152602001828054612cb790614c3a565b8015612d045780601f10612cd957610100808354040283529160200191612d04565b820191906000526020600020905b815481529060010190602001808311612ce757829003601f168201915b50505050508152602001600382015481526020016004820154815260200160058201548152602001600682018054612d3b90614c3a565b80601f0160208091040260200160405190810160405280929190818152602001828054612d6790614c3a565b8015612db45780601f10612d8957610100808354040283529160200191612db4565b820191906000526020600020905b815481529060010190602001808311612d9757829003601f168201915b50505050508152602001600782018054612dcd90614c3a565b80601f0160208091040260200160405190810160405280929190818152602001828054612df990614c3a565b8015612e465780601f10612e1b57610100808354040283529160200191612e46565b820191906000526020600020905b815481529060010190602001808311612e2957829003601f168201915b50505050508152602001600882018054612e5f90614c3a565b80601f0160208091040260200160405190810160405280929190818152602001828054612e8b90614c3a565b8015612ed85780601f10612ead57610100808354040283529160200191612ed8565b820191906000526020600020905b815481529060010190602001808311612ebb57829003601f168201915b50505050508152602001600982018054612ef190614c3a565b80601f0160208091040260200160405190810160405280929190818152602001828054612f1d90614c3a565b8015612f6a5780601f10612f3f57610100808354040283529160200191612f6a565b820191906000526020600020905b815481529060010190602001808311612f4d57829003601f168201915b50505050508152602001600a82018054612f8390614c3a565b80601f0160208091040260200160405190810160405280929190818152602001828054612faf90614c3a565b8015612ffc5780601f10612fd157610100808354040283529160200191612ffc565b820191906000526020600020905b815481529060010190602001808311612fdf57829003601f168201915b50505050508152602001600b8201805461301590614c3a565b80601f016020809104026020016040519081016040528092919081815260200182805461304190614c3a565b801561308e5780601f106130635761010080835404028352916020019161308e565b820191906000526020600020905b81548152906001019060200180831161307157829003601f168201915b5050509183525050600c8201546020820152600d8201546040820152600e8201546060820152600f8201546080820152601082015460a082015260119091015460ff808216151560c08401526101008083048216151560e085015262010000830482161515908401526301000000820481161515610120840152600160201b820481161515610140840152600160281b820481161515610160840152600160301b90910416151561018090910152845185908790811061315e57634e487b7160e01b600052603260045260246000fd5b6020908102919091010152613174600186614bb3565b945050505b8061318381614c75565b915050612bf4565b6000805460408051633fabe5a360e21b8152905183926001600160a01b03169163feaf968c9160048083019260a0929190829003018186803b1580156131d057600080fd5b505afa1580156131e4573d6000803e3d6000fd5b505050506040513d601f19601f8201168201806040525081019061320891906148e2565b50505091505061321781614459565b91505090565b600454606090600080805b8381101561333a576002600061323f836001614bb3565b815260200190815260200160002060110160029054906101000a900460ff161515600115151480156132a257506002600061327b836001614bb3565b815260200190815260200160002060110160039054906101000a900460ff16151560011515145b80156132df5750600260006132b8836001614bb3565b815260200190815260200160002060110160049054906101000a900460ff16151560011515145b80156133155750600260006132f5836001614bb3565b8152602081019190915260400160002060110154600160281b900460ff16155b1561332857613325600184614bb3565b92505b8061333281614c75565b915050613228565b5060008267ffffffffffffffff81111561336457634e487b7160e01b600052604160045260246000fd5b60405190808252806020026020018201604052801561339d57816020015b61338a6144af565b8152602001906001900390816133825790505b50905060005b848110156109e55733600260006133bb846001614bb3565b81526020810191909152604001600020600101546001600160a01b031614156139285760006133eb826001614bb3565b6000818152600260208181526040928390208351610300810185528154815260018201546001600160a01b03169281019290925291820180549495509193909284929084019161343a90614c3a565b80601f016020809104026020016040519081016040528092919081815260200182805461346690614c3a565b80156134b35780601f10613488576101008083540402835291602001916134b3565b820191906000526020600020905b81548152906001019060200180831161349657829003601f168201915b505050505081526020016003820154815260200160048201548152602001600582015481526020016006820180546134ea90614c3a565b80601f016020809104026020016040519081016040528092919081815260200182805461351690614c3a565b80156135635780601f1061353857610100808354040283529160200191613563565b820191906000526020600020905b81548152906001019060200180831161354657829003601f168201915b5050505050815260200160078201805461357c90614c3a565b80601f01602080910402602001604051908101604052809291908181526020018280546135a890614c3a565b80156135f55780601f106135ca576101008083540402835291602001916135f5565b820191906000526020600020905b8154815290600101906020018083116135d857829003601f168201915b5050505050815260200160088201805461360e90614c3a565b80601f016020809104026020016040519081016040528092919081815260200182805461363a90614c3a565b80156136875780601f1061365c57610100808354040283529160200191613687565b820191906000526020600020905b81548152906001019060200180831161366a57829003601f168201915b505050505081526020016009820180546136a090614c3a565b80601f01602080910402602001604051908101604052809291908181526020018280546136cc90614c3a565b80156137195780601f106136ee57610100808354040283529160200191613719565b820191906000526020600020905b8154815290600101906020018083116136fc57829003601f168201915b50505050508152602001600a8201805461373290614c3a565b80601f016020809104026020016040519081016040528092919081815260200182805461375e90614c3a565b80156137ab5780601f10613780576101008083540402835291602001916137ab565b820191906000526020600020905b81548152906001019060200180831161378e57829003601f168201915b50505050508152602001600b820180546137c490614c3a565b80601f01602080910402602001604051908101604052809291908181526020018280546137f090614c3a565b801561383d5780601f106138125761010080835404028352916020019161383d565b820191906000526020600020905b81548152906001019060200180831161382057829003601f168201915b5050509183525050600c8201546020820152600d8201546040820152600e8201546060820152600f8201546080820152601082015460a082015260119091015460ff808216151560c08401526101008083048216151560e085015262010000830482161515908401526301000000820481161515610120840152600160201b820481161515610140840152600160281b820481161515610160840152600160301b90910416151561018090910152845185908790811061390d57634e487b7160e01b600052603260045260246000fd5b6020908102919091010152613923600186614bb3565b945050505b8061393281614c75565b9150506133a3565b60008211801561394c57506004548211155b6139685760405162461bcd60e51b81526004016110cc90614b87565b600060018260405161397a919061495d565b90815260405190819003602001902060028101549091506001600160a01b03163314156139fb5760405162461bcd60e51b815260206004820152602960248201527f596f7520646f6e742068617665207065726d697373696f6e20746f20636f6e6660448201526834b9369037b93232b960b91b60648201526084016110cc565b6000838152600260205260409020601181015462010000900460ff1615613a2157600080fd5b60118101805462ff000019166201000017905542600d82015560008481526002602081905260409091208254815560018381015490820180546001600160a01b0319166001600160a01b0390921691909117905581830180548493830191906111fb90614c3a565b600082118015613a9b57506004548211155b613ab75760405162461bcd60e51b81526004016110cc90614b87565b6000600182604051613ac9919061495d565b90815260405190819003602001902060028101549091506001600160a01b0316331415613b475760405162461bcd60e51b815260206004820152602660248201527f596f7520646f6e742068617665207065726d697373696f6e20746f20746573746044820152651037b93232b960d11b60648201526084016110cc565b60008381526002602052604090206011810154600160201b900460ff1615613b6e57600080fd5b60118101805464ff000000001916600160201b17905542600f82015560008481526002602081905260409091208254815560018381015490820180546001600160a01b0319166001600160a01b0390921691909117905581830180548493830191906111fb90614c3a565b600082118015613beb57506004548211155b613c075760405162461bcd60e51b81526004016110cc90614b87565b6000600182604051613c19919061495d565b90815260405190819003602001902060028101549091506001600160a01b0316331415613c9a5760405162461bcd60e51b815260206004820152602960248201527f596f7520646f6e742068617665207065726d697373696f6e20746f2070726f646044820152683ab1b29037b93232b960b91b60648201526084016110cc565b600083815260026020526040902060118101546301000000900460ff1615613cc157600080fd5b60118101805463ff0000001916630100000017905542600e82015560008481526002602081905260409091208254815560018381015490820180546001600160a01b0319166001600160a01b0390921691909117905581830180548493830191906111fb90614c3a565b600454606090600080805b83811015613e415760026000613d4d836001614bb3565b815260200190815260200160002060110160029054906101000a900460ff16151560011515148015613db0575060026000613d89836001614bb3565b815260200190815260200160002060110160039054906101000a900460ff16151560011515145b8015613de6575060026000613dc6836001614bb3565b8152602081019190915260400160002060110154600160201b900460ff16155b8015613e1c575060026000613dfc836001614bb3565b8152602081019190915260400160002060110154600160281b900460ff16155b15613e2f57613e2c600184614bb3565b92505b80613e3981614c75565b915050613d36565b5060008267ffffffffffffffff811115613e6b57634e487b7160e01b600052604160045260246000fd5b604051908082528060200260200182016040528015613ea457816020015b613e916144af565b815260200190600190039081613e895790505b50905060005b848110156109e5573360026000613ec2846001614bb3565b81526020810191909152604001600020600101546001600160a01b0316141561442f576000613ef2826001614bb3565b6000818152600260208181526040928390208351610300810185528154815260018201546001600160a01b031692810192909252918201805494955091939092849290840191613f4190614c3a565b80601f0160208091040260200160405190810160405280929190818152602001828054613f6d90614c3a565b8015613fba5780601f10613f8f57610100808354040283529160200191613fba565b820191906000526020600020905b815481529060010190602001808311613f9d57829003601f168201915b50505050508152602001600382015481526020016004820154815260200160058201548152602001600682018054613ff190614c3a565b80601f016020809104026020016040519081016040528092919081815260200182805461401d90614c3a565b801561406a5780601f1061403f5761010080835404028352916020019161406a565b820191906000526020600020905b81548152906001019060200180831161404d57829003601f168201915b5050505050815260200160078201805461408390614c3a565b80601f01602080910402602001604051908101604052809291908181526020018280546140af90614c3a565b80156140fc5780601f106140d1576101008083540402835291602001916140fc565b820191906000526020600020905b8154815290600101906020018083116140df57829003601f168201915b5050505050815260200160088201805461411590614c3a565b80601f016020809104026020016040519081016040528092919081815260200182805461414190614c3a565b801561418e5780601f106141635761010080835404028352916020019161418e565b820191906000526020600020905b81548152906001019060200180831161417157829003601f168201915b505050505081526020016009820180546141a790614c3a565b80601f01602080910402602001604051908101604052809291908181526020018280546141d390614c3a565b80156142205780601f106141f557610100808354040283529160200191614220565b820191906000526020600020905b81548152906001019060200180831161420357829003601f168201915b50505050508152602001600a8201805461423990614c3a565b80601f016020809104026020016040519081016040528092919081815260200182805461426590614c3a565b80156142b25780601f10614287576101008083540402835291602001916142b2565b820191906000526020600020905b81548152906001019060200180831161429557829003601f168201915b50505050508152602001600b820180546142cb90614c3a565b80601f01602080910402602001604051908101604052809291908181526020018280546142f790614c3a565b80156143445780601f1061431957610100808354040283529160200191614344565b820191906000526020600020905b81548152906001019060200180831161432757829003601f168201915b5050509183525050600c8201546020820152600d8201546040820152600e8201546060820152600f8201546080820152601082015460a082015260119091015460ff808216151560c08401526101008083048216151560e085015262010000830482161515908401526301000000820481161515610120840152600160201b820481161515610140840152600160281b820481161515610160840152600160301b90910416151561018090910152845185908790811061441457634e487b7160e01b600052603260045260246000fd5b602090810291909101015261442a600186614bb3565b945050505b8061443981614c75565b915050613eaa565b60006127de8284614beb565b60006127de8284614bcb565b6000808212156144ab5760405162461bcd60e51b815260206004820181905260248201527f53616665436173743a2076616c7565206d75737420626520706f73697469766560448201526064016110cc565b5090565b6040518061030001604052806000815260200160006001600160a01b031681526020016060815260200160008152602001600081526020016000815260200160608152602001606081526020016060815260200160608152602001606081526020016060815260200160008152602001600081526020016000815260200160008152602001600081526020016000151581526020016000151581526020016000151581526020016000151581526020016000151581526020016000151581526020016000151581525090565b82805461458790614c3a565b90600052602060002090601f0160209004810192826145a957600085556145f6565b82601f106145ba57805485556145f6565b828001600101855582156145f657600052602060002091601f016020900482015b828111156145f65782548255916001019190600101906145db565b506144ab929150614676565b82805461460e90614c3a565b90600052602060002090601f01602090048101928261463057600085556145f6565b82601f1061464957805160ff19168380011785556145f6565b828001600101855582156145f6579182015b828111156145f657825182559160200191906001019061465b565b5b808211156144ab5760008155600101614677565b600082601f83011261469b578081fd5b813567ffffffffffffffff808211156146b6576146b6614ca6565b604051601f8301601f19908116603f011681019082821181831017156146de576146de614ca6565b816040528381528660208588010111156146f6578485fd5b8360208701602083013792830160200193909352509392505050565b805169ffffffffffffffffffff8116811461472c57600080fd5b919050565b60008060408385031215614743578182fd5b823567ffffffffffffffff811115614759578283fd5b6147658582860161468b565b92505060208301356001600160a01b0381168114614781578182fd5b809150509250929050565b600080600080600080600060e0888a0312156147a6578283fd5b873567ffffffffffffffff808211156147bd578485fd5b6147c98b838c0161468b565b985060208a0135975060408a01359150808211156147e5578485fd5b6147f18b838c0161468b565b965060608a0135915080821115614806578485fd5b6148128b838c0161468b565b955060808a0135915080821115614827578485fd5b6148338b838c0161468b565b945060a08a0135915080821115614848578384fd5b6148548b838c0161468b565b935060c08a0135915080821115614869578283fd5b506148768a828b0161468b565b91505092959891949750929550565b600060208284031215614896578081fd5b5035919050565b600080604083850312156148af578182fd5b82359150602083013567ffffffffffffffff8111156148cc578182fd5b6148d88582860161468b565b9150509250929050565b600080600080600060a086880312156148f9578081fd5b61490286614712565b945060208601519350604086015192506060860151915061492560808701614712565b90509295509295909350565b60008151808452614949816020860160208601614c0a565b601f01601f19169290920160200192915050565b6000825161496f818460208701614c0a565b9190910192915050565b60006020808301818452808551808352604092508286019150828160051b870101848801865b83811015614b4f57603f19898403018552815180518452878101516001600160a01b03168885015286810151610300888601819052906149e182870182614931565b606084810151908801526080808501519088015260a0808501519088015260c080850151888303828a01529193509150614a1b8382614931565b9250505060e08083015186830382880152614a368382614931565b925050506101008083015186830382880152614a528382614931565b925050506101208083015186830382880152614a6e8382614931565b925050506101408083015186830382880152614a8a8382614931565b925050506101608083015186830382880152614aa68382614931565b61018085810151908901526101a080860151908901526101c080860151908901526101e080860151908901526102008086015190890152610220808601511515908901526102408086015115159089015261026080860151151590890152610280808601511515908901526102a0808601511515908901526102c0808601511515908901526102e09485015115159490970193909352505050938601939086019060010161499f565b509098975050505050505050565b604081526000614b706040830185614931565b905060018060a01b03831660208301529392505050565b6020808252601290820152711bdc99195c881a59081b9bdd081d985b1a5960721b604082015260600190565b60008219821115614bc657614bc6614c90565b500190565b600082614be657634e487b7160e01b81526012600452602481fd5b500490565b6000816000190483118215151615614c0557614c05614c90565b500290565b60005b83811015614c25578181015183820152602001614c0d565b83811115614c34576000848401525b50505050565b600181811c90821680614c4e57607f821691505b60208210811415614c6f57634e487b7160e01b600052602260045260246000fd5b50919050565b6000600019821415614c8957614c89614c90565b5060010190565b634e487b7160e01b600052601160045260246000fd5b634e487b7160e01b600052604160045260246000fdfea26469706673582212204c33d7692fef8bd15d8077881862b4fefa3eb276fcd9f82d9a9d1139e9c79c7a64736f6c63430008040033",
  "linkReferences": {},
  "deployedLinkReferences": {}
}