{
  "_format": "hh-sol-artifact-1",
  "contractName": "Schain",
  "sourceName": "contracts/Schain.sol",
  "abi": [
    {
      "inputs": [],
      "stateMutability": "nonpayable",
      "type": "constructor"
    },
    {
      "anonymous": false,
      "inputs": [
        {
          "indexed": true,
          "internalType": "uint256",
          "name": "id",
          "type": "uint256"
        },
        {
          "indexed": false,
          "internalType": "address",
          "name": "owner",
          "type": "address"
        },
        {
          "indexed": false,
          "internalType": "string",
          "name": "product",
          "type": "string"
        },
        {
          "indexed": false,
          "internalType": "uint256",
          "name": "quantity",
          "type": "uint256"
        },
        {
          "indexed": false,
          "internalType": "uint256",
          "name": "orderdate",
          "type": "uint256"
        },
        {
          "indexed": false,
          "internalType": "uint256",
          "name": "price",
          "type": "uint256"
        },
        {
          "indexed": false,
          "internalType": "string",
          "name": "addressLine",
          "type": "string"
        },
        {
          "indexed": false,
          "internalType": "string",
          "name": "contact",
          "type": "string"
        },
        {
          "indexed": false,
          "internalType": "string",
          "name": "city",
          "type": "string"
        },
        {
          "indexed": false,
          "internalType": "string",
          "name": "review",
          "type": "string"
        },
        {
          "indexed": false,
          "internalType": "string",
          "name": "zipcode",
          "type": "string"
        },
        {
          "indexed": false,
          "internalType": "string",
          "name": "state",
          "type": "string"
        },
        {
          "indexed": false,
          "internalType": "uint256",
          "name": "recievedate",
          "type": "uint256"
        },
        {
          "indexed": false,
          "internalType": "uint256",
          "name": "confirmdate",
          "type": "uint256"
        },
        {
          "indexed": false,
          "internalType": "uint256",
          "name": "producedate",
          "type": "uint256"
        },
        {
          "indexed": false,
          "internalType": "uint256",
          "name": "testdate",
          "type": "uint256"
        },
        {
          "indexed": false,
          "internalType": "uint256",
          "name": "transportdate",
          "type": "uint256"
        },
        {
          "indexed": false,
          "internalType": "bool",
          "name": "pending",
          "type": "bool"
        },
        {
          "indexed": false,
          "internalType": "bool",
          "name": "returned",
          "type": "bool"
        },
        {
          "indexed": false,
          "internalType": "bool",
          "name": "confirmed",
          "type": "bool"
        },
        {
          "indexed": false,
          "internalType": "bool",
          "name": "produced",
          "type": "bool"
        },
        {
          "indexed": false,
          "internalType": "bool",
          "name": "tested",
          "type": "bool"
        },
        {
          "indexed": false,
          "internalType": "bool",
          "name": "transported",
          "type": "bool"
        },
        {
          "indexed": false,
          "internalType": "bool",
          "name": "recieved",
          "type": "bool"
        }
      ],
      "name": "AddOrder",
      "type": "event"
    },
    {
      "anonymous": false,
      "inputs": [
        {
          "indexed": false,
          "internalType": "string",
          "name": "role",
          "type": "string"
        },
        {
          "indexed": false,
          "internalType": "address",
          "name": "roleaddress",
          "type": "address"
        }
      ],
      "name": "RoleAdded",
      "type": "event"
    },
    {
      "inputs": [
        {
          "internalType": "string",
          "name": "_product",
          "type": "string"
        },
        {
          "internalType": "uint256",
          "name": "_quantity",
          "type": "uint256"
        },
        {
          "internalType": "string",
          "name": "_addressline",
          "type": "string"
        },
        {
          "internalType": "string",
          "name": "_contact",
          "type": "string"
        },
        {
          "internalType": "string",
          "name": "_city",
          "type": "string"
        },
        {
          "internalType": "string",
          "name": "_zipcode",
          "type": "string"
        },
        {
          "internalType": "string",
          "name": "_state",
          "type": "string"
        }
      ],
      "name": "addOrderItem",
      "outputs": [],
      "stateMutability": "payable",
      "type": "function"
    },
    {
      "inputs": [
        {
          "internalType": "string",
          "name": "_name",
          "type": "string"
        },
        {
          "internalType": "uint256",
          "name": "_price",
          "type": "uint256"
        },
        {
          "internalType": "string",
          "name": "_imageHash",
          "type": "string"
        }
      ],
      "name": "addProduct",
      "outputs": [],
      "stateMutability": "payable",
      "type": "function"
    },
    {
      "inputs": [
        {
          "internalType": "uint256",
          "name": "_id",
          "type": "uint256"
        },
        {
          "internalType": "string",
          "name": "_review",
          "type": "string"
        }
      ],
      "name": "addReveiw",
      "outputs": [],
      "stateMutability": "nonpayable",
      "type": "function"
    },
    {
      "inputs": [
        {
          "internalType": "string",
          "name": "_role",
          "type": "string"
        },
        {
          "internalType": "address",
          "name": "_roleaddress",
          "type": "address"
        }
      ],
      "name": "addRole",
      "outputs": [],
      "stateMutability": "payable",
      "type": "function"
    },
    {
      "inputs": [
        {
          "internalType": "uint256",
          "name": "_id",
          "type": "uint256"
        },
        {
          "internalType": "string",
          "name": "_role",
          "type": "string"
        }
      ],
      "name": "confrimOrder",
      "outputs": [],
      "stateMutability": "nonpayable",
      "type": "function"
    },
    {
      "inputs": [
        {
          "internalType": "uint256",
          "name": "_amountInUsd",
          "type": "uint256"
        }
      ],
      "name": "convertEthUsd",
      "outputs": [
        {
          "internalType": "uint256",
          "name": "",
          "type": "uint256"
        }
      ],
      "stateMutability": "view",
      "type": "function"
    },
    {
      "inputs": [],
      "name": "fetchCustomers",
      "outputs": [
        {
          "components": [
            {
              "internalType": "uint256",
              "name": "id",
              "type": "uint256"
            },
            {
              "internalType": "address",
              "name": "owner",
              "type": "address"
            },
            {
              "internalType": "string",
              "name": "product",
              "type": "string"
            },
            {
              "internalType": "uint256",
              "name": "quantity",
              "type": "uint256"
            },
            {
              "internalType": "uint256",
              "name": "orderdate",
              "type": "uint256"
            },
            {
              "internalType": "uint256",
              "name": "price",
              "type": "uint256"
            },
            {
              "internalType": "string",
              "name": "addressLine",
              "type": "string"
            },
            {
              "internalType": "string",
              "name": "contact",
              "type": "string"
            },
            {
              "internalType": "string",
              "name": "city",
              "type": "string"
            },
            {
              "internalType": "string",
              "name": "review",
              "type": "string"
            },
            {
              "internalType": "string",
              "name": "zipcode",
              "type": "string"
            },
            {
              "internalType": "string",
              "name": "state",
              "type": "string"
            },
            {
              "internalType": "uint256",
              "name": "recievedate",
              "type": "uint256"
            },
            {
              "internalType": "uint256",
              "name": "confirmdate",
              "type": "uint256"
            },
            {
              "internalType": "uint256",
              "name": "producedate",
              "type": "uint256"
            },
            {
              "internalType": "uint256",
              "name": "testdate",
              "type": "uint256"
            },
            {
              "internalType": "uint256",
              "name": "transportdate",
              "type": "uint256"
            },
            {
              "internalType": "bool",
              "name": "pending",
              "type": "bool"
            },
            {
              "internalType": "bool",
              "name": "returned",
              "type": "bool"
            },
            {
              "internalType": "bool",
              "name": "confirmed",
              "type": "bool"
            },
            {
              "internalType": "bool",
              "name": "produced",
              "type": "bool"
            },
            {
              "internalType": "bool",
              "name": "tested",
              "type": "bool"
            },
            {
              "internalType": "bool",
              "name": "transported",
              "type": "bool"
            },
            {
              "internalType": "bool",
              "name": "recieved",
              "type": "bool"
            }
          ],
          "internalType": "struct Schain.OrderItem[]",
          "name": "",
          "type": "tuple[]"
        }
      ],
      "stateMutability": "view",
      "type": "function"
    },
    {
      "inputs": [],
      "name": "fetchMyOrders",
      "outputs": [
        {
          "components": [
            {
              "internalType": "uint256",
              "name": "id",
              "type": "uint256"
            },
            {
              "internalType": "address",
              "name": "owner",
              "type": "address"
            },
            {
              "internalType": "string",
              "name": "product",
              "type": "string"
            },
            {
              "internalType": "uint256",
              "name": "quantity",
              "type": "uint256"
            },
            {
              "internalType": "uint256",
              "name": "orderdate",
              "type": "uint256"
            },
            {
              "internalType": "uint256",
              "name": "price",
              "type": "uint256"
            },
            {
              "internalType": "string",
              "name": "addressLine",
              "type": "string"
            },
            {
              "internalType": "string",
              "name": "contact",
              "type": "string"
            },
            {
              "internalType": "string",
              "name": "city",
              "type": "string"
            },
            {
              "internalType": "string",
              "name": "review",
              "type": "string"
            },
            {
              "internalType": "string",
              "name": "zipcode",
              "type": "string"
            },
            {
              "internalType": "string",
              "name": "state",
              "type": "string"
            },
            {
              "internalType": "uint256",
              "name": "recievedate",
              "type": "uint256"
            },
            {
              "internalType": "uint256",
              "name": "confirmdate",
              "type": "uint256"
            },
            {
              "internalType": "uint256",
              "name": "producedate",
              "type": "uint256"
            },
            {
              "internalType": "uint256",
              "name": "testdate",
              "type": "uint256"
            },
            {
              "internalType": "uint256",
              "name": "transportdate",
              "type": "uint256"
            },
            {
              "internalType": "bool",
              "name": "pending",
              "type": "bool"
            },
            {
              "internalType": "bool",
              "name": "returned",
              "type": "bool"
            },
            {
              "internalType": "bool",
              "name": "confirmed",
              "type": "bool"
            },
            {
              "internalType": "bool",
              "name": "produced",
              "type": "bool"
            },
            {
              "internalType": "bool",
              "name": "tested",
              "type": "bool"
            },
            {
              "internalType": "bool",
              "name": "transported",
              "type": "bool"
            },
            {
              "internalType": "bool",
              "name": "recieved",
              "type": "bool"
            }
          ],
          "internalType": "struct Schain.OrderItem[]",
          "name": "",
          "type": "tuple[]"
        }
      ],
      "stateMutability": "view",
      "type": "function"
    },
    {
      "inputs": [],
      "name": "fetchOrderItems",
      "outputs": [
        {
          "components": [
            {
              "internalType": "uint256",
              "name": "id",
              "type": "uint256"
            },
            {
              "internalType": "address",
              "name": "owner",
              "type": "address"
            },
            {
              "internalType": "string",
              "name": "product",
              "type": "string"
            },
            {
              "internalType": "uint256",
              "name": "quantity",
              "type": "uint256"
            },
            {
              "internalType": "uint256",
              "name": "orderdate",
              "type": "uint256"
            },
            {
              "internalType": "uint256",
              "name": "price",
              "type": "uint256"
            },
            {
              "internalType": "string",
              "name": "addressLine",
              "type": "string"
            },
            {
              "internalType": "string",
              "name": "contact",
              "type": "string"
            },
            {
              "internalType": "string",
              "name": "city",
              "type": "string"
            },
            {
              "internalType": "string",
              "name": "review",
              "type": "string"
            },
            {
              "internalType": "string",
              "name": "zipcode",
              "type": "string"
            },
            {
              "internalType": "string",
              "name": "state",
              "type": "string"
            },
            {
              "internalType": "uint256",
              "name": "recievedate",
              "type": "uint256"
            },
            {
              "internalType": "uint256",
              "name": "confirmdate",
              "type": "uint256"
            },
            {
              "internalType": "uint256",
              "name": "producedate",
              "type": "uint256"
            },
            {
              "internalType": "uint256",
              "name": "testdate",
              "type": "uint256"
            },
            {
              "internalType": "uint256",
              "name": "transportdate",
              "type": "uint256"
            },
            {
              "internalType": "bool",
              "name": "pending",
              "type": "bool"
            },
            {
              "internalType": "bool",
              "name": "returned",
              "type": "bool"
            },
            {
              "internalType": "bool",
              "name": "confirmed",
              "type": "bool"
            },
            {
              "internalType": "bool",
              "name": "produced",
              "type": "bool"
            },
            {
              "internalType": "bool",
              "name": "tested",
              "type": "bool"
            },
            {
              "internalType": "bool",
              "name": "transported",
              "type": "bool"
            },
            {
              "internalType": "bool",
              "name": "recieved",
              "type": "bool"
            }
          ],
          "internalType": "struct Schain.OrderItem[]",
          "name": "",
          "type": "tuple[]"
        }
      ],
      "stateMutability": "view",
      "type": "function"
    },
    {
      "inputs": [],
      "name": "fetchOrdersConfirm",
      "outputs": [
        {
          "components": [
            {
              "internalType": "uint256",
              "name": "id",
              "type": "uint256"
            },
            {
              "internalType": "address",
              "name": "owner",
              "type": "address"
            },
            {
              "internalType": "string",
              "name": "product",
              "type": "string"
            },
            {
              "internalType": "uint256",
              "name": "quantity",
              "type": "uint256"
            },
            {
              "internalType": "uint256",
              "name": "orderdate",
              "type": "uint256"
            },
            {
              "internalType": "uint256",
              "name": "price",
              "type": "uint256"
            },
            {
              "internalType": "string",
              "name": "addressLine",
              "type": "string"
            },
            {
              "internalType": "string",
              "name": "contact",
              "type": "string"
            },
            {
              "internalType": "string",
              "name": "city",
              "type": "string"
            },
            {
              "internalType": "string",
              "name": "review",
              "type": "string"
            },
            {
              "internalType": "string",
              "name": "zipcode",
              "type": "string"
            },
            {
              "internalType": "string",
              "name": "state",
              "type": "string"
            },
            {
              "internalType": "uint256",
              "name": "recievedate",
              "type": "uint256"
            },
            {
              "internalType": "uint256",
              "name": "confirmdate",
              "type": "uint256"
            },
            {
              "internalType": "uint256",
              "name": "producedate",
              "type": "uint256"
            },
            {
              "internalType": "uint256",
              "name": "testdate",
              "type": "uint256"
            },
            {
              "internalType": "uint256",
              "name": "transportdate",
              "type": "uint256"
            },
            {
              "internalType": "bool",
              "name": "pending",
              "type": "bool"
            },
            {
              "internalType": "bool",
              "name": "returned",
              "type": "bool"
            },
            {
              "internalType": "bool",
              "name": "confirmed",
              "type": "bool"
            },
            {
              "internalType": "bool",
              "name": "produced",
              "type": "bool"
            },
            {
              "internalType": "bool",
              "name": "tested",
              "type": "bool"
            },
            {
              "internalType": "bool",
              "name": "transported",
              "type": "bool"
            },
            {
              "internalType": "bool",
              "name": "recieved",
              "type": "bool"
            }
          ],
          "internalType": "struct Schain.OrderItem[]",
          "name": "",
          "type": "tuple[]"
        }
      ],
      "stateMutability": "view",
      "type": "function"
    },
    {
      "inputs": [],
      "name": "fetchOrdersProduced",
      "outputs": [
        {
          "components": [
            {
              "internalType": "uint256",
              "name": "id",
              "type": "uint256"
            },
            {
              "internalType": "address",
              "name": "owner",
              "type": "address"
            },
            {
              "internalType": "string",
              "name": "product",
              "type": "string"
            },
            {
              "internalType": "uint256",
              "name": "quantity",
              "type": "uint256"
            },
            {
              "internalType": "uint256",
              "name": "orderdate",
              "type": "uint256"
            },
            {
              "internalType": "uint256",
              "name": "price",
              "type": "uint256"
            },
            {
              "internalType": "string",
              "name": "addressLine",
              "type": "string"
            },
            {
              "internalType": "string",
              "name": "contact",
              "type": "string"
            },
            {
              "internalType": "string",
              "name": "city",
              "type": "string"
            },
            {
              "internalType": "string",
              "name": "review",
              "type": "string"
            },
            {
              "internalType": "string",
              "name": "zipcode",
              "type": "string"
            },
            {
              "internalType": "string",
              "name": "state",
              "type": "string"
            },
            {
              "internalType": "uint256",
              "name": "recievedate",
              "type": "uint256"
            },
            {
              "internalType": "uint256",
              "name": "confirmdate",
              "type": "uint256"
            },
            {
              "internalType": "uint256",
              "name": "producedate",
              "type": "uint256"
            },
            {
              "internalType": "uint256",
              "name": "testdate",
              "type": "uint256"
            },
            {
              "internalType": "uint256",
              "name": "transportdate",
              "type": "uint256"
            },
            {
              "internalType": "bool",
              "name": "pending",
              "type": "bool"
            },
            {
              "internalType": "bool",
              "name": "returned",
              "type": "bool"
            },
            {
              "internalType": "bool",
              "name": "confirmed",
              "type": "bool"
            },
            {
              "internalType": "bool",
              "name": "produced",
              "type": "bool"
            },
            {
              "internalType": "bool",
              "name": "tested",
              "type": "bool"
            },
            {
              "internalType": "bool",
              "name": "transported",
              "type": "bool"
            },
            {
              "internalType": "bool",
              "name": "recieved",
              "type": "bool"
            }
          ],
          "internalType": "struct Schain.OrderItem[]",
          "name": "",
          "type": "tuple[]"
        }
      ],
      "stateMutability": "view",
      "type": "function"
    },
    {
      "inputs": [],
      "name": "fetchOrdersTested",
      "outputs": [
        {
          "components": [
            {
              "internalType": "uint256",
              "name": "id",
              "type": "uint256"
            },
            {
              "internalType": "address",
              "name": "owner",
              "type": "address"
            },
            {
              "internalType": "string",
              "name": "product",
              "type": "string"
            },
            {
              "internalType": "uint256",
              "name": "quantity",
              "type": "uint256"
            },
            {
              "internalType": "uint256",
              "name": "orderdate",
              "type": "uint256"
            },
            {
              "internalType": "uint256",
              "name": "price",
              "type": "uint256"
            },
            {
              "internalType": "string",
              "name": "addressLine",
              "type": "string"
            },
            {
              "internalType": "string",
              "name": "contact",
              "type": "string"
            },
            {
              "internalType": "string",
              "name": "city",
              "type": "string"
            },
            {
              "internalType": "string",
              "name": "review",
              "type": "string"
            },
            {
              "internalType": "string",
              "name": "zipcode",
              "type": "string"
            },
            {
              "internalType": "string",
              "name": "state",
              "type": "string"
            },
            {
              "internalType": "uint256",
              "name": "recievedate",
              "type": "uint256"
            },
            {
              "internalType": "uint256",
              "name": "confirmdate",
              "type": "uint256"
            },
            {
              "internalType": "uint256",
              "name": "producedate",
              "type": "uint256"
            },
            {
              "internalType": "uint256",
              "name": "testdate",
              "type": "uint256"
            },
            {
              "internalType": "uint256",
              "name": "transportdate",
              "type": "uint256"
            },
            {
              "internalType": "bool",
              "name": "pending",
              "type": "bool"
            },
            {
              "internalType": "bool",
              "name": "returned",
              "type": "bool"
            },
            {
              "internalType": "bool",
              "name": "confirmed",
              "type": "bool"
            },
            {
              "internalType": "bool",
              "name": "produced",
              "type": "bool"
            },
            {
              "internalType": "bool",
              "name": "tested",
              "type": "bool"
            },
            {
              "internalType": "bool",
              "name": "transported",
              "type": "bool"
            },
            {
              "internalType": "bool",
              "name": "recieved",
              "type": "bool"
            }
          ],
          "internalType": "struct Schain.OrderItem[]",
          "name": "",
          "type": "tuple[]"
        }
      ],
      "stateMutability": "view",
      "type": "function"
    },
    {
      "inputs": [],
      "name": "fetchOrdersTransported",
      "outputs": [
        {
          "components": [
            {
              "internalType": "uint256",
              "name": "id",
              "type": "uint256"
            },
            {
              "internalType": "address",
              "name": "owner",
              "type": "address"
            },
            {
              "internalType": "string",
              "name": "product",
              "type": "string"
            },
            {
              "internalType": "uint256",
              "name": "quantity",
              "type": "uint256"
            },
            {
              "internalType": "uint256",
              "name": "orderdate",
              "type": "uint256"
            },
            {
              "internalType": "uint256",
              "name": "price",
              "type": "uint256"
            },
            {
              "internalType": "string",
              "name": "addressLine",
              "type": "string"
            },
            {
              "internalType": "string",
              "name": "contact",
              "type": "string"
            },
            {
              "internalType": "string",
              "name": "city",
              "type": "string"
            },
            {
              "internalType": "string",
              "name": "review",
              "type": "string"
            },
            {
              "internalType": "string",
              "name": "zipcode",
              "type": "string"
            },
            {
              "internalType": "string",
              "name": "state",
              "type": "string"
            },
            {
              "internalType": "uint256",
              "name": "recievedate",
              "type": "uint256"
            },
            {
              "internalType": "uint256",
              "name": "confirmdate",
              "type": "uint256"
            },
            {
              "internalType": "uint256",
              "name": "producedate",
              "type": "uint256"
            },
            {
              "internalType": "uint256",
              "name": "testdate",
              "type": "uint256"
            },
            {
              "internalType": "uint256",
              "name": "transportdate",
              "type": "uint256"
            },
            {
              "internalType": "bool",
              "name": "pending",
              "type": "bool"
            },
            {
              "internalType": "bool",
              "name": "returned",
              "type": "bool"
            },
            {
              "internalType": "bool",
              "name": "confirmed",
              "type": "bool"
            },
            {
              "internalType": "bool",
              "name": "produced",
              "type": "bool"
            },
            {
              "internalType": "bool",
              "name": "tested",
              "type": "bool"
            },
            {
              "internalType": "bool",
              "name": "transported",
              "type": "bool"
            },
            {
              "internalType": "bool",
              "name": "recieved",
              "type": "bool"
            }
          ],
          "internalType": "struct Schain.OrderItem[]",
          "name": "",
          "type": "tuple[]"
        }
      ],
      "stateMutability": "view",
      "type": "function"
    },
    {
      "inputs": [],
      "name": "fetchProductItems",
      "outputs": [
        {
          "components": [
            {
              "internalType": "uint256",
              "name": "id",
              "type": "uint256"
            },
            {
              "internalType": "string",
              "name": "name",
              "type": "string"
            },
            {
              "internalType": "uint256",
              "name": "price",
              "type": "uint256"
            },
            {
              "internalType": "string",
              "name": "hash",
              "type": "string"
            }
          ],
          "internalType": "struct Schain.ProductItem[]",
          "name": "",
          "type": "tuple[]"
        }
      ],
      "stateMutability": "view",
      "type": "function"
    },
    {
      "inputs": [],
      "name": "getEthUsd",
      "outputs": [
        {
          "internalType": "uint256",
          "name": "",
          "type": "uint256"
        }
      ],
      "stateMutability": "view",
      "type": "function"
    },
    {
      "inputs": [
        {
          "internalType": "uint256",
          "name": "",
          "type": "uint256"
        }
      ],
      "name": "idToProductItem",
      "outputs": [
        {
          "internalType": "uint256",
          "name": "id",
          "type": "uint256"
        },
        {
          "internalType": "string",
          "name": "name",
          "type": "string"
        },
        {
          "internalType": "uint256",
          "name": "price",
          "type": "uint256"
        },
        {
          "internalType": "string",
          "name": "hash",
          "type": "string"
        }
      ],
      "stateMutability": "view",
      "type": "function"
    },
    {
      "inputs": [],
      "name": "ordersCount",
      "outputs": [
        {
          "internalType": "uint256",
          "name": "",
          "type": "uint256"
        }
      ],
      "stateMutability": "view",
      "type": "function"
    },
    {
      "inputs": [
        {
          "internalType": "uint256",
          "name": "_id",
          "type": "uint256"
        },
        {
          "internalType": "string",
          "name": "_role",
          "type": "string"
        }
      ],
      "name": "produceOrder",
      "outputs": [],
      "stateMutability": "nonpayable",
      "type": "function"
    },
    {
      "inputs": [],
      "name": "productCount",
      "outputs": [
        {
          "internalType": "uint256",
          "name": "",
          "type": "uint256"
        }
      ],
      "stateMutability": "view",
      "type": "function"
    },
    {
      "inputs": [
        {
          "internalType": "uint256",
          "name": "_id",
          "type": "uint256"
        }
      ],
      "name": "receiveOrder",
      "outputs": [],
      "stateMutability": "nonpayable",
      "type": "function"
    },
    {
      "inputs": [
        {
          "internalType": "uint256",
          "name": "_id",
          "type": "uint256"
        }
      ],
      "name": "returnOrder",
      "outputs": [],
      "stateMutability": "nonpayable",
      "type": "function"
    },
    {
      "inputs": [
        {
          "internalType": "uint256",
          "name": "_id",
          "type": "uint256"
        },
        {
          "internalType": "string",
          "name": "_role",
          "type": "string"
        }
      ],
      "name": "testOrder",
      "outputs": [],
      "stateMutability": "nonpayable",
      "type": "function"
    },
    {
      "inputs": [
        {
          "internalType": "uint256",
          "name": "_id",
          "type": "uint256"
        },
        {
          "internalType": "string",
          "name": "_role",
          "type": "string"
        }
      ],
      "name": "transportOrder",
      "outputs": [],
      "stateMutability": "nonpayable",
      "type": "function"
    },
    {
      "inputs": [],
      "name": "usersCount",
      "outputs": [
        {
          "internalType": "uint256",
          "name": "",
          "type": "uint256"
        }
      ],
      "stateMutability": "view",
      "type": "function"
    },
    {
      "inputs": [
        {
          "internalType": "string",
          "name": "_role",
          "type": "string"
        },
        {
          "internalType": "address",
          "name": "_roleaddress",
          "type": "address"
        }
      ],
      "name": "validateRole",
      "outputs": [
        {
          "internalType": "bool",
          "name": "",
          "type": "bool"
        }
      ],
      "stateMutability": "view",
      "type": "function"
    }
  ],
  "bytecode": "0x6080604052600060045560006005556000600655600060075534801561002457600080fd5b50600880546001600160a01b0319908116331790915560008054909116739326bfa02add2366b30bacb125260af64103133117905561545f806100686000396000f3fe6080604052600436106101665760003560e01c80638f29695a116100d1578063c8e45a6b1161008a578063e0f6ef8711610064578063e0f6ef87146103b9578063eaa44a42146103cf578063ec3364e4146103e4578063ff1151d91461041457600080fd5b8063c8e45a6b14610359578063d1e002fe14610379578063df7128851461039957600080fd5b80638f29695a146102c75780639534b3bf146102da57806397bab12f146102fa5780639fe2a7f41461031a578063bb27e0ce1461032f578063bbb033581461034457600080fd5b80633d644327116101235780633d644327146102365780636038821a1461024b5780636735b3a71461026b5780636ba13a821461027e578063780d27b1146102945780638683c612146102b457600080fd5b80630500418b1461016b5780630e55f29b14610196578063191b9351146101c65780631ca107fe146101db5780632775bbc0146101fd57806335daa73114610212575b600080fd5b34801561017757600080fd5b50610180610436565b60405161018d919061500a565b60405180910390f35b3480156101a257600080fd5b506101b66101b1366004614d5c565b610aa4565b604051901515815260200161018d565b3480156101d257600080fd5b50610180610af4565b3480156101e757600080fd5b506101fb6101f6366004614f2f565b611153565b005b34801561020957600080fd5b506101806114c7565b34801561021e57600080fd5b5061022860055481565b60405190815260200161018d565b34801561024257600080fd5b50610180611c6e565b34801561025757600080fd5b506101fb610266366004614f2f565b612248565b6101fb610279366004614d5c565b6122ec565b34801561028a57600080fd5b5061022860045481565b3480156102a057600080fd5b506101fb6102af366004614f17565b612396565b6101fb6102c2366004614e1f565b612630565b6101fb6102d5366004614db6565b612866565b3480156102e657600080fd5b506102286102f5366004614f17565b6129ae565b34801561030657600080fd5b506101fb610315366004614f17565b6129dd565b34801561032657600080fd5b50610180612a67565b34801561033b57600080fd5b5061022861321e565b34801561035057600080fd5b506101806132b0565b34801561036557600080fd5b506101fb610374366004614f2f565b613a83565b34801561038557600080fd5b506101fb610394366004614f2f565b613c12565b3480156103a557600080fd5b506101fb6103b4366004614f2f565b613d64565b3480156103c557600080fd5b5061022860075481565b3480156103db57600080fd5b50610180613eb8565b3480156103f057600080fd5b506104046103ff366004614f17565b61467d565b60405161018d94939291906152e4565b34801561042057600080fd5b506104296147b6565b60405161018d91906151ee565b600554606090600080805b8381101561049c573360026000610459846001615320565b81526020810191909152604001600020600101546001600160a01b0316141561048a57610487600184615320565b92505b80610494816153e2565b915050610441565b506000826001600160401b038111156104c557634e487b7160e01b600052604160045260246000fd5b6040519080825280602002602001820160405280156104fe57816020015b6104eb614adb565b8152602001906001900390816104e35790505b50905060005b84811015610a9b57336002600061051c846001615320565b81526020810191909152604001600020600101546001600160a01b03161415610a8957600061054c826001615320565b6000818152600260208181526040928390208351610300810185528154815260018201546001600160a01b03169281019290925291820180549495509193909284929084019161059b906153a7565b80601f01602080910402602001604051908101604052809291908181526020018280546105c7906153a7565b80156106145780601f106105e957610100808354040283529160200191610614565b820191906000526020600020905b8154815290600101906020018083116105f757829003601f168201915b5050505050815260200160038201548152602001600482015481526020016005820154815260200160068201805461064b906153a7565b80601f0160208091040260200160405190810160405280929190818152602001828054610677906153a7565b80156106c45780601f10610699576101008083540402835291602001916106c4565b820191906000526020600020905b8154815290600101906020018083116106a757829003601f168201915b505050505081526020016007820180546106dd906153a7565b80601f0160208091040260200160405190810160405280929190818152602001828054610709906153a7565b80156107565780601f1061072b57610100808354040283529160200191610756565b820191906000526020600020905b81548152906001019060200180831161073957829003601f168201915b5050505050815260200160088201805461076f906153a7565b80601f016020809104026020016040519081016040528092919081815260200182805461079b906153a7565b80156107e85780601f106107bd576101008083540402835291602001916107e8565b820191906000526020600020905b8154815290600101906020018083116107cb57829003601f168201915b50505050508152602001600982018054610801906153a7565b80601f016020809104026020016040519081016040528092919081815260200182805461082d906153a7565b801561087a5780601f1061084f5761010080835404028352916020019161087a565b820191906000526020600020905b81548152906001019060200180831161085d57829003601f168201915b50505050508152602001600a82018054610893906153a7565b80601f01602080910402602001604051908101604052809291908181526020018280546108bf906153a7565b801561090c5780601f106108e15761010080835404028352916020019161090c565b820191906000526020600020905b8154815290600101906020018083116108ef57829003601f168201915b50505050508152602001600b82018054610925906153a7565b80601f0160208091040260200160405190810160405280929190818152602001828054610951906153a7565b801561099e5780601f106109735761010080835404028352916020019161099e565b820191906000526020600020905b81548152906001019060200180831161098157829003601f168201915b5050509183525050600c8201546020820152600d8201546040820152600e8201546060820152600f8201546080820152601082015460a082015260119091015460ff808216151560c08401526101008083048216151560e085015262010000830482161515908401526301000000820481161515610120840152600160201b820481161515610140840152600160281b820481161515610160840152600160301b909104161515610180909101528451859087908110610a6e57634e487b7160e01b600052603260045260246000fd5b6020908102919091010152610a84600186615320565b945050505b80610a93816153e2565b915050610504565b50949350505050565b6000816001600160a01b0316600184604051610ac09190614fee565b908152604051908190036020019020600201546001600160a01b03161415610aea57506001610aee565b5060005b92915050565b600554606090600080805b83811015610b2657610b12600184615320565b925080610b1e816153e2565b915050610aff565b506000826001600160401b03811115610b4f57634e487b7160e01b600052604160045260246000fd5b604051908082528060200260200182016040528015610b8857816020015b610b75614adb565b815260200190600190039081610b6d5790505b50905060005b84811015610a9b5760026000610ba5836001615320565b8152602081019190915260400160009081206001908101546001600160a01b031691600291610bd5908590615320565b81526020810191909152604001600020600101546001600160a01b031614611141576000610c04826001615320565b6000818152600260208181526040928390208351610300810185528154815260018201546001600160a01b031692810192909252918201805494955091939092849290840191610c53906153a7565b80601f0160208091040260200160405190810160405280929190818152602001828054610c7f906153a7565b8015610ccc5780601f10610ca157610100808354040283529160200191610ccc565b820191906000526020600020905b815481529060010190602001808311610caf57829003601f168201915b50505050508152602001600382015481526020016004820154815260200160058201548152602001600682018054610d03906153a7565b80601f0160208091040260200160405190810160405280929190818152602001828054610d2f906153a7565b8015610d7c5780601f10610d5157610100808354040283529160200191610d7c565b820191906000526020600020905b815481529060010190602001808311610d5f57829003601f168201915b50505050508152602001600782018054610d95906153a7565b80601f0160208091040260200160405190810160405280929190818152602001828054610dc1906153a7565b8015610e0e5780601f10610de357610100808354040283529160200191610e0e565b820191906000526020600020905b815481529060010190602001808311610df157829003601f168201915b50505050508152602001600882018054610e27906153a7565b80601f0160208091040260200160405190810160405280929190818152602001828054610e53906153a7565b8015610ea05780601f10610e7557610100808354040283529160200191610ea0565b820191906000526020600020905b815481529060010190602001808311610e8357829003601f168201915b50505050508152602001600982018054610eb9906153a7565b80601f0160208091040260200160405190810160405280929190818152602001828054610ee5906153a7565b8015610f325780601f10610f0757610100808354040283529160200191610f32565b820191906000526020600020905b815481529060010190602001808311610f1557829003601f168201915b50505050508152602001600a82018054610f4b906153a7565b80601f0160208091040260200160405190810160405280929190818152602001828054610f77906153a7565b8015610fc45780601f10610f9957610100808354040283529160200191610fc4565b820191906000526020600020905b815481529060010190602001808311610fa757829003601f168201915b50505050508152602001600b82018054610fdd906153a7565b80601f0160208091040260200160405190810160405280929190818152602001828054611009906153a7565b80156110565780601f1061102b57610100808354040283529160200191611056565b820191906000526020600020905b81548152906001019060200180831161103957829003601f168201915b5050509183525050600c8201546020820152600d8201546040820152600e8201546060820152600f8201546080820152601082015460a082015260119091015460ff808216151560c08401526101008083048216151560e085015262010000830482161515908401526301000000820481161515610120840152600160201b820481161515610140840152600160281b820481161515610160840152600160301b90910416151561018090910152845185908790811061112657634e487b7160e01b600052603260045260246000fd5b602090810291909101015261113c600186615320565b945050505b8061114b816153e2565b915050610b8e565b60008211801561116557506005548211155b61118a5760405162461bcd60e51b8152600401611181906152b8565b60405180910390fd5b336001600160a01b03166001826040516111a49190614fee565b908152604051908190036020019020600201546001600160a01b0316146112215760405162461bcd60e51b815260206004820152602b60248201527f596f7520646f6e742068617665207065726d697373696f6e20746f207472616e60448201526a39b837b93a1037b93232b960a91b6064820152608401611181565b60008281526002602052604090206011810154600160281b900460ff161561124857600080fd5b60118101805465ff00000000001916600160281b17905542601082015560008381526002602081905260409091208254815560018381015490820180546001600160a01b0319166001600160a01b0390921691909117905581830180548493830191906112b4906153a7565b6112bf929190614ba7565b5060038201548160030155600482015481600401556005820154816005015560068201816006019080546112f2906153a7565b6112fd929190614ba7565b506007820181600701908054611312906153a7565b61131d929190614ba7565b506008820181600801908054611332906153a7565b61133d929190614ba7565b506009820181600901908054611352906153a7565b61135d929190614ba7565b50600a820181600a01908054611372906153a7565b61137d929190614ba7565b50600b820181600b01908054611392906153a7565b61139d929190614ba7565b50600c8281015490820155600d8083015490820155600e8083015490820155600f8083015490820155601080830154908201556011918201805492909101805460ff938416151560ff19821681178355835461010090819004861615150261ff001990911661ffff19909216919091171780825582546201000090819004851615150262ff0000198216811783558354630100000090819004861615150263ff0000001990911663ffff00001990921691909117178082558254600160201b90819004851615150264ff00000000198216811783558354600160281b90819004861615150265ff00000000001990911665ffff000000001990921691909117178082559154600160301b90819004909316151590920266ff00000000000019909116179055505050565b600554606090600080805b838110156115ce57600260006114e9836001615320565b815260208101919091526040016000206011015462010000900460ff1615801561153d57506002600061151d836001615320565b81526020810191909152604001600020601101546301000000900460ff16155b8015611573575060026000611553836001615320565b8152602081019190915260400160002060110154600160201b900460ff16155b80156115a9575060026000611589836001615320565b8152602081019190915260400160002060110154600160281b900460ff16155b156115bc576115b9600184615320565b92505b806115c6816153e2565b9150506114d2565b506000826001600160401b038111156115f757634e487b7160e01b600052604160045260246000fd5b60405190808252806020026020018201604052801561163057816020015b61161d614adb565b8152602001906001900390816116155790505b50905060005b84811015610a9b576002600061164d836001615320565b815260208101919091526040016000206011015462010000900460ff161580156116a1575060026000611681836001615320565b81526020810191909152604001600020601101546301000000900460ff16155b80156116d75750600260006116b7836001615320565b8152602081019190915260400160002060110154600160201b900460ff16155b801561170d5750600260006116ed836001615320565b8152602081019190915260400160002060110154600160281b900460ff16155b15611c5c57600061171f826001615320565b6000818152600260208181526040928390208351610300810185528154815260018201546001600160a01b03169281019290925291820180549495509193909284929084019161176e906153a7565b80601f016020809104026020016040519081016040528092919081815260200182805461179a906153a7565b80156117e75780601f106117bc576101008083540402835291602001916117e7565b820191906000526020600020905b8154815290600101906020018083116117ca57829003601f168201915b5050505050815260200160038201548152602001600482015481526020016005820154815260200160068201805461181e906153a7565b80601f016020809104026020016040519081016040528092919081815260200182805461184a906153a7565b80156118975780601f1061186c57610100808354040283529160200191611897565b820191906000526020600020905b81548152906001019060200180831161187a57829003601f168201915b505050505081526020016007820180546118b0906153a7565b80601f01602080910402602001604051908101604052809291908181526020018280546118dc906153a7565b80156119295780601f106118fe57610100808354040283529160200191611929565b820191906000526020600020905b81548152906001019060200180831161190c57829003601f168201915b50505050508152602001600882018054611942906153a7565b80601f016020809104026020016040519081016040528092919081815260200182805461196e906153a7565b80156119bb5780601f10611990576101008083540402835291602001916119bb565b820191906000526020600020905b81548152906001019060200180831161199e57829003601f168201915b505050505081526020016009820180546119d4906153a7565b80601f0160208091040260200160405190810160405280929190818152602001828054611a00906153a7565b8015611a4d5780601f10611a2257610100808354040283529160200191611a4d565b820191906000526020600020905b815481529060010190602001808311611a3057829003601f168201915b50505050508152602001600a82018054611a66906153a7565b80601f0160208091040260200160405190810160405280929190818152602001828054611a92906153a7565b8015611adf5780601f10611ab457610100808354040283529160200191611adf565b820191906000526020600020905b815481529060010190602001808311611ac257829003601f168201915b50505050508152602001600b82018054611af8906153a7565b80601f0160208091040260200160405190810160405280929190818152602001828054611b24906153a7565b8015611b715780601f10611b4657610100808354040283529160200191611b71565b820191906000526020600020905b815481529060010190602001808311611b5457829003601f168201915b5050509183525050600c8201546020820152600d8201546040820152600e8201546060820152600f8201546080820152601082015460a082015260119091015460ff808216151560c08401526101008083048216151560e085015262010000830482161515908401526301000000820481161515610120840152600160201b820481161515610140840152600160281b820481161515610160840152600160301b909104161515610180909101528451859087908110611c4157634e487b7160e01b600052603260045260246000fd5b6020908102919091010152611c57600186615320565b945050505b80611c66816153e2565b915050611636565b600554606090600080826001600160401b03811115611c9d57634e487b7160e01b600052604160045260246000fd5b604051908082528060200260200182016040528015611cd657816020015b611cc3614adb565b815260200190600190039081611cbb5790505b50905060005b83811015612240576000611cf1826001615320565b6000818152600260208181526040928390208351610300810185528154815260018201546001600160a01b031692810192909252918201805494955091939092849290840191611d40906153a7565b80601f0160208091040260200160405190810160405280929190818152602001828054611d6c906153a7565b8015611db95780601f10611d8e57610100808354040283529160200191611db9565b820191906000526020600020905b815481529060010190602001808311611d9c57829003601f168201915b50505050508152602001600382015481526020016004820154815260200160058201548152602001600682018054611df0906153a7565b80601f0160208091040260200160405190810160405280929190818152602001828054611e1c906153a7565b8015611e695780601f10611e3e57610100808354040283529160200191611e69565b820191906000526020600020905b815481529060010190602001808311611e4c57829003601f168201915b50505050508152602001600782018054611e82906153a7565b80601f0160208091040260200160405190810160405280929190818152602001828054611eae906153a7565b8015611efb5780601f10611ed057610100808354040283529160200191611efb565b820191906000526020600020905b815481529060010190602001808311611ede57829003601f168201915b50505050508152602001600882018054611f14906153a7565b80601f0160208091040260200160405190810160405280929190818152602001828054611f40906153a7565b8015611f8d5780601f10611f6257610100808354040283529160200191611f8d565b820191906000526020600020905b815481529060010190602001808311611f7057829003601f168201915b50505050508152602001600982018054611fa6906153a7565b80601f0160208091040260200160405190810160405280929190818152602001828054611fd2906153a7565b801561201f5780601f10611ff45761010080835404028352916020019161201f565b820191906000526020600020905b81548152906001019060200180831161200257829003601f168201915b50505050508152602001600a82018054612038906153a7565b80601f0160208091040260200160405190810160405280929190818152602001828054612064906153a7565b80156120b15780601f10612086576101008083540402835291602001916120b1565b820191906000526020600020905b81548152906001019060200180831161209457829003601f168201915b50505050508152602001600b820180546120ca906153a7565b80601f01602080910402602001604051908101604052809291908181526020018280546120f6906153a7565b80156121435780601f1061211857610100808354040283529160200191612143565b820191906000526020600020905b81548152906001019060200180831161212657829003601f168201915b5050509183525050600c8201546020820152600d8201546040820152600e8201546060820152600f8201546080820152601082015460a082015260119091015460ff808216151560c08401526101008083048216151560e085015262010000830482161515908401526301000000820481161515610120840152600160201b820481161515610140840152600160281b820481161515610160840152600160301b90910416151561018090910152845185908790811061221357634e487b7160e01b600052603260045260246000fd5b6020908102919091010152612229600186615320565b945050508080612238906153e2565b915050611cdc565b509392505050565b60008211801561225a57506005548211155b6122765760405162461bcd60e51b8152600401611181906152b8565b60008281526002602090815260409091208251909161229c916009840191850190614c2e565b5060008381526002602081905260409091208254815560018084015490820180546001600160a01b0319166001600160a01b0390921691909117905581830180548493830191906112b4906153a7565b60006001836040516122fe9190614fee565b90815260405190819003602001902060068054919250600061231f836153e2565b909155505082516123399060018301906020860190614c2e565b506002810180546001600160a01b0319166001600160a01b0384161790556040517f39424c9407ac30223629511a00efdeb9175e3d425784e26c07c28265dd69ceab90612389908590859061528e565b60405180910390a1505050565b6000811180156123a857506005548111155b6123c45760405162461bcd60e51b8152600401611181906152b8565b600081815260026020819052604090912060118101805466ffffffffffff0019166101001790556001810180546001600160a01b031981166001600160a01b03909116179055908101805482918291819061241e906153a7565b612429929190614ba7565b50600382015481600301556004820154816004015560058201548160050155600682018160060190805461245c906153a7565b612467929190614ba7565b50600782018160070190805461247c906153a7565b612487929190614ba7565b50600882018160080190805461249c906153a7565b6124a7929190614ba7565b5060098201816009019080546124bc906153a7565b6124c7929190614ba7565b50600a820181600a019080546124dc906153a7565b6124e7929190614ba7565b50600b820181600b019080546124fc906153a7565b612507929190614ba7565b50600c8281015490820155600d8083015490820155600e8083015490820155600f8083015490820155601080830154908201556011918201805492909101805460ff938416151560ff19821681178355835461010090819004861615150261ff001990911661ffff19909216919091171780825582546201000090819004851615150262ff0000198216811783558354630100000090819004861615150263ff0000001990911663ffff00001990921691909117178082558254600160201b90819004851615150264ff00000000198216811783558354600160281b90819004861615150265ff00000000001990911665ffff000000001990921691909117178082559154600160301b90819004909316151590920266ff000000000000199091161790555050565b600034116126805760405162461bcd60e51b815260206004820152601c60248201527f5072696365206d757374206265206174206c65617374203120776569000000006044820152606401611181565b600086116126d05760405162461bcd60e51b815260206004820152601f60248201527f7175616e74697479206d7573742062652067726561746572207468616e2030006044820152606401611181565b336126da57600080fd5b600580549060006126ea836153e2565b9091555050600480549060006126ff836153e2565b9091555050600554600090815260026020526040808220600854915190926001600160a01b039092169182913480156108fc0292909190818181858888f19350505050158015612753573d6000803e3d6000fd5b5060055482556001820180546001600160a01b03191633179055885161278290600284019060208c0190614c2e565b506003820188905542600483015534600583015586516127ab90600684019060208a0190614c2e565b5085516127c19060078401906020890190614c2e565b5084516127d79060088401906020880190614c2e565b506040805160208101918290526000908190526127f8916009850191614c2e565b50835161280e90600a8401906020870190614c2e565b50825161282490600b8401906020860190614c2e565b50506000600c8201819055600e8201819055600d8201819055600f82018190556010820155601101805466ffffffffffffff1916600117905550505050505050565b60008351116128b05760405162461bcd60e51b8152602060048201526016602482015275125b5859d9481b985b59481a5cc81c995c5d5a5c995960521b6044820152606401611181565b60008151116128fa5760405162461bcd60e51b8152602060048201526016602482015275125b5859d94812185cda081a5cc81c995c5d5a5c995960521b6044820152606401611181565b6000821161294a5760405162461bcd60e51b815260206004820152601a60248201527f20496d6167652070726963652073686f756c646e7420626520300000000000006044820152606401611181565b6007805490600061295a836153e2565b90915550506007546000818152600360209081526040909120918255845161298a91600184019190870190614c2e565b506002810183905581516129a79060038301906020850190614c2e565b5050505050565b6000806129b961321e565b90506129d6816129d085662386f26fc10000614a06565b90614a12565b9392505050565b6000811180156129ef57506005548111155b612a0b5760405162461bcd60e51b8152600401611181906152b8565b600081815260026020819052604090912060118101805466ff0000000000ff1916600160301b1790556001810180546001600160a01b031981166001600160a01b03909116179055908101805482918291819061241e906153a7565b600554606090600080805b83811015612b765760026000612a89836001615320565b815260200190815260200160002060110160029054906101000a900460ff16151560011515148015612ae5575060026000612ac5836001615320565b81526020810191909152604001600020601101546301000000900460ff16155b8015612b1b575060026000612afb836001615320565b8152602081019190915260400160002060110154600160201b900460ff16155b8015612b51575060026000612b31836001615320565b8152602081019190915260400160002060110154600160281b900460ff16155b15612b6457612b61600184615320565b92505b80612b6e816153e2565b915050612a72565b506000826001600160401b03811115612b9f57634e487b7160e01b600052604160045260246000fd5b604051908082528060200260200182016040528015612bd857816020015b612bc5614adb565b815260200190600190039081612bbd5790505b50905060005b84811015610a9b5760026000612bf5836001615320565b815260200190815260200160002060110160029054906101000a900460ff16151560011515148015612c51575060026000612c31836001615320565b81526020810191909152604001600020601101546301000000900460ff16155b8015612c87575060026000612c67836001615320565b8152602081019190915260400160002060110154600160201b900460ff16155b8015612cbd575060026000612c9d836001615320565b8152602081019190915260400160002060110154600160281b900460ff16155b1561320c576000612ccf826001615320565b6000818152600260208181526040928390208351610300810185528154815260018201546001600160a01b031692810192909252918201805494955091939092849290840191612d1e906153a7565b80601f0160208091040260200160405190810160405280929190818152602001828054612d4a906153a7565b8015612d975780601f10612d6c57610100808354040283529160200191612d97565b820191906000526020600020905b815481529060010190602001808311612d7a57829003601f168201915b50505050508152602001600382015481526020016004820154815260200160058201548152602001600682018054612dce906153a7565b80601f0160208091040260200160405190810160405280929190818152602001828054612dfa906153a7565b8015612e475780601f10612e1c57610100808354040283529160200191612e47565b820191906000526020600020905b815481529060010190602001808311612e2a57829003601f168201915b50505050508152602001600782018054612e60906153a7565b80601f0160208091040260200160405190810160405280929190818152602001828054612e8c906153a7565b8015612ed95780601f10612eae57610100808354040283529160200191612ed9565b820191906000526020600020905b815481529060010190602001808311612ebc57829003601f168201915b50505050508152602001600882018054612ef2906153a7565b80601f0160208091040260200160405190810160405280929190818152602001828054612f1e906153a7565b8015612f6b5780601f10612f4057610100808354040283529160200191612f6b565b820191906000526020600020905b815481529060010190602001808311612f4e57829003601f168201915b50505050508152602001600982018054612f84906153a7565b80601f0160208091040260200160405190810160405280929190818152602001828054612fb0906153a7565b8015612ffd5780601f10612fd257610100808354040283529160200191612ffd565b820191906000526020600020905b815481529060010190602001808311612fe057829003601f168201915b50505050508152602001600a82018054613016906153a7565b80601f0160208091040260200160405190810160405280929190818152602001828054613042906153a7565b801561308f5780601f106130645761010080835404028352916020019161308f565b820191906000526020600020905b81548152906001019060200180831161307257829003601f168201915b50505050508152602001600b820180546130a8906153a7565b80601f01602080910402602001604051908101604052809291908181526020018280546130d4906153a7565b80156131215780601f106130f657610100808354040283529160200191613121565b820191906000526020600020905b81548152906001019060200180831161310457829003601f168201915b5050509183525050600c8201546020820152600d8201546040820152600e8201546060820152600f8201546080820152601082015460a082015260119091015460ff808216151560c08401526101008083048216151560e085015262010000830482161515908401526301000000820481161515610120840152600160201b820481161515610140840152600160281b820481161515610160840152600160301b9091041615156101809091015284518590879081106131f157634e487b7160e01b600052603260045260246000fd5b6020908102919091010152613207600186615320565b945050505b80613216816153e2565b915050612bde565b6000805460408051633fabe5a360e21b8152905183926001600160a01b03169163feaf968c9160048083019260a0929190829003018186803b15801561326357600080fd5b505afa158015613277573d6000803e3d6000fd5b505050506040513d601f19601f8201168201806040525081019061329b9190614f73565b5050509150506132aa81614a1e565b91505090565b600554606090600080805b838110156133cd57600260006132d2836001615320565b815260200190815260200160002060110160029054906101000a900460ff1615156001151514801561333557506002600061330e836001615320565b815260200190815260200160002060110160039054906101000a900460ff16151560011515145b801561337257506002600061334b836001615320565b815260200190815260200160002060110160049054906101000a900460ff16151560011515145b80156133a8575060026000613388836001615320565b8152602081019190915260400160002060110154600160281b900460ff16155b156133bb576133b8600184615320565b92505b806133c5816153e2565b9150506132bb565b506000826001600160401b038111156133f657634e487b7160e01b600052604160045260246000fd5b60405190808252806020026020018201604052801561342f57816020015b61341c614adb565b8152602001906001900390816134145790505b50905060005b84811015610a9b576002600061344c836001615320565b815260200190815260200160002060110160029054906101000a900460ff161515600115151480156134af575060026000613488836001615320565b815260200190815260200160002060110160039054906101000a900460ff16151560011515145b80156134ec5750600260006134c5836001615320565b815260200190815260200160002060110160049054906101000a900460ff16151560011515145b8015613522575060026000613502836001615320565b8152602081019190915260400160002060110154600160281b900460ff16155b15613a71576000613534826001615320565b6000818152600260208181526040928390208351610300810185528154815260018201546001600160a01b031692810192909252918201805494955091939092849290840191613583906153a7565b80601f01602080910402602001604051908101604052809291908181526020018280546135af906153a7565b80156135fc5780601f106135d1576101008083540402835291602001916135fc565b820191906000526020600020905b8154815290600101906020018083116135df57829003601f168201915b50505050508152602001600382015481526020016004820154815260200160058201548152602001600682018054613633906153a7565b80601f016020809104026020016040519081016040528092919081815260200182805461365f906153a7565b80156136ac5780601f10613681576101008083540402835291602001916136ac565b820191906000526020600020905b81548152906001019060200180831161368f57829003601f168201915b505050505081526020016007820180546136c5906153a7565b80601f01602080910402602001604051908101604052809291908181526020018280546136f1906153a7565b801561373e5780601f106137135761010080835404028352916020019161373e565b820191906000526020600020905b81548152906001019060200180831161372157829003601f168201915b50505050508152602001600882018054613757906153a7565b80601f0160208091040260200160405190810160405280929190818152602001828054613783906153a7565b80156137d05780601f106137a5576101008083540402835291602001916137d0565b820191906000526020600020905b8154815290600101906020018083116137b357829003601f168201915b505050505081526020016009820180546137e9906153a7565b80601f0160208091040260200160405190810160405280929190818152602001828054613815906153a7565b80156138625780601f1061383757610100808354040283529160200191613862565b820191906000526020600020905b81548152906001019060200180831161384557829003601f168201915b50505050508152602001600a8201805461387b906153a7565b80601f01602080910402602001604051908101604052809291908181526020018280546138a7906153a7565b80156138f45780601f106138c9576101008083540402835291602001916138f4565b820191906000526020600020905b8154815290600101906020018083116138d757829003601f168201915b50505050508152602001600b8201805461390d906153a7565b80601f0160208091040260200160405190810160405280929190818152602001828054613939906153a7565b80156139865780601f1061395b57610100808354040283529160200191613986565b820191906000526020600020905b81548152906001019060200180831161396957829003601f168201915b5050509183525050600c8201546020820152600d8201546040820152600e8201546060820152600f8201546080820152601082015460a082015260119091015460ff808216151560c08401526101008083048216151560e085015262010000830482161515908401526301000000820481161515610120840152600160201b820481161515610140840152600160281b820481161515610160840152600160301b909104161515610180909101528451859087908110613a5657634e487b7160e01b600052603260045260246000fd5b6020908102919091010152613a6c600186615320565b945050505b80613a7b816153e2565b915050613435565b613ac16040518060400160405280601a81526020017f636f6e6669726d696e672e2e2e2e2e2e2e2e2e2e2e2e2e2e2e2e000000000000815250614a74565b600082118015613ad357506005548211155b613aef5760405162461bcd60e51b8152600401611181906152b8565b336001600160a01b0316600182604051613b099190614fee565b908152604051908190036020019020600201546001600160a01b031614613b845760405162461bcd60e51b815260206004820152602960248201527f596f7520646f6e742068617665207065726d697373696f6e20746f20636f6e6660448201526834b9369037b93232b960b91b6064820152608401611181565b6000828152600260205260409020601181015462010000900460ff1615613baa57600080fd5b60118101805462ff000019166201000017905542600d82015560008381526002602081905260409091208254815560018381015490820180546001600160a01b0319166001600160a01b0390921691909117905581830180548493830191906112b4906153a7565b600082118015613c2457506005548211155b613c405760405162461bcd60e51b8152600401611181906152b8565b336001600160a01b0316600182604051613c5a9190614fee565b908152604051908190036020019020600201546001600160a01b031614613cd25760405162461bcd60e51b815260206004820152602660248201527f596f7520646f6e742068617665207065726d697373696f6e20746f20746573746044820152651037b93232b960d11b6064820152608401611181565b60008281526002602052604090206011810154600160201b900460ff1615613cf957600080fd5b60118101805464ff000000001916600160201b17905542600f82015560008381526002602081905260409091208254815560018381015490820180546001600160a01b0319166001600160a01b0390921691909117905581830180548493830191906112b4906153a7565b600082118015613d7657506005548211155b613d925760405162461bcd60e51b8152600401611181906152b8565b336001600160a01b0316600182604051613dac9190614fee565b908152604051908190036020019020600201546001600160a01b031614613e275760405162461bcd60e51b815260206004820152602960248201527f596f7520646f6e742068617665207065726d697373696f6e20746f2070726f646044820152683ab1b29037b93232b960b91b6064820152608401611181565b600082815260026020526040902060118101546301000000900460ff1615613e4e57600080fd5b60118101805463ff0000001916630100000017905542600e82015560008381526002602081905260409091208254815560018381015490820180546001600160a01b0319166001600160a01b0390921691909117905581830180548493830191906112b4906153a7565b600554606090600080805b83811015613fce5760026000613eda836001615320565b815260200190815260200160002060110160029054906101000a900460ff16151560011515148015613f3d575060026000613f16836001615320565b815260200190815260200160002060110160039054906101000a900460ff16151560011515145b8015613f73575060026000613f53836001615320565b8152602081019190915260400160002060110154600160201b900460ff16155b8015613fa9575060026000613f89836001615320565b8152602081019190915260400160002060110154600160281b900460ff16155b15613fbc57613fb9600184615320565b92505b80613fc6816153e2565b915050613ec3565b506000826001600160401b03811115613ff757634e487b7160e01b600052604160045260246000fd5b60405190808252806020026020018201604052801561403057816020015b61401d614adb565b8152602001906001900390816140155790505b50905060005b84811015610a9b576002600061404d836001615320565b815260200190815260200160002060110160029054906101000a900460ff161515600115151480156140b0575060026000614089836001615320565b815260200190815260200160002060110160039054906101000a900460ff16151560011515145b80156140e65750600260006140c6836001615320565b8152602081019190915260400160002060110154600160201b900460ff16155b801561411c5750600260006140fc836001615320565b8152602081019190915260400160002060110154600160281b900460ff16155b1561466b57600061412e826001615320565b6000818152600260208181526040928390208351610300810185528154815260018201546001600160a01b03169281019290925291820180549495509193909284929084019161417d906153a7565b80601f01602080910402602001604051908101604052809291908181526020018280546141a9906153a7565b80156141f65780601f106141cb576101008083540402835291602001916141f6565b820191906000526020600020905b8154815290600101906020018083116141d957829003601f168201915b5050505050815260200160038201548152602001600482015481526020016005820154815260200160068201805461422d906153a7565b80601f0160208091040260200160405190810160405280929190818152602001828054614259906153a7565b80156142a65780601f1061427b576101008083540402835291602001916142a6565b820191906000526020600020905b81548152906001019060200180831161428957829003601f168201915b505050505081526020016007820180546142bf906153a7565b80601f01602080910402602001604051908101604052809291908181526020018280546142eb906153a7565b80156143385780601f1061430d57610100808354040283529160200191614338565b820191906000526020600020905b81548152906001019060200180831161431b57829003601f168201915b50505050508152602001600882018054614351906153a7565b80601f016020809104026020016040519081016040528092919081815260200182805461437d906153a7565b80156143ca5780601f1061439f576101008083540402835291602001916143ca565b820191906000526020600020905b8154815290600101906020018083116143ad57829003601f168201915b505050505081526020016009820180546143e3906153a7565b80601f016020809104026020016040519081016040528092919081815260200182805461440f906153a7565b801561445c5780601f106144315761010080835404028352916020019161445c565b820191906000526020600020905b81548152906001019060200180831161443f57829003601f168201915b50505050508152602001600a82018054614475906153a7565b80601f01602080910402602001604051908101604052809291908181526020018280546144a1906153a7565b80156144ee5780601f106144c3576101008083540402835291602001916144ee565b820191906000526020600020905b8154815290600101906020018083116144d157829003601f168201915b50505050508152602001600b82018054614507906153a7565b80601f0160208091040260200160405190810160405280929190818152602001828054614533906153a7565b80156145805780601f1061455557610100808354040283529160200191614580565b820191906000526020600020905b81548152906001019060200180831161456357829003601f168201915b5050509183525050600c8201546020820152600d8201546040820152600e8201546060820152600f8201546080820152601082015460a082015260119091015460ff808216151560c08401526101008083048216151560e085015262010000830482161515908401526301000000820481161515610120840152600160201b820481161515610140840152600160281b820481161515610160840152600160301b90910416151561018090910152845185908790811061465057634e487b7160e01b600052603260045260246000fd5b6020908102919091010152614666600186615320565b945050505b80614675816153e2565b915050614036565b6003602052600090815260409020805460018201805491929161469f906153a7565b80601f01602080910402602001604051908101604052809291908181526020018280546146cb906153a7565b80156147185780601f106146ed57610100808354040283529160200191614718565b820191906000526020600020905b8154815290600101906020018083116146fb57829003601f168201915b505050505090806002015490806003018054614733906153a7565b80601f016020809104026020016040519081016040528092919081815260200182805461475f906153a7565b80156147ac5780601f10614781576101008083540402835291602001916147ac565b820191906000526020600020905b81548152906001019060200180831161478f57829003601f168201915b5050505050905084565b600754606090600080826001600160401b038111156147e557634e487b7160e01b600052604160045260246000fd5b60405190808252806020026020018201604052801561484157816020015b61482e6040518060800160405280600081526020016060815260200160008152602001606081525090565b8152602001906001900390816148035790505b50905060005b8381101561224057600061485c826001615320565b90506000600360008381526020019081526020016000209050806040518060800160405290816000820154815260200160018201805461489b906153a7565b80601f01602080910402602001604051908101604052809291908181526020018280546148c7906153a7565b80156149145780601f106148e957610100808354040283529160200191614914565b820191906000526020600020905b8154815290600101906020018083116148f757829003601f168201915b5050505050815260200160028201548152602001600382018054614937906153a7565b80601f0160208091040260200160405190810160405280929190818152602001828054614963906153a7565b80156149b05780601f10614985576101008083540402835291602001916149b0565b820191906000526020600020905b81548152906001019060200180831161499357829003601f168201915b5050505050815250508486815181106149d957634e487b7160e01b600052603260045260246000fd5b60209081029190910101526149ef600186615320565b9450505080806149fe906153e2565b915050614847565b60006129d68284615358565b60006129d68284615338565b600080821215614a705760405162461bcd60e51b815260206004820181905260248201527f53616665436173743a2076616c7565206d75737420626520706f7369746976656044820152606401611181565b5090565b614ab781604051602401614a88919061527b565b60408051601f198184030181529190526020810180516001600160e01b031663104c13eb60e21b179052614aba565b50565b80516a636f6e736f6c652e6c6f67602083016000808483855afa5050505050565b6040518061030001604052806000815260200160006001600160a01b031681526020016060815260200160008152602001600081526020016000815260200160608152602001606081526020016060815260200160608152602001606081526020016060815260200160008152602001600081526020016000815260200160008152602001600081526020016000151581526020016000151581526020016000151581526020016000151581526020016000151581526020016000151581526020016000151581525090565b828054614bb3906153a7565b90600052602060002090601f016020900481019282614bd55760008555614c22565b82601f10614be65780548555614c22565b82800160010185558215614c2257600052602060002091601f016020900482015b82811115614c22578254825591600101919060010190614c07565b50614a70929150614ca2565b828054614c3a906153a7565b90600052602060002090601f016020900481019282614c5c5760008555614c22565b82601f10614c7557805160ff1916838001178555614c22565b82800160010185558215614c22579182015b82811115614c22578251825591602001919060010190614c87565b5b80821115614a705760008155600101614ca3565b600082601f830112614cc7578081fd5b81356001600160401b0380821115614ce157614ce1615413565b604051601f8301601f19908116603f01168101908282118183101715614d0957614d09615413565b81604052838152866020858801011115614d21578485fd5b8360208701602083013792830160200193909352509392505050565b805169ffffffffffffffffffff81168114614d5757600080fd5b919050565b60008060408385031215614d6e578182fd5b82356001600160401b03811115614d83578283fd5b614d8f85828601614cb7565b92505060208301356001600160a01b0381168114614dab578182fd5b809150509250929050565b600080600060608486031215614dca578081fd5b83356001600160401b0380821115614de0578283fd5b614dec87838801614cb7565b9450602086013593506040860135915080821115614e08578283fd5b50614e1586828701614cb7565b9150509250925092565b600080600080600080600060e0888a031215614e39578283fd5b87356001600160401b0380821115614e4f578485fd5b614e5b8b838c01614cb7565b985060208a0135975060408a0135915080821115614e77578485fd5b614e838b838c01614cb7565b965060608a0135915080821115614e98578485fd5b614ea48b838c01614cb7565b955060808a0135915080821115614eb9578485fd5b614ec58b838c01614cb7565b945060a08a0135915080821115614eda578384fd5b614ee68b838c01614cb7565b935060c08a0135915080821115614efb578283fd5b50614f088a828b01614cb7565b91505092959891949750929550565b600060208284031215614f28578081fd5b5035919050565b60008060408385031215614f41578182fd5b8235915060208301356001600160401b03811115614f5d578182fd5b614f6985828601614cb7565b9150509250929050565b600080600080600060a08688031215614f8a578081fd5b614f9386614d3d565b9450602086015193506040860151925060608601519150614fb660808701614d3d565b90509295509295909350565b60008151808452614fda816020860160208601615377565b601f01601f19169290920160200192915050565b60008251615000818460208701615377565b9190910192915050565b60006020808301818452808551808352604092508286019150828160051b870101848801865b838110156151e057603f19898403018552815180518452878101516001600160a01b031688850152868101516103008886018190529061507282870182614fc2565b606084810151908801526080808501519088015260a0808501519088015260c080850151888303828a015291935091506150ac8382614fc2565b9250505060e080830151868303828801526150c78382614fc2565b9250505061010080830151868303828801526150e38382614fc2565b9250505061012080830151868303828801526150ff8382614fc2565b92505050610140808301518683038288015261511b8382614fc2565b9250505061016080830151868303828801526151378382614fc2565b61018085810151908901526101a080860151908901526101c080860151908901526101e080860151908901526102008086015190890152610220808601511515908901526102408086015115159089015261026080860151151590890152610280808601511515908901526102a0808601511515908901526102c0808601511515908901526102e094850151151594909701939093525050509386019390860190600101615030565b509098975050505050505050565b60006020808301818452808551808352604092508286019150828160051b870101848801865b838110156151e057603f19898403018552815160808151855288820151818a87015261524282870182614fc2565b9150508782015188860152606080830151925085820381870152506152678183614fc2565b968901969450505090860190600101615214565b6020815260006129d66020830184614fc2565b6040815260006152a16040830185614fc2565b905060018060a01b03831660208301529392505050565b6020808252601290820152711bdc99195c881a59081b9bdd081d985b1a5960721b604082015260600190565b8481526080602082015260006152fd6080830186614fc2565b84604084015282810360608401526153158185614fc2565b979650505050505050565b60008219821115615333576153336153fd565b500190565b60008261535357634e487b7160e01b81526012600452602481fd5b500490565b6000816000190483118215151615615372576153726153fd565b500290565b60005b8381101561539257818101518382015260200161537a565b838111156153a1576000848401525b50505050565b600181811c908216806153bb57607f821691505b602082108114156153dc57634e487b7160e01b600052602260045260246000fd5b50919050565b60006000198214156153f6576153f66153fd565b5060010190565b634e487b7160e01b600052601160045260246000fd5b634e487b7160e01b600052604160045260246000fdfea2646970667358221220ce08f3da819e0a95997391da811638660fa750375e63624be26fe721a756ac6464736f6c63430008040033",
  "linkReferences": {},
  "deployedLinkReferences": {}
}